{
	"data": {
		"bytecode": {
			"linkReferences": {},
			"object": "60806040523480156200001157600080fd5b50336000806101000a81548173ffffffffffffffffffffffffffffffffffffffff021916908373ffffffffffffffffffffffffffffffffffffffff1602179055507321b7180b01de7f6029cd2bbf196008dd1acd8d70600b60006101000a81548173ffffffffffffffffffffffffffffffffffffffff021916908373ffffffffffffffffffffffffffffffffffffffff16021790555030600a60006101000a81548173ffffffffffffffffffffffffffffffffffffffff021916908373ffffffffffffffffffffffffffffffffffffffff1602179055506040518060400160405280600c81526020017f4e4f44455f435245415445440000000000000000000000000000000000000000815250600c90816200012e9190620003af565b5062000496565b600081519050919050565b7f4e487b7100000000000000000000000000000000000000000000000000000000600052604160045260246000fd5b7f4e487b7100000000000000000000000000000000000000000000000000000000600052602260045260246000fd5b60006002820490506001821680620001b757607f821691505b602082108103620001cd57620001cc6200016f565b5b50919050565b60008190508160005260206000209050919050565b60006020601f8301049050919050565b600082821b905092915050565b600060088302620002377fffffffffffffffffffffffffffffffffffffffffffffffffffffffffffffffff82620001f8565b620002438683620001f8565b95508019841693508086168417925050509392505050565b6000819050919050565b6000819050919050565b6000620002906200028a62000284846200025b565b62000265565b6200025b565b9050919050565b6000819050919050565b620002ac836200026f565b620002c4620002bb8262000297565b84845462000205565b825550505050565b600090565b620002db620002cc565b620002e8818484620002a1565b505050565b5b81811015620003105762000304600082620002d1565b600181019050620002ee565b5050565b601f8211156200035f576200032981620001d3565b6200033484620001e8565b8101602085101562000344578190505b6200035c6200035385620001e8565b830182620002ed565b50505b505050565b600082821c905092915050565b6000620003846000198460080262000364565b1980831691505092915050565b60006200039f838362000371565b9150826002028217905092915050565b620003ba8262000135565b67ffffffffffffffff811115620003d657620003d562000140565b5b620003e282546200019e565b620003ef82828562000314565b600060209050601f83116001811462000427576000841562000412578287015190505b6200041e858262000391565b8655506200048e565b601f1984166200043786620001d3565b60005b8281101562000461578489015182556001820191506020850194506020810190506200043a565b868310156200048157848901516200047d601f89168262000371565b8355505b6001600288020188555050505b505050505050565b61456c80620004a66000396000f3fe608060405234801561001057600080fd5b50600436106102475760003560e01c80638bf1799f1161013b578063c0befa53116100b8578063d849e94f1161007c578063d849e94f146106f0578063dab0177e146106fa578063dbe4418f14610704578063e4fc6b6d14610722578063ecd630431461072c57610247565b8063c0befa531461063c578063c692f73814610658578063d534cc0e14610674578063d65ec855146106a4578063d7ae335b146106c057610247565b80639ff1d787116100ff5780639ff1d7871461059a578063a0cd9ce8146105ca578063aa8f3075146105e6578063b12f97bb14610602578063b9657d131461062057610247565b80638bf1799f146104e25780638d78cd25146105005780638da5cb5b146105305780639018c8181461054e578063983080e51461056a57610247565b80633e83fe36116101c957806358ce37401161018d57806358ce37401461043c57806370019b351461045a5780637427a40c1461047857806377058418146104a85780638477d9f3146104c457610247565b80633e83fe361461039a5780634a9ae94a146103b85780634cc82215146103d457806350e78191146103f057806357a858fc1461040c57610247565b80631e1cf160116102105780631e1cf160146102f457806320a2f73514610324578063223668441461034257806322cc8155146103605780633b91d7851461036a57610247565b806252c6321461024c5780630d2baaa11461026a5780630f64dd1b1461028857806312958f1c146102b857806317377f68146102d6575b600080fd5b61025461074a565b60405161026191906132db565b60405180910390f35b610272610887565b60405161027f91906132db565b60405180910390f35b6102a2600480360381019061029d9190613457565b6109e3565b6040516102af91906134bb565b60405180910390f35b6102c0610a88565b6040516102cd9190613555565b60405180910390f35b6102de610ba8565b6040516102eb9190613683565b60405180910390f35b61030e600480360381019061030991906136d1565b610d56565b60405161031b9190613555565b60405180910390f35b61032c610df6565b60405161033991906132db565b60405180910390f35b61034a610e84565b60405161035791906134bb565b60405180910390f35b610368610f28565b005b610384600480360381019061037f9190613734565b6112d5565b6040516103919190613770565b60405180910390f35b6103a2611314565b6040516103af9190613683565b60405180910390f35b6103d260048036038101906103cd919061378b565b61147b565b005b6103ee60048036038101906103e99190613734565b61152f565b005b61040a60048036038101906104059190613825565b611625565b005b61042660048036038101906104219190613734565b61179c565b6040516104339190613555565b60405180910390f35b610444611848565b6040516104519190613555565b60405180910390f35b610462611968565b60405161046f9190613555565b60405180910390f35b610492600480360381019061048d9190613734565b6119f6565b60405161049f9190613770565b60405180910390f35b6104c260048036038101906104bd9190613457565b611a35565b005b6104cc611b2e565b6040516104d991906132db565b60405180910390f35b6104ea611bbc565b6040516104f79190613555565b60405180910390f35b61051a60048036038101906105159190613734565b611c4a565b6040516105279190613555565b60405180910390f35b610538611cf6565b6040516105459190613770565b60405180910390f35b610568600480360381019061056391906136d1565b611d1a565b005b610584600480360381019061057f91906136d1565b611e5d565b6040516105919190613770565b60405180910390f35b6105b460048036038101906105af9190613734565b611f97565b6040516105c19190613770565b60405180910390f35b6105e460048036038101906105df9190613938565b611fd6565b005b61060060048036038101906105fb91906136d1565b61207e565b005b61060a6121c1565b6040516106179190613770565b60405180910390f35b61063a60048036038101906106359190613825565b6121e7565b005b610656600480360381019061065191906136d1565b612322565b005b610672600480360381019061066d9190613457565b612556565b005b61068e600480360381019061068991906136d1565b6126ca565b60405161069b9190613555565b60405180910390f35b6106be60048036038101906106b99190613457565b61276a565b005b6106da60048036038101906106d59190613734565b6127e9565b6040516106e79190613770565b60405180910390f35b6106f8612828565b005b610702612965565b005b61070c612b98565b60405161071991906132db565b60405180910390f35b61072a612cfb565b005b610734613056565b60405161074191906134bb565b60405180910390f35b606060008054906101000a900473ffffffffffffffffffffffffffffffffffffffff1673ffffffffffffffffffffffffffffffffffffffff163373ffffffffffffffffffffffffffffffffffffffff16146107da576040517f08c379a00000000000000000000000000000000000000000000000000000000081526004016107d1906139cd565b60405180910390fd5b6000600b60009054906101000a900473ffffffffffffffffffffffffffffffffffffffff1673ffffffffffffffffffffffffffffffffffffffff1663c588234460086040518263ffffffff1660e01b81526004016108389190613ad9565b600060405180830381865afa158015610855573d6000803e3d6000fd5b505050506040513d6000823e3d601f19601f8201168201806040525081019061087e9190613bd3565b90508091505090565b606060008054906101000a900473ffffffffffffffffffffffffffffffffffffffff1673ffffffffffffffffffffffffffffffffffffffff163373ffffffffffffffffffffffffffffffffffffffff1614610917576040517f08c379a000000000000000000000000000000000000000000000000000000000815260040161090e906139cd565b60405180910390fd5b6000600b60009054906101000a900473ffffffffffffffffffffffffffffffffffffffff1673ffffffffffffffffffffffffffffffffffffffff166399f8b09f60008054906101000a900473ffffffffffffffffffffffffffffffffffffffff166040518263ffffffff1660e01b81526004016109949190613770565b600060405180830381865afa1580156109b1573d6000803e3d6000fd5b505050506040513d6000823e3d601f19601f820116820180604052508101906109da9190613bd3565b90508091505090565b6000600b60009054906101000a900473ffffffffffffffffffffffffffffffffffffffff1673ffffffffffffffffffffffffffffffffffffffff16630d85d839836040518263ffffffff1660e01b8152600401610a409190613555565b602060405180830381865afa158015610a5d573d6000803e3d6000fd5b505050506040513d601f19601f82011682018060405250810190610a819190613c48565b9050919050565b606060008054906101000a900473ffffffffffffffffffffffffffffffffffffffff1673ffffffffffffffffffffffffffffffffffffffff163373ffffffffffffffffffffffffffffffffffffffff1614610b18576040517f08c379a0000000000000000000000000000000000000000000000000000000008152600401610b0f906139cd565b60405180910390fd5b60018054610b2590613ca4565b80601f0160208091040260200160405190810160405280929190818152602001828054610b5190613ca4565b8015610b9e5780601f10610b7357610100808354040283529160200191610b9e565b820191906000526020600020905b815481529060010190602001808311610b8157829003601f168201915b5050505050905090565b6060610bb2610e84565b610bf1576040517f08c379a0000000000000000000000000000000000000000000000000000000008152600401610be890613d47565b60405180910390fd5b60008054906101000a900473ffffffffffffffffffffffffffffffffffffffff1673ffffffffffffffffffffffffffffffffffffffff163373ffffffffffffffffffffffffffffffffffffffff1614610c7f576040517f08c379a0000000000000000000000000000000000000000000000000000000008152600401610c76906139cd565b60405180910390fd5b6009805480602002602001604051908101604052809291908181526020016000905b82821015610d4d578382906000526020600020018054610cc090613ca4565b80601f0160208091040260200160405190810160405280929190818152602001828054610cec90613ca4565b8015610d395780601f10610d0e57610100808354040283529160200191610d39565b820191906000526020600020905b815481529060010190602001808311610d1c57829003601f168201915b505050505081526020019060010190610ca1565b50505050905090565b60076020528060005260406000206000915090508054610d7590613ca4565b80601f0160208091040260200160405190810160405280929190818152602001828054610da190613ca4565b8015610dee5780601f10610dc357610100808354040283529160200191610dee565b820191906000526020600020905b815481529060010190602001808311610dd157829003601f168201915b505050505081565b60606004805480602002602001604051908101604052809291908181526020018280548015610e7a57602002820191906000526020600020905b8160009054906101000a900473ffffffffffffffffffffffffffffffffffffffff1673ffffffffffffffffffffffffffffffffffffffff1681526020019060010190808311610e30575b5050505050905090565b6000600b60009054906101000a900473ffffffffffffffffffffffffffffffffffffffff1673ffffffffffffffffffffffffffffffffffffffff16630d85d83960016040518263ffffffff1660e01b8152600401610ee29190613e00565b602060405180830381865afa158015610eff573d6000803e3d6000fd5b505050506040513d601f19601f82011682018060405250810190610f239190613c48565b905090565b60008054906101000a900473ffffffffffffffffffffffffffffffffffffffff1673ffffffffffffffffffffffffffffffffffffffff163373ffffffffffffffffffffffffffffffffffffffff1614610fb6576040517f08c379a0000000000000000000000000000000000000000000000000000000008152600401610fad906139cd565b60405180910390fd5b610fbe610e84565b610ffd576040517f08c379a0000000000000000000000000000000000000000000000000000000008152600401610ff490613d47565b60405180910390fd5b6000600b60009054906101000a900473ffffffffffffffffffffffffffffffffffffffff1673ffffffffffffffffffffffffffffffffffffffff1663d71e80e360008054906101000a900473ffffffffffffffffffffffffffffffffffffffff166040518263ffffffff1660e01b815260040161107a9190613770565b6000604051808303816000875af1158015611099573d6000803e3d6000fd5b505050506040513d6000823e3d601f19601f820116820180604052508101906110c29190613bd3565b90506000600b60009054906101000a900473ffffffffffffffffffffffffffffffffffffffff1673ffffffffffffffffffffffffffffffffffffffff16637568708f60008054906101000a900473ffffffffffffffffffffffffffffffffffffffff166040518263ffffffff1660e01b81526004016111419190613770565b6000604051808303816000875af1158015611160573d6000803e3d6000fd5b505050506040513d6000823e3d601f19601f820116820180604052508101906111899190613bd3565b905060005b825181101561122d5760008382815181106111ac576111ab613e22565b5b602002602001015190506003819080600181540180825580915050600190039060005260206000200160009091909190916101000a81548173ffffffffffffffffffffffffffffffffffffffff021916908373ffffffffffffffffffffffffffffffffffffffff16021790555050808061122590613e80565b91505061118e565b5060005b81518110156112d057600082828151811061124f5761124e613e22565b5b602002602001015190506004819080600181540180825580915050600190039060005260206000200160009091909190916101000a81548173ffffffffffffffffffffffffffffffffffffffff021916908373ffffffffffffffffffffffffffffffffffffffff1602179055505080806112c890613e80565b915050611231565b505050565b600881815481106112e557600080fd5b906000526020600020016000915054906101000a900473ffffffffffffffffffffffffffffffffffffffff1681565b606060008054906101000a900473ffffffffffffffffffffffffffffffffffffffff1673ffffffffffffffffffffffffffffffffffffffff163373ffffffffffffffffffffffffffffffffffffffff16146113a4576040517f08c379a000000000000000000000000000000000000000000000000000000000815260040161139b906139cd565b60405180910390fd5b6005805480602002602001604051908101604052809291908181526020016000905b828210156114725783829060005260206000200180546113e590613ca4565b80601f016020809104026020016040519081016040528092919081815260200182805461141190613ca4565b801561145e5780601f106114335761010080835404028352916020019161145e565b820191906000526020600020905b81548152906001019060200180831161144157829003601f168201915b5050505050815260200190600101906113c6565b50505050905090565b6008829080600181540180825580915050600190039060005260206000200160009091909190916101000a81548173ffffffffffffffffffffffffffffffffffffffff021916908373ffffffffffffffffffffffffffffffffffffffff16021790555080600760008473ffffffffffffffffffffffffffffffffffffffff1673ffffffffffffffffffffffffffffffffffffffff168152602001908152602001600020908161152a919061405f565b505050565b600260016002805490506115439190614131565b8154811061155457611553613e22565b5b9060005260206000200160009054906101000a900473ffffffffffffffffffffffffffffffffffffffff166002828154811061159357611592613e22565b5b9060005260206000200160006101000a81548173ffffffffffffffffffffffffffffffffffffffff021916908373ffffffffffffffffffffffffffffffffffffffff16021790555060028054806115ed576115ec614165565b5b6001900381819060005260206000200160006101000a81549073ffffffffffffffffffffffffffffffffffffffff0219169055905550565b60008054906101000a900473ffffffffffffffffffffffffffffffffffffffff1673ffffffffffffffffffffffffffffffffffffffff163373ffffffffffffffffffffffffffffffffffffffff16146116b3576040517f08c379a00000000000000000000000000000000000000000000000000000000081526004016116aa906139cd565b60405180910390fd5b6116bb610e84565b6116fa576040517f08c379a00000000000000000000000000000000000000000000000000000000081526004016116f190613d47565b60405180910390fd5b60005b60028054905081101561178f578173ffffffffffffffffffffffffffffffffffffffff166002828154811061173557611734613e22565b5b9060005260206000200160009054906101000a900473ffffffffffffffffffffffffffffffffffffffff1673ffffffffffffffffffffffffffffffffffffffff16031561178f57808061178790613e80565b9150506116fd565b6117988161152f565b5050565b600581815481106117ac57600080fd5b9060005260206000200160009150905080546117c790613ca4565b80601f01602080910402602001604051908101604052809291908181526020018280546117f390613ca4565b80156118405780601f1061181557610100808354040283529160200191611840565b820191906000526020600020905b81548152906001019060200180831161182357829003601f168201915b505050505081565b606060008054906101000a900473ffffffffffffffffffffffffffffffffffffffff1673ffffffffffffffffffffffffffffffffffffffff163373ffffffffffffffffffffffffffffffffffffffff16146118d8576040517f08c379a00000000000000000000000000000000000000000000000000000000081526004016118cf906139cd565b60405180910390fd5b600c80546118e590613ca4565b80601f016020809104026020016040519081016040528092919081815260200182805461191190613ca4565b801561195e5780601f106119335761010080835404028352916020019161195e565b820191906000526020600020905b81548152906001019060200180831161194157829003601f168201915b5050505050905090565b6001805461197590613ca4565b80601f01602080910402602001604051908101604052809291908181526020018280546119a190613ca4565b80156119ee5780601f106119c3576101008083540402835291602001916119ee565b820191906000526020600020905b8154815290600101906020018083116119d157829003601f168201915b505050505081565b60038181548110611a0657600080fd5b906000526020600020016000915054906101000a900473ffffffffffffffffffffffffffffffffffffffff1681565b611a3d610e84565b611a7c576040517f08c379a0000000000000000000000000000000000000000000000000000000008152600401611a7390613d47565b60405180910390fd5b600b60009054906101000a900473ffffffffffffffffffffffffffffffffffffffff1673ffffffffffffffffffffffffffffffffffffffff1663e7618a0a8260008054906101000a900473ffffffffffffffffffffffffffffffffffffffff166040518363ffffffff1660e01b8152600401611af9929190614194565b600060405180830381600087803b158015611b1357600080fd5b505af1158015611b27573d6000803e3d6000fd5b5050505050565b60606003805480602002602001604051908101604052809291908181526020018280548015611bb257602002820191906000526020600020905b8160009054906101000a900473ffffffffffffffffffffffffffffffffffffffff1673ffffffffffffffffffffffffffffffffffffffff1681526020019060010190808311611b68575b5050505050905090565b600c8054611bc990613ca4565b80601f0160208091040260200160405190810160405280929190818152602001828054611bf590613ca4565b8015611c425780601f10611c1757610100808354040283529160200191611c42565b820191906000526020600020905b815481529060010190602001808311611c2557829003601f168201915b505050505081565b60098181548110611c5a57600080fd5b906000526020600020016000915090508054611c7590613ca4565b80601f0160208091040260200160405190810160405280929190818152602001828054611ca190613ca4565b8015611cee5780601f10611cc357610100808354040283529160200191611cee565b820191906000526020600020905b815481529060010190602001808311611cd157829003601f168201915b505050505081565b60008054906101000a900473ffffffffffffffffffffffffffffffffffffffff1681565b60008054906101000a900473ffffffffffffffffffffffffffffffffffffffff1673ffffffffffffffffffffffffffffffffffffffff163373ffffffffffffffffffffffffffffffffffffffff1614611da8576040517f08c379a0000000000000000000000000000000000000000000000000000000008152600401611d9f906139cd565b60405180910390fd5b600b60009054906101000a900473ffffffffffffffffffffffffffffffffffffffff1673ffffffffffffffffffffffffffffffffffffffff1663bc9d627160008054906101000a900473ffffffffffffffffffffffffffffffffffffffff168360016040518463ffffffff1660e01b8152600401611e28939291906141c4565b600060405180830381600087803b158015611e4257600080fd5b505af1158015611e56573d6000803e3d6000fd5b5050505050565b60008060009054906101000a900473ffffffffffffffffffffffffffffffffffffffff1673ffffffffffffffffffffffffffffffffffffffff163373ffffffffffffffffffffffffffffffffffffffff1614611eee576040517f08c379a0000000000000000000000000000000000000000000000000000000008152600401611ee5906139cd565b60405180910390fd5b6000600b60009054906101000a900473ffffffffffffffffffffffffffffffffffffffff1673ffffffffffffffffffffffffffffffffffffffff1663a5311bcf846040518263ffffffff1660e01b8152600401611f4b9190613770565b602060405180830381865afa158015611f68573d6000803e3d6000fd5b505050506040513d601f19601f82011682018060405250810190611f8c91906141fb565b905080915050919050565b60028181548110611fa757600080fd5b906000526020600020016000915054906101000a900473ffffffffffffffffffffffffffffffffffffffff1681565b60008054906101000a900473ffffffffffffffffffffffffffffffffffffffff1673ffffffffffffffffffffffffffffffffffffffff163373ffffffffffffffffffffffffffffffffffffffff1614612064576040517f08c379a000000000000000000000000000000000000000000000000000000000815260040161205b906139cd565b60405180910390fd5b806005908051906020019061207a929190613111565b5050565b60008054906101000a900473ffffffffffffffffffffffffffffffffffffffff1673ffffffffffffffffffffffffffffffffffffffff163373ffffffffffffffffffffffffffffffffffffffff161461210c576040517f08c379a0000000000000000000000000000000000000000000000000000000008152600401612103906139cd565b60405180910390fd5b600b60009054906101000a900473ffffffffffffffffffffffffffffffffffffffff1673ffffffffffffffffffffffffffffffffffffffff1663bc9d627160008054906101000a900473ffffffffffffffffffffffffffffffffffffffff168360006040518463ffffffff1660e01b815260040161218c939291906141c4565b600060405180830381600087803b1580156121a657600080fd5b505af11580156121ba573d6000803e3d6000fd5b5050505050565b600a60009054906101000a900473ffffffffffffffffffffffffffffffffffffffff1681565b60008054906101000a900473ffffffffffffffffffffffffffffffffffffffff1673ffffffffffffffffffffffffffffffffffffffff163373ffffffffffffffffffffffffffffffffffffffff1614612275576040517f08c379a000000000000000000000000000000000000000000000000000000000815260040161226c906139cd565b60405180910390fd5b61227d610e84565b6122bc576040517f08c379a00000000000000000000000000000000000000000000000000000000081526004016122b390613d47565b60405180910390fd5b6002819080600181540180825580915050600190039060005260206000200160009091909190916101000a81548173ffffffffffffffffffffffffffffffffffffffff021916908373ffffffffffffffffffffffffffffffffffffffff16021790555050565b60008054906101000a900473ffffffffffffffffffffffffffffffffffffffff1673ffffffffffffffffffffffffffffffffffffffff163373ffffffffffffffffffffffffffffffffffffffff16146123b0576040517f08c379a00000000000000000000000000000000000000000000000000000000081526004016123a7906139cd565b60405180910390fd5b6123b8610e84565b6123f7576040517f08c379a00000000000000000000000000000000000000000000000000000000081526004016123ee90613d47565b60405180910390fd5b6000600760008373ffffffffffffffffffffffffffffffffffffffff1673ffffffffffffffffffffffffffffffffffffffff168152602001908152602001600020805461244390613ca4565b80601f016020809104026020016040519081016040528092919081815260200182805461246f90613ca4565b80156124bc5780601f10612491576101008083540402835291602001916124bc565b820191906000526020600020905b81548152906001019060200180831161249f57829003601f168201915b50505050509050600b60009054906101000a900473ffffffffffffffffffffffffffffffffffffffff1673ffffffffffffffffffffffffffffffffffffffff16637cbfc58f83836040518363ffffffff1660e01b8152600401612520929190614228565b600060405180830381600087803b15801561253a57600080fd5b505af115801561254e573d6000803e3d6000fd5b505050505050565b60008054906101000a900473ffffffffffffffffffffffffffffffffffffffff1673ffffffffffffffffffffffffffffffffffffffff163373ffffffffffffffffffffffffffffffffffffffff16146125e4576040517f08c379a00000000000000000000000000000000000000000000000000000000081526004016125db906139cd565b60405180910390fd5b600b60009054906101000a900473ffffffffffffffffffffffffffffffffffffffff1673ffffffffffffffffffffffffffffffffffffffff16637915c0698260008054906101000a900473ffffffffffffffffffffffffffffffffffffffff16600a60009054906101000a900473ffffffffffffffffffffffffffffffffffffffff166040518463ffffffff1660e01b815260040161268593929190614258565b600060405180830381600087803b15801561269f57600080fd5b505af11580156126b3573d6000803e3d6000fd5b5050505080600190816126c6919061405f565b5050565b600660205280600052604060002060009150905080546126e990613ca4565b80601f016020809104026020016040519081016040528092919081815260200182805461271590613ca4565b80156127625780601f1061273757610100808354040283529160200191612762565b820191906000526020600020905b81548152906001019060200180831161274557829003601f168201915b505050505081565b612772610e84565b6127b1576040517f08c379a00000000000000000000000000000000000000000000000000000000081526004016127a890613d47565b60405180910390fd5b6009819080600181540180825580915050600190039060005260206000200160009091909190915090816127e5919061405f565b5050565b600481815481106127f957600080fd5b906000526020600020016000915054906101000a900473ffffffffffffffffffffffffffffffffffffffff1681565b60008054906101000a900473ffffffffffffffffffffffffffffffffffffffff1673ffffffffffffffffffffffffffffffffffffffff163373ffffffffffffffffffffffffffffffffffffffff16146128b6576040517f08c379a00000000000000000000000000000000000000000000000000000000081526004016128ad906139cd565b60405180910390fd5b6040518060400160405280601581526020017f5348415245484f4c4445525f524551554553544544000000000000000000000081525080519060200120600c6040516129029190614339565b60405180910390200361296357612917613056565b15612962576040518060400160405280601481526020017f5348415245484f4c4445525f4143434550544544000000000000000000000000815250600c9081612960919061405f565b505b5b565b60008054906101000a900473ffffffffffffffffffffffffffffffffffffffff1673ffffffffffffffffffffffffffffffffffffffff163373ffffffffffffffffffffffffffffffffffffffff16146129f3576040517f08c379a00000000000000000000000000000000000000000000000000000000081526004016129ea906139cd565b60405180910390fd5b6129fb610e84565b612a3a576040517f08c379a0000000000000000000000000000000000000000000000000000000008152600401612a3190613d47565b60405180910390fd5b6040518060400160405280601581526020017f5348415245484f4c4445525f5245515545535445440000000000000000000000815250600c9081612a7e919061405f565b5060005b600280549050811015612b9557600060028281548110612aa557612aa4613e22565b5b9060005260206000200160009054906101000a900473ffffffffffffffffffffffffffffffffffffffff169050600b60009054906101000a900473ffffffffffffffffffffffffffffffffffffffff1673ffffffffffffffffffffffffffffffffffffffff16636e8548bb60008054906101000a900473ffffffffffffffffffffffffffffffffffffffff16836040518363ffffffff1660e01b8152600401612b4f929190614350565b600060405180830381600087803b158015612b6957600080fd5b505af1158015612b7d573d6000803e3d6000fd5b50505050508080612b8d90613e80565b915050612a82565b50565b6060612ba2610e84565b612be1576040517f08c379a0000000000000000000000000000000000000000000000000000000008152600401612bd890613d47565b60405180910390fd5b60008054906101000a900473ffffffffffffffffffffffffffffffffffffffff1673ffffffffffffffffffffffffffffffffffffffff163373ffffffffffffffffffffffffffffffffffffffff1614612c6f576040517f08c379a0000000000000000000000000000000000000000000000000000000008152600401612c66906139cd565b60405180910390fd5b6002805480602002602001604051908101604052809291908181526020018280548015612cf157602002820191906000526020600020905b8160009054906101000a900473ffffffffffffffffffffffffffffffffffffffff1673ffffffffffffffffffffffffffffffffffffffff1681526020019060010190808311612ca7575b5050505050905090565b60008054906101000a900473ffffffffffffffffffffffffffffffffffffffff1673ffffffffffffffffffffffffffffffffffffffff163373ffffffffffffffffffffffffffffffffffffffff1614612d89576040517f08c379a0000000000000000000000000000000000000000000000000000000008152600401612d80906139cd565b60405180910390fd5b612d91610e84565b612dd0576040517f08c379a0000000000000000000000000000000000000000000000000000000008152600401612dc790613d47565b60405180910390fd5b612dd8610f28565b6003805490506005805490501115612e25576040517f08c379a0000000000000000000000000000000000000000000000000000000008152600401612e1c906143c5565b60405180910390fd5b6003805490506005805490501161300f5760005b60058054905081101561300d5760058181548110612e5a57612e59613e22565b5b906000526020600020016006600060038481548110612e7c57612e7b613e22565b5b9060005260206000200160009054906101000a900473ffffffffffffffffffffffffffffffffffffffff1673ffffffffffffffffffffffffffffffffffffffff1673ffffffffffffffffffffffffffffffffffffffff1681526020019081526020016000209081612eed9190614410565b50600b60009054906101000a900473ffffffffffffffffffffffffffffffffffffffff1673ffffffffffffffffffffffffffffffffffffffff1663cc2f22f160008054906101000a900473ffffffffffffffffffffffffffffffffffffffff1660038481548110612f6157612f60613e22565b5b9060005260206000200160009054906101000a900473ffffffffffffffffffffffffffffffffffffffff1660058581548110612fa057612f9f613e22565b5b906000526020600020016040518463ffffffff1660e01b8152600401612fc8939291906144f8565b600060405180830381600087803b158015612fe257600080fd5b505af1158015612ff6573d6000803e3d6000fd5b50505050808061300590613e80565b915050612e39565b505b6040518060400160405280601281526020017f5348415245535f44495354524942555445440000000000000000000000000000815250600c9081613053919061405f565b50565b60008060009054906101000a900473ffffffffffffffffffffffffffffffffffffffff1673ffffffffffffffffffffffffffffffffffffffff163373ffffffffffffffffffffffffffffffffffffffff16146130e7576040517f08c379a00000000000000000000000000000000000000000000000000000000081526004016130de906139cd565b60405180910390fd5b6130ef610f28565b60028054905060038054905010613109576001905061310e565b600090505b90565b828054828255906000526020600020908101928215613159579160200282015b82811115613158578251829081613148919061405f565b5091602001919060010190613131565b5b509050613166919061316a565b5090565b5b8082111561318a5760008181613181919061318e565b5060010161316b565b5090565b50805461319a90613ca4565b6000825580601f106131ac57506131cb565b601f0160209004906000526020600020908101906131ca91906131ce565b5b50565b5b808211156131e75760008160009055506001016131cf565b5090565b600081519050919050565b600082825260208201905092915050565b6000819050602082019050919050565b600073ffffffffffffffffffffffffffffffffffffffff82169050919050565b600061324282613217565b9050919050565b61325281613237565b82525050565b60006132648383613249565b60208301905092915050565b6000602082019050919050565b6000613288826131eb565b61329281856131f6565b935061329d83613207565b8060005b838110156132ce5781516132b58882613258565b97506132c083613270565b9250506001810190506132a1565b5085935050505092915050565b600060208201905081810360008301526132f5818461327d565b905092915050565b6000604051905090565b600080fd5b600080fd5b600080fd5b600080fd5b6000601f19601f8301169050919050565b7f4e487b7100000000000000000000000000000000000000000000000000000000600052604160045260246000fd5b6133648261331b565b810181811067ffffffffffffffff821117156133835761338261332c565b5b80604052505050565b60006133966132fd565b90506133a2828261335b565b919050565b600067ffffffffffffffff8211156133c2576133c161332c565b5b6133cb8261331b565b9050602081019050919050565b82818337600083830152505050565b60006133fa6133f5846133a7565b61338c565b90508281526020810184848401111561341657613415613316565b5b6134218482856133d8565b509392505050565b600082601f83011261343e5761343d613311565b5b813561344e8482602086016133e7565b91505092915050565b60006020828403121561346d5761346c613307565b5b600082013567ffffffffffffffff81111561348b5761348a61330c565b5b61349784828501613429565b91505092915050565b60008115159050919050565b6134b5816134a0565b82525050565b60006020820190506134d060008301846134ac565b92915050565b600081519050919050565b600082825260208201905092915050565b60005b838110156135105780820151818401526020810190506134f5565b60008484015250505050565b6000613527826134d6565b61353181856134e1565b93506135418185602086016134f2565b61354a8161331b565b840191505092915050565b6000602082019050818103600083015261356f818461351c565b905092915050565b600081519050919050565b600082825260208201905092915050565b6000819050602082019050919050565b600082825260208201905092915050565b60006135bf826134d6565b6135c981856135a3565b93506135d98185602086016134f2565b6135e28161331b565b840191505092915050565b60006135f983836135b4565b905092915050565b6000602082019050919050565b600061361982613577565b6136238185613582565b93508360208202850161363585613593565b8060005b85811015613671578484038952815161365285826135ed565b945061365d83613601565b925060208a01995050600181019050613639565b50829750879550505050505092915050565b6000602082019050818103600083015261369d818461360e565b905092915050565b6136ae81613237565b81146136b957600080fd5b50565b6000813590506136cb816136a5565b92915050565b6000602082840312156136e7576136e6613307565b5b60006136f5848285016136bc565b91505092915050565b6000819050919050565b613711816136fe565b811461371c57600080fd5b50565b60008135905061372e81613708565b92915050565b60006020828403121561374a57613749613307565b5b60006137588482850161371f565b91505092915050565b61376a81613237565b82525050565b60006020820190506137856000830184613761565b92915050565b600080604083850312156137a2576137a1613307565b5b60006137b0858286016136bc565b925050602083013567ffffffffffffffff8111156137d1576137d061330c565b5b6137dd85828601613429565b9150509250929050565b60006137f282613217565b9050919050565b613802816137e7565b811461380d57600080fd5b50565b60008135905061381f816137f9565b92915050565b60006020828403121561383b5761383a613307565b5b600061384984828501613810565b91505092915050565b600067ffffffffffffffff82111561386d5761386c61332c565b5b602082029050602081019050919050565b600080fd5b600061389661389184613852565b61338c565b905080838252602082019050602084028301858111156138b9576138b861387e565b5b835b8181101561390057803567ffffffffffffffff8111156138de576138dd613311565b5b8086016138eb8982613429565b855260208501945050506020810190506138bb565b5050509392505050565b600082601f83011261391f5761391e613311565b5b813561392f848260208601613883565b91505092915050565b60006020828403121561394e5761394d613307565b5b600082013567ffffffffffffffff81111561396c5761396b61330c565b5b6139788482850161390a565b91505092915050565b7f4f6e6c79206f776e657220686173207468652070726976696c65676500000000600082015250565b60006139b7601c836134e1565b91506139c282613981565b602082019050919050565b600060208201905081810360008301526139e6816139aa565b9050919050565b600081549050919050565b60008190508160005260206000209050919050565b60008160001c9050919050565b600073ffffffffffffffffffffffffffffffffffffffff82169050919050565b6000613a4d613a4883613a0d565b613a1a565b9050919050565b6000613a608254613a3a565b9050919050565b6000600182019050919050565b6000613a7f826139ed565b613a8981856131f6565b9350613a94836139f8565b8060005b83811015613acc57613aa982613a54565b613ab38882613258565b9750613abe83613a67565b925050600181019050613a98565b5085935050505092915050565b60006020820190508181036000830152613af38184613a74565b905092915050565b600067ffffffffffffffff821115613b1657613b1561332c565b5b602082029050602081019050919050565b600081519050613b36816136a5565b92915050565b6000613b4f613b4a84613afb565b61338c565b90508083825260208201905060208402830185811115613b7257613b7161387e565b5b835b81811015613b9b5780613b878882613b27565b845260208401935050602081019050613b74565b5050509392505050565b600082601f830112613bba57613bb9613311565b5b8151613bca848260208601613b3c565b91505092915050565b600060208284031215613be957613be8613307565b5b600082015167ffffffffffffffff811115613c0757613c0661330c565b5b613c1384828501613ba5565b91505092915050565b613c25816134a0565b8114613c3057600080fd5b50565b600081519050613c4281613c1c565b92915050565b600060208284031215613c5e57613c5d613307565b5b6000613c6c84828501613c33565b91505092915050565b7f4e487b7100000000000000000000000000000000000000000000000000000000600052602260045260246000fd5b60006002820490506001821680613cbc57607f821691505b602082108103613ccf57613cce613c75565b5b50919050565b7f4f776e65722068617320746f20726567697374657220746f207075626c69632060008201527f636f6e7472616374000000000000000000000000000000000000000000000000602082015250565b6000613d316028836134e1565b9150613d3c82613cd5565b604082019050919050565b60006020820190508181036000830152613d6081613d24565b9050919050565b60008190508160005260206000209050919050565b60008154613d8981613ca4565b613d9381866134e1565b94506001821660008114613dae5760018114613dc457613df7565b60ff198316865281151560200286019350613df7565b613dcd85613d67565b60005b83811015613def57815481890152600182019150602081019050613dd0565b808801955050505b50505092915050565b60006020820190508181036000830152613e1a8184613d7c565b905092915050565b7f4e487b7100000000000000000000000000000000000000000000000000000000600052603260045260246000fd5b7f4e487b7100000000000000000000000000000000000000000000000000000000600052601160045260246000fd5b6000613e8b826136fe565b91507fffffffffffffffffffffffffffffffffffffffffffffffffffffffffffffffff8203613ebd57613ebc613e51565b5b600182019050919050565b60006020601f8301049050919050565b600082821b905092915050565b600060088302613f157fffffffffffffffffffffffffffffffffffffffffffffffffffffffffffffffff82613ed8565b613f1f8683613ed8565b95508019841693508086168417925050509392505050565b6000819050919050565b6000613f5c613f57613f52846136fe565b613f37565b6136fe565b9050919050565b6000819050919050565b613f7683613f41565b613f8a613f8282613f63565b848454613ee5565b825550505050565b600090565b613f9f613f92565b613faa818484613f6d565b505050565b5b81811015613fce57613fc3600082613f97565b600181019050613fb0565b5050565b601f82111561401357613fe481613d67565b613fed84613ec8565b81016020851015613ffc578190505b61401061400885613ec8565b830182613faf565b50505b505050565b600082821c905092915050565b600061403660001984600802614018565b1980831691505092915050565b600061404f8383614025565b9150826002028217905092915050565b614068826134d6565b67ffffffffffffffff8111156140815761408061332c565b5b61408b8254613ca4565b614096828285613fd2565b600060209050601f8311600181146140c957600084156140b7578287015190505b6140c18582614043565b865550614129565b601f1984166140d786613d67565b60005b828110156140ff578489015182556001820191506020850194506020810190506140da565b8683101561411c5784890151614118601f891682614025565b8355505b6001600288020188555050505b505050505050565b600061413c826136fe565b9150614147836136fe565b925082820390508181111561415f5761415e613e51565b5b92915050565b7f4e487b7100000000000000000000000000000000000000000000000000000000600052603160045260246000fd5b600060408201905081810360008301526141ae818561351c565b90506141bd6020830184613761565b9392505050565b60006060820190506141d96000830186613761565b6141e66020830185613761565b6141f360408301846134ac565b949350505050565b60006020828403121561421157614210613307565b5b600061421f84828501613b27565b91505092915050565b600060408201905061423d6000830185613761565b818103602083015261424f818461351c565b90509392505050565b60006060820190508181036000830152614272818661351c565b90506142816020830185613761565b61428e6040830184613761565b949350505050565b600081905092915050565b60008190508160005260206000209050919050565b600081546142c381613ca4565b6142cd8186614296565b945060018216600081146142e857600181146142fd57614330565b60ff1983168652811515820286019350614330565b614306856142a1565b60005b8381101561432857815481890152600182019150602081019050614309565b838801955050505b50505092915050565b600061434582846142b6565b915081905092915050565b60006040820190506143656000830185613761565b6143726020830184613761565b9392505050565b7f4e6f7420656e6f75676820736861726520686f6c646572732121000000000000600082015250565b60006143af601a836134e1565b91506143ba82614379565b602082019050919050565b600060208201905081810360008301526143de816143a2565b9050919050565b6000815490506143f481613ca4565b9050919050565b60008190508160005260206000209050919050565b81810361441e5750506144f6565b614427826143e5565b67ffffffffffffffff8111156144405761443f61332c565b5b61444a8254613ca4565b614455828285613fd2565b6000601f8311600181146144845760008415614472578287015490505b61447c8582614043565b8655506144ef565b601f198416614492876143fb565b965061449d86613d67565b60005b828110156144c5578489015482556001820191506001850194506020810190506144a0565b868310156144e257848901546144de601f891682614025565b8355505b6001600288020188555050505b5050505050505b565b600060608201905061450d6000830186613761565b61451a6020830185613761565b818103604083015261452c8184613d7c565b905094935050505056fea2646970667358221220fdf988b5b5b90e7d8d027700d58916186ce9eb458c4e8838d44563fb6591019664736f6c63430008110033",
			"opcodes": "PUSH1 0x80 PUSH1 0x40 MSTORE CALLVALUE DUP1 ISZERO PUSH3 0x11 JUMPI PUSH1 0x0 DUP1 REVERT JUMPDEST POP CALLER PUSH1 0x0 DUP1 PUSH2 0x100 EXP DUP2 SLOAD DUP2 PUSH20 0xFFFFFFFFFFFFFFFFFFFFFFFFFFFFFFFFFFFFFFFF MUL NOT AND SWAP1 DUP4 PUSH20 0xFFFFFFFFFFFFFFFFFFFFFFFFFFFFFFFFFFFFFFFF AND MUL OR SWAP1 SSTORE POP PUSH20 0x21B7180B01DE7F6029CD2BBF196008DD1ACD8D70 PUSH1 0xB PUSH1 0x0 PUSH2 0x100 EXP DUP2 SLOAD DUP2 PUSH20 0xFFFFFFFFFFFFFFFFFFFFFFFFFFFFFFFFFFFFFFFF MUL NOT AND SWAP1 DUP4 PUSH20 0xFFFFFFFFFFFFFFFFFFFFFFFFFFFFFFFFFFFFFFFF AND MUL OR SWAP1 SSTORE POP ADDRESS PUSH1 0xA PUSH1 0x0 PUSH2 0x100 EXP DUP2 SLOAD DUP2 PUSH20 0xFFFFFFFFFFFFFFFFFFFFFFFFFFFFFFFFFFFFFFFF MUL NOT AND SWAP1 DUP4 PUSH20 0xFFFFFFFFFFFFFFFFFFFFFFFFFFFFFFFFFFFFFFFF AND MUL OR SWAP1 SSTORE POP PUSH1 0x40 MLOAD DUP1 PUSH1 0x40 ADD PUSH1 0x40 MSTORE DUP1 PUSH1 0xC DUP2 MSTORE PUSH1 0x20 ADD PUSH32 0x4E4F44455F435245415445440000000000000000000000000000000000000000 DUP2 MSTORE POP PUSH1 0xC SWAP1 DUP2 PUSH3 0x12E SWAP2 SWAP1 PUSH3 0x3AF JUMP JUMPDEST POP PUSH3 0x496 JUMP JUMPDEST PUSH1 0x0 DUP2 MLOAD SWAP1 POP SWAP2 SWAP1 POP JUMP JUMPDEST PUSH32 0x4E487B7100000000000000000000000000000000000000000000000000000000 PUSH1 0x0 MSTORE PUSH1 0x41 PUSH1 0x4 MSTORE PUSH1 0x24 PUSH1 0x0 REVERT JUMPDEST PUSH32 0x4E487B7100000000000000000000000000000000000000000000000000000000 PUSH1 0x0 MSTORE PUSH1 0x22 PUSH1 0x4 MSTORE PUSH1 0x24 PUSH1 0x0 REVERT JUMPDEST PUSH1 0x0 PUSH1 0x2 DUP3 DIV SWAP1 POP PUSH1 0x1 DUP3 AND DUP1 PUSH3 0x1B7 JUMPI PUSH1 0x7F DUP3 AND SWAP2 POP JUMPDEST PUSH1 0x20 DUP3 LT DUP2 SUB PUSH3 0x1CD JUMPI PUSH3 0x1CC PUSH3 0x16F JUMP JUMPDEST JUMPDEST POP SWAP2 SWAP1 POP JUMP JUMPDEST PUSH1 0x0 DUP2 SWAP1 POP DUP2 PUSH1 0x0 MSTORE PUSH1 0x20 PUSH1 0x0 KECCAK256 SWAP1 POP SWAP2 SWAP1 POP JUMP JUMPDEST PUSH1 0x0 PUSH1 0x20 PUSH1 0x1F DUP4 ADD DIV SWAP1 POP SWAP2 SWAP1 POP JUMP JUMPDEST PUSH1 0x0 DUP3 DUP3 SHL SWAP1 POP SWAP3 SWAP2 POP POP JUMP JUMPDEST PUSH1 0x0 PUSH1 0x8 DUP4 MUL PUSH3 0x237 PUSH32 0xFFFFFFFFFFFFFFFFFFFFFFFFFFFFFFFFFFFFFFFFFFFFFFFFFFFFFFFFFFFFFFFF DUP3 PUSH3 0x1F8 JUMP JUMPDEST PUSH3 0x243 DUP7 DUP4 PUSH3 0x1F8 JUMP JUMPDEST SWAP6 POP DUP1 NOT DUP5 AND SWAP4 POP DUP1 DUP7 AND DUP5 OR SWAP3 POP POP POP SWAP4 SWAP3 POP POP POP JUMP JUMPDEST PUSH1 0x0 DUP2 SWAP1 POP SWAP2 SWAP1 POP JUMP JUMPDEST PUSH1 0x0 DUP2 SWAP1 POP SWAP2 SWAP1 POP JUMP JUMPDEST PUSH1 0x0 PUSH3 0x290 PUSH3 0x28A PUSH3 0x284 DUP5 PUSH3 0x25B JUMP JUMPDEST PUSH3 0x265 JUMP JUMPDEST PUSH3 0x25B JUMP JUMPDEST SWAP1 POP SWAP2 SWAP1 POP JUMP JUMPDEST PUSH1 0x0 DUP2 SWAP1 POP SWAP2 SWAP1 POP JUMP JUMPDEST PUSH3 0x2AC DUP4 PUSH3 0x26F JUMP JUMPDEST PUSH3 0x2C4 PUSH3 0x2BB DUP3 PUSH3 0x297 JUMP JUMPDEST DUP5 DUP5 SLOAD PUSH3 0x205 JUMP JUMPDEST DUP3 SSTORE POP POP POP POP JUMP JUMPDEST PUSH1 0x0 SWAP1 JUMP JUMPDEST PUSH3 0x2DB PUSH3 0x2CC JUMP JUMPDEST PUSH3 0x2E8 DUP2 DUP5 DUP5 PUSH3 0x2A1 JUMP JUMPDEST POP POP POP JUMP JUMPDEST JUMPDEST DUP2 DUP2 LT ISZERO PUSH3 0x310 JUMPI PUSH3 0x304 PUSH1 0x0 DUP3 PUSH3 0x2D1 JUMP JUMPDEST PUSH1 0x1 DUP2 ADD SWAP1 POP PUSH3 0x2EE JUMP JUMPDEST POP POP JUMP JUMPDEST PUSH1 0x1F DUP3 GT ISZERO PUSH3 0x35F JUMPI PUSH3 0x329 DUP2 PUSH3 0x1D3 JUMP JUMPDEST PUSH3 0x334 DUP5 PUSH3 0x1E8 JUMP JUMPDEST DUP2 ADD PUSH1 0x20 DUP6 LT ISZERO PUSH3 0x344 JUMPI DUP2 SWAP1 POP JUMPDEST PUSH3 0x35C PUSH3 0x353 DUP6 PUSH3 0x1E8 JUMP JUMPDEST DUP4 ADD DUP3 PUSH3 0x2ED JUMP JUMPDEST POP POP JUMPDEST POP POP POP JUMP JUMPDEST PUSH1 0x0 DUP3 DUP3 SHR SWAP1 POP SWAP3 SWAP2 POP POP JUMP JUMPDEST PUSH1 0x0 PUSH3 0x384 PUSH1 0x0 NOT DUP5 PUSH1 0x8 MUL PUSH3 0x364 JUMP JUMPDEST NOT DUP1 DUP4 AND SWAP2 POP POP SWAP3 SWAP2 POP POP JUMP JUMPDEST PUSH1 0x0 PUSH3 0x39F DUP4 DUP4 PUSH3 0x371 JUMP JUMPDEST SWAP2 POP DUP3 PUSH1 0x2 MUL DUP3 OR SWAP1 POP SWAP3 SWAP2 POP POP JUMP JUMPDEST PUSH3 0x3BA DUP3 PUSH3 0x135 JUMP JUMPDEST PUSH8 0xFFFFFFFFFFFFFFFF DUP2 GT ISZERO PUSH3 0x3D6 JUMPI PUSH3 0x3D5 PUSH3 0x140 JUMP JUMPDEST JUMPDEST PUSH3 0x3E2 DUP3 SLOAD PUSH3 0x19E JUMP JUMPDEST PUSH3 0x3EF DUP3 DUP3 DUP6 PUSH3 0x314 JUMP JUMPDEST PUSH1 0x0 PUSH1 0x20 SWAP1 POP PUSH1 0x1F DUP4 GT PUSH1 0x1 DUP2 EQ PUSH3 0x427 JUMPI PUSH1 0x0 DUP5 ISZERO PUSH3 0x412 JUMPI DUP3 DUP8 ADD MLOAD SWAP1 POP JUMPDEST PUSH3 0x41E DUP6 DUP3 PUSH3 0x391 JUMP JUMPDEST DUP7 SSTORE POP PUSH3 0x48E JUMP JUMPDEST PUSH1 0x1F NOT DUP5 AND PUSH3 0x437 DUP7 PUSH3 0x1D3 JUMP JUMPDEST PUSH1 0x0 JUMPDEST DUP3 DUP2 LT ISZERO PUSH3 0x461 JUMPI DUP5 DUP10 ADD MLOAD DUP3 SSTORE PUSH1 0x1 DUP3 ADD SWAP2 POP PUSH1 0x20 DUP6 ADD SWAP5 POP PUSH1 0x20 DUP2 ADD SWAP1 POP PUSH3 0x43A JUMP JUMPDEST DUP7 DUP4 LT ISZERO PUSH3 0x481 JUMPI DUP5 DUP10 ADD MLOAD PUSH3 0x47D PUSH1 0x1F DUP10 AND DUP3 PUSH3 0x371 JUMP JUMPDEST DUP4 SSTORE POP JUMPDEST PUSH1 0x1 PUSH1 0x2 DUP9 MUL ADD DUP9 SSTORE POP POP POP JUMPDEST POP POP POP POP POP POP JUMP JUMPDEST PUSH2 0x456C DUP1 PUSH3 0x4A6 PUSH1 0x0 CODECOPY PUSH1 0x0 RETURN INVALID PUSH1 0x80 PUSH1 0x40 MSTORE CALLVALUE DUP1 ISZERO PUSH2 0x10 JUMPI PUSH1 0x0 DUP1 REVERT JUMPDEST POP PUSH1 0x4 CALLDATASIZE LT PUSH2 0x247 JUMPI PUSH1 0x0 CALLDATALOAD PUSH1 0xE0 SHR DUP1 PUSH4 0x8BF1799F GT PUSH2 0x13B JUMPI DUP1 PUSH4 0xC0BEFA53 GT PUSH2 0xB8 JUMPI DUP1 PUSH4 0xD849E94F GT PUSH2 0x7C JUMPI DUP1 PUSH4 0xD849E94F EQ PUSH2 0x6F0 JUMPI DUP1 PUSH4 0xDAB0177E EQ PUSH2 0x6FA JUMPI DUP1 PUSH4 0xDBE4418F EQ PUSH2 0x704 JUMPI DUP1 PUSH4 0xE4FC6B6D EQ PUSH2 0x722 JUMPI DUP1 PUSH4 0xECD63043 EQ PUSH2 0x72C JUMPI PUSH2 0x247 JUMP JUMPDEST DUP1 PUSH4 0xC0BEFA53 EQ PUSH2 0x63C JUMPI DUP1 PUSH4 0xC692F738 EQ PUSH2 0x658 JUMPI DUP1 PUSH4 0xD534CC0E EQ PUSH2 0x674 JUMPI DUP1 PUSH4 0xD65EC855 EQ PUSH2 0x6A4 JUMPI DUP1 PUSH4 0xD7AE335B EQ PUSH2 0x6C0 JUMPI PUSH2 0x247 JUMP JUMPDEST DUP1 PUSH4 0x9FF1D787 GT PUSH2 0xFF JUMPI DUP1 PUSH4 0x9FF1D787 EQ PUSH2 0x59A JUMPI DUP1 PUSH4 0xA0CD9CE8 EQ PUSH2 0x5CA JUMPI DUP1 PUSH4 0xAA8F3075 EQ PUSH2 0x5E6 JUMPI DUP1 PUSH4 0xB12F97BB EQ PUSH2 0x602 JUMPI DUP1 PUSH4 0xB9657D13 EQ PUSH2 0x620 JUMPI PUSH2 0x247 JUMP JUMPDEST DUP1 PUSH4 0x8BF1799F EQ PUSH2 0x4E2 JUMPI DUP1 PUSH4 0x8D78CD25 EQ PUSH2 0x500 JUMPI DUP1 PUSH4 0x8DA5CB5B EQ PUSH2 0x530 JUMPI DUP1 PUSH4 0x9018C818 EQ PUSH2 0x54E JUMPI DUP1 PUSH4 0x983080E5 EQ PUSH2 0x56A JUMPI PUSH2 0x247 JUMP JUMPDEST DUP1 PUSH4 0x3E83FE36 GT PUSH2 0x1C9 JUMPI DUP1 PUSH4 0x58CE3740 GT PUSH2 0x18D JUMPI DUP1 PUSH4 0x58CE3740 EQ PUSH2 0x43C JUMPI DUP1 PUSH4 0x70019B35 EQ PUSH2 0x45A JUMPI DUP1 PUSH4 0x7427A40C EQ PUSH2 0x478 JUMPI DUP1 PUSH4 0x77058418 EQ PUSH2 0x4A8 JUMPI DUP1 PUSH4 0x8477D9F3 EQ PUSH2 0x4C4 JUMPI PUSH2 0x247 JUMP JUMPDEST DUP1 PUSH4 0x3E83FE36 EQ PUSH2 0x39A JUMPI DUP1 PUSH4 0x4A9AE94A EQ PUSH2 0x3B8 JUMPI DUP1 PUSH4 0x4CC82215 EQ PUSH2 0x3D4 JUMPI DUP1 PUSH4 0x50E78191 EQ PUSH2 0x3F0 JUMPI DUP1 PUSH4 0x57A858FC EQ PUSH2 0x40C JUMPI PUSH2 0x247 JUMP JUMPDEST DUP1 PUSH4 0x1E1CF160 GT PUSH2 0x210 JUMPI DUP1 PUSH4 0x1E1CF160 EQ PUSH2 0x2F4 JUMPI DUP1 PUSH4 0x20A2F735 EQ PUSH2 0x324 JUMPI DUP1 PUSH4 0x22366844 EQ PUSH2 0x342 JUMPI DUP1 PUSH4 0x22CC8155 EQ PUSH2 0x360 JUMPI DUP1 PUSH4 0x3B91D785 EQ PUSH2 0x36A JUMPI PUSH2 0x247 JUMP JUMPDEST DUP1 PUSH3 0x52C632 EQ PUSH2 0x24C JUMPI DUP1 PUSH4 0xD2BAAA1 EQ PUSH2 0x26A JUMPI DUP1 PUSH4 0xF64DD1B EQ PUSH2 0x288 JUMPI DUP1 PUSH4 0x12958F1C EQ PUSH2 0x2B8 JUMPI DUP1 PUSH4 0x17377F68 EQ PUSH2 0x2D6 JUMPI JUMPDEST PUSH1 0x0 DUP1 REVERT JUMPDEST PUSH2 0x254 PUSH2 0x74A JUMP JUMPDEST PUSH1 0x40 MLOAD PUSH2 0x261 SWAP2 SWAP1 PUSH2 0x32DB JUMP JUMPDEST PUSH1 0x40 MLOAD DUP1 SWAP2 SUB SWAP1 RETURN JUMPDEST PUSH2 0x272 PUSH2 0x887 JUMP JUMPDEST PUSH1 0x40 MLOAD PUSH2 0x27F SWAP2 SWAP1 PUSH2 0x32DB JUMP JUMPDEST PUSH1 0x40 MLOAD DUP1 SWAP2 SUB SWAP1 RETURN JUMPDEST PUSH2 0x2A2 PUSH1 0x4 DUP1 CALLDATASIZE SUB DUP2 ADD SWAP1 PUSH2 0x29D SWAP2 SWAP1 PUSH2 0x3457 JUMP JUMPDEST PUSH2 0x9E3 JUMP JUMPDEST PUSH1 0x40 MLOAD PUSH2 0x2AF SWAP2 SWAP1 PUSH2 0x34BB JUMP JUMPDEST PUSH1 0x40 MLOAD DUP1 SWAP2 SUB SWAP1 RETURN JUMPDEST PUSH2 0x2C0 PUSH2 0xA88 JUMP JUMPDEST PUSH1 0x40 MLOAD PUSH2 0x2CD SWAP2 SWAP1 PUSH2 0x3555 JUMP JUMPDEST PUSH1 0x40 MLOAD DUP1 SWAP2 SUB SWAP1 RETURN JUMPDEST PUSH2 0x2DE PUSH2 0xBA8 JUMP JUMPDEST PUSH1 0x40 MLOAD PUSH2 0x2EB SWAP2 SWAP1 PUSH2 0x3683 JUMP JUMPDEST PUSH1 0x40 MLOAD DUP1 SWAP2 SUB SWAP1 RETURN JUMPDEST PUSH2 0x30E PUSH1 0x4 DUP1 CALLDATASIZE SUB DUP2 ADD SWAP1 PUSH2 0x309 SWAP2 SWAP1 PUSH2 0x36D1 JUMP JUMPDEST PUSH2 0xD56 JUMP JUMPDEST PUSH1 0x40 MLOAD PUSH2 0x31B SWAP2 SWAP1 PUSH2 0x3555 JUMP JUMPDEST PUSH1 0x40 MLOAD DUP1 SWAP2 SUB SWAP1 RETURN JUMPDEST PUSH2 0x32C PUSH2 0xDF6 JUMP JUMPDEST PUSH1 0x40 MLOAD PUSH2 0x339 SWAP2 SWAP1 PUSH2 0x32DB JUMP JUMPDEST PUSH1 0x40 MLOAD DUP1 SWAP2 SUB SWAP1 RETURN JUMPDEST PUSH2 0x34A PUSH2 0xE84 JUMP JUMPDEST PUSH1 0x40 MLOAD PUSH2 0x357 SWAP2 SWAP1 PUSH2 0x34BB JUMP JUMPDEST PUSH1 0x40 MLOAD DUP1 SWAP2 SUB SWAP1 RETURN JUMPDEST PUSH2 0x368 PUSH2 0xF28 JUMP JUMPDEST STOP JUMPDEST PUSH2 0x384 PUSH1 0x4 DUP1 CALLDATASIZE SUB DUP2 ADD SWAP1 PUSH2 0x37F SWAP2 SWAP1 PUSH2 0x3734 JUMP JUMPDEST PUSH2 0x12D5 JUMP JUMPDEST PUSH1 0x40 MLOAD PUSH2 0x391 SWAP2 SWAP1 PUSH2 0x3770 JUMP JUMPDEST PUSH1 0x40 MLOAD DUP1 SWAP2 SUB SWAP1 RETURN JUMPDEST PUSH2 0x3A2 PUSH2 0x1314 JUMP JUMPDEST PUSH1 0x40 MLOAD PUSH2 0x3AF SWAP2 SWAP1 PUSH2 0x3683 JUMP JUMPDEST PUSH1 0x40 MLOAD DUP1 SWAP2 SUB SWAP1 RETURN JUMPDEST PUSH2 0x3D2 PUSH1 0x4 DUP1 CALLDATASIZE SUB DUP2 ADD SWAP1 PUSH2 0x3CD SWAP2 SWAP1 PUSH2 0x378B JUMP JUMPDEST PUSH2 0x147B JUMP JUMPDEST STOP JUMPDEST PUSH2 0x3EE PUSH1 0x4 DUP1 CALLDATASIZE SUB DUP2 ADD SWAP1 PUSH2 0x3E9 SWAP2 SWAP1 PUSH2 0x3734 JUMP JUMPDEST PUSH2 0x152F JUMP JUMPDEST STOP JUMPDEST PUSH2 0x40A PUSH1 0x4 DUP1 CALLDATASIZE SUB DUP2 ADD SWAP1 PUSH2 0x405 SWAP2 SWAP1 PUSH2 0x3825 JUMP JUMPDEST PUSH2 0x1625 JUMP JUMPDEST STOP JUMPDEST PUSH2 0x426 PUSH1 0x4 DUP1 CALLDATASIZE SUB DUP2 ADD SWAP1 PUSH2 0x421 SWAP2 SWAP1 PUSH2 0x3734 JUMP JUMPDEST PUSH2 0x179C JUMP JUMPDEST PUSH1 0x40 MLOAD PUSH2 0x433 SWAP2 SWAP1 PUSH2 0x3555 JUMP JUMPDEST PUSH1 0x40 MLOAD DUP1 SWAP2 SUB SWAP1 RETURN JUMPDEST PUSH2 0x444 PUSH2 0x1848 JUMP JUMPDEST PUSH1 0x40 MLOAD PUSH2 0x451 SWAP2 SWAP1 PUSH2 0x3555 JUMP JUMPDEST PUSH1 0x40 MLOAD DUP1 SWAP2 SUB SWAP1 RETURN JUMPDEST PUSH2 0x462 PUSH2 0x1968 JUMP JUMPDEST PUSH1 0x40 MLOAD PUSH2 0x46F SWAP2 SWAP1 PUSH2 0x3555 JUMP JUMPDEST PUSH1 0x40 MLOAD DUP1 SWAP2 SUB SWAP1 RETURN JUMPDEST PUSH2 0x492 PUSH1 0x4 DUP1 CALLDATASIZE SUB DUP2 ADD SWAP1 PUSH2 0x48D SWAP2 SWAP1 PUSH2 0x3734 JUMP JUMPDEST PUSH2 0x19F6 JUMP JUMPDEST PUSH1 0x40 MLOAD PUSH2 0x49F SWAP2 SWAP1 PUSH2 0x3770 JUMP JUMPDEST PUSH1 0x40 MLOAD DUP1 SWAP2 SUB SWAP1 RETURN JUMPDEST PUSH2 0x4C2 PUSH1 0x4 DUP1 CALLDATASIZE SUB DUP2 ADD SWAP1 PUSH2 0x4BD SWAP2 SWAP1 PUSH2 0x3457 JUMP JUMPDEST PUSH2 0x1A35 JUMP JUMPDEST STOP JUMPDEST PUSH2 0x4CC PUSH2 0x1B2E JUMP JUMPDEST PUSH1 0x40 MLOAD PUSH2 0x4D9 SWAP2 SWAP1 PUSH2 0x32DB JUMP JUMPDEST PUSH1 0x40 MLOAD DUP1 SWAP2 SUB SWAP1 RETURN JUMPDEST PUSH2 0x4EA PUSH2 0x1BBC JUMP JUMPDEST PUSH1 0x40 MLOAD PUSH2 0x4F7 SWAP2 SWAP1 PUSH2 0x3555 JUMP JUMPDEST PUSH1 0x40 MLOAD DUP1 SWAP2 SUB SWAP1 RETURN JUMPDEST PUSH2 0x51A PUSH1 0x4 DUP1 CALLDATASIZE SUB DUP2 ADD SWAP1 PUSH2 0x515 SWAP2 SWAP1 PUSH2 0x3734 JUMP JUMPDEST PUSH2 0x1C4A JUMP JUMPDEST PUSH1 0x40 MLOAD PUSH2 0x527 SWAP2 SWAP1 PUSH2 0x3555 JUMP JUMPDEST PUSH1 0x40 MLOAD DUP1 SWAP2 SUB SWAP1 RETURN JUMPDEST PUSH2 0x538 PUSH2 0x1CF6 JUMP JUMPDEST PUSH1 0x40 MLOAD PUSH2 0x545 SWAP2 SWAP1 PUSH2 0x3770 JUMP JUMPDEST PUSH1 0x40 MLOAD DUP1 SWAP2 SUB SWAP1 RETURN JUMPDEST PUSH2 0x568 PUSH1 0x4 DUP1 CALLDATASIZE SUB DUP2 ADD SWAP1 PUSH2 0x563 SWAP2 SWAP1 PUSH2 0x36D1 JUMP JUMPDEST PUSH2 0x1D1A JUMP JUMPDEST STOP JUMPDEST PUSH2 0x584 PUSH1 0x4 DUP1 CALLDATASIZE SUB DUP2 ADD SWAP1 PUSH2 0x57F SWAP2 SWAP1 PUSH2 0x36D1 JUMP JUMPDEST PUSH2 0x1E5D JUMP JUMPDEST PUSH1 0x40 MLOAD PUSH2 0x591 SWAP2 SWAP1 PUSH2 0x3770 JUMP JUMPDEST PUSH1 0x40 MLOAD DUP1 SWAP2 SUB SWAP1 RETURN JUMPDEST PUSH2 0x5B4 PUSH1 0x4 DUP1 CALLDATASIZE SUB DUP2 ADD SWAP1 PUSH2 0x5AF SWAP2 SWAP1 PUSH2 0x3734 JUMP JUMPDEST PUSH2 0x1F97 JUMP JUMPDEST PUSH1 0x40 MLOAD PUSH2 0x5C1 SWAP2 SWAP1 PUSH2 0x3770 JUMP JUMPDEST PUSH1 0x40 MLOAD DUP1 SWAP2 SUB SWAP1 RETURN JUMPDEST PUSH2 0x5E4 PUSH1 0x4 DUP1 CALLDATASIZE SUB DUP2 ADD SWAP1 PUSH2 0x5DF SWAP2 SWAP1 PUSH2 0x3938 JUMP JUMPDEST PUSH2 0x1FD6 JUMP JUMPDEST STOP JUMPDEST PUSH2 0x600 PUSH1 0x4 DUP1 CALLDATASIZE SUB DUP2 ADD SWAP1 PUSH2 0x5FB SWAP2 SWAP1 PUSH2 0x36D1 JUMP JUMPDEST PUSH2 0x207E JUMP JUMPDEST STOP JUMPDEST PUSH2 0x60A PUSH2 0x21C1 JUMP JUMPDEST PUSH1 0x40 MLOAD PUSH2 0x617 SWAP2 SWAP1 PUSH2 0x3770 JUMP JUMPDEST PUSH1 0x40 MLOAD DUP1 SWAP2 SUB SWAP1 RETURN JUMPDEST PUSH2 0x63A PUSH1 0x4 DUP1 CALLDATASIZE SUB DUP2 ADD SWAP1 PUSH2 0x635 SWAP2 SWAP1 PUSH2 0x3825 JUMP JUMPDEST PUSH2 0x21E7 JUMP JUMPDEST STOP JUMPDEST PUSH2 0x656 PUSH1 0x4 DUP1 CALLDATASIZE SUB DUP2 ADD SWAP1 PUSH2 0x651 SWAP2 SWAP1 PUSH2 0x36D1 JUMP JUMPDEST PUSH2 0x2322 JUMP JUMPDEST STOP JUMPDEST PUSH2 0x672 PUSH1 0x4 DUP1 CALLDATASIZE SUB DUP2 ADD SWAP1 PUSH2 0x66D SWAP2 SWAP1 PUSH2 0x3457 JUMP JUMPDEST PUSH2 0x2556 JUMP JUMPDEST STOP JUMPDEST PUSH2 0x68E PUSH1 0x4 DUP1 CALLDATASIZE SUB DUP2 ADD SWAP1 PUSH2 0x689 SWAP2 SWAP1 PUSH2 0x36D1 JUMP JUMPDEST PUSH2 0x26CA JUMP JUMPDEST PUSH1 0x40 MLOAD PUSH2 0x69B SWAP2 SWAP1 PUSH2 0x3555 JUMP JUMPDEST PUSH1 0x40 MLOAD DUP1 SWAP2 SUB SWAP1 RETURN JUMPDEST PUSH2 0x6BE PUSH1 0x4 DUP1 CALLDATASIZE SUB DUP2 ADD SWAP1 PUSH2 0x6B9 SWAP2 SWAP1 PUSH2 0x3457 JUMP JUMPDEST PUSH2 0x276A JUMP JUMPDEST STOP JUMPDEST PUSH2 0x6DA PUSH1 0x4 DUP1 CALLDATASIZE SUB DUP2 ADD SWAP1 PUSH2 0x6D5 SWAP2 SWAP1 PUSH2 0x3734 JUMP JUMPDEST PUSH2 0x27E9 JUMP JUMPDEST PUSH1 0x40 MLOAD PUSH2 0x6E7 SWAP2 SWAP1 PUSH2 0x3770 JUMP JUMPDEST PUSH1 0x40 MLOAD DUP1 SWAP2 SUB SWAP1 RETURN JUMPDEST PUSH2 0x6F8 PUSH2 0x2828 JUMP JUMPDEST STOP JUMPDEST PUSH2 0x702 PUSH2 0x2965 JUMP JUMPDEST STOP JUMPDEST PUSH2 0x70C PUSH2 0x2B98 JUMP JUMPDEST PUSH1 0x40 MLOAD PUSH2 0x719 SWAP2 SWAP1 PUSH2 0x32DB JUMP JUMPDEST PUSH1 0x40 MLOAD DUP1 SWAP2 SUB SWAP1 RETURN JUMPDEST PUSH2 0x72A PUSH2 0x2CFB JUMP JUMPDEST STOP JUMPDEST PUSH2 0x734 PUSH2 0x3056 JUMP JUMPDEST PUSH1 0x40 MLOAD PUSH2 0x741 SWAP2 SWAP1 PUSH2 0x34BB JUMP JUMPDEST PUSH1 0x40 MLOAD DUP1 SWAP2 SUB SWAP1 RETURN JUMPDEST PUSH1 0x60 PUSH1 0x0 DUP1 SLOAD SWAP1 PUSH2 0x100 EXP SWAP1 DIV PUSH20 0xFFFFFFFFFFFFFFFFFFFFFFFFFFFFFFFFFFFFFFFF AND PUSH20 0xFFFFFFFFFFFFFFFFFFFFFFFFFFFFFFFFFFFFFFFF AND CALLER PUSH20 0xFFFFFFFFFFFFFFFFFFFFFFFFFFFFFFFFFFFFFFFF AND EQ PUSH2 0x7DA JUMPI PUSH1 0x40 MLOAD PUSH32 0x8C379A000000000000000000000000000000000000000000000000000000000 DUP2 MSTORE PUSH1 0x4 ADD PUSH2 0x7D1 SWAP1 PUSH2 0x39CD JUMP JUMPDEST PUSH1 0x40 MLOAD DUP1 SWAP2 SUB SWAP1 REVERT JUMPDEST PUSH1 0x0 PUSH1 0xB PUSH1 0x0 SWAP1 SLOAD SWAP1 PUSH2 0x100 EXP SWAP1 DIV PUSH20 0xFFFFFFFFFFFFFFFFFFFFFFFFFFFFFFFFFFFFFFFF AND PUSH20 0xFFFFFFFFFFFFFFFFFFFFFFFFFFFFFFFFFFFFFFFF AND PUSH4 0xC5882344 PUSH1 0x8 PUSH1 0x40 MLOAD DUP3 PUSH4 0xFFFFFFFF AND PUSH1 0xE0 SHL DUP2 MSTORE PUSH1 0x4 ADD PUSH2 0x838 SWAP2 SWAP1 PUSH2 0x3AD9 JUMP JUMPDEST PUSH1 0x0 PUSH1 0x40 MLOAD DUP1 DUP4 SUB DUP2 DUP7 GAS STATICCALL ISZERO DUP1 ISZERO PUSH2 0x855 JUMPI RETURNDATASIZE PUSH1 0x0 DUP1 RETURNDATACOPY RETURNDATASIZE PUSH1 0x0 REVERT JUMPDEST POP POP POP POP PUSH1 0x40 MLOAD RETURNDATASIZE PUSH1 0x0 DUP3 RETURNDATACOPY RETURNDATASIZE PUSH1 0x1F NOT PUSH1 0x1F DUP3 ADD AND DUP3 ADD DUP1 PUSH1 0x40 MSTORE POP DUP2 ADD SWAP1 PUSH2 0x87E SWAP2 SWAP1 PUSH2 0x3BD3 JUMP JUMPDEST SWAP1 POP DUP1 SWAP2 POP POP SWAP1 JUMP JUMPDEST PUSH1 0x60 PUSH1 0x0 DUP1 SLOAD SWAP1 PUSH2 0x100 EXP SWAP1 DIV PUSH20 0xFFFFFFFFFFFFFFFFFFFFFFFFFFFFFFFFFFFFFFFF AND PUSH20 0xFFFFFFFFFFFFFFFFFFFFFFFFFFFFFFFFFFFFFFFF AND CALLER PUSH20 0xFFFFFFFFFFFFFFFFFFFFFFFFFFFFFFFFFFFFFFFF AND EQ PUSH2 0x917 JUMPI PUSH1 0x40 MLOAD PUSH32 0x8C379A000000000000000000000000000000000000000000000000000000000 DUP2 MSTORE PUSH1 0x4 ADD PUSH2 0x90E SWAP1 PUSH2 0x39CD JUMP JUMPDEST PUSH1 0x40 MLOAD DUP1 SWAP2 SUB SWAP1 REVERT JUMPDEST PUSH1 0x0 PUSH1 0xB PUSH1 0x0 SWAP1 SLOAD SWAP1 PUSH2 0x100 EXP SWAP1 DIV PUSH20 0xFFFFFFFFFFFFFFFFFFFFFFFFFFFFFFFFFFFFFFFF AND PUSH20 0xFFFFFFFFFFFFFFFFFFFFFFFFFFFFFFFFFFFFFFFF AND PUSH4 0x99F8B09F PUSH1 0x0 DUP1 SLOAD SWAP1 PUSH2 0x100 EXP SWAP1 DIV PUSH20 0xFFFFFFFFFFFFFFFFFFFFFFFFFFFFFFFFFFFFFFFF AND PUSH1 0x40 MLOAD DUP3 PUSH4 0xFFFFFFFF AND PUSH1 0xE0 SHL DUP2 MSTORE PUSH1 0x4 ADD PUSH2 0x994 SWAP2 SWAP1 PUSH2 0x3770 JUMP JUMPDEST PUSH1 0x0 PUSH1 0x40 MLOAD DUP1 DUP4 SUB DUP2 DUP7 GAS STATICCALL ISZERO DUP1 ISZERO PUSH2 0x9B1 JUMPI RETURNDATASIZE PUSH1 0x0 DUP1 RETURNDATACOPY RETURNDATASIZE PUSH1 0x0 REVERT JUMPDEST POP POP POP POP PUSH1 0x40 MLOAD RETURNDATASIZE PUSH1 0x0 DUP3 RETURNDATACOPY RETURNDATASIZE PUSH1 0x1F NOT PUSH1 0x1F DUP3 ADD AND DUP3 ADD DUP1 PUSH1 0x40 MSTORE POP DUP2 ADD SWAP1 PUSH2 0x9DA SWAP2 SWAP1 PUSH2 0x3BD3 JUMP JUMPDEST SWAP1 POP DUP1 SWAP2 POP POP SWAP1 JUMP JUMPDEST PUSH1 0x0 PUSH1 0xB PUSH1 0x0 SWAP1 SLOAD SWAP1 PUSH2 0x100 EXP SWAP1 DIV PUSH20 0xFFFFFFFFFFFFFFFFFFFFFFFFFFFFFFFFFFFFFFFF AND PUSH20 0xFFFFFFFFFFFFFFFFFFFFFFFFFFFFFFFFFFFFFFFF AND PUSH4 0xD85D839 DUP4 PUSH1 0x40 MLOAD DUP3 PUSH4 0xFFFFFFFF AND PUSH1 0xE0 SHL DUP2 MSTORE PUSH1 0x4 ADD PUSH2 0xA40 SWAP2 SWAP1 PUSH2 0x3555 JUMP JUMPDEST PUSH1 0x20 PUSH1 0x40 MLOAD DUP1 DUP4 SUB DUP2 DUP7 GAS STATICCALL ISZERO DUP1 ISZERO PUSH2 0xA5D JUMPI RETURNDATASIZE PUSH1 0x0 DUP1 RETURNDATACOPY RETURNDATASIZE PUSH1 0x0 REVERT JUMPDEST POP POP POP POP PUSH1 0x40 MLOAD RETURNDATASIZE PUSH1 0x1F NOT PUSH1 0x1F DUP3 ADD AND DUP3 ADD DUP1 PUSH1 0x40 MSTORE POP DUP2 ADD SWAP1 PUSH2 0xA81 SWAP2 SWAP1 PUSH2 0x3C48 JUMP JUMPDEST SWAP1 POP SWAP2 SWAP1 POP JUMP JUMPDEST PUSH1 0x60 PUSH1 0x0 DUP1 SLOAD SWAP1 PUSH2 0x100 EXP SWAP1 DIV PUSH20 0xFFFFFFFFFFFFFFFFFFFFFFFFFFFFFFFFFFFFFFFF AND PUSH20 0xFFFFFFFFFFFFFFFFFFFFFFFFFFFFFFFFFFFFFFFF AND CALLER PUSH20 0xFFFFFFFFFFFFFFFFFFFFFFFFFFFFFFFFFFFFFFFF AND EQ PUSH2 0xB18 JUMPI PUSH1 0x40 MLOAD PUSH32 0x8C379A000000000000000000000000000000000000000000000000000000000 DUP2 MSTORE PUSH1 0x4 ADD PUSH2 0xB0F SWAP1 PUSH2 0x39CD JUMP JUMPDEST PUSH1 0x40 MLOAD DUP1 SWAP2 SUB SWAP1 REVERT JUMPDEST PUSH1 0x1 DUP1 SLOAD PUSH2 0xB25 SWAP1 PUSH2 0x3CA4 JUMP JUMPDEST DUP1 PUSH1 0x1F ADD PUSH1 0x20 DUP1 SWAP2 DIV MUL PUSH1 0x20 ADD PUSH1 0x40 MLOAD SWAP1 DUP2 ADD PUSH1 0x40 MSTORE DUP1 SWAP3 SWAP2 SWAP1 DUP2 DUP2 MSTORE PUSH1 0x20 ADD DUP3 DUP1 SLOAD PUSH2 0xB51 SWAP1 PUSH2 0x3CA4 JUMP JUMPDEST DUP1 ISZERO PUSH2 0xB9E JUMPI DUP1 PUSH1 0x1F LT PUSH2 0xB73 JUMPI PUSH2 0x100 DUP1 DUP4 SLOAD DIV MUL DUP4 MSTORE SWAP2 PUSH1 0x20 ADD SWAP2 PUSH2 0xB9E JUMP JUMPDEST DUP3 ADD SWAP2 SWAP1 PUSH1 0x0 MSTORE PUSH1 0x20 PUSH1 0x0 KECCAK256 SWAP1 JUMPDEST DUP2 SLOAD DUP2 MSTORE SWAP1 PUSH1 0x1 ADD SWAP1 PUSH1 0x20 ADD DUP1 DUP4 GT PUSH2 0xB81 JUMPI DUP3 SWAP1 SUB PUSH1 0x1F AND DUP3 ADD SWAP2 JUMPDEST POP POP POP POP POP SWAP1 POP SWAP1 JUMP JUMPDEST PUSH1 0x60 PUSH2 0xBB2 PUSH2 0xE84 JUMP JUMPDEST PUSH2 0xBF1 JUMPI PUSH1 0x40 MLOAD PUSH32 0x8C379A000000000000000000000000000000000000000000000000000000000 DUP2 MSTORE PUSH1 0x4 ADD PUSH2 0xBE8 SWAP1 PUSH2 0x3D47 JUMP JUMPDEST PUSH1 0x40 MLOAD DUP1 SWAP2 SUB SWAP1 REVERT JUMPDEST PUSH1 0x0 DUP1 SLOAD SWAP1 PUSH2 0x100 EXP SWAP1 DIV PUSH20 0xFFFFFFFFFFFFFFFFFFFFFFFFFFFFFFFFFFFFFFFF AND PUSH20 0xFFFFFFFFFFFFFFFFFFFFFFFFFFFFFFFFFFFFFFFF AND CALLER PUSH20 0xFFFFFFFFFFFFFFFFFFFFFFFFFFFFFFFFFFFFFFFF AND EQ PUSH2 0xC7F JUMPI PUSH1 0x40 MLOAD PUSH32 0x8C379A000000000000000000000000000000000000000000000000000000000 DUP2 MSTORE PUSH1 0x4 ADD PUSH2 0xC76 SWAP1 PUSH2 0x39CD JUMP JUMPDEST PUSH1 0x40 MLOAD DUP1 SWAP2 SUB SWAP1 REVERT JUMPDEST PUSH1 0x9 DUP1 SLOAD DUP1 PUSH1 0x20 MUL PUSH1 0x20 ADD PUSH1 0x40 MLOAD SWAP1 DUP2 ADD PUSH1 0x40 MSTORE DUP1 SWAP3 SWAP2 SWAP1 DUP2 DUP2 MSTORE PUSH1 0x20 ADD PUSH1 0x0 SWAP1 JUMPDEST DUP3 DUP3 LT ISZERO PUSH2 0xD4D JUMPI DUP4 DUP3 SWAP1 PUSH1 0x0 MSTORE PUSH1 0x20 PUSH1 0x0 KECCAK256 ADD DUP1 SLOAD PUSH2 0xCC0 SWAP1 PUSH2 0x3CA4 JUMP JUMPDEST DUP1 PUSH1 0x1F ADD PUSH1 0x20 DUP1 SWAP2 DIV MUL PUSH1 0x20 ADD PUSH1 0x40 MLOAD SWAP1 DUP2 ADD PUSH1 0x40 MSTORE DUP1 SWAP3 SWAP2 SWAP1 DUP2 DUP2 MSTORE PUSH1 0x20 ADD DUP3 DUP1 SLOAD PUSH2 0xCEC SWAP1 PUSH2 0x3CA4 JUMP JUMPDEST DUP1 ISZERO PUSH2 0xD39 JUMPI DUP1 PUSH1 0x1F LT PUSH2 0xD0E JUMPI PUSH2 0x100 DUP1 DUP4 SLOAD DIV MUL DUP4 MSTORE SWAP2 PUSH1 0x20 ADD SWAP2 PUSH2 0xD39 JUMP JUMPDEST DUP3 ADD SWAP2 SWAP1 PUSH1 0x0 MSTORE PUSH1 0x20 PUSH1 0x0 KECCAK256 SWAP1 JUMPDEST DUP2 SLOAD DUP2 MSTORE SWAP1 PUSH1 0x1 ADD SWAP1 PUSH1 0x20 ADD DUP1 DUP4 GT PUSH2 0xD1C JUMPI DUP3 SWAP1 SUB PUSH1 0x1F AND DUP3 ADD SWAP2 JUMPDEST POP POP POP POP POP DUP2 MSTORE PUSH1 0x20 ADD SWAP1 PUSH1 0x1 ADD SWAP1 PUSH2 0xCA1 JUMP JUMPDEST POP POP POP POP SWAP1 POP SWAP1 JUMP JUMPDEST PUSH1 0x7 PUSH1 0x20 MSTORE DUP1 PUSH1 0x0 MSTORE PUSH1 0x40 PUSH1 0x0 KECCAK256 PUSH1 0x0 SWAP2 POP SWAP1 POP DUP1 SLOAD PUSH2 0xD75 SWAP1 PUSH2 0x3CA4 JUMP JUMPDEST DUP1 PUSH1 0x1F ADD PUSH1 0x20 DUP1 SWAP2 DIV MUL PUSH1 0x20 ADD PUSH1 0x40 MLOAD SWAP1 DUP2 ADD PUSH1 0x40 MSTORE DUP1 SWAP3 SWAP2 SWAP1 DUP2 DUP2 MSTORE PUSH1 0x20 ADD DUP3 DUP1 SLOAD PUSH2 0xDA1 SWAP1 PUSH2 0x3CA4 JUMP JUMPDEST DUP1 ISZERO PUSH2 0xDEE JUMPI DUP1 PUSH1 0x1F LT PUSH2 0xDC3 JUMPI PUSH2 0x100 DUP1 DUP4 SLOAD DIV MUL DUP4 MSTORE SWAP2 PUSH1 0x20 ADD SWAP2 PUSH2 0xDEE JUMP JUMPDEST DUP3 ADD SWAP2 SWAP1 PUSH1 0x0 MSTORE PUSH1 0x20 PUSH1 0x0 KECCAK256 SWAP1 JUMPDEST DUP2 SLOAD DUP2 MSTORE SWAP1 PUSH1 0x1 ADD SWAP1 PUSH1 0x20 ADD DUP1 DUP4 GT PUSH2 0xDD1 JUMPI DUP3 SWAP1 SUB PUSH1 0x1F AND DUP3 ADD SWAP2 JUMPDEST POP POP POP POP POP DUP2 JUMP JUMPDEST PUSH1 0x60 PUSH1 0x4 DUP1 SLOAD DUP1 PUSH1 0x20 MUL PUSH1 0x20 ADD PUSH1 0x40 MLOAD SWAP1 DUP2 ADD PUSH1 0x40 MSTORE DUP1 SWAP3 SWAP2 SWAP1 DUP2 DUP2 MSTORE PUSH1 0x20 ADD DUP3 DUP1 SLOAD DUP1 ISZERO PUSH2 0xE7A JUMPI PUSH1 0x20 MUL DUP3 ADD SWAP2 SWAP1 PUSH1 0x0 MSTORE PUSH1 0x20 PUSH1 0x0 KECCAK256 SWAP1 JUMPDEST DUP2 PUSH1 0x0 SWAP1 SLOAD SWAP1 PUSH2 0x100 EXP SWAP1 DIV PUSH20 0xFFFFFFFFFFFFFFFFFFFFFFFFFFFFFFFFFFFFFFFF AND PUSH20 0xFFFFFFFFFFFFFFFFFFFFFFFFFFFFFFFFFFFFFFFF AND DUP2 MSTORE PUSH1 0x20 ADD SWAP1 PUSH1 0x1 ADD SWAP1 DUP1 DUP4 GT PUSH2 0xE30 JUMPI JUMPDEST POP POP POP POP POP SWAP1 POP SWAP1 JUMP JUMPDEST PUSH1 0x0 PUSH1 0xB PUSH1 0x0 SWAP1 SLOAD SWAP1 PUSH2 0x100 EXP SWAP1 DIV PUSH20 0xFFFFFFFFFFFFFFFFFFFFFFFFFFFFFFFFFFFFFFFF AND PUSH20 0xFFFFFFFFFFFFFFFFFFFFFFFFFFFFFFFFFFFFFFFF AND PUSH4 0xD85D839 PUSH1 0x1 PUSH1 0x40 MLOAD DUP3 PUSH4 0xFFFFFFFF AND PUSH1 0xE0 SHL DUP2 MSTORE PUSH1 0x4 ADD PUSH2 0xEE2 SWAP2 SWAP1 PUSH2 0x3E00 JUMP JUMPDEST PUSH1 0x20 PUSH1 0x40 MLOAD DUP1 DUP4 SUB DUP2 DUP7 GAS STATICCALL ISZERO DUP1 ISZERO PUSH2 0xEFF JUMPI RETURNDATASIZE PUSH1 0x0 DUP1 RETURNDATACOPY RETURNDATASIZE PUSH1 0x0 REVERT JUMPDEST POP POP POP POP PUSH1 0x40 MLOAD RETURNDATASIZE PUSH1 0x1F NOT PUSH1 0x1F DUP3 ADD AND DUP3 ADD DUP1 PUSH1 0x40 MSTORE POP DUP2 ADD SWAP1 PUSH2 0xF23 SWAP2 SWAP1 PUSH2 0x3C48 JUMP JUMPDEST SWAP1 POP SWAP1 JUMP JUMPDEST PUSH1 0x0 DUP1 SLOAD SWAP1 PUSH2 0x100 EXP SWAP1 DIV PUSH20 0xFFFFFFFFFFFFFFFFFFFFFFFFFFFFFFFFFFFFFFFF AND PUSH20 0xFFFFFFFFFFFFFFFFFFFFFFFFFFFFFFFFFFFFFFFF AND CALLER PUSH20 0xFFFFFFFFFFFFFFFFFFFFFFFFFFFFFFFFFFFFFFFF AND EQ PUSH2 0xFB6 JUMPI PUSH1 0x40 MLOAD PUSH32 0x8C379A000000000000000000000000000000000000000000000000000000000 DUP2 MSTORE PUSH1 0x4 ADD PUSH2 0xFAD SWAP1 PUSH2 0x39CD JUMP JUMPDEST PUSH1 0x40 MLOAD DUP1 SWAP2 SUB SWAP1 REVERT JUMPDEST PUSH2 0xFBE PUSH2 0xE84 JUMP JUMPDEST PUSH2 0xFFD JUMPI PUSH1 0x40 MLOAD PUSH32 0x8C379A000000000000000000000000000000000000000000000000000000000 DUP2 MSTORE PUSH1 0x4 ADD PUSH2 0xFF4 SWAP1 PUSH2 0x3D47 JUMP JUMPDEST PUSH1 0x40 MLOAD DUP1 SWAP2 SUB SWAP1 REVERT JUMPDEST PUSH1 0x0 PUSH1 0xB PUSH1 0x0 SWAP1 SLOAD SWAP1 PUSH2 0x100 EXP SWAP1 DIV PUSH20 0xFFFFFFFFFFFFFFFFFFFFFFFFFFFFFFFFFFFFFFFF AND PUSH20 0xFFFFFFFFFFFFFFFFFFFFFFFFFFFFFFFFFFFFFFFF AND PUSH4 0xD71E80E3 PUSH1 0x0 DUP1 SLOAD SWAP1 PUSH2 0x100 EXP SWAP1 DIV PUSH20 0xFFFFFFFFFFFFFFFFFFFFFFFFFFFFFFFFFFFFFFFF AND PUSH1 0x40 MLOAD DUP3 PUSH4 0xFFFFFFFF AND PUSH1 0xE0 SHL DUP2 MSTORE PUSH1 0x4 ADD PUSH2 0x107A SWAP2 SWAP1 PUSH2 0x3770 JUMP JUMPDEST PUSH1 0x0 PUSH1 0x40 MLOAD DUP1 DUP4 SUB DUP2 PUSH1 0x0 DUP8 GAS CALL ISZERO DUP1 ISZERO PUSH2 0x1099 JUMPI RETURNDATASIZE PUSH1 0x0 DUP1 RETURNDATACOPY RETURNDATASIZE PUSH1 0x0 REVERT JUMPDEST POP POP POP POP PUSH1 0x40 MLOAD RETURNDATASIZE PUSH1 0x0 DUP3 RETURNDATACOPY RETURNDATASIZE PUSH1 0x1F NOT PUSH1 0x1F DUP3 ADD AND DUP3 ADD DUP1 PUSH1 0x40 MSTORE POP DUP2 ADD SWAP1 PUSH2 0x10C2 SWAP2 SWAP1 PUSH2 0x3BD3 JUMP JUMPDEST SWAP1 POP PUSH1 0x0 PUSH1 0xB PUSH1 0x0 SWAP1 SLOAD SWAP1 PUSH2 0x100 EXP SWAP1 DIV PUSH20 0xFFFFFFFFFFFFFFFFFFFFFFFFFFFFFFFFFFFFFFFF AND PUSH20 0xFFFFFFFFFFFFFFFFFFFFFFFFFFFFFFFFFFFFFFFF AND PUSH4 0x7568708F PUSH1 0x0 DUP1 SLOAD SWAP1 PUSH2 0x100 EXP SWAP1 DIV PUSH20 0xFFFFFFFFFFFFFFFFFFFFFFFFFFFFFFFFFFFFFFFF AND PUSH1 0x40 MLOAD DUP3 PUSH4 0xFFFFFFFF AND PUSH1 0xE0 SHL DUP2 MSTORE PUSH1 0x4 ADD PUSH2 0x1141 SWAP2 SWAP1 PUSH2 0x3770 JUMP JUMPDEST PUSH1 0x0 PUSH1 0x40 MLOAD DUP1 DUP4 SUB DUP2 PUSH1 0x0 DUP8 GAS CALL ISZERO DUP1 ISZERO PUSH2 0x1160 JUMPI RETURNDATASIZE PUSH1 0x0 DUP1 RETURNDATACOPY RETURNDATASIZE PUSH1 0x0 REVERT JUMPDEST POP POP POP POP PUSH1 0x40 MLOAD RETURNDATASIZE PUSH1 0x0 DUP3 RETURNDATACOPY RETURNDATASIZE PUSH1 0x1F NOT PUSH1 0x1F DUP3 ADD AND DUP3 ADD DUP1 PUSH1 0x40 MSTORE POP DUP2 ADD SWAP1 PUSH2 0x1189 SWAP2 SWAP1 PUSH2 0x3BD3 JUMP JUMPDEST SWAP1 POP PUSH1 0x0 JUMPDEST DUP3 MLOAD DUP2 LT ISZERO PUSH2 0x122D JUMPI PUSH1 0x0 DUP4 DUP3 DUP2 MLOAD DUP2 LT PUSH2 0x11AC JUMPI PUSH2 0x11AB PUSH2 0x3E22 JUMP JUMPDEST JUMPDEST PUSH1 0x20 MUL PUSH1 0x20 ADD ADD MLOAD SWAP1 POP PUSH1 0x3 DUP2 SWAP1 DUP1 PUSH1 0x1 DUP2 SLOAD ADD DUP1 DUP3 SSTORE DUP1 SWAP2 POP POP PUSH1 0x1 SWAP1 SUB SWAP1 PUSH1 0x0 MSTORE PUSH1 0x20 PUSH1 0x0 KECCAK256 ADD PUSH1 0x0 SWAP1 SWAP2 SWAP1 SWAP2 SWAP1 SWAP2 PUSH2 0x100 EXP DUP2 SLOAD DUP2 PUSH20 0xFFFFFFFFFFFFFFFFFFFFFFFFFFFFFFFFFFFFFFFF MUL NOT AND SWAP1 DUP4 PUSH20 0xFFFFFFFFFFFFFFFFFFFFFFFFFFFFFFFFFFFFFFFF AND MUL OR SWAP1 SSTORE POP POP DUP1 DUP1 PUSH2 0x1225 SWAP1 PUSH2 0x3E80 JUMP JUMPDEST SWAP2 POP POP PUSH2 0x118E JUMP JUMPDEST POP PUSH1 0x0 JUMPDEST DUP2 MLOAD DUP2 LT ISZERO PUSH2 0x12D0 JUMPI PUSH1 0x0 DUP3 DUP3 DUP2 MLOAD DUP2 LT PUSH2 0x124F JUMPI PUSH2 0x124E PUSH2 0x3E22 JUMP JUMPDEST JUMPDEST PUSH1 0x20 MUL PUSH1 0x20 ADD ADD MLOAD SWAP1 POP PUSH1 0x4 DUP2 SWAP1 DUP1 PUSH1 0x1 DUP2 SLOAD ADD DUP1 DUP3 SSTORE DUP1 SWAP2 POP POP PUSH1 0x1 SWAP1 SUB SWAP1 PUSH1 0x0 MSTORE PUSH1 0x20 PUSH1 0x0 KECCAK256 ADD PUSH1 0x0 SWAP1 SWAP2 SWAP1 SWAP2 SWAP1 SWAP2 PUSH2 0x100 EXP DUP2 SLOAD DUP2 PUSH20 0xFFFFFFFFFFFFFFFFFFFFFFFFFFFFFFFFFFFFFFFF MUL NOT AND SWAP1 DUP4 PUSH20 0xFFFFFFFFFFFFFFFFFFFFFFFFFFFFFFFFFFFFFFFF AND MUL OR SWAP1 SSTORE POP POP DUP1 DUP1 PUSH2 0x12C8 SWAP1 PUSH2 0x3E80 JUMP JUMPDEST SWAP2 POP POP PUSH2 0x1231 JUMP JUMPDEST POP POP POP JUMP JUMPDEST PUSH1 0x8 DUP2 DUP2 SLOAD DUP2 LT PUSH2 0x12E5 JUMPI PUSH1 0x0 DUP1 REVERT JUMPDEST SWAP1 PUSH1 0x0 MSTORE PUSH1 0x20 PUSH1 0x0 KECCAK256 ADD PUSH1 0x0 SWAP2 POP SLOAD SWAP1 PUSH2 0x100 EXP SWAP1 DIV PUSH20 0xFFFFFFFFFFFFFFFFFFFFFFFFFFFFFFFFFFFFFFFF AND DUP2 JUMP JUMPDEST PUSH1 0x60 PUSH1 0x0 DUP1 SLOAD SWAP1 PUSH2 0x100 EXP SWAP1 DIV PUSH20 0xFFFFFFFFFFFFFFFFFFFFFFFFFFFFFFFFFFFFFFFF AND PUSH20 0xFFFFFFFFFFFFFFFFFFFFFFFFFFFFFFFFFFFFFFFF AND CALLER PUSH20 0xFFFFFFFFFFFFFFFFFFFFFFFFFFFFFFFFFFFFFFFF AND EQ PUSH2 0x13A4 JUMPI PUSH1 0x40 MLOAD PUSH32 0x8C379A000000000000000000000000000000000000000000000000000000000 DUP2 MSTORE PUSH1 0x4 ADD PUSH2 0x139B SWAP1 PUSH2 0x39CD JUMP JUMPDEST PUSH1 0x40 MLOAD DUP1 SWAP2 SUB SWAP1 REVERT JUMPDEST PUSH1 0x5 DUP1 SLOAD DUP1 PUSH1 0x20 MUL PUSH1 0x20 ADD PUSH1 0x40 MLOAD SWAP1 DUP2 ADD PUSH1 0x40 MSTORE DUP1 SWAP3 SWAP2 SWAP1 DUP2 DUP2 MSTORE PUSH1 0x20 ADD PUSH1 0x0 SWAP1 JUMPDEST DUP3 DUP3 LT ISZERO PUSH2 0x1472 JUMPI DUP4 DUP3 SWAP1 PUSH1 0x0 MSTORE PUSH1 0x20 PUSH1 0x0 KECCAK256 ADD DUP1 SLOAD PUSH2 0x13E5 SWAP1 PUSH2 0x3CA4 JUMP JUMPDEST DUP1 PUSH1 0x1F ADD PUSH1 0x20 DUP1 SWAP2 DIV MUL PUSH1 0x20 ADD PUSH1 0x40 MLOAD SWAP1 DUP2 ADD PUSH1 0x40 MSTORE DUP1 SWAP3 SWAP2 SWAP1 DUP2 DUP2 MSTORE PUSH1 0x20 ADD DUP3 DUP1 SLOAD PUSH2 0x1411 SWAP1 PUSH2 0x3CA4 JUMP JUMPDEST DUP1 ISZERO PUSH2 0x145E JUMPI DUP1 PUSH1 0x1F LT PUSH2 0x1433 JUMPI PUSH2 0x100 DUP1 DUP4 SLOAD DIV MUL DUP4 MSTORE SWAP2 PUSH1 0x20 ADD SWAP2 PUSH2 0x145E JUMP JUMPDEST DUP3 ADD SWAP2 SWAP1 PUSH1 0x0 MSTORE PUSH1 0x20 PUSH1 0x0 KECCAK256 SWAP1 JUMPDEST DUP2 SLOAD DUP2 MSTORE SWAP1 PUSH1 0x1 ADD SWAP1 PUSH1 0x20 ADD DUP1 DUP4 GT PUSH2 0x1441 JUMPI DUP3 SWAP1 SUB PUSH1 0x1F AND DUP3 ADD SWAP2 JUMPDEST POP POP POP POP POP DUP2 MSTORE PUSH1 0x20 ADD SWAP1 PUSH1 0x1 ADD SWAP1 PUSH2 0x13C6 JUMP JUMPDEST POP POP POP POP SWAP1 POP SWAP1 JUMP JUMPDEST PUSH1 0x8 DUP3 SWAP1 DUP1 PUSH1 0x1 DUP2 SLOAD ADD DUP1 DUP3 SSTORE DUP1 SWAP2 POP POP PUSH1 0x1 SWAP1 SUB SWAP1 PUSH1 0x0 MSTORE PUSH1 0x20 PUSH1 0x0 KECCAK256 ADD PUSH1 0x0 SWAP1 SWAP2 SWAP1 SWAP2 SWAP1 SWAP2 PUSH2 0x100 EXP DUP2 SLOAD DUP2 PUSH20 0xFFFFFFFFFFFFFFFFFFFFFFFFFFFFFFFFFFFFFFFF MUL NOT AND SWAP1 DUP4 PUSH20 0xFFFFFFFFFFFFFFFFFFFFFFFFFFFFFFFFFFFFFFFF AND MUL OR SWAP1 SSTORE POP DUP1 PUSH1 0x7 PUSH1 0x0 DUP5 PUSH20 0xFFFFFFFFFFFFFFFFFFFFFFFFFFFFFFFFFFFFFFFF AND PUSH20 0xFFFFFFFFFFFFFFFFFFFFFFFFFFFFFFFFFFFFFFFF AND DUP2 MSTORE PUSH1 0x20 ADD SWAP1 DUP2 MSTORE PUSH1 0x20 ADD PUSH1 0x0 KECCAK256 SWAP1 DUP2 PUSH2 0x152A SWAP2 SWAP1 PUSH2 0x405F JUMP JUMPDEST POP POP POP JUMP JUMPDEST PUSH1 0x2 PUSH1 0x1 PUSH1 0x2 DUP1 SLOAD SWAP1 POP PUSH2 0x1543 SWAP2 SWAP1 PUSH2 0x4131 JUMP JUMPDEST DUP2 SLOAD DUP2 LT PUSH2 0x1554 JUMPI PUSH2 0x1553 PUSH2 0x3E22 JUMP JUMPDEST JUMPDEST SWAP1 PUSH1 0x0 MSTORE PUSH1 0x20 PUSH1 0x0 KECCAK256 ADD PUSH1 0x0 SWAP1 SLOAD SWAP1 PUSH2 0x100 EXP SWAP1 DIV PUSH20 0xFFFFFFFFFFFFFFFFFFFFFFFFFFFFFFFFFFFFFFFF AND PUSH1 0x2 DUP3 DUP2 SLOAD DUP2 LT PUSH2 0x1593 JUMPI PUSH2 0x1592 PUSH2 0x3E22 JUMP JUMPDEST JUMPDEST SWAP1 PUSH1 0x0 MSTORE PUSH1 0x20 PUSH1 0x0 KECCAK256 ADD PUSH1 0x0 PUSH2 0x100 EXP DUP2 SLOAD DUP2 PUSH20 0xFFFFFFFFFFFFFFFFFFFFFFFFFFFFFFFFFFFFFFFF MUL NOT AND SWAP1 DUP4 PUSH20 0xFFFFFFFFFFFFFFFFFFFFFFFFFFFFFFFFFFFFFFFF AND MUL OR SWAP1 SSTORE POP PUSH1 0x2 DUP1 SLOAD DUP1 PUSH2 0x15ED JUMPI PUSH2 0x15EC PUSH2 0x4165 JUMP JUMPDEST JUMPDEST PUSH1 0x1 SWAP1 SUB DUP2 DUP2 SWAP1 PUSH1 0x0 MSTORE PUSH1 0x20 PUSH1 0x0 KECCAK256 ADD PUSH1 0x0 PUSH2 0x100 EXP DUP2 SLOAD SWAP1 PUSH20 0xFFFFFFFFFFFFFFFFFFFFFFFFFFFFFFFFFFFFFFFF MUL NOT AND SWAP1 SSTORE SWAP1 SSTORE POP JUMP JUMPDEST PUSH1 0x0 DUP1 SLOAD SWAP1 PUSH2 0x100 EXP SWAP1 DIV PUSH20 0xFFFFFFFFFFFFFFFFFFFFFFFFFFFFFFFFFFFFFFFF AND PUSH20 0xFFFFFFFFFFFFFFFFFFFFFFFFFFFFFFFFFFFFFFFF AND CALLER PUSH20 0xFFFFFFFFFFFFFFFFFFFFFFFFFFFFFFFFFFFFFFFF AND EQ PUSH2 0x16B3 JUMPI PUSH1 0x40 MLOAD PUSH32 0x8C379A000000000000000000000000000000000000000000000000000000000 DUP2 MSTORE PUSH1 0x4 ADD PUSH2 0x16AA SWAP1 PUSH2 0x39CD JUMP JUMPDEST PUSH1 0x40 MLOAD DUP1 SWAP2 SUB SWAP1 REVERT JUMPDEST PUSH2 0x16BB PUSH2 0xE84 JUMP JUMPDEST PUSH2 0x16FA JUMPI PUSH1 0x40 MLOAD PUSH32 0x8C379A000000000000000000000000000000000000000000000000000000000 DUP2 MSTORE PUSH1 0x4 ADD PUSH2 0x16F1 SWAP1 PUSH2 0x3D47 JUMP JUMPDEST PUSH1 0x40 MLOAD DUP1 SWAP2 SUB SWAP1 REVERT JUMPDEST PUSH1 0x0 JUMPDEST PUSH1 0x2 DUP1 SLOAD SWAP1 POP DUP2 LT ISZERO PUSH2 0x178F JUMPI DUP2 PUSH20 0xFFFFFFFFFFFFFFFFFFFFFFFFFFFFFFFFFFFFFFFF AND PUSH1 0x2 DUP3 DUP2 SLOAD DUP2 LT PUSH2 0x1735 JUMPI PUSH2 0x1734 PUSH2 0x3E22 JUMP JUMPDEST JUMPDEST SWAP1 PUSH1 0x0 MSTORE PUSH1 0x20 PUSH1 0x0 KECCAK256 ADD PUSH1 0x0 SWAP1 SLOAD SWAP1 PUSH2 0x100 EXP SWAP1 DIV PUSH20 0xFFFFFFFFFFFFFFFFFFFFFFFFFFFFFFFFFFFFFFFF AND PUSH20 0xFFFFFFFFFFFFFFFFFFFFFFFFFFFFFFFFFFFFFFFF AND SUB ISZERO PUSH2 0x178F JUMPI DUP1 DUP1 PUSH2 0x1787 SWAP1 PUSH2 0x3E80 JUMP JUMPDEST SWAP2 POP POP PUSH2 0x16FD JUMP JUMPDEST PUSH2 0x1798 DUP2 PUSH2 0x152F JUMP JUMPDEST POP POP JUMP JUMPDEST PUSH1 0x5 DUP2 DUP2 SLOAD DUP2 LT PUSH2 0x17AC JUMPI PUSH1 0x0 DUP1 REVERT JUMPDEST SWAP1 PUSH1 0x0 MSTORE PUSH1 0x20 PUSH1 0x0 KECCAK256 ADD PUSH1 0x0 SWAP2 POP SWAP1 POP DUP1 SLOAD PUSH2 0x17C7 SWAP1 PUSH2 0x3CA4 JUMP JUMPDEST DUP1 PUSH1 0x1F ADD PUSH1 0x20 DUP1 SWAP2 DIV MUL PUSH1 0x20 ADD PUSH1 0x40 MLOAD SWAP1 DUP2 ADD PUSH1 0x40 MSTORE DUP1 SWAP3 SWAP2 SWAP1 DUP2 DUP2 MSTORE PUSH1 0x20 ADD DUP3 DUP1 SLOAD PUSH2 0x17F3 SWAP1 PUSH2 0x3CA4 JUMP JUMPDEST DUP1 ISZERO PUSH2 0x1840 JUMPI DUP1 PUSH1 0x1F LT PUSH2 0x1815 JUMPI PUSH2 0x100 DUP1 DUP4 SLOAD DIV MUL DUP4 MSTORE SWAP2 PUSH1 0x20 ADD SWAP2 PUSH2 0x1840 JUMP JUMPDEST DUP3 ADD SWAP2 SWAP1 PUSH1 0x0 MSTORE PUSH1 0x20 PUSH1 0x0 KECCAK256 SWAP1 JUMPDEST DUP2 SLOAD DUP2 MSTORE SWAP1 PUSH1 0x1 ADD SWAP1 PUSH1 0x20 ADD DUP1 DUP4 GT PUSH2 0x1823 JUMPI DUP3 SWAP1 SUB PUSH1 0x1F AND DUP3 ADD SWAP2 JUMPDEST POP POP POP POP POP DUP2 JUMP JUMPDEST PUSH1 0x60 PUSH1 0x0 DUP1 SLOAD SWAP1 PUSH2 0x100 EXP SWAP1 DIV PUSH20 0xFFFFFFFFFFFFFFFFFFFFFFFFFFFFFFFFFFFFFFFF AND PUSH20 0xFFFFFFFFFFFFFFFFFFFFFFFFFFFFFFFFFFFFFFFF AND CALLER PUSH20 0xFFFFFFFFFFFFFFFFFFFFFFFFFFFFFFFFFFFFFFFF AND EQ PUSH2 0x18D8 JUMPI PUSH1 0x40 MLOAD PUSH32 0x8C379A000000000000000000000000000000000000000000000000000000000 DUP2 MSTORE PUSH1 0x4 ADD PUSH2 0x18CF SWAP1 PUSH2 0x39CD JUMP JUMPDEST PUSH1 0x40 MLOAD DUP1 SWAP2 SUB SWAP1 REVERT JUMPDEST PUSH1 0xC DUP1 SLOAD PUSH2 0x18E5 SWAP1 PUSH2 0x3CA4 JUMP JUMPDEST DUP1 PUSH1 0x1F ADD PUSH1 0x20 DUP1 SWAP2 DIV MUL PUSH1 0x20 ADD PUSH1 0x40 MLOAD SWAP1 DUP2 ADD PUSH1 0x40 MSTORE DUP1 SWAP3 SWAP2 SWAP1 DUP2 DUP2 MSTORE PUSH1 0x20 ADD DUP3 DUP1 SLOAD PUSH2 0x1911 SWAP1 PUSH2 0x3CA4 JUMP JUMPDEST DUP1 ISZERO PUSH2 0x195E JUMPI DUP1 PUSH1 0x1F LT PUSH2 0x1933 JUMPI PUSH2 0x100 DUP1 DUP4 SLOAD DIV MUL DUP4 MSTORE SWAP2 PUSH1 0x20 ADD SWAP2 PUSH2 0x195E JUMP JUMPDEST DUP3 ADD SWAP2 SWAP1 PUSH1 0x0 MSTORE PUSH1 0x20 PUSH1 0x0 KECCAK256 SWAP1 JUMPDEST DUP2 SLOAD DUP2 MSTORE SWAP1 PUSH1 0x1 ADD SWAP1 PUSH1 0x20 ADD DUP1 DUP4 GT PUSH2 0x1941 JUMPI DUP3 SWAP1 SUB PUSH1 0x1F AND DUP3 ADD SWAP2 JUMPDEST POP POP POP POP POP SWAP1 POP SWAP1 JUMP JUMPDEST PUSH1 0x1 DUP1 SLOAD PUSH2 0x1975 SWAP1 PUSH2 0x3CA4 JUMP JUMPDEST DUP1 PUSH1 0x1F ADD PUSH1 0x20 DUP1 SWAP2 DIV MUL PUSH1 0x20 ADD PUSH1 0x40 MLOAD SWAP1 DUP2 ADD PUSH1 0x40 MSTORE DUP1 SWAP3 SWAP2 SWAP1 DUP2 DUP2 MSTORE PUSH1 0x20 ADD DUP3 DUP1 SLOAD PUSH2 0x19A1 SWAP1 PUSH2 0x3CA4 JUMP JUMPDEST DUP1 ISZERO PUSH2 0x19EE JUMPI DUP1 PUSH1 0x1F LT PUSH2 0x19C3 JUMPI PUSH2 0x100 DUP1 DUP4 SLOAD DIV MUL DUP4 MSTORE SWAP2 PUSH1 0x20 ADD SWAP2 PUSH2 0x19EE JUMP JUMPDEST DUP3 ADD SWAP2 SWAP1 PUSH1 0x0 MSTORE PUSH1 0x20 PUSH1 0x0 KECCAK256 SWAP1 JUMPDEST DUP2 SLOAD DUP2 MSTORE SWAP1 PUSH1 0x1 ADD SWAP1 PUSH1 0x20 ADD DUP1 DUP4 GT PUSH2 0x19D1 JUMPI DUP3 SWAP1 SUB PUSH1 0x1F AND DUP3 ADD SWAP2 JUMPDEST POP POP POP POP POP DUP2 JUMP JUMPDEST PUSH1 0x3 DUP2 DUP2 SLOAD DUP2 LT PUSH2 0x1A06 JUMPI PUSH1 0x0 DUP1 REVERT JUMPDEST SWAP1 PUSH1 0x0 MSTORE PUSH1 0x20 PUSH1 0x0 KECCAK256 ADD PUSH1 0x0 SWAP2 POP SLOAD SWAP1 PUSH2 0x100 EXP SWAP1 DIV PUSH20 0xFFFFFFFFFFFFFFFFFFFFFFFFFFFFFFFFFFFFFFFF AND DUP2 JUMP JUMPDEST PUSH2 0x1A3D PUSH2 0xE84 JUMP JUMPDEST PUSH2 0x1A7C JUMPI PUSH1 0x40 MLOAD PUSH32 0x8C379A000000000000000000000000000000000000000000000000000000000 DUP2 MSTORE PUSH1 0x4 ADD PUSH2 0x1A73 SWAP1 PUSH2 0x3D47 JUMP JUMPDEST PUSH1 0x40 MLOAD DUP1 SWAP2 SUB SWAP1 REVERT JUMPDEST PUSH1 0xB PUSH1 0x0 SWAP1 SLOAD SWAP1 PUSH2 0x100 EXP SWAP1 DIV PUSH20 0xFFFFFFFFFFFFFFFFFFFFFFFFFFFFFFFFFFFFFFFF AND PUSH20 0xFFFFFFFFFFFFFFFFFFFFFFFFFFFFFFFFFFFFFFFF AND PUSH4 0xE7618A0A DUP3 PUSH1 0x0 DUP1 SLOAD SWAP1 PUSH2 0x100 EXP SWAP1 DIV PUSH20 0xFFFFFFFFFFFFFFFFFFFFFFFFFFFFFFFFFFFFFFFF AND PUSH1 0x40 MLOAD DUP4 PUSH4 0xFFFFFFFF AND PUSH1 0xE0 SHL DUP2 MSTORE PUSH1 0x4 ADD PUSH2 0x1AF9 SWAP3 SWAP2 SWAP1 PUSH2 0x4194 JUMP JUMPDEST PUSH1 0x0 PUSH1 0x40 MLOAD DUP1 DUP4 SUB DUP2 PUSH1 0x0 DUP8 DUP1 EXTCODESIZE ISZERO DUP1 ISZERO PUSH2 0x1B13 JUMPI PUSH1 0x0 DUP1 REVERT JUMPDEST POP GAS CALL ISZERO DUP1 ISZERO PUSH2 0x1B27 JUMPI RETURNDATASIZE PUSH1 0x0 DUP1 RETURNDATACOPY RETURNDATASIZE PUSH1 0x0 REVERT JUMPDEST POP POP POP POP POP JUMP JUMPDEST PUSH1 0x60 PUSH1 0x3 DUP1 SLOAD DUP1 PUSH1 0x20 MUL PUSH1 0x20 ADD PUSH1 0x40 MLOAD SWAP1 DUP2 ADD PUSH1 0x40 MSTORE DUP1 SWAP3 SWAP2 SWAP1 DUP2 DUP2 MSTORE PUSH1 0x20 ADD DUP3 DUP1 SLOAD DUP1 ISZERO PUSH2 0x1BB2 JUMPI PUSH1 0x20 MUL DUP3 ADD SWAP2 SWAP1 PUSH1 0x0 MSTORE PUSH1 0x20 PUSH1 0x0 KECCAK256 SWAP1 JUMPDEST DUP2 PUSH1 0x0 SWAP1 SLOAD SWAP1 PUSH2 0x100 EXP SWAP1 DIV PUSH20 0xFFFFFFFFFFFFFFFFFFFFFFFFFFFFFFFFFFFFFFFF AND PUSH20 0xFFFFFFFFFFFFFFFFFFFFFFFFFFFFFFFFFFFFFFFF AND DUP2 MSTORE PUSH1 0x20 ADD SWAP1 PUSH1 0x1 ADD SWAP1 DUP1 DUP4 GT PUSH2 0x1B68 JUMPI JUMPDEST POP POP POP POP POP SWAP1 POP SWAP1 JUMP JUMPDEST PUSH1 0xC DUP1 SLOAD PUSH2 0x1BC9 SWAP1 PUSH2 0x3CA4 JUMP JUMPDEST DUP1 PUSH1 0x1F ADD PUSH1 0x20 DUP1 SWAP2 DIV MUL PUSH1 0x20 ADD PUSH1 0x40 MLOAD SWAP1 DUP2 ADD PUSH1 0x40 MSTORE DUP1 SWAP3 SWAP2 SWAP1 DUP2 DUP2 MSTORE PUSH1 0x20 ADD DUP3 DUP1 SLOAD PUSH2 0x1BF5 SWAP1 PUSH2 0x3CA4 JUMP JUMPDEST DUP1 ISZERO PUSH2 0x1C42 JUMPI DUP1 PUSH1 0x1F LT PUSH2 0x1C17 JUMPI PUSH2 0x100 DUP1 DUP4 SLOAD DIV MUL DUP4 MSTORE SWAP2 PUSH1 0x20 ADD SWAP2 PUSH2 0x1C42 JUMP JUMPDEST DUP3 ADD SWAP2 SWAP1 PUSH1 0x0 MSTORE PUSH1 0x20 PUSH1 0x0 KECCAK256 SWAP1 JUMPDEST DUP2 SLOAD DUP2 MSTORE SWAP1 PUSH1 0x1 ADD SWAP1 PUSH1 0x20 ADD DUP1 DUP4 GT PUSH2 0x1C25 JUMPI DUP3 SWAP1 SUB PUSH1 0x1F AND DUP3 ADD SWAP2 JUMPDEST POP POP POP POP POP DUP2 JUMP JUMPDEST PUSH1 0x9 DUP2 DUP2 SLOAD DUP2 LT PUSH2 0x1C5A JUMPI PUSH1 0x0 DUP1 REVERT JUMPDEST SWAP1 PUSH1 0x0 MSTORE PUSH1 0x20 PUSH1 0x0 KECCAK256 ADD PUSH1 0x0 SWAP2 POP SWAP1 POP DUP1 SLOAD PUSH2 0x1C75 SWAP1 PUSH2 0x3CA4 JUMP JUMPDEST DUP1 PUSH1 0x1F ADD PUSH1 0x20 DUP1 SWAP2 DIV MUL PUSH1 0x20 ADD PUSH1 0x40 MLOAD SWAP1 DUP2 ADD PUSH1 0x40 MSTORE DUP1 SWAP3 SWAP2 SWAP1 DUP2 DUP2 MSTORE PUSH1 0x20 ADD DUP3 DUP1 SLOAD PUSH2 0x1CA1 SWAP1 PUSH2 0x3CA4 JUMP JUMPDEST DUP1 ISZERO PUSH2 0x1CEE JUMPI DUP1 PUSH1 0x1F LT PUSH2 0x1CC3 JUMPI PUSH2 0x100 DUP1 DUP4 SLOAD DIV MUL DUP4 MSTORE SWAP2 PUSH1 0x20 ADD SWAP2 PUSH2 0x1CEE JUMP JUMPDEST DUP3 ADD SWAP2 SWAP1 PUSH1 0x0 MSTORE PUSH1 0x20 PUSH1 0x0 KECCAK256 SWAP1 JUMPDEST DUP2 SLOAD DUP2 MSTORE SWAP1 PUSH1 0x1 ADD SWAP1 PUSH1 0x20 ADD DUP1 DUP4 GT PUSH2 0x1CD1 JUMPI DUP3 SWAP1 SUB PUSH1 0x1F AND DUP3 ADD SWAP2 JUMPDEST POP POP POP POP POP DUP2 JUMP JUMPDEST PUSH1 0x0 DUP1 SLOAD SWAP1 PUSH2 0x100 EXP SWAP1 DIV PUSH20 0xFFFFFFFFFFFFFFFFFFFFFFFFFFFFFFFFFFFFFFFF AND DUP2 JUMP JUMPDEST PUSH1 0x0 DUP1 SLOAD SWAP1 PUSH2 0x100 EXP SWAP1 DIV PUSH20 0xFFFFFFFFFFFFFFFFFFFFFFFFFFFFFFFFFFFFFFFF AND PUSH20 0xFFFFFFFFFFFFFFFFFFFFFFFFFFFFFFFFFFFFFFFF AND CALLER PUSH20 0xFFFFFFFFFFFFFFFFFFFFFFFFFFFFFFFFFFFFFFFF AND EQ PUSH2 0x1DA8 JUMPI PUSH1 0x40 MLOAD PUSH32 0x8C379A000000000000000000000000000000000000000000000000000000000 DUP2 MSTORE PUSH1 0x4 ADD PUSH2 0x1D9F SWAP1 PUSH2 0x39CD JUMP JUMPDEST PUSH1 0x40 MLOAD DUP1 SWAP2 SUB SWAP1 REVERT JUMPDEST PUSH1 0xB PUSH1 0x0 SWAP1 SLOAD SWAP1 PUSH2 0x100 EXP SWAP1 DIV PUSH20 0xFFFFFFFFFFFFFFFFFFFFFFFFFFFFFFFFFFFFFFFF AND PUSH20 0xFFFFFFFFFFFFFFFFFFFFFFFFFFFFFFFFFFFFFFFF AND PUSH4 0xBC9D6271 PUSH1 0x0 DUP1 SLOAD SWAP1 PUSH2 0x100 EXP SWAP1 DIV PUSH20 0xFFFFFFFFFFFFFFFFFFFFFFFFFFFFFFFFFFFFFFFF AND DUP4 PUSH1 0x1 PUSH1 0x40 MLOAD DUP5 PUSH4 0xFFFFFFFF AND PUSH1 0xE0 SHL DUP2 MSTORE PUSH1 0x4 ADD PUSH2 0x1E28 SWAP4 SWAP3 SWAP2 SWAP1 PUSH2 0x41C4 JUMP JUMPDEST PUSH1 0x0 PUSH1 0x40 MLOAD DUP1 DUP4 SUB DUP2 PUSH1 0x0 DUP8 DUP1 EXTCODESIZE ISZERO DUP1 ISZERO PUSH2 0x1E42 JUMPI PUSH1 0x0 DUP1 REVERT JUMPDEST POP GAS CALL ISZERO DUP1 ISZERO PUSH2 0x1E56 JUMPI RETURNDATASIZE PUSH1 0x0 DUP1 RETURNDATACOPY RETURNDATASIZE PUSH1 0x0 REVERT JUMPDEST POP POP POP POP POP JUMP JUMPDEST PUSH1 0x0 DUP1 PUSH1 0x0 SWAP1 SLOAD SWAP1 PUSH2 0x100 EXP SWAP1 DIV PUSH20 0xFFFFFFFFFFFFFFFFFFFFFFFFFFFFFFFFFFFFFFFF AND PUSH20 0xFFFFFFFFFFFFFFFFFFFFFFFFFFFFFFFFFFFFFFFF AND CALLER PUSH20 0xFFFFFFFFFFFFFFFFFFFFFFFFFFFFFFFFFFFFFFFF AND EQ PUSH2 0x1EEE JUMPI PUSH1 0x40 MLOAD PUSH32 0x8C379A000000000000000000000000000000000000000000000000000000000 DUP2 MSTORE PUSH1 0x4 ADD PUSH2 0x1EE5 SWAP1 PUSH2 0x39CD JUMP JUMPDEST PUSH1 0x40 MLOAD DUP1 SWAP2 SUB SWAP1 REVERT JUMPDEST PUSH1 0x0 PUSH1 0xB PUSH1 0x0 SWAP1 SLOAD SWAP1 PUSH2 0x100 EXP SWAP1 DIV PUSH20 0xFFFFFFFFFFFFFFFFFFFFFFFFFFFFFFFFFFFFFFFF AND PUSH20 0xFFFFFFFFFFFFFFFFFFFFFFFFFFFFFFFFFFFFFFFF AND PUSH4 0xA5311BCF DUP5 PUSH1 0x40 MLOAD DUP3 PUSH4 0xFFFFFFFF AND PUSH1 0xE0 SHL DUP2 MSTORE PUSH1 0x4 ADD PUSH2 0x1F4B SWAP2 SWAP1 PUSH2 0x3770 JUMP JUMPDEST PUSH1 0x20 PUSH1 0x40 MLOAD DUP1 DUP4 SUB DUP2 DUP7 GAS STATICCALL ISZERO DUP1 ISZERO PUSH2 0x1F68 JUMPI RETURNDATASIZE PUSH1 0x0 DUP1 RETURNDATACOPY RETURNDATASIZE PUSH1 0x0 REVERT JUMPDEST POP POP POP POP PUSH1 0x40 MLOAD RETURNDATASIZE PUSH1 0x1F NOT PUSH1 0x1F DUP3 ADD AND DUP3 ADD DUP1 PUSH1 0x40 MSTORE POP DUP2 ADD SWAP1 PUSH2 0x1F8C SWAP2 SWAP1 PUSH2 0x41FB JUMP JUMPDEST SWAP1 POP DUP1 SWAP2 POP POP SWAP2 SWAP1 POP JUMP JUMPDEST PUSH1 0x2 DUP2 DUP2 SLOAD DUP2 LT PUSH2 0x1FA7 JUMPI PUSH1 0x0 DUP1 REVERT JUMPDEST SWAP1 PUSH1 0x0 MSTORE PUSH1 0x20 PUSH1 0x0 KECCAK256 ADD PUSH1 0x0 SWAP2 POP SLOAD SWAP1 PUSH2 0x100 EXP SWAP1 DIV PUSH20 0xFFFFFFFFFFFFFFFFFFFFFFFFFFFFFFFFFFFFFFFF AND DUP2 JUMP JUMPDEST PUSH1 0x0 DUP1 SLOAD SWAP1 PUSH2 0x100 EXP SWAP1 DIV PUSH20 0xFFFFFFFFFFFFFFFFFFFFFFFFFFFFFFFFFFFFFFFF AND PUSH20 0xFFFFFFFFFFFFFFFFFFFFFFFFFFFFFFFFFFFFFFFF AND CALLER PUSH20 0xFFFFFFFFFFFFFFFFFFFFFFFFFFFFFFFFFFFFFFFF AND EQ PUSH2 0x2064 JUMPI PUSH1 0x40 MLOAD PUSH32 0x8C379A000000000000000000000000000000000000000000000000000000000 DUP2 MSTORE PUSH1 0x4 ADD PUSH2 0x205B SWAP1 PUSH2 0x39CD JUMP JUMPDEST PUSH1 0x40 MLOAD DUP1 SWAP2 SUB SWAP1 REVERT JUMPDEST DUP1 PUSH1 0x5 SWAP1 DUP1 MLOAD SWAP1 PUSH1 0x20 ADD SWAP1 PUSH2 0x207A SWAP3 SWAP2 SWAP1 PUSH2 0x3111 JUMP JUMPDEST POP POP JUMP JUMPDEST PUSH1 0x0 DUP1 SLOAD SWAP1 PUSH2 0x100 EXP SWAP1 DIV PUSH20 0xFFFFFFFFFFFFFFFFFFFFFFFFFFFFFFFFFFFFFFFF AND PUSH20 0xFFFFFFFFFFFFFFFFFFFFFFFFFFFFFFFFFFFFFFFF AND CALLER PUSH20 0xFFFFFFFFFFFFFFFFFFFFFFFFFFFFFFFFFFFFFFFF AND EQ PUSH2 0x210C JUMPI PUSH1 0x40 MLOAD PUSH32 0x8C379A000000000000000000000000000000000000000000000000000000000 DUP2 MSTORE PUSH1 0x4 ADD PUSH2 0x2103 SWAP1 PUSH2 0x39CD JUMP JUMPDEST PUSH1 0x40 MLOAD DUP1 SWAP2 SUB SWAP1 REVERT JUMPDEST PUSH1 0xB PUSH1 0x0 SWAP1 SLOAD SWAP1 PUSH2 0x100 EXP SWAP1 DIV PUSH20 0xFFFFFFFFFFFFFFFFFFFFFFFFFFFFFFFFFFFFFFFF AND PUSH20 0xFFFFFFFFFFFFFFFFFFFFFFFFFFFFFFFFFFFFFFFF AND PUSH4 0xBC9D6271 PUSH1 0x0 DUP1 SLOAD SWAP1 PUSH2 0x100 EXP SWAP1 DIV PUSH20 0xFFFFFFFFFFFFFFFFFFFFFFFFFFFFFFFFFFFFFFFF AND DUP4 PUSH1 0x0 PUSH1 0x40 MLOAD DUP5 PUSH4 0xFFFFFFFF AND PUSH1 0xE0 SHL DUP2 MSTORE PUSH1 0x4 ADD PUSH2 0x218C SWAP4 SWAP3 SWAP2 SWAP1 PUSH2 0x41C4 JUMP JUMPDEST PUSH1 0x0 PUSH1 0x40 MLOAD DUP1 DUP4 SUB DUP2 PUSH1 0x0 DUP8 DUP1 EXTCODESIZE ISZERO DUP1 ISZERO PUSH2 0x21A6 JUMPI PUSH1 0x0 DUP1 REVERT JUMPDEST POP GAS CALL ISZERO DUP1 ISZERO PUSH2 0x21BA JUMPI RETURNDATASIZE PUSH1 0x0 DUP1 RETURNDATACOPY RETURNDATASIZE PUSH1 0x0 REVERT JUMPDEST POP POP POP POP POP JUMP JUMPDEST PUSH1 0xA PUSH1 0x0 SWAP1 SLOAD SWAP1 PUSH2 0x100 EXP SWAP1 DIV PUSH20 0xFFFFFFFFFFFFFFFFFFFFFFFFFFFFFFFFFFFFFFFF AND DUP2 JUMP JUMPDEST PUSH1 0x0 DUP1 SLOAD SWAP1 PUSH2 0x100 EXP SWAP1 DIV PUSH20 0xFFFFFFFFFFFFFFFFFFFFFFFFFFFFFFFFFFFFFFFF AND PUSH20 0xFFFFFFFFFFFFFFFFFFFFFFFFFFFFFFFFFFFFFFFF AND CALLER PUSH20 0xFFFFFFFFFFFFFFFFFFFFFFFFFFFFFFFFFFFFFFFF AND EQ PUSH2 0x2275 JUMPI PUSH1 0x40 MLOAD PUSH32 0x8C379A000000000000000000000000000000000000000000000000000000000 DUP2 MSTORE PUSH1 0x4 ADD PUSH2 0x226C SWAP1 PUSH2 0x39CD JUMP JUMPDEST PUSH1 0x40 MLOAD DUP1 SWAP2 SUB SWAP1 REVERT JUMPDEST PUSH2 0x227D PUSH2 0xE84 JUMP JUMPDEST PUSH2 0x22BC JUMPI PUSH1 0x40 MLOAD PUSH32 0x8C379A000000000000000000000000000000000000000000000000000000000 DUP2 MSTORE PUSH1 0x4 ADD PUSH2 0x22B3 SWAP1 PUSH2 0x3D47 JUMP JUMPDEST PUSH1 0x40 MLOAD DUP1 SWAP2 SUB SWAP1 REVERT JUMPDEST PUSH1 0x2 DUP2 SWAP1 DUP1 PUSH1 0x1 DUP2 SLOAD ADD DUP1 DUP3 SSTORE DUP1 SWAP2 POP POP PUSH1 0x1 SWAP1 SUB SWAP1 PUSH1 0x0 MSTORE PUSH1 0x20 PUSH1 0x0 KECCAK256 ADD PUSH1 0x0 SWAP1 SWAP2 SWAP1 SWAP2 SWAP1 SWAP2 PUSH2 0x100 EXP DUP2 SLOAD DUP2 PUSH20 0xFFFFFFFFFFFFFFFFFFFFFFFFFFFFFFFFFFFFFFFF MUL NOT AND SWAP1 DUP4 PUSH20 0xFFFFFFFFFFFFFFFFFFFFFFFFFFFFFFFFFFFFFFFF AND MUL OR SWAP1 SSTORE POP POP JUMP JUMPDEST PUSH1 0x0 DUP1 SLOAD SWAP1 PUSH2 0x100 EXP SWAP1 DIV PUSH20 0xFFFFFFFFFFFFFFFFFFFFFFFFFFFFFFFFFFFFFFFF AND PUSH20 0xFFFFFFFFFFFFFFFFFFFFFFFFFFFFFFFFFFFFFFFF AND CALLER PUSH20 0xFFFFFFFFFFFFFFFFFFFFFFFFFFFFFFFFFFFFFFFF AND EQ PUSH2 0x23B0 JUMPI PUSH1 0x40 MLOAD PUSH32 0x8C379A000000000000000000000000000000000000000000000000000000000 DUP2 MSTORE PUSH1 0x4 ADD PUSH2 0x23A7 SWAP1 PUSH2 0x39CD JUMP JUMPDEST PUSH1 0x40 MLOAD DUP1 SWAP2 SUB SWAP1 REVERT JUMPDEST PUSH2 0x23B8 PUSH2 0xE84 JUMP JUMPDEST PUSH2 0x23F7 JUMPI PUSH1 0x40 MLOAD PUSH32 0x8C379A000000000000000000000000000000000000000000000000000000000 DUP2 MSTORE PUSH1 0x4 ADD PUSH2 0x23EE SWAP1 PUSH2 0x3D47 JUMP JUMPDEST PUSH1 0x40 MLOAD DUP1 SWAP2 SUB SWAP1 REVERT JUMPDEST PUSH1 0x0 PUSH1 0x7 PUSH1 0x0 DUP4 PUSH20 0xFFFFFFFFFFFFFFFFFFFFFFFFFFFFFFFFFFFFFFFF AND PUSH20 0xFFFFFFFFFFFFFFFFFFFFFFFFFFFFFFFFFFFFFFFF AND DUP2 MSTORE PUSH1 0x20 ADD SWAP1 DUP2 MSTORE PUSH1 0x20 ADD PUSH1 0x0 KECCAK256 DUP1 SLOAD PUSH2 0x2443 SWAP1 PUSH2 0x3CA4 JUMP JUMPDEST DUP1 PUSH1 0x1F ADD PUSH1 0x20 DUP1 SWAP2 DIV MUL PUSH1 0x20 ADD PUSH1 0x40 MLOAD SWAP1 DUP2 ADD PUSH1 0x40 MSTORE DUP1 SWAP3 SWAP2 SWAP1 DUP2 DUP2 MSTORE PUSH1 0x20 ADD DUP3 DUP1 SLOAD PUSH2 0x246F SWAP1 PUSH2 0x3CA4 JUMP JUMPDEST DUP1 ISZERO PUSH2 0x24BC JUMPI DUP1 PUSH1 0x1F LT PUSH2 0x2491 JUMPI PUSH2 0x100 DUP1 DUP4 SLOAD DIV MUL DUP4 MSTORE SWAP2 PUSH1 0x20 ADD SWAP2 PUSH2 0x24BC JUMP JUMPDEST DUP3 ADD SWAP2 SWAP1 PUSH1 0x0 MSTORE PUSH1 0x20 PUSH1 0x0 KECCAK256 SWAP1 JUMPDEST DUP2 SLOAD DUP2 MSTORE SWAP1 PUSH1 0x1 ADD SWAP1 PUSH1 0x20 ADD DUP1 DUP4 GT PUSH2 0x249F JUMPI DUP3 SWAP1 SUB PUSH1 0x1F AND DUP3 ADD SWAP2 JUMPDEST POP POP POP POP POP SWAP1 POP PUSH1 0xB PUSH1 0x0 SWAP1 SLOAD SWAP1 PUSH2 0x100 EXP SWAP1 DIV PUSH20 0xFFFFFFFFFFFFFFFFFFFFFFFFFFFFFFFFFFFFFFFF AND PUSH20 0xFFFFFFFFFFFFFFFFFFFFFFFFFFFFFFFFFFFFFFFF AND PUSH4 0x7CBFC58F DUP4 DUP4 PUSH1 0x40 MLOAD DUP4 PUSH4 0xFFFFFFFF AND PUSH1 0xE0 SHL DUP2 MSTORE PUSH1 0x4 ADD PUSH2 0x2520 SWAP3 SWAP2 SWAP1 PUSH2 0x4228 JUMP JUMPDEST PUSH1 0x0 PUSH1 0x40 MLOAD DUP1 DUP4 SUB DUP2 PUSH1 0x0 DUP8 DUP1 EXTCODESIZE ISZERO DUP1 ISZERO PUSH2 0x253A JUMPI PUSH1 0x0 DUP1 REVERT JUMPDEST POP GAS CALL ISZERO DUP1 ISZERO PUSH2 0x254E JUMPI RETURNDATASIZE PUSH1 0x0 DUP1 RETURNDATACOPY RETURNDATASIZE PUSH1 0x0 REVERT JUMPDEST POP POP POP POP POP POP JUMP JUMPDEST PUSH1 0x0 DUP1 SLOAD SWAP1 PUSH2 0x100 EXP SWAP1 DIV PUSH20 0xFFFFFFFFFFFFFFFFFFFFFFFFFFFFFFFFFFFFFFFF AND PUSH20 0xFFFFFFFFFFFFFFFFFFFFFFFFFFFFFFFFFFFFFFFF AND CALLER PUSH20 0xFFFFFFFFFFFFFFFFFFFFFFFFFFFFFFFFFFFFFFFF AND EQ PUSH2 0x25E4 JUMPI PUSH1 0x40 MLOAD PUSH32 0x8C379A000000000000000000000000000000000000000000000000000000000 DUP2 MSTORE PUSH1 0x4 ADD PUSH2 0x25DB SWAP1 PUSH2 0x39CD JUMP JUMPDEST PUSH1 0x40 MLOAD DUP1 SWAP2 SUB SWAP1 REVERT JUMPDEST PUSH1 0xB PUSH1 0x0 SWAP1 SLOAD SWAP1 PUSH2 0x100 EXP SWAP1 DIV PUSH20 0xFFFFFFFFFFFFFFFFFFFFFFFFFFFFFFFFFFFFFFFF AND PUSH20 0xFFFFFFFFFFFFFFFFFFFFFFFFFFFFFFFFFFFFFFFF AND PUSH4 0x7915C069 DUP3 PUSH1 0x0 DUP1 SLOAD SWAP1 PUSH2 0x100 EXP SWAP1 DIV PUSH20 0xFFFFFFFFFFFFFFFFFFFFFFFFFFFFFFFFFFFFFFFF AND PUSH1 0xA PUSH1 0x0 SWAP1 SLOAD SWAP1 PUSH2 0x100 EXP SWAP1 DIV PUSH20 0xFFFFFFFFFFFFFFFFFFFFFFFFFFFFFFFFFFFFFFFF AND PUSH1 0x40 MLOAD DUP5 PUSH4 0xFFFFFFFF AND PUSH1 0xE0 SHL DUP2 MSTORE PUSH1 0x4 ADD PUSH2 0x2685 SWAP4 SWAP3 SWAP2 SWAP1 PUSH2 0x4258 JUMP JUMPDEST PUSH1 0x0 PUSH1 0x40 MLOAD DUP1 DUP4 SUB DUP2 PUSH1 0x0 DUP8 DUP1 EXTCODESIZE ISZERO DUP1 ISZERO PUSH2 0x269F JUMPI PUSH1 0x0 DUP1 REVERT JUMPDEST POP GAS CALL ISZERO DUP1 ISZERO PUSH2 0x26B3 JUMPI RETURNDATASIZE PUSH1 0x0 DUP1 RETURNDATACOPY RETURNDATASIZE PUSH1 0x0 REVERT JUMPDEST POP POP POP POP DUP1 PUSH1 0x1 SWAP1 DUP2 PUSH2 0x26C6 SWAP2 SWAP1 PUSH2 0x405F JUMP JUMPDEST POP POP JUMP JUMPDEST PUSH1 0x6 PUSH1 0x20 MSTORE DUP1 PUSH1 0x0 MSTORE PUSH1 0x40 PUSH1 0x0 KECCAK256 PUSH1 0x0 SWAP2 POP SWAP1 POP DUP1 SLOAD PUSH2 0x26E9 SWAP1 PUSH2 0x3CA4 JUMP JUMPDEST DUP1 PUSH1 0x1F ADD PUSH1 0x20 DUP1 SWAP2 DIV MUL PUSH1 0x20 ADD PUSH1 0x40 MLOAD SWAP1 DUP2 ADD PUSH1 0x40 MSTORE DUP1 SWAP3 SWAP2 SWAP1 DUP2 DUP2 MSTORE PUSH1 0x20 ADD DUP3 DUP1 SLOAD PUSH2 0x2715 SWAP1 PUSH2 0x3CA4 JUMP JUMPDEST DUP1 ISZERO PUSH2 0x2762 JUMPI DUP1 PUSH1 0x1F LT PUSH2 0x2737 JUMPI PUSH2 0x100 DUP1 DUP4 SLOAD DIV MUL DUP4 MSTORE SWAP2 PUSH1 0x20 ADD SWAP2 PUSH2 0x2762 JUMP JUMPDEST DUP3 ADD SWAP2 SWAP1 PUSH1 0x0 MSTORE PUSH1 0x20 PUSH1 0x0 KECCAK256 SWAP1 JUMPDEST DUP2 SLOAD DUP2 MSTORE SWAP1 PUSH1 0x1 ADD SWAP1 PUSH1 0x20 ADD DUP1 DUP4 GT PUSH2 0x2745 JUMPI DUP3 SWAP1 SUB PUSH1 0x1F AND DUP3 ADD SWAP2 JUMPDEST POP POP POP POP POP DUP2 JUMP JUMPDEST PUSH2 0x2772 PUSH2 0xE84 JUMP JUMPDEST PUSH2 0x27B1 JUMPI PUSH1 0x40 MLOAD PUSH32 0x8C379A000000000000000000000000000000000000000000000000000000000 DUP2 MSTORE PUSH1 0x4 ADD PUSH2 0x27A8 SWAP1 PUSH2 0x3D47 JUMP JUMPDEST PUSH1 0x40 MLOAD DUP1 SWAP2 SUB SWAP1 REVERT JUMPDEST PUSH1 0x9 DUP2 SWAP1 DUP1 PUSH1 0x1 DUP2 SLOAD ADD DUP1 DUP3 SSTORE DUP1 SWAP2 POP POP PUSH1 0x1 SWAP1 SUB SWAP1 PUSH1 0x0 MSTORE PUSH1 0x20 PUSH1 0x0 KECCAK256 ADD PUSH1 0x0 SWAP1 SWAP2 SWAP1 SWAP2 SWAP1 SWAP2 POP SWAP1 DUP2 PUSH2 0x27E5 SWAP2 SWAP1 PUSH2 0x405F JUMP JUMPDEST POP POP JUMP JUMPDEST PUSH1 0x4 DUP2 DUP2 SLOAD DUP2 LT PUSH2 0x27F9 JUMPI PUSH1 0x0 DUP1 REVERT JUMPDEST SWAP1 PUSH1 0x0 MSTORE PUSH1 0x20 PUSH1 0x0 KECCAK256 ADD PUSH1 0x0 SWAP2 POP SLOAD SWAP1 PUSH2 0x100 EXP SWAP1 DIV PUSH20 0xFFFFFFFFFFFFFFFFFFFFFFFFFFFFFFFFFFFFFFFF AND DUP2 JUMP JUMPDEST PUSH1 0x0 DUP1 SLOAD SWAP1 PUSH2 0x100 EXP SWAP1 DIV PUSH20 0xFFFFFFFFFFFFFFFFFFFFFFFFFFFFFFFFFFFFFFFF AND PUSH20 0xFFFFFFFFFFFFFFFFFFFFFFFFFFFFFFFFFFFFFFFF AND CALLER PUSH20 0xFFFFFFFFFFFFFFFFFFFFFFFFFFFFFFFFFFFFFFFF AND EQ PUSH2 0x28B6 JUMPI PUSH1 0x40 MLOAD PUSH32 0x8C379A000000000000000000000000000000000000000000000000000000000 DUP2 MSTORE PUSH1 0x4 ADD PUSH2 0x28AD SWAP1 PUSH2 0x39CD JUMP JUMPDEST PUSH1 0x40 MLOAD DUP1 SWAP2 SUB SWAP1 REVERT JUMPDEST PUSH1 0x40 MLOAD DUP1 PUSH1 0x40 ADD PUSH1 0x40 MSTORE DUP1 PUSH1 0x15 DUP2 MSTORE PUSH1 0x20 ADD PUSH32 0x5348415245484F4C4445525F5245515545535445440000000000000000000000 DUP2 MSTORE POP DUP1 MLOAD SWAP1 PUSH1 0x20 ADD KECCAK256 PUSH1 0xC PUSH1 0x40 MLOAD PUSH2 0x2902 SWAP2 SWAP1 PUSH2 0x4339 JUMP JUMPDEST PUSH1 0x40 MLOAD DUP1 SWAP2 SUB SWAP1 KECCAK256 SUB PUSH2 0x2963 JUMPI PUSH2 0x2917 PUSH2 0x3056 JUMP JUMPDEST ISZERO PUSH2 0x2962 JUMPI PUSH1 0x40 MLOAD DUP1 PUSH1 0x40 ADD PUSH1 0x40 MSTORE DUP1 PUSH1 0x14 DUP2 MSTORE PUSH1 0x20 ADD PUSH32 0x5348415245484F4C4445525F4143434550544544000000000000000000000000 DUP2 MSTORE POP PUSH1 0xC SWAP1 DUP2 PUSH2 0x2960 SWAP2 SWAP1 PUSH2 0x405F JUMP JUMPDEST POP JUMPDEST JUMPDEST JUMP JUMPDEST PUSH1 0x0 DUP1 SLOAD SWAP1 PUSH2 0x100 EXP SWAP1 DIV PUSH20 0xFFFFFFFFFFFFFFFFFFFFFFFFFFFFFFFFFFFFFFFF AND PUSH20 0xFFFFFFFFFFFFFFFFFFFFFFFFFFFFFFFFFFFFFFFF AND CALLER PUSH20 0xFFFFFFFFFFFFFFFFFFFFFFFFFFFFFFFFFFFFFFFF AND EQ PUSH2 0x29F3 JUMPI PUSH1 0x40 MLOAD PUSH32 0x8C379A000000000000000000000000000000000000000000000000000000000 DUP2 MSTORE PUSH1 0x4 ADD PUSH2 0x29EA SWAP1 PUSH2 0x39CD JUMP JUMPDEST PUSH1 0x40 MLOAD DUP1 SWAP2 SUB SWAP1 REVERT JUMPDEST PUSH2 0x29FB PUSH2 0xE84 JUMP JUMPDEST PUSH2 0x2A3A JUMPI PUSH1 0x40 MLOAD PUSH32 0x8C379A000000000000000000000000000000000000000000000000000000000 DUP2 MSTORE PUSH1 0x4 ADD PUSH2 0x2A31 SWAP1 PUSH2 0x3D47 JUMP JUMPDEST PUSH1 0x40 MLOAD DUP1 SWAP2 SUB SWAP1 REVERT JUMPDEST PUSH1 0x40 MLOAD DUP1 PUSH1 0x40 ADD PUSH1 0x40 MSTORE DUP1 PUSH1 0x15 DUP2 MSTORE PUSH1 0x20 ADD PUSH32 0x5348415245484F4C4445525F5245515545535445440000000000000000000000 DUP2 MSTORE POP PUSH1 0xC SWAP1 DUP2 PUSH2 0x2A7E SWAP2 SWAP1 PUSH2 0x405F JUMP JUMPDEST POP PUSH1 0x0 JUMPDEST PUSH1 0x2 DUP1 SLOAD SWAP1 POP DUP2 LT ISZERO PUSH2 0x2B95 JUMPI PUSH1 0x0 PUSH1 0x2 DUP3 DUP2 SLOAD DUP2 LT PUSH2 0x2AA5 JUMPI PUSH2 0x2AA4 PUSH2 0x3E22 JUMP JUMPDEST JUMPDEST SWAP1 PUSH1 0x0 MSTORE PUSH1 0x20 PUSH1 0x0 KECCAK256 ADD PUSH1 0x0 SWAP1 SLOAD SWAP1 PUSH2 0x100 EXP SWAP1 DIV PUSH20 0xFFFFFFFFFFFFFFFFFFFFFFFFFFFFFFFFFFFFFFFF AND SWAP1 POP PUSH1 0xB PUSH1 0x0 SWAP1 SLOAD SWAP1 PUSH2 0x100 EXP SWAP1 DIV PUSH20 0xFFFFFFFFFFFFFFFFFFFFFFFFFFFFFFFFFFFFFFFF AND PUSH20 0xFFFFFFFFFFFFFFFFFFFFFFFFFFFFFFFFFFFFFFFF AND PUSH4 0x6E8548BB PUSH1 0x0 DUP1 SLOAD SWAP1 PUSH2 0x100 EXP SWAP1 DIV PUSH20 0xFFFFFFFFFFFFFFFFFFFFFFFFFFFFFFFFFFFFFFFF AND DUP4 PUSH1 0x40 MLOAD DUP4 PUSH4 0xFFFFFFFF AND PUSH1 0xE0 SHL DUP2 MSTORE PUSH1 0x4 ADD PUSH2 0x2B4F SWAP3 SWAP2 SWAP1 PUSH2 0x4350 JUMP JUMPDEST PUSH1 0x0 PUSH1 0x40 MLOAD DUP1 DUP4 SUB DUP2 PUSH1 0x0 DUP8 DUP1 EXTCODESIZE ISZERO DUP1 ISZERO PUSH2 0x2B69 JUMPI PUSH1 0x0 DUP1 REVERT JUMPDEST POP GAS CALL ISZERO DUP1 ISZERO PUSH2 0x2B7D JUMPI RETURNDATASIZE PUSH1 0x0 DUP1 RETURNDATACOPY RETURNDATASIZE PUSH1 0x0 REVERT JUMPDEST POP POP POP POP POP DUP1 DUP1 PUSH2 0x2B8D SWAP1 PUSH2 0x3E80 JUMP JUMPDEST SWAP2 POP POP PUSH2 0x2A82 JUMP JUMPDEST POP JUMP JUMPDEST PUSH1 0x60 PUSH2 0x2BA2 PUSH2 0xE84 JUMP JUMPDEST PUSH2 0x2BE1 JUMPI PUSH1 0x40 MLOAD PUSH32 0x8C379A000000000000000000000000000000000000000000000000000000000 DUP2 MSTORE PUSH1 0x4 ADD PUSH2 0x2BD8 SWAP1 PUSH2 0x3D47 JUMP JUMPDEST PUSH1 0x40 MLOAD DUP1 SWAP2 SUB SWAP1 REVERT JUMPDEST PUSH1 0x0 DUP1 SLOAD SWAP1 PUSH2 0x100 EXP SWAP1 DIV PUSH20 0xFFFFFFFFFFFFFFFFFFFFFFFFFFFFFFFFFFFFFFFF AND PUSH20 0xFFFFFFFFFFFFFFFFFFFFFFFFFFFFFFFFFFFFFFFF AND CALLER PUSH20 0xFFFFFFFFFFFFFFFFFFFFFFFFFFFFFFFFFFFFFFFF AND EQ PUSH2 0x2C6F JUMPI PUSH1 0x40 MLOAD PUSH32 0x8C379A000000000000000000000000000000000000000000000000000000000 DUP2 MSTORE PUSH1 0x4 ADD PUSH2 0x2C66 SWAP1 PUSH2 0x39CD JUMP JUMPDEST PUSH1 0x40 MLOAD DUP1 SWAP2 SUB SWAP1 REVERT JUMPDEST PUSH1 0x2 DUP1 SLOAD DUP1 PUSH1 0x20 MUL PUSH1 0x20 ADD PUSH1 0x40 MLOAD SWAP1 DUP2 ADD PUSH1 0x40 MSTORE DUP1 SWAP3 SWAP2 SWAP1 DUP2 DUP2 MSTORE PUSH1 0x20 ADD DUP3 DUP1 SLOAD DUP1 ISZERO PUSH2 0x2CF1 JUMPI PUSH1 0x20 MUL DUP3 ADD SWAP2 SWAP1 PUSH1 0x0 MSTORE PUSH1 0x20 PUSH1 0x0 KECCAK256 SWAP1 JUMPDEST DUP2 PUSH1 0x0 SWAP1 SLOAD SWAP1 PUSH2 0x100 EXP SWAP1 DIV PUSH20 0xFFFFFFFFFFFFFFFFFFFFFFFFFFFFFFFFFFFFFFFF AND PUSH20 0xFFFFFFFFFFFFFFFFFFFFFFFFFFFFFFFFFFFFFFFF AND DUP2 MSTORE PUSH1 0x20 ADD SWAP1 PUSH1 0x1 ADD SWAP1 DUP1 DUP4 GT PUSH2 0x2CA7 JUMPI JUMPDEST POP POP POP POP POP SWAP1 POP SWAP1 JUMP JUMPDEST PUSH1 0x0 DUP1 SLOAD SWAP1 PUSH2 0x100 EXP SWAP1 DIV PUSH20 0xFFFFFFFFFFFFFFFFFFFFFFFFFFFFFFFFFFFFFFFF AND PUSH20 0xFFFFFFFFFFFFFFFFFFFFFFFFFFFFFFFFFFFFFFFF AND CALLER PUSH20 0xFFFFFFFFFFFFFFFFFFFFFFFFFFFFFFFFFFFFFFFF AND EQ PUSH2 0x2D89 JUMPI PUSH1 0x40 MLOAD PUSH32 0x8C379A000000000000000000000000000000000000000000000000000000000 DUP2 MSTORE PUSH1 0x4 ADD PUSH2 0x2D80 SWAP1 PUSH2 0x39CD JUMP JUMPDEST PUSH1 0x40 MLOAD DUP1 SWAP2 SUB SWAP1 REVERT JUMPDEST PUSH2 0x2D91 PUSH2 0xE84 JUMP JUMPDEST PUSH2 0x2DD0 JUMPI PUSH1 0x40 MLOAD PUSH32 0x8C379A000000000000000000000000000000000000000000000000000000000 DUP2 MSTORE PUSH1 0x4 ADD PUSH2 0x2DC7 SWAP1 PUSH2 0x3D47 JUMP JUMPDEST PUSH1 0x40 MLOAD DUP1 SWAP2 SUB SWAP1 REVERT JUMPDEST PUSH2 0x2DD8 PUSH2 0xF28 JUMP JUMPDEST PUSH1 0x3 DUP1 SLOAD SWAP1 POP PUSH1 0x5 DUP1 SLOAD SWAP1 POP GT ISZERO PUSH2 0x2E25 JUMPI PUSH1 0x40 MLOAD PUSH32 0x8C379A000000000000000000000000000000000000000000000000000000000 DUP2 MSTORE PUSH1 0x4 ADD PUSH2 0x2E1C SWAP1 PUSH2 0x43C5 JUMP JUMPDEST PUSH1 0x40 MLOAD DUP1 SWAP2 SUB SWAP1 REVERT JUMPDEST PUSH1 0x3 DUP1 SLOAD SWAP1 POP PUSH1 0x5 DUP1 SLOAD SWAP1 POP GT PUSH2 0x300F JUMPI PUSH1 0x0 JUMPDEST PUSH1 0x5 DUP1 SLOAD SWAP1 POP DUP2 LT ISZERO PUSH2 0x300D JUMPI PUSH1 0x5 DUP2 DUP2 SLOAD DUP2 LT PUSH2 0x2E5A JUMPI PUSH2 0x2E59 PUSH2 0x3E22 JUMP JUMPDEST JUMPDEST SWAP1 PUSH1 0x0 MSTORE PUSH1 0x20 PUSH1 0x0 KECCAK256 ADD PUSH1 0x6 PUSH1 0x0 PUSH1 0x3 DUP5 DUP2 SLOAD DUP2 LT PUSH2 0x2E7C JUMPI PUSH2 0x2E7B PUSH2 0x3E22 JUMP JUMPDEST JUMPDEST SWAP1 PUSH1 0x0 MSTORE PUSH1 0x20 PUSH1 0x0 KECCAK256 ADD PUSH1 0x0 SWAP1 SLOAD SWAP1 PUSH2 0x100 EXP SWAP1 DIV PUSH20 0xFFFFFFFFFFFFFFFFFFFFFFFFFFFFFFFFFFFFFFFF AND PUSH20 0xFFFFFFFFFFFFFFFFFFFFFFFFFFFFFFFFFFFFFFFF AND PUSH20 0xFFFFFFFFFFFFFFFFFFFFFFFFFFFFFFFFFFFFFFFF AND DUP2 MSTORE PUSH1 0x20 ADD SWAP1 DUP2 MSTORE PUSH1 0x20 ADD PUSH1 0x0 KECCAK256 SWAP1 DUP2 PUSH2 0x2EED SWAP2 SWAP1 PUSH2 0x4410 JUMP JUMPDEST POP PUSH1 0xB PUSH1 0x0 SWAP1 SLOAD SWAP1 PUSH2 0x100 EXP SWAP1 DIV PUSH20 0xFFFFFFFFFFFFFFFFFFFFFFFFFFFFFFFFFFFFFFFF AND PUSH20 0xFFFFFFFFFFFFFFFFFFFFFFFFFFFFFFFFFFFFFFFF AND PUSH4 0xCC2F22F1 PUSH1 0x0 DUP1 SLOAD SWAP1 PUSH2 0x100 EXP SWAP1 DIV PUSH20 0xFFFFFFFFFFFFFFFFFFFFFFFFFFFFFFFFFFFFFFFF AND PUSH1 0x3 DUP5 DUP2 SLOAD DUP2 LT PUSH2 0x2F61 JUMPI PUSH2 0x2F60 PUSH2 0x3E22 JUMP JUMPDEST JUMPDEST SWAP1 PUSH1 0x0 MSTORE PUSH1 0x20 PUSH1 0x0 KECCAK256 ADD PUSH1 0x0 SWAP1 SLOAD SWAP1 PUSH2 0x100 EXP SWAP1 DIV PUSH20 0xFFFFFFFFFFFFFFFFFFFFFFFFFFFFFFFFFFFFFFFF AND PUSH1 0x5 DUP6 DUP2 SLOAD DUP2 LT PUSH2 0x2FA0 JUMPI PUSH2 0x2F9F PUSH2 0x3E22 JUMP JUMPDEST JUMPDEST SWAP1 PUSH1 0x0 MSTORE PUSH1 0x20 PUSH1 0x0 KECCAK256 ADD PUSH1 0x40 MLOAD DUP5 PUSH4 0xFFFFFFFF AND PUSH1 0xE0 SHL DUP2 MSTORE PUSH1 0x4 ADD PUSH2 0x2FC8 SWAP4 SWAP3 SWAP2 SWAP1 PUSH2 0x44F8 JUMP JUMPDEST PUSH1 0x0 PUSH1 0x40 MLOAD DUP1 DUP4 SUB DUP2 PUSH1 0x0 DUP8 DUP1 EXTCODESIZE ISZERO DUP1 ISZERO PUSH2 0x2FE2 JUMPI PUSH1 0x0 DUP1 REVERT JUMPDEST POP GAS CALL ISZERO DUP1 ISZERO PUSH2 0x2FF6 JUMPI RETURNDATASIZE PUSH1 0x0 DUP1 RETURNDATACOPY RETURNDATASIZE PUSH1 0x0 REVERT JUMPDEST POP POP POP POP DUP1 DUP1 PUSH2 0x3005 SWAP1 PUSH2 0x3E80 JUMP JUMPDEST SWAP2 POP POP PUSH2 0x2E39 JUMP JUMPDEST POP JUMPDEST PUSH1 0x40 MLOAD DUP1 PUSH1 0x40 ADD PUSH1 0x40 MSTORE DUP1 PUSH1 0x12 DUP2 MSTORE PUSH1 0x20 ADD PUSH32 0x5348415245535F44495354524942555445440000000000000000000000000000 DUP2 MSTORE POP PUSH1 0xC SWAP1 DUP2 PUSH2 0x3053 SWAP2 SWAP1 PUSH2 0x405F JUMP JUMPDEST POP JUMP JUMPDEST PUSH1 0x0 DUP1 PUSH1 0x0 SWAP1 SLOAD SWAP1 PUSH2 0x100 EXP SWAP1 DIV PUSH20 0xFFFFFFFFFFFFFFFFFFFFFFFFFFFFFFFFFFFFFFFF AND PUSH20 0xFFFFFFFFFFFFFFFFFFFFFFFFFFFFFFFFFFFFFFFF AND CALLER PUSH20 0xFFFFFFFFFFFFFFFFFFFFFFFFFFFFFFFFFFFFFFFF AND EQ PUSH2 0x30E7 JUMPI PUSH1 0x40 MLOAD PUSH32 0x8C379A000000000000000000000000000000000000000000000000000000000 DUP2 MSTORE PUSH1 0x4 ADD PUSH2 0x30DE SWAP1 PUSH2 0x39CD JUMP JUMPDEST PUSH1 0x40 MLOAD DUP1 SWAP2 SUB SWAP1 REVERT JUMPDEST PUSH2 0x30EF PUSH2 0xF28 JUMP JUMPDEST PUSH1 0x2 DUP1 SLOAD SWAP1 POP PUSH1 0x3 DUP1 SLOAD SWAP1 POP LT PUSH2 0x3109 JUMPI PUSH1 0x1 SWAP1 POP PUSH2 0x310E JUMP JUMPDEST PUSH1 0x0 SWAP1 POP JUMPDEST SWAP1 JUMP JUMPDEST DUP3 DUP1 SLOAD DUP3 DUP3 SSTORE SWAP1 PUSH1 0x0 MSTORE PUSH1 0x20 PUSH1 0x0 KECCAK256 SWAP1 DUP2 ADD SWAP3 DUP3 ISZERO PUSH2 0x3159 JUMPI SWAP2 PUSH1 0x20 MUL DUP3 ADD JUMPDEST DUP3 DUP2 GT ISZERO PUSH2 0x3158 JUMPI DUP3 MLOAD DUP3 SWAP1 DUP2 PUSH2 0x3148 SWAP2 SWAP1 PUSH2 0x405F JUMP JUMPDEST POP SWAP2 PUSH1 0x20 ADD SWAP2 SWAP1 PUSH1 0x1 ADD SWAP1 PUSH2 0x3131 JUMP JUMPDEST JUMPDEST POP SWAP1 POP PUSH2 0x3166 SWAP2 SWAP1 PUSH2 0x316A JUMP JUMPDEST POP SWAP1 JUMP JUMPDEST JUMPDEST DUP1 DUP3 GT ISZERO PUSH2 0x318A JUMPI PUSH1 0x0 DUP2 DUP2 PUSH2 0x3181 SWAP2 SWAP1 PUSH2 0x318E JUMP JUMPDEST POP PUSH1 0x1 ADD PUSH2 0x316B JUMP JUMPDEST POP SWAP1 JUMP JUMPDEST POP DUP1 SLOAD PUSH2 0x319A SWAP1 PUSH2 0x3CA4 JUMP JUMPDEST PUSH1 0x0 DUP3 SSTORE DUP1 PUSH1 0x1F LT PUSH2 0x31AC JUMPI POP PUSH2 0x31CB JUMP JUMPDEST PUSH1 0x1F ADD PUSH1 0x20 SWAP1 DIV SWAP1 PUSH1 0x0 MSTORE PUSH1 0x20 PUSH1 0x0 KECCAK256 SWAP1 DUP2 ADD SWAP1 PUSH2 0x31CA SWAP2 SWAP1 PUSH2 0x31CE JUMP JUMPDEST JUMPDEST POP JUMP JUMPDEST JUMPDEST DUP1 DUP3 GT ISZERO PUSH2 0x31E7 JUMPI PUSH1 0x0 DUP2 PUSH1 0x0 SWAP1 SSTORE POP PUSH1 0x1 ADD PUSH2 0x31CF JUMP JUMPDEST POP SWAP1 JUMP JUMPDEST PUSH1 0x0 DUP2 MLOAD SWAP1 POP SWAP2 SWAP1 POP JUMP JUMPDEST PUSH1 0x0 DUP3 DUP3 MSTORE PUSH1 0x20 DUP3 ADD SWAP1 POP SWAP3 SWAP2 POP POP JUMP JUMPDEST PUSH1 0x0 DUP2 SWAP1 POP PUSH1 0x20 DUP3 ADD SWAP1 POP SWAP2 SWAP1 POP JUMP JUMPDEST PUSH1 0x0 PUSH20 0xFFFFFFFFFFFFFFFFFFFFFFFFFFFFFFFFFFFFFFFF DUP3 AND SWAP1 POP SWAP2 SWAP1 POP JUMP JUMPDEST PUSH1 0x0 PUSH2 0x3242 DUP3 PUSH2 0x3217 JUMP JUMPDEST SWAP1 POP SWAP2 SWAP1 POP JUMP JUMPDEST PUSH2 0x3252 DUP2 PUSH2 0x3237 JUMP JUMPDEST DUP3 MSTORE POP POP JUMP JUMPDEST PUSH1 0x0 PUSH2 0x3264 DUP4 DUP4 PUSH2 0x3249 JUMP JUMPDEST PUSH1 0x20 DUP4 ADD SWAP1 POP SWAP3 SWAP2 POP POP JUMP JUMPDEST PUSH1 0x0 PUSH1 0x20 DUP3 ADD SWAP1 POP SWAP2 SWAP1 POP JUMP JUMPDEST PUSH1 0x0 PUSH2 0x3288 DUP3 PUSH2 0x31EB JUMP JUMPDEST PUSH2 0x3292 DUP2 DUP6 PUSH2 0x31F6 JUMP JUMPDEST SWAP4 POP PUSH2 0x329D DUP4 PUSH2 0x3207 JUMP JUMPDEST DUP1 PUSH1 0x0 JUMPDEST DUP4 DUP2 LT ISZERO PUSH2 0x32CE JUMPI DUP2 MLOAD PUSH2 0x32B5 DUP9 DUP3 PUSH2 0x3258 JUMP JUMPDEST SWAP8 POP PUSH2 0x32C0 DUP4 PUSH2 0x3270 JUMP JUMPDEST SWAP3 POP POP PUSH1 0x1 DUP2 ADD SWAP1 POP PUSH2 0x32A1 JUMP JUMPDEST POP DUP6 SWAP4 POP POP POP POP SWAP3 SWAP2 POP POP JUMP JUMPDEST PUSH1 0x0 PUSH1 0x20 DUP3 ADD SWAP1 POP DUP2 DUP2 SUB PUSH1 0x0 DUP4 ADD MSTORE PUSH2 0x32F5 DUP2 DUP5 PUSH2 0x327D JUMP JUMPDEST SWAP1 POP SWAP3 SWAP2 POP POP JUMP JUMPDEST PUSH1 0x0 PUSH1 0x40 MLOAD SWAP1 POP SWAP1 JUMP JUMPDEST PUSH1 0x0 DUP1 REVERT JUMPDEST PUSH1 0x0 DUP1 REVERT JUMPDEST PUSH1 0x0 DUP1 REVERT JUMPDEST PUSH1 0x0 DUP1 REVERT JUMPDEST PUSH1 0x0 PUSH1 0x1F NOT PUSH1 0x1F DUP4 ADD AND SWAP1 POP SWAP2 SWAP1 POP JUMP JUMPDEST PUSH32 0x4E487B7100000000000000000000000000000000000000000000000000000000 PUSH1 0x0 MSTORE PUSH1 0x41 PUSH1 0x4 MSTORE PUSH1 0x24 PUSH1 0x0 REVERT JUMPDEST PUSH2 0x3364 DUP3 PUSH2 0x331B JUMP JUMPDEST DUP2 ADD DUP2 DUP2 LT PUSH8 0xFFFFFFFFFFFFFFFF DUP3 GT OR ISZERO PUSH2 0x3383 JUMPI PUSH2 0x3382 PUSH2 0x332C JUMP JUMPDEST JUMPDEST DUP1 PUSH1 0x40 MSTORE POP POP POP JUMP JUMPDEST PUSH1 0x0 PUSH2 0x3396 PUSH2 0x32FD JUMP JUMPDEST SWAP1 POP PUSH2 0x33A2 DUP3 DUP3 PUSH2 0x335B JUMP JUMPDEST SWAP2 SWAP1 POP JUMP JUMPDEST PUSH1 0x0 PUSH8 0xFFFFFFFFFFFFFFFF DUP3 GT ISZERO PUSH2 0x33C2 JUMPI PUSH2 0x33C1 PUSH2 0x332C JUMP JUMPDEST JUMPDEST PUSH2 0x33CB DUP3 PUSH2 0x331B JUMP JUMPDEST SWAP1 POP PUSH1 0x20 DUP2 ADD SWAP1 POP SWAP2 SWAP1 POP JUMP JUMPDEST DUP3 DUP2 DUP4 CALLDATACOPY PUSH1 0x0 DUP4 DUP4 ADD MSTORE POP POP POP JUMP JUMPDEST PUSH1 0x0 PUSH2 0x33FA PUSH2 0x33F5 DUP5 PUSH2 0x33A7 JUMP JUMPDEST PUSH2 0x338C JUMP JUMPDEST SWAP1 POP DUP3 DUP2 MSTORE PUSH1 0x20 DUP2 ADD DUP5 DUP5 DUP5 ADD GT ISZERO PUSH2 0x3416 JUMPI PUSH2 0x3415 PUSH2 0x3316 JUMP JUMPDEST JUMPDEST PUSH2 0x3421 DUP5 DUP3 DUP6 PUSH2 0x33D8 JUMP JUMPDEST POP SWAP4 SWAP3 POP POP POP JUMP JUMPDEST PUSH1 0x0 DUP3 PUSH1 0x1F DUP4 ADD SLT PUSH2 0x343E JUMPI PUSH2 0x343D PUSH2 0x3311 JUMP JUMPDEST JUMPDEST DUP2 CALLDATALOAD PUSH2 0x344E DUP5 DUP3 PUSH1 0x20 DUP7 ADD PUSH2 0x33E7 JUMP JUMPDEST SWAP2 POP POP SWAP3 SWAP2 POP POP JUMP JUMPDEST PUSH1 0x0 PUSH1 0x20 DUP3 DUP5 SUB SLT ISZERO PUSH2 0x346D JUMPI PUSH2 0x346C PUSH2 0x3307 JUMP JUMPDEST JUMPDEST PUSH1 0x0 DUP3 ADD CALLDATALOAD PUSH8 0xFFFFFFFFFFFFFFFF DUP2 GT ISZERO PUSH2 0x348B JUMPI PUSH2 0x348A PUSH2 0x330C JUMP JUMPDEST JUMPDEST PUSH2 0x3497 DUP5 DUP3 DUP6 ADD PUSH2 0x3429 JUMP JUMPDEST SWAP2 POP POP SWAP3 SWAP2 POP POP JUMP JUMPDEST PUSH1 0x0 DUP2 ISZERO ISZERO SWAP1 POP SWAP2 SWAP1 POP JUMP JUMPDEST PUSH2 0x34B5 DUP2 PUSH2 0x34A0 JUMP JUMPDEST DUP3 MSTORE POP POP JUMP JUMPDEST PUSH1 0x0 PUSH1 0x20 DUP3 ADD SWAP1 POP PUSH2 0x34D0 PUSH1 0x0 DUP4 ADD DUP5 PUSH2 0x34AC JUMP JUMPDEST SWAP3 SWAP2 POP POP JUMP JUMPDEST PUSH1 0x0 DUP2 MLOAD SWAP1 POP SWAP2 SWAP1 POP JUMP JUMPDEST PUSH1 0x0 DUP3 DUP3 MSTORE PUSH1 0x20 DUP3 ADD SWAP1 POP SWAP3 SWAP2 POP POP JUMP JUMPDEST PUSH1 0x0 JUMPDEST DUP4 DUP2 LT ISZERO PUSH2 0x3510 JUMPI DUP1 DUP3 ADD MLOAD DUP2 DUP5 ADD MSTORE PUSH1 0x20 DUP2 ADD SWAP1 POP PUSH2 0x34F5 JUMP JUMPDEST PUSH1 0x0 DUP5 DUP5 ADD MSTORE POP POP POP POP JUMP JUMPDEST PUSH1 0x0 PUSH2 0x3527 DUP3 PUSH2 0x34D6 JUMP JUMPDEST PUSH2 0x3531 DUP2 DUP6 PUSH2 0x34E1 JUMP JUMPDEST SWAP4 POP PUSH2 0x3541 DUP2 DUP6 PUSH1 0x20 DUP7 ADD PUSH2 0x34F2 JUMP JUMPDEST PUSH2 0x354A DUP2 PUSH2 0x331B JUMP JUMPDEST DUP5 ADD SWAP2 POP POP SWAP3 SWAP2 POP POP JUMP JUMPDEST PUSH1 0x0 PUSH1 0x20 DUP3 ADD SWAP1 POP DUP2 DUP2 SUB PUSH1 0x0 DUP4 ADD MSTORE PUSH2 0x356F DUP2 DUP5 PUSH2 0x351C JUMP JUMPDEST SWAP1 POP SWAP3 SWAP2 POP POP JUMP JUMPDEST PUSH1 0x0 DUP2 MLOAD SWAP1 POP SWAP2 SWAP1 POP JUMP JUMPDEST PUSH1 0x0 DUP3 DUP3 MSTORE PUSH1 0x20 DUP3 ADD SWAP1 POP SWAP3 SWAP2 POP POP JUMP JUMPDEST PUSH1 0x0 DUP2 SWAP1 POP PUSH1 0x20 DUP3 ADD SWAP1 POP SWAP2 SWAP1 POP JUMP JUMPDEST PUSH1 0x0 DUP3 DUP3 MSTORE PUSH1 0x20 DUP3 ADD SWAP1 POP SWAP3 SWAP2 POP POP JUMP JUMPDEST PUSH1 0x0 PUSH2 0x35BF DUP3 PUSH2 0x34D6 JUMP JUMPDEST PUSH2 0x35C9 DUP2 DUP6 PUSH2 0x35A3 JUMP JUMPDEST SWAP4 POP PUSH2 0x35D9 DUP2 DUP6 PUSH1 0x20 DUP7 ADD PUSH2 0x34F2 JUMP JUMPDEST PUSH2 0x35E2 DUP2 PUSH2 0x331B JUMP JUMPDEST DUP5 ADD SWAP2 POP POP SWAP3 SWAP2 POP POP JUMP JUMPDEST PUSH1 0x0 PUSH2 0x35F9 DUP4 DUP4 PUSH2 0x35B4 JUMP JUMPDEST SWAP1 POP SWAP3 SWAP2 POP POP JUMP JUMPDEST PUSH1 0x0 PUSH1 0x20 DUP3 ADD SWAP1 POP SWAP2 SWAP1 POP JUMP JUMPDEST PUSH1 0x0 PUSH2 0x3619 DUP3 PUSH2 0x3577 JUMP JUMPDEST PUSH2 0x3623 DUP2 DUP6 PUSH2 0x3582 JUMP JUMPDEST SWAP4 POP DUP4 PUSH1 0x20 DUP3 MUL DUP6 ADD PUSH2 0x3635 DUP6 PUSH2 0x3593 JUMP JUMPDEST DUP1 PUSH1 0x0 JUMPDEST DUP6 DUP2 LT ISZERO PUSH2 0x3671 JUMPI DUP5 DUP5 SUB DUP10 MSTORE DUP2 MLOAD PUSH2 0x3652 DUP6 DUP3 PUSH2 0x35ED JUMP JUMPDEST SWAP5 POP PUSH2 0x365D DUP4 PUSH2 0x3601 JUMP JUMPDEST SWAP3 POP PUSH1 0x20 DUP11 ADD SWAP10 POP POP PUSH1 0x1 DUP2 ADD SWAP1 POP PUSH2 0x3639 JUMP JUMPDEST POP DUP3 SWAP8 POP DUP8 SWAP6 POP POP POP POP POP POP SWAP3 SWAP2 POP POP JUMP JUMPDEST PUSH1 0x0 PUSH1 0x20 DUP3 ADD SWAP1 POP DUP2 DUP2 SUB PUSH1 0x0 DUP4 ADD MSTORE PUSH2 0x369D DUP2 DUP5 PUSH2 0x360E JUMP JUMPDEST SWAP1 POP SWAP3 SWAP2 POP POP JUMP JUMPDEST PUSH2 0x36AE DUP2 PUSH2 0x3237 JUMP JUMPDEST DUP2 EQ PUSH2 0x36B9 JUMPI PUSH1 0x0 DUP1 REVERT JUMPDEST POP JUMP JUMPDEST PUSH1 0x0 DUP2 CALLDATALOAD SWAP1 POP PUSH2 0x36CB DUP2 PUSH2 0x36A5 JUMP JUMPDEST SWAP3 SWAP2 POP POP JUMP JUMPDEST PUSH1 0x0 PUSH1 0x20 DUP3 DUP5 SUB SLT ISZERO PUSH2 0x36E7 JUMPI PUSH2 0x36E6 PUSH2 0x3307 JUMP JUMPDEST JUMPDEST PUSH1 0x0 PUSH2 0x36F5 DUP5 DUP3 DUP6 ADD PUSH2 0x36BC JUMP JUMPDEST SWAP2 POP POP SWAP3 SWAP2 POP POP JUMP JUMPDEST PUSH1 0x0 DUP2 SWAP1 POP SWAP2 SWAP1 POP JUMP JUMPDEST PUSH2 0x3711 DUP2 PUSH2 0x36FE JUMP JUMPDEST DUP2 EQ PUSH2 0x371C JUMPI PUSH1 0x0 DUP1 REVERT JUMPDEST POP JUMP JUMPDEST PUSH1 0x0 DUP2 CALLDATALOAD SWAP1 POP PUSH2 0x372E DUP2 PUSH2 0x3708 JUMP JUMPDEST SWAP3 SWAP2 POP POP JUMP JUMPDEST PUSH1 0x0 PUSH1 0x20 DUP3 DUP5 SUB SLT ISZERO PUSH2 0x374A JUMPI PUSH2 0x3749 PUSH2 0x3307 JUMP JUMPDEST JUMPDEST PUSH1 0x0 PUSH2 0x3758 DUP5 DUP3 DUP6 ADD PUSH2 0x371F JUMP JUMPDEST SWAP2 POP POP SWAP3 SWAP2 POP POP JUMP JUMPDEST PUSH2 0x376A DUP2 PUSH2 0x3237 JUMP JUMPDEST DUP3 MSTORE POP POP JUMP JUMPDEST PUSH1 0x0 PUSH1 0x20 DUP3 ADD SWAP1 POP PUSH2 0x3785 PUSH1 0x0 DUP4 ADD DUP5 PUSH2 0x3761 JUMP JUMPDEST SWAP3 SWAP2 POP POP JUMP JUMPDEST PUSH1 0x0 DUP1 PUSH1 0x40 DUP4 DUP6 SUB SLT ISZERO PUSH2 0x37A2 JUMPI PUSH2 0x37A1 PUSH2 0x3307 JUMP JUMPDEST JUMPDEST PUSH1 0x0 PUSH2 0x37B0 DUP6 DUP3 DUP7 ADD PUSH2 0x36BC JUMP JUMPDEST SWAP3 POP POP PUSH1 0x20 DUP4 ADD CALLDATALOAD PUSH8 0xFFFFFFFFFFFFFFFF DUP2 GT ISZERO PUSH2 0x37D1 JUMPI PUSH2 0x37D0 PUSH2 0x330C JUMP JUMPDEST JUMPDEST PUSH2 0x37DD DUP6 DUP3 DUP7 ADD PUSH2 0x3429 JUMP JUMPDEST SWAP2 POP POP SWAP3 POP SWAP3 SWAP1 POP JUMP JUMPDEST PUSH1 0x0 PUSH2 0x37F2 DUP3 PUSH2 0x3217 JUMP JUMPDEST SWAP1 POP SWAP2 SWAP1 POP JUMP JUMPDEST PUSH2 0x3802 DUP2 PUSH2 0x37E7 JUMP JUMPDEST DUP2 EQ PUSH2 0x380D JUMPI PUSH1 0x0 DUP1 REVERT JUMPDEST POP JUMP JUMPDEST PUSH1 0x0 DUP2 CALLDATALOAD SWAP1 POP PUSH2 0x381F DUP2 PUSH2 0x37F9 JUMP JUMPDEST SWAP3 SWAP2 POP POP JUMP JUMPDEST PUSH1 0x0 PUSH1 0x20 DUP3 DUP5 SUB SLT ISZERO PUSH2 0x383B JUMPI PUSH2 0x383A PUSH2 0x3307 JUMP JUMPDEST JUMPDEST PUSH1 0x0 PUSH2 0x3849 DUP5 DUP3 DUP6 ADD PUSH2 0x3810 JUMP JUMPDEST SWAP2 POP POP SWAP3 SWAP2 POP POP JUMP JUMPDEST PUSH1 0x0 PUSH8 0xFFFFFFFFFFFFFFFF DUP3 GT ISZERO PUSH2 0x386D JUMPI PUSH2 0x386C PUSH2 0x332C JUMP JUMPDEST JUMPDEST PUSH1 0x20 DUP3 MUL SWAP1 POP PUSH1 0x20 DUP2 ADD SWAP1 POP SWAP2 SWAP1 POP JUMP JUMPDEST PUSH1 0x0 DUP1 REVERT JUMPDEST PUSH1 0x0 PUSH2 0x3896 PUSH2 0x3891 DUP5 PUSH2 0x3852 JUMP JUMPDEST PUSH2 0x338C JUMP JUMPDEST SWAP1 POP DUP1 DUP4 DUP3 MSTORE PUSH1 0x20 DUP3 ADD SWAP1 POP PUSH1 0x20 DUP5 MUL DUP4 ADD DUP6 DUP2 GT ISZERO PUSH2 0x38B9 JUMPI PUSH2 0x38B8 PUSH2 0x387E JUMP JUMPDEST JUMPDEST DUP4 JUMPDEST DUP2 DUP2 LT ISZERO PUSH2 0x3900 JUMPI DUP1 CALLDATALOAD PUSH8 0xFFFFFFFFFFFFFFFF DUP2 GT ISZERO PUSH2 0x38DE JUMPI PUSH2 0x38DD PUSH2 0x3311 JUMP JUMPDEST JUMPDEST DUP1 DUP7 ADD PUSH2 0x38EB DUP10 DUP3 PUSH2 0x3429 JUMP JUMPDEST DUP6 MSTORE PUSH1 0x20 DUP6 ADD SWAP5 POP POP POP PUSH1 0x20 DUP2 ADD SWAP1 POP PUSH2 0x38BB JUMP JUMPDEST POP POP POP SWAP4 SWAP3 POP POP POP JUMP JUMPDEST PUSH1 0x0 DUP3 PUSH1 0x1F DUP4 ADD SLT PUSH2 0x391F JUMPI PUSH2 0x391E PUSH2 0x3311 JUMP JUMPDEST JUMPDEST DUP2 CALLDATALOAD PUSH2 0x392F DUP5 DUP3 PUSH1 0x20 DUP7 ADD PUSH2 0x3883 JUMP JUMPDEST SWAP2 POP POP SWAP3 SWAP2 POP POP JUMP JUMPDEST PUSH1 0x0 PUSH1 0x20 DUP3 DUP5 SUB SLT ISZERO PUSH2 0x394E JUMPI PUSH2 0x394D PUSH2 0x3307 JUMP JUMPDEST JUMPDEST PUSH1 0x0 DUP3 ADD CALLDATALOAD PUSH8 0xFFFFFFFFFFFFFFFF DUP2 GT ISZERO PUSH2 0x396C JUMPI PUSH2 0x396B PUSH2 0x330C JUMP JUMPDEST JUMPDEST PUSH2 0x3978 DUP5 DUP3 DUP6 ADD PUSH2 0x390A JUMP JUMPDEST SWAP2 POP POP SWAP3 SWAP2 POP POP JUMP JUMPDEST PUSH32 0x4F6E6C79206F776E657220686173207468652070726976696C65676500000000 PUSH1 0x0 DUP3 ADD MSTORE POP JUMP JUMPDEST PUSH1 0x0 PUSH2 0x39B7 PUSH1 0x1C DUP4 PUSH2 0x34E1 JUMP JUMPDEST SWAP2 POP PUSH2 0x39C2 DUP3 PUSH2 0x3981 JUMP JUMPDEST PUSH1 0x20 DUP3 ADD SWAP1 POP SWAP2 SWAP1 POP JUMP JUMPDEST PUSH1 0x0 PUSH1 0x20 DUP3 ADD SWAP1 POP DUP2 DUP2 SUB PUSH1 0x0 DUP4 ADD MSTORE PUSH2 0x39E6 DUP2 PUSH2 0x39AA JUMP JUMPDEST SWAP1 POP SWAP2 SWAP1 POP JUMP JUMPDEST PUSH1 0x0 DUP2 SLOAD SWAP1 POP SWAP2 SWAP1 POP JUMP JUMPDEST PUSH1 0x0 DUP2 SWAP1 POP DUP2 PUSH1 0x0 MSTORE PUSH1 0x20 PUSH1 0x0 KECCAK256 SWAP1 POP SWAP2 SWAP1 POP JUMP JUMPDEST PUSH1 0x0 DUP2 PUSH1 0x0 SHR SWAP1 POP SWAP2 SWAP1 POP JUMP JUMPDEST PUSH1 0x0 PUSH20 0xFFFFFFFFFFFFFFFFFFFFFFFFFFFFFFFFFFFFFFFF DUP3 AND SWAP1 POP SWAP2 SWAP1 POP JUMP JUMPDEST PUSH1 0x0 PUSH2 0x3A4D PUSH2 0x3A48 DUP4 PUSH2 0x3A0D JUMP JUMPDEST PUSH2 0x3A1A JUMP JUMPDEST SWAP1 POP SWAP2 SWAP1 POP JUMP JUMPDEST PUSH1 0x0 PUSH2 0x3A60 DUP3 SLOAD PUSH2 0x3A3A JUMP JUMPDEST SWAP1 POP SWAP2 SWAP1 POP JUMP JUMPDEST PUSH1 0x0 PUSH1 0x1 DUP3 ADD SWAP1 POP SWAP2 SWAP1 POP JUMP JUMPDEST PUSH1 0x0 PUSH2 0x3A7F DUP3 PUSH2 0x39ED JUMP JUMPDEST PUSH2 0x3A89 DUP2 DUP6 PUSH2 0x31F6 JUMP JUMPDEST SWAP4 POP PUSH2 0x3A94 DUP4 PUSH2 0x39F8 JUMP JUMPDEST DUP1 PUSH1 0x0 JUMPDEST DUP4 DUP2 LT ISZERO PUSH2 0x3ACC JUMPI PUSH2 0x3AA9 DUP3 PUSH2 0x3A54 JUMP JUMPDEST PUSH2 0x3AB3 DUP9 DUP3 PUSH2 0x3258 JUMP JUMPDEST SWAP8 POP PUSH2 0x3ABE DUP4 PUSH2 0x3A67 JUMP JUMPDEST SWAP3 POP POP PUSH1 0x1 DUP2 ADD SWAP1 POP PUSH2 0x3A98 JUMP JUMPDEST POP DUP6 SWAP4 POP POP POP POP SWAP3 SWAP2 POP POP JUMP JUMPDEST PUSH1 0x0 PUSH1 0x20 DUP3 ADD SWAP1 POP DUP2 DUP2 SUB PUSH1 0x0 DUP4 ADD MSTORE PUSH2 0x3AF3 DUP2 DUP5 PUSH2 0x3A74 JUMP JUMPDEST SWAP1 POP SWAP3 SWAP2 POP POP JUMP JUMPDEST PUSH1 0x0 PUSH8 0xFFFFFFFFFFFFFFFF DUP3 GT ISZERO PUSH2 0x3B16 JUMPI PUSH2 0x3B15 PUSH2 0x332C JUMP JUMPDEST JUMPDEST PUSH1 0x20 DUP3 MUL SWAP1 POP PUSH1 0x20 DUP2 ADD SWAP1 POP SWAP2 SWAP1 POP JUMP JUMPDEST PUSH1 0x0 DUP2 MLOAD SWAP1 POP PUSH2 0x3B36 DUP2 PUSH2 0x36A5 JUMP JUMPDEST SWAP3 SWAP2 POP POP JUMP JUMPDEST PUSH1 0x0 PUSH2 0x3B4F PUSH2 0x3B4A DUP5 PUSH2 0x3AFB JUMP JUMPDEST PUSH2 0x338C JUMP JUMPDEST SWAP1 POP DUP1 DUP4 DUP3 MSTORE PUSH1 0x20 DUP3 ADD SWAP1 POP PUSH1 0x20 DUP5 MUL DUP4 ADD DUP6 DUP2 GT ISZERO PUSH2 0x3B72 JUMPI PUSH2 0x3B71 PUSH2 0x387E JUMP JUMPDEST JUMPDEST DUP4 JUMPDEST DUP2 DUP2 LT ISZERO PUSH2 0x3B9B JUMPI DUP1 PUSH2 0x3B87 DUP9 DUP3 PUSH2 0x3B27 JUMP JUMPDEST DUP5 MSTORE PUSH1 0x20 DUP5 ADD SWAP4 POP POP PUSH1 0x20 DUP2 ADD SWAP1 POP PUSH2 0x3B74 JUMP JUMPDEST POP POP POP SWAP4 SWAP3 POP POP POP JUMP JUMPDEST PUSH1 0x0 DUP3 PUSH1 0x1F DUP4 ADD SLT PUSH2 0x3BBA JUMPI PUSH2 0x3BB9 PUSH2 0x3311 JUMP JUMPDEST JUMPDEST DUP2 MLOAD PUSH2 0x3BCA DUP5 DUP3 PUSH1 0x20 DUP7 ADD PUSH2 0x3B3C JUMP JUMPDEST SWAP2 POP POP SWAP3 SWAP2 POP POP JUMP JUMPDEST PUSH1 0x0 PUSH1 0x20 DUP3 DUP5 SUB SLT ISZERO PUSH2 0x3BE9 JUMPI PUSH2 0x3BE8 PUSH2 0x3307 JUMP JUMPDEST JUMPDEST PUSH1 0x0 DUP3 ADD MLOAD PUSH8 0xFFFFFFFFFFFFFFFF DUP2 GT ISZERO PUSH2 0x3C07 JUMPI PUSH2 0x3C06 PUSH2 0x330C JUMP JUMPDEST JUMPDEST PUSH2 0x3C13 DUP5 DUP3 DUP6 ADD PUSH2 0x3BA5 JUMP JUMPDEST SWAP2 POP POP SWAP3 SWAP2 POP POP JUMP JUMPDEST PUSH2 0x3C25 DUP2 PUSH2 0x34A0 JUMP JUMPDEST DUP2 EQ PUSH2 0x3C30 JUMPI PUSH1 0x0 DUP1 REVERT JUMPDEST POP JUMP JUMPDEST PUSH1 0x0 DUP2 MLOAD SWAP1 POP PUSH2 0x3C42 DUP2 PUSH2 0x3C1C JUMP JUMPDEST SWAP3 SWAP2 POP POP JUMP JUMPDEST PUSH1 0x0 PUSH1 0x20 DUP3 DUP5 SUB SLT ISZERO PUSH2 0x3C5E JUMPI PUSH2 0x3C5D PUSH2 0x3307 JUMP JUMPDEST JUMPDEST PUSH1 0x0 PUSH2 0x3C6C DUP5 DUP3 DUP6 ADD PUSH2 0x3C33 JUMP JUMPDEST SWAP2 POP POP SWAP3 SWAP2 POP POP JUMP JUMPDEST PUSH32 0x4E487B7100000000000000000000000000000000000000000000000000000000 PUSH1 0x0 MSTORE PUSH1 0x22 PUSH1 0x4 MSTORE PUSH1 0x24 PUSH1 0x0 REVERT JUMPDEST PUSH1 0x0 PUSH1 0x2 DUP3 DIV SWAP1 POP PUSH1 0x1 DUP3 AND DUP1 PUSH2 0x3CBC JUMPI PUSH1 0x7F DUP3 AND SWAP2 POP JUMPDEST PUSH1 0x20 DUP3 LT DUP2 SUB PUSH2 0x3CCF JUMPI PUSH2 0x3CCE PUSH2 0x3C75 JUMP JUMPDEST JUMPDEST POP SWAP2 SWAP1 POP JUMP JUMPDEST PUSH32 0x4F776E65722068617320746F20726567697374657220746F207075626C696320 PUSH1 0x0 DUP3 ADD MSTORE PUSH32 0x636F6E7472616374000000000000000000000000000000000000000000000000 PUSH1 0x20 DUP3 ADD MSTORE POP JUMP JUMPDEST PUSH1 0x0 PUSH2 0x3D31 PUSH1 0x28 DUP4 PUSH2 0x34E1 JUMP JUMPDEST SWAP2 POP PUSH2 0x3D3C DUP3 PUSH2 0x3CD5 JUMP JUMPDEST PUSH1 0x40 DUP3 ADD SWAP1 POP SWAP2 SWAP1 POP JUMP JUMPDEST PUSH1 0x0 PUSH1 0x20 DUP3 ADD SWAP1 POP DUP2 DUP2 SUB PUSH1 0x0 DUP4 ADD MSTORE PUSH2 0x3D60 DUP2 PUSH2 0x3D24 JUMP JUMPDEST SWAP1 POP SWAP2 SWAP1 POP JUMP JUMPDEST PUSH1 0x0 DUP2 SWAP1 POP DUP2 PUSH1 0x0 MSTORE PUSH1 0x20 PUSH1 0x0 KECCAK256 SWAP1 POP SWAP2 SWAP1 POP JUMP JUMPDEST PUSH1 0x0 DUP2 SLOAD PUSH2 0x3D89 DUP2 PUSH2 0x3CA4 JUMP JUMPDEST PUSH2 0x3D93 DUP2 DUP7 PUSH2 0x34E1 JUMP JUMPDEST SWAP5 POP PUSH1 0x1 DUP3 AND PUSH1 0x0 DUP2 EQ PUSH2 0x3DAE JUMPI PUSH1 0x1 DUP2 EQ PUSH2 0x3DC4 JUMPI PUSH2 0x3DF7 JUMP JUMPDEST PUSH1 0xFF NOT DUP4 AND DUP7 MSTORE DUP2 ISZERO ISZERO PUSH1 0x20 MUL DUP7 ADD SWAP4 POP PUSH2 0x3DF7 JUMP JUMPDEST PUSH2 0x3DCD DUP6 PUSH2 0x3D67 JUMP JUMPDEST PUSH1 0x0 JUMPDEST DUP4 DUP2 LT ISZERO PUSH2 0x3DEF JUMPI DUP2 SLOAD DUP2 DUP10 ADD MSTORE PUSH1 0x1 DUP3 ADD SWAP2 POP PUSH1 0x20 DUP2 ADD SWAP1 POP PUSH2 0x3DD0 JUMP JUMPDEST DUP1 DUP9 ADD SWAP6 POP POP POP JUMPDEST POP POP POP SWAP3 SWAP2 POP POP JUMP JUMPDEST PUSH1 0x0 PUSH1 0x20 DUP3 ADD SWAP1 POP DUP2 DUP2 SUB PUSH1 0x0 DUP4 ADD MSTORE PUSH2 0x3E1A DUP2 DUP5 PUSH2 0x3D7C JUMP JUMPDEST SWAP1 POP SWAP3 SWAP2 POP POP JUMP JUMPDEST PUSH32 0x4E487B7100000000000000000000000000000000000000000000000000000000 PUSH1 0x0 MSTORE PUSH1 0x32 PUSH1 0x4 MSTORE PUSH1 0x24 PUSH1 0x0 REVERT JUMPDEST PUSH32 0x4E487B7100000000000000000000000000000000000000000000000000000000 PUSH1 0x0 MSTORE PUSH1 0x11 PUSH1 0x4 MSTORE PUSH1 0x24 PUSH1 0x0 REVERT JUMPDEST PUSH1 0x0 PUSH2 0x3E8B DUP3 PUSH2 0x36FE JUMP JUMPDEST SWAP2 POP PUSH32 0xFFFFFFFFFFFFFFFFFFFFFFFFFFFFFFFFFFFFFFFFFFFFFFFFFFFFFFFFFFFFFFFF DUP3 SUB PUSH2 0x3EBD JUMPI PUSH2 0x3EBC PUSH2 0x3E51 JUMP JUMPDEST JUMPDEST PUSH1 0x1 DUP3 ADD SWAP1 POP SWAP2 SWAP1 POP JUMP JUMPDEST PUSH1 0x0 PUSH1 0x20 PUSH1 0x1F DUP4 ADD DIV SWAP1 POP SWAP2 SWAP1 POP JUMP JUMPDEST PUSH1 0x0 DUP3 DUP3 SHL SWAP1 POP SWAP3 SWAP2 POP POP JUMP JUMPDEST PUSH1 0x0 PUSH1 0x8 DUP4 MUL PUSH2 0x3F15 PUSH32 0xFFFFFFFFFFFFFFFFFFFFFFFFFFFFFFFFFFFFFFFFFFFFFFFFFFFFFFFFFFFFFFFF DUP3 PUSH2 0x3ED8 JUMP JUMPDEST PUSH2 0x3F1F DUP7 DUP4 PUSH2 0x3ED8 JUMP JUMPDEST SWAP6 POP DUP1 NOT DUP5 AND SWAP4 POP DUP1 DUP7 AND DUP5 OR SWAP3 POP POP POP SWAP4 SWAP3 POP POP POP JUMP JUMPDEST PUSH1 0x0 DUP2 SWAP1 POP SWAP2 SWAP1 POP JUMP JUMPDEST PUSH1 0x0 PUSH2 0x3F5C PUSH2 0x3F57 PUSH2 0x3F52 DUP5 PUSH2 0x36FE JUMP JUMPDEST PUSH2 0x3F37 JUMP JUMPDEST PUSH2 0x36FE JUMP JUMPDEST SWAP1 POP SWAP2 SWAP1 POP JUMP JUMPDEST PUSH1 0x0 DUP2 SWAP1 POP SWAP2 SWAP1 POP JUMP JUMPDEST PUSH2 0x3F76 DUP4 PUSH2 0x3F41 JUMP JUMPDEST PUSH2 0x3F8A PUSH2 0x3F82 DUP3 PUSH2 0x3F63 JUMP JUMPDEST DUP5 DUP5 SLOAD PUSH2 0x3EE5 JUMP JUMPDEST DUP3 SSTORE POP POP POP POP JUMP JUMPDEST PUSH1 0x0 SWAP1 JUMP JUMPDEST PUSH2 0x3F9F PUSH2 0x3F92 JUMP JUMPDEST PUSH2 0x3FAA DUP2 DUP5 DUP5 PUSH2 0x3F6D JUMP JUMPDEST POP POP POP JUMP JUMPDEST JUMPDEST DUP2 DUP2 LT ISZERO PUSH2 0x3FCE JUMPI PUSH2 0x3FC3 PUSH1 0x0 DUP3 PUSH2 0x3F97 JUMP JUMPDEST PUSH1 0x1 DUP2 ADD SWAP1 POP PUSH2 0x3FB0 JUMP JUMPDEST POP POP JUMP JUMPDEST PUSH1 0x1F DUP3 GT ISZERO PUSH2 0x4013 JUMPI PUSH2 0x3FE4 DUP2 PUSH2 0x3D67 JUMP JUMPDEST PUSH2 0x3FED DUP5 PUSH2 0x3EC8 JUMP JUMPDEST DUP2 ADD PUSH1 0x20 DUP6 LT ISZERO PUSH2 0x3FFC JUMPI DUP2 SWAP1 POP JUMPDEST PUSH2 0x4010 PUSH2 0x4008 DUP6 PUSH2 0x3EC8 JUMP JUMPDEST DUP4 ADD DUP3 PUSH2 0x3FAF JUMP JUMPDEST POP POP JUMPDEST POP POP POP JUMP JUMPDEST PUSH1 0x0 DUP3 DUP3 SHR SWAP1 POP SWAP3 SWAP2 POP POP JUMP JUMPDEST PUSH1 0x0 PUSH2 0x4036 PUSH1 0x0 NOT DUP5 PUSH1 0x8 MUL PUSH2 0x4018 JUMP JUMPDEST NOT DUP1 DUP4 AND SWAP2 POP POP SWAP3 SWAP2 POP POP JUMP JUMPDEST PUSH1 0x0 PUSH2 0x404F DUP4 DUP4 PUSH2 0x4025 JUMP JUMPDEST SWAP2 POP DUP3 PUSH1 0x2 MUL DUP3 OR SWAP1 POP SWAP3 SWAP2 POP POP JUMP JUMPDEST PUSH2 0x4068 DUP3 PUSH2 0x34D6 JUMP JUMPDEST PUSH8 0xFFFFFFFFFFFFFFFF DUP2 GT ISZERO PUSH2 0x4081 JUMPI PUSH2 0x4080 PUSH2 0x332C JUMP JUMPDEST JUMPDEST PUSH2 0x408B DUP3 SLOAD PUSH2 0x3CA4 JUMP JUMPDEST PUSH2 0x4096 DUP3 DUP3 DUP6 PUSH2 0x3FD2 JUMP JUMPDEST PUSH1 0x0 PUSH1 0x20 SWAP1 POP PUSH1 0x1F DUP4 GT PUSH1 0x1 DUP2 EQ PUSH2 0x40C9 JUMPI PUSH1 0x0 DUP5 ISZERO PUSH2 0x40B7 JUMPI DUP3 DUP8 ADD MLOAD SWAP1 POP JUMPDEST PUSH2 0x40C1 DUP6 DUP3 PUSH2 0x4043 JUMP JUMPDEST DUP7 SSTORE POP PUSH2 0x4129 JUMP JUMPDEST PUSH1 0x1F NOT DUP5 AND PUSH2 0x40D7 DUP7 PUSH2 0x3D67 JUMP JUMPDEST PUSH1 0x0 JUMPDEST DUP3 DUP2 LT ISZERO PUSH2 0x40FF JUMPI DUP5 DUP10 ADD MLOAD DUP3 SSTORE PUSH1 0x1 DUP3 ADD SWAP2 POP PUSH1 0x20 DUP6 ADD SWAP5 POP PUSH1 0x20 DUP2 ADD SWAP1 POP PUSH2 0x40DA JUMP JUMPDEST DUP7 DUP4 LT ISZERO PUSH2 0x411C JUMPI DUP5 DUP10 ADD MLOAD PUSH2 0x4118 PUSH1 0x1F DUP10 AND DUP3 PUSH2 0x4025 JUMP JUMPDEST DUP4 SSTORE POP JUMPDEST PUSH1 0x1 PUSH1 0x2 DUP9 MUL ADD DUP9 SSTORE POP POP POP JUMPDEST POP POP POP POP POP POP JUMP JUMPDEST PUSH1 0x0 PUSH2 0x413C DUP3 PUSH2 0x36FE JUMP JUMPDEST SWAP2 POP PUSH2 0x4147 DUP4 PUSH2 0x36FE JUMP JUMPDEST SWAP3 POP DUP3 DUP3 SUB SWAP1 POP DUP2 DUP2 GT ISZERO PUSH2 0x415F JUMPI PUSH2 0x415E PUSH2 0x3E51 JUMP JUMPDEST JUMPDEST SWAP3 SWAP2 POP POP JUMP JUMPDEST PUSH32 0x4E487B7100000000000000000000000000000000000000000000000000000000 PUSH1 0x0 MSTORE PUSH1 0x31 PUSH1 0x4 MSTORE PUSH1 0x24 PUSH1 0x0 REVERT JUMPDEST PUSH1 0x0 PUSH1 0x40 DUP3 ADD SWAP1 POP DUP2 DUP2 SUB PUSH1 0x0 DUP4 ADD MSTORE PUSH2 0x41AE DUP2 DUP6 PUSH2 0x351C JUMP JUMPDEST SWAP1 POP PUSH2 0x41BD PUSH1 0x20 DUP4 ADD DUP5 PUSH2 0x3761 JUMP JUMPDEST SWAP4 SWAP3 POP POP POP JUMP JUMPDEST PUSH1 0x0 PUSH1 0x60 DUP3 ADD SWAP1 POP PUSH2 0x41D9 PUSH1 0x0 DUP4 ADD DUP7 PUSH2 0x3761 JUMP JUMPDEST PUSH2 0x41E6 PUSH1 0x20 DUP4 ADD DUP6 PUSH2 0x3761 JUMP JUMPDEST PUSH2 0x41F3 PUSH1 0x40 DUP4 ADD DUP5 PUSH2 0x34AC JUMP JUMPDEST SWAP5 SWAP4 POP POP POP POP JUMP JUMPDEST PUSH1 0x0 PUSH1 0x20 DUP3 DUP5 SUB SLT ISZERO PUSH2 0x4211 JUMPI PUSH2 0x4210 PUSH2 0x3307 JUMP JUMPDEST JUMPDEST PUSH1 0x0 PUSH2 0x421F DUP5 DUP3 DUP6 ADD PUSH2 0x3B27 JUMP JUMPDEST SWAP2 POP POP SWAP3 SWAP2 POP POP JUMP JUMPDEST PUSH1 0x0 PUSH1 0x40 DUP3 ADD SWAP1 POP PUSH2 0x423D PUSH1 0x0 DUP4 ADD DUP6 PUSH2 0x3761 JUMP JUMPDEST DUP2 DUP2 SUB PUSH1 0x20 DUP4 ADD MSTORE PUSH2 0x424F DUP2 DUP5 PUSH2 0x351C JUMP JUMPDEST SWAP1 POP SWAP4 SWAP3 POP POP POP JUMP JUMPDEST PUSH1 0x0 PUSH1 0x60 DUP3 ADD SWAP1 POP DUP2 DUP2 SUB PUSH1 0x0 DUP4 ADD MSTORE PUSH2 0x4272 DUP2 DUP7 PUSH2 0x351C JUMP JUMPDEST SWAP1 POP PUSH2 0x4281 PUSH1 0x20 DUP4 ADD DUP6 PUSH2 0x3761 JUMP JUMPDEST PUSH2 0x428E PUSH1 0x40 DUP4 ADD DUP5 PUSH2 0x3761 JUMP JUMPDEST SWAP5 SWAP4 POP POP POP POP JUMP JUMPDEST PUSH1 0x0 DUP2 SWAP1 POP SWAP3 SWAP2 POP POP JUMP JUMPDEST PUSH1 0x0 DUP2 SWAP1 POP DUP2 PUSH1 0x0 MSTORE PUSH1 0x20 PUSH1 0x0 KECCAK256 SWAP1 POP SWAP2 SWAP1 POP JUMP JUMPDEST PUSH1 0x0 DUP2 SLOAD PUSH2 0x42C3 DUP2 PUSH2 0x3CA4 JUMP JUMPDEST PUSH2 0x42CD DUP2 DUP7 PUSH2 0x4296 JUMP JUMPDEST SWAP5 POP PUSH1 0x1 DUP3 AND PUSH1 0x0 DUP2 EQ PUSH2 0x42E8 JUMPI PUSH1 0x1 DUP2 EQ PUSH2 0x42FD JUMPI PUSH2 0x4330 JUMP JUMPDEST PUSH1 0xFF NOT DUP4 AND DUP7 MSTORE DUP2 ISZERO ISZERO DUP3 MUL DUP7 ADD SWAP4 POP PUSH2 0x4330 JUMP JUMPDEST PUSH2 0x4306 DUP6 PUSH2 0x42A1 JUMP JUMPDEST PUSH1 0x0 JUMPDEST DUP4 DUP2 LT ISZERO PUSH2 0x4328 JUMPI DUP2 SLOAD DUP2 DUP10 ADD MSTORE PUSH1 0x1 DUP3 ADD SWAP2 POP PUSH1 0x20 DUP2 ADD SWAP1 POP PUSH2 0x4309 JUMP JUMPDEST DUP4 DUP9 ADD SWAP6 POP POP POP JUMPDEST POP POP POP SWAP3 SWAP2 POP POP JUMP JUMPDEST PUSH1 0x0 PUSH2 0x4345 DUP3 DUP5 PUSH2 0x42B6 JUMP JUMPDEST SWAP2 POP DUP2 SWAP1 POP SWAP3 SWAP2 POP POP JUMP JUMPDEST PUSH1 0x0 PUSH1 0x40 DUP3 ADD SWAP1 POP PUSH2 0x4365 PUSH1 0x0 DUP4 ADD DUP6 PUSH2 0x3761 JUMP JUMPDEST PUSH2 0x4372 PUSH1 0x20 DUP4 ADD DUP5 PUSH2 0x3761 JUMP JUMPDEST SWAP4 SWAP3 POP POP POP JUMP JUMPDEST PUSH32 0x4E6F7420656E6F75676820736861726520686F6C646572732121000000000000 PUSH1 0x0 DUP3 ADD MSTORE POP JUMP JUMPDEST PUSH1 0x0 PUSH2 0x43AF PUSH1 0x1A DUP4 PUSH2 0x34E1 JUMP JUMPDEST SWAP2 POP PUSH2 0x43BA DUP3 PUSH2 0x4379 JUMP JUMPDEST PUSH1 0x20 DUP3 ADD SWAP1 POP SWAP2 SWAP1 POP JUMP JUMPDEST PUSH1 0x0 PUSH1 0x20 DUP3 ADD SWAP1 POP DUP2 DUP2 SUB PUSH1 0x0 DUP4 ADD MSTORE PUSH2 0x43DE DUP2 PUSH2 0x43A2 JUMP JUMPDEST SWAP1 POP SWAP2 SWAP1 POP JUMP JUMPDEST PUSH1 0x0 DUP2 SLOAD SWAP1 POP PUSH2 0x43F4 DUP2 PUSH2 0x3CA4 JUMP JUMPDEST SWAP1 POP SWAP2 SWAP1 POP JUMP JUMPDEST PUSH1 0x0 DUP2 SWAP1 POP DUP2 PUSH1 0x0 MSTORE PUSH1 0x20 PUSH1 0x0 KECCAK256 SWAP1 POP SWAP2 SWAP1 POP JUMP JUMPDEST DUP2 DUP2 SUB PUSH2 0x441E JUMPI POP POP PUSH2 0x44F6 JUMP JUMPDEST PUSH2 0x4427 DUP3 PUSH2 0x43E5 JUMP JUMPDEST PUSH8 0xFFFFFFFFFFFFFFFF DUP2 GT ISZERO PUSH2 0x4440 JUMPI PUSH2 0x443F PUSH2 0x332C JUMP JUMPDEST JUMPDEST PUSH2 0x444A DUP3 SLOAD PUSH2 0x3CA4 JUMP JUMPDEST PUSH2 0x4455 DUP3 DUP3 DUP6 PUSH2 0x3FD2 JUMP JUMPDEST PUSH1 0x0 PUSH1 0x1F DUP4 GT PUSH1 0x1 DUP2 EQ PUSH2 0x4484 JUMPI PUSH1 0x0 DUP5 ISZERO PUSH2 0x4472 JUMPI DUP3 DUP8 ADD SLOAD SWAP1 POP JUMPDEST PUSH2 0x447C DUP6 DUP3 PUSH2 0x4043 JUMP JUMPDEST DUP7 SSTORE POP PUSH2 0x44EF JUMP JUMPDEST PUSH1 0x1F NOT DUP5 AND PUSH2 0x4492 DUP8 PUSH2 0x43FB JUMP JUMPDEST SWAP7 POP PUSH2 0x449D DUP7 PUSH2 0x3D67 JUMP JUMPDEST PUSH1 0x0 JUMPDEST DUP3 DUP2 LT ISZERO PUSH2 0x44C5 JUMPI DUP5 DUP10 ADD SLOAD DUP3 SSTORE PUSH1 0x1 DUP3 ADD SWAP2 POP PUSH1 0x1 DUP6 ADD SWAP5 POP PUSH1 0x20 DUP2 ADD SWAP1 POP PUSH2 0x44A0 JUMP JUMPDEST DUP7 DUP4 LT ISZERO PUSH2 0x44E2 JUMPI DUP5 DUP10 ADD SLOAD PUSH2 0x44DE PUSH1 0x1F DUP10 AND DUP3 PUSH2 0x4025 JUMP JUMPDEST DUP4 SSTORE POP JUMPDEST PUSH1 0x1 PUSH1 0x2 DUP9 MUL ADD DUP9 SSTORE POP POP POP JUMPDEST POP POP POP POP POP POP JUMPDEST JUMP JUMPDEST PUSH1 0x0 PUSH1 0x60 DUP3 ADD SWAP1 POP PUSH2 0x450D PUSH1 0x0 DUP4 ADD DUP7 PUSH2 0x3761 JUMP JUMPDEST PUSH2 0x451A PUSH1 0x20 DUP4 ADD DUP6 PUSH2 0x3761 JUMP JUMPDEST DUP2 DUP2 SUB PUSH1 0x40 DUP4 ADD MSTORE PUSH2 0x452C DUP2 DUP5 PUSH2 0x3D7C JUMP JUMPDEST SWAP1 POP SWAP5 SWAP4 POP POP POP POP JUMP INVALID LOG2 PUSH5 0x6970667358 0x22 SLT KECCAK256 REVERT 0xF9 DUP9 0xB5 0xB5 0xB9 0xE PUSH30 0x8D027700D58916186CE9EB458C4E8838D44563FB6591019664736F6C6343 STOP ADDMOD GT STOP CALLER "
		},
		"gasEstimates": {
			"creation": {
				"codeDepositCost": "3554400",
				"executionCost": "infinite",
				"totalCost": "infinite"
			},
			"external": {
				"acceptInvitation(address)": "infinite",
				"addMyShares(string[])": "infinite",
				"addTemporaryShareHolders(address)": "infinite",
				"checkAcceptance()": "infinite",
				"checkRequestsForBeAHolder()": "infinite",
				"checkRequestsForShare()": "infinite",
				"distribute()": "infinite",
				"getContractAddressOfPublicAddress(address)": "infinite",
				"getMyShares()": "infinite",
				"getMyState()": "infinite",
				"getRejectedShareHolders()": "infinite",
				"getRequestedShareHolders()": "infinite",
				"getShareHolders()": "infinite",
				"getUserName()": "infinite",
				"isRegistered()": "infinite",
				"isUserNameExist(string)": "infinite",
				"makingHolderRequests()": "infinite",
				"myContractAddress()": "2625",
				"myState()": "infinite",
				"owner()": "2601",
				"refreshHolderLists()": "infinite",
				"refreshState()": "infinite",
				"regenerate()": "infinite",
				"regeneratedShares(uint256)": "infinite",
				"registerToPublicContract(string)": "infinite",
				"rejectInvitation(address)": "infinite",
				"rejectedShareHolders(uint256)": "5089",
				"releaseSecret(address)": "infinite",
				"remove(uint256)": "infinite",
				"removeShareHolders(address)": "infinite",
				"requestSharesFromHolders(string)": "infinite",
				"requestedShareHolders(uint256)": "5001",
				"saveToRegeneratedShares(string)": "infinite",
				"secretOwners(uint256)": "5090",
				"shareHolders(uint256)": "5045",
				"shareHoldersMap(address)": "infinite",
				"shares(uint256)": "infinite",
				"sharesMap(address)": "infinite",
				"takeTheSecretFromTheOwner(address,string)": "infinite",
				"userName()": "infinite"
			}
		},
		"methodIdentifiers": {
			"acceptInvitation(address)": "9018c818",
			"addMyShares(string[])": "a0cd9ce8",
			"addTemporaryShareHolders(address)": "b9657d13",
			"checkAcceptance()": "ecd63043",
			"checkRequestsForBeAHolder()": "0d2baaa1",
			"checkRequestsForShare()": "0052c632",
			"distribute()": "e4fc6b6d",
			"getContractAddressOfPublicAddress(address)": "983080e5",
			"getMyShares()": "3e83fe36",
			"getMyState()": "58ce3740",
			"getRejectedShareHolders()": "20a2f735",
			"getRequestedShareHolders()": "dbe4418f",
			"getShareHolders()": "8477d9f3",
			"getUserName()": "12958f1c",
			"isRegistered()": "22366844",
			"isUserNameExist(string)": "0f64dd1b",
			"makingHolderRequests()": "dab0177e",
			"myContractAddress()": "b12f97bb",
			"myState()": "8bf1799f",
			"owner()": "8da5cb5b",
			"refreshHolderLists()": "22cc8155",
			"refreshState()": "d849e94f",
			"regenerate()": "17377f68",
			"regeneratedShares(uint256)": "8d78cd25",
			"registerToPublicContract(string)": "c692f738",
			"rejectInvitation(address)": "aa8f3075",
			"rejectedShareHolders(uint256)": "d7ae335b",
			"releaseSecret(address)": "c0befa53",
			"remove(uint256)": "4cc82215",
			"removeShareHolders(address)": "50e78191",
			"requestSharesFromHolders(string)": "77058418",
			"requestedShareHolders(uint256)": "9ff1d787",
			"saveToRegeneratedShares(string)": "d65ec855",
			"secretOwners(uint256)": "3b91d785",
			"shareHolders(uint256)": "7427a40c",
			"shareHoldersMap(address)": "d534cc0e",
			"shares(uint256)": "57a858fc",
			"sharesMap(address)": "1e1cf160",
			"takeTheSecretFromTheOwner(address,string)": "4a9ae94a",
			"userName()": "70019b35"
		}
	},
	"abi": [
		{
			"inputs": [],
			"stateMutability": "nonpayable",
			"type": "constructor"
		},
		{
			"inputs": [
				{
					"internalType": "address",
					"name": "secretOwner",
					"type": "address"
				}
			],
			"name": "acceptInvitation",
			"outputs": [],
			"stateMutability": "nonpayable",
			"type": "function"
		},
		{
			"inputs": [
				{
					"internalType": "string[]",
					"name": "myShares",
					"type": "string[]"
				}
			],
			"name": "addMyShares",
			"outputs": [],
			"stateMutability": "nonpayable",
			"type": "function"
		},
		{
			"inputs": [
				{
					"internalType": "address payable",
					"name": "shareHolder",
					"type": "address"
				}
			],
			"name": "addTemporaryShareHolders",
			"outputs": [],
			"stateMutability": "nonpayable",
			"type": "function"
		},
		{
			"inputs": [],
			"name": "checkAcceptance",
			"outputs": [
				{
					"internalType": "bool",
					"name": "",
					"type": "bool"
				}
			],
			"stateMutability": "nonpayable",
			"type": "function"
		},
		{
			"inputs": [],
			"name": "checkRequestsForBeAHolder",
			"outputs": [
				{
					"internalType": "address[]",
					"name": "",
					"type": "address[]"
				}
			],
			"stateMutability": "view",
			"type": "function"
		},
		{
			"inputs": [],
			"name": "checkRequestsForShare",
			"outputs": [
				{
					"internalType": "address[]",
					"name": "",
					"type": "address[]"
				}
			],
			"stateMutability": "view",
			"type": "function"
		},
		{
			"inputs": [],
			"name": "distribute",
			"outputs": [],
			"stateMutability": "nonpayable",
			"type": "function"
		},
		{
			"inputs": [
				{
					"internalType": "address",
					"name": "publicAddress",
					"type": "address"
				}
			],
			"name": "getContractAddressOfPublicAddress",
			"outputs": [
				{
					"internalType": "address",
					"name": "",
					"type": "address"
				}
			],
			"stateMutability": "view",
			"type": "function"
		},
		{
			"inputs": [],
			"name": "getMyShares",
			"outputs": [
				{
					"internalType": "string[]",
					"name": "",
					"type": "string[]"
				}
			],
			"stateMutability": "view",
			"type": "function"
		},
		{
			"inputs": [],
			"name": "getMyState",
			"outputs": [
				{
					"internalType": "string",
					"name": "",
					"type": "string"
				}
			],
			"stateMutability": "view",
			"type": "function"
		},
		{
			"inputs": [],
			"name": "getRejectedShareHolders",
			"outputs": [
				{
					"internalType": "address[]",
					"name": "",
					"type": "address[]"
				}
			],
			"stateMutability": "view",
			"type": "function"
		},
		{
			"inputs": [],
			"name": "getRequestedShareHolders",
			"outputs": [
				{
					"internalType": "address[]",
					"name": "",
					"type": "address[]"
				}
			],
			"stateMutability": "view",
			"type": "function"
		},
		{
			"inputs": [],
			"name": "getShareHolders",
			"outputs": [
				{
					"internalType": "address[]",
					"name": "",
					"type": "address[]"
				}
			],
			"stateMutability": "view",
			"type": "function"
		},
		{
			"inputs": [],
			"name": "getUserName",
			"outputs": [
				{
					"internalType": "string",
					"name": "",
					"type": "string"
				}
			],
			"stateMutability": "view",
			"type": "function"
		},
		{
			"inputs": [],
			"name": "isRegistered",
			"outputs": [
				{
					"internalType": "bool",
					"name": "",
					"type": "bool"
				}
			],
			"stateMutability": "view",
			"type": "function"
		},
		{
			"inputs": [
				{
					"internalType": "string",
					"name": "tempUserName",
					"type": "string"
				}
			],
			"name": "isUserNameExist",
			"outputs": [
				{
					"internalType": "bool",
					"name": "",
					"type": "bool"
				}
			],
			"stateMutability": "view",
			"type": "function"
		},
		{
			"inputs": [],
			"name": "makingHolderRequests",
			"outputs": [],
			"stateMutability": "nonpayable",
			"type": "function"
		},
		{
			"inputs": [],
			"name": "myContractAddress",
			"outputs": [
				{
					"internalType": "address",
					"name": "",
					"type": "address"
				}
			],
			"stateMutability": "view",
			"type": "function"
		},
		{
			"inputs": [],
			"name": "myState",
			"outputs": [
				{
					"internalType": "string",
					"name": "",
					"type": "string"
				}
			],
			"stateMutability": "view",
			"type": "function"
		},
		{
			"inputs": [],
			"name": "owner",
			"outputs": [
				{
					"internalType": "address",
					"name": "",
					"type": "address"
				}
			],
			"stateMutability": "view",
			"type": "function"
		},
		{
			"inputs": [],
			"name": "refreshHolderLists",
			"outputs": [],
			"stateMutability": "nonpayable",
			"type": "function"
		},
		{
			"inputs": [],
			"name": "refreshState",
			"outputs": [],
			"stateMutability": "nonpayable",
			"type": "function"
		},
		{
			"inputs": [],
			"name": "regenerate",
			"outputs": [
				{
					"internalType": "string[]",
					"name": "",
					"type": "string[]"
				}
			],
			"stateMutability": "view",
			"type": "function"
		},
		{
			"inputs": [
				{
					"internalType": "uint256",
					"name": "",
					"type": "uint256"
				}
			],
			"name": "regeneratedShares",
			"outputs": [
				{
					"internalType": "string",
					"name": "",
					"type": "string"
				}
			],
			"stateMutability": "view",
			"type": "function"
		},
		{
			"inputs": [
				{
					"internalType": "string",
					"name": "name",
					"type": "string"
				}
			],
			"name": "registerToPublicContract",
			"outputs": [],
			"stateMutability": "nonpayable",
			"type": "function"
		},
		{
			"inputs": [
				{
					"internalType": "address",
					"name": "secretOwner",
					"type": "address"
				}
			],
			"name": "rejectInvitation",
			"outputs": [],
			"stateMutability": "nonpayable",
			"type": "function"
		},
		{
			"inputs": [
				{
					"internalType": "uint256",
					"name": "",
					"type": "uint256"
				}
			],
			"name": "rejectedShareHolders",
			"outputs": [
				{
					"internalType": "address",
					"name": "",
					"type": "address"
				}
			],
			"stateMutability": "view",
			"type": "function"
		},
		{
			"inputs": [
				{
					"internalType": "address",
					"name": "secretOwnerAddress",
					"type": "address"
				}
			],
			"name": "releaseSecret",
			"outputs": [],
			"stateMutability": "nonpayable",
			"type": "function"
		},
		{
			"inputs": [
				{
					"internalType": "uint256",
					"name": "index",
					"type": "uint256"
				}
			],
			"name": "remove",
			"outputs": [],
			"stateMutability": "nonpayable",
			"type": "function"
		},
		{
			"inputs": [
				{
					"internalType": "address payable",
					"name": "shareHolder",
					"type": "address"
				}
			],
			"name": "removeShareHolders",
			"outputs": [],
			"stateMutability": "nonpayable",
			"type": "function"
		},
		{
			"inputs": [
				{
					"internalType": "string",
					"name": "name",
					"type": "string"
				}
			],
			"name": "requestSharesFromHolders",
			"outputs": [],
			"stateMutability": "nonpayable",
			"type": "function"
		},
		{
			"inputs": [
				{
					"internalType": "uint256",
					"name": "",
					"type": "uint256"
				}
			],
			"name": "requestedShareHolders",
			"outputs": [
				{
					"internalType": "address",
					"name": "",
					"type": "address"
				}
			],
			"stateMutability": "view",
			"type": "function"
		},
		{
			"inputs": [
				{
					"internalType": "string",
					"name": "share",
					"type": "string"
				}
			],
			"name": "saveToRegeneratedShares",
			"outputs": [],
			"stateMutability": "nonpayable",
			"type": "function"
		},
		{
			"inputs": [
				{
					"internalType": "uint256",
					"name": "",
					"type": "uint256"
				}
			],
			"name": "secretOwners",
			"outputs": [
				{
					"internalType": "address",
					"name": "",
					"type": "address"
				}
			],
			"stateMutability": "view",
			"type": "function"
		},
		{
			"inputs": [
				{
					"internalType": "uint256",
					"name": "",
					"type": "uint256"
				}
			],
			"name": "shareHolders",
			"outputs": [
				{
					"internalType": "address",
					"name": "",
					"type": "address"
				}
			],
			"stateMutability": "view",
			"type": "function"
		},
		{
			"inputs": [
				{
					"internalType": "address",
					"name": "",
					"type": "address"
				}
			],
			"name": "shareHoldersMap",
			"outputs": [
				{
					"internalType": "string",
					"name": "",
					"type": "string"
				}
			],
			"stateMutability": "view",
			"type": "function"
		},
		{
			"inputs": [
				{
					"internalType": "uint256",
					"name": "",
					"type": "uint256"
				}
			],
			"name": "shares",
			"outputs": [
				{
					"internalType": "string",
					"name": "",
					"type": "string"
				}
			],
			"stateMutability": "view",
			"type": "function"
		},
		{
			"inputs": [
				{
					"internalType": "address",
					"name": "",
					"type": "address"
				}
			],
			"name": "sharesMap",
			"outputs": [
				{
					"internalType": "string",
					"name": "",
					"type": "string"
				}
			],
			"stateMutability": "view",
			"type": "function"
		},
		{
			"inputs": [
				{
					"internalType": "address",
					"name": "ownerAddress",
					"type": "address"
				},
				{
					"internalType": "string",
					"name": "sharedString",
					"type": "string"
				}
			],
			"name": "takeTheSecretFromTheOwner",
			"outputs": [],
			"stateMutability": "nonpayable",
			"type": "function"
		},
		{
			"inputs": [],
			"name": "userName",
			"outputs": [
				{
					"internalType": "string",
					"name": "",
					"type": "string"
				}
			],
			"stateMutability": "view",
			"type": "function"
		}
	]
}