{
	"data": {
		"bytecode": {
			"linkReferences": {},
			"object": "608060405234801561001057600080fd5b50336000806101000a81548173ffffffffffffffffffffffffffffffffffffffff021916908373ffffffffffffffffffffffffffffffffffffffff16021790555073df6eb05014ed4fd3288300afff7a7d2961b34fd0600a60006101000a81548173ffffffffffffffffffffffffffffffffffffffff021916908373ffffffffffffffffffffffffffffffffffffffff16021790555030600960006101000a81548173ffffffffffffffffffffffffffffffffffffffff021916908373ffffffffffffffffffffffffffffffffffffffff16021790555061381f806100f66000396000f3fe608060405234801561001057600080fd5b50600436106101d95760003560e01c80638477d9f311610104578063b12f97bb116100a2578063d534cc0e11610071578063d534cc0e1461052e578063d65ec8551461055e578063dab0177e1461057a578063e4fc6b6d14610584576101d9565b8063b12f97bb146104bc578063b9657d13146104da578063c0befa53146104f6578063c692f73814610512576101d9565b80639018c818116100de5780639018c818146104385780639ff1d78714610454578063a0cd9ce814610484578063aa8f3075146104a0576101d9565b80638477d9f3146103cc5780638d78cd25146103ea5780638da5cb5b1461041a576101d9565b80633e83fe361161017c57806357a858fc1161014b57806357a858fc1461033257806370019b35146103625780637427a40c1461038057806377058418146103b0576101d9565b80633e83fe36146102c05780634a9ae94a146102de5780634cc82215146102fa57806350e7819114610316576101d9565b806317377f68116101b857806317377f68146102245780631e1cf1601461024257806322366844146102725780633b91d78514610290576101d9565b806252c632146101de57806307954cb6146101fc5780630d2baaa114610206575b600080fd5b6101e661058e565b6040516101f3919061264b565b60405180910390f35b6102046106cb565b005b61020e61090b565b60405161021b919061264b565b60405180910390f35b61022c610a67565b60405161023991906127bf565b60405180910390f35b61025c60048036038101906102579190612821565b610c15565b6040516102699190612898565b60405180910390f35b61027a610cb5565b60405161028791906128d5565b60405180910390f35b6102aa60048036038101906102a59190612926565b610d59565b6040516102b79190612962565b60405180910390f35b6102c8610d98565b6040516102d591906127bf565b60405180910390f35b6102f860048036038101906102f39190612ab2565b610eff565b005b610314600480360381019061030f9190612926565b610fb3565b005b610330600480360381019061032b9190612b4c565b6110a9565b005b61034c60048036038101906103479190612926565b611220565b6040516103599190612898565b60405180910390f35b61036a6112cc565b6040516103779190612898565b60405180910390f35b61039a60048036038101906103959190612926565b61135a565b6040516103a79190612962565b60405180910390f35b6103ca60048036038101906103c59190612b79565b611399565b005b6103d4611492565b6040516103e1919061264b565b60405180910390f35b61040460048036038101906103ff9190612926565b611520565b6040516104119190612898565b60405180910390f35b6104226115cc565b60405161042f9190612962565b60405180910390f35b610452600480360381019061044d9190612821565b6115f0565b005b61046e60048036038101906104699190612926565b611733565b60405161047b9190612bd1565b60405180910390f35b61049e60048036038101906104999190612cd2565b611772565b005b6104ba60048036038101906104b59190612821565b61181a565b005b6104c461195d565b6040516104d19190612962565b60405180910390f35b6104f460048036038101906104ef9190612b4c565b611983565b005b610510600480360381019061050b9190612821565b611abe565b005b61052c60048036038101906105279190612b79565b611cf2565b005b61054860048036038101906105439190612821565b611e66565b6040516105559190612898565b60405180910390f35b61057860048036038101906105739190612b79565b611f06565b005b610582611f85565b005b61058c612173565b005b606060008054906101000a900473ffffffffffffffffffffffffffffffffffffffff1673ffffffffffffffffffffffffffffffffffffffff163373ffffffffffffffffffffffffffffffffffffffff161461061e576040517f08c379a000000000000000000000000000000000000000000000000000000000815260040161061590612d67565b60405180910390fd5b6000600a60009054906101000a900473ffffffffffffffffffffffffffffffffffffffff1673ffffffffffffffffffffffffffffffffffffffff1663c588234460076040518263ffffffff1660e01b815260040161067c9190612e73565b600060405180830381865afa158015610699573d6000803e3d6000fd5b505050506040513d6000823e3d601f19601f820116820180604052508101906106c29190612f6d565b90508091505090565b60008054906101000a900473ffffffffffffffffffffffffffffffffffffffff1673ffffffffffffffffffffffffffffffffffffffff163373ffffffffffffffffffffffffffffffffffffffff1614610759576040517f08c379a000000000000000000000000000000000000000000000000000000000815260040161075090612d67565b60405180910390fd5b610761610cb5565b6107a0576040517f08c379a000000000000000000000000000000000000000000000000000000000815260040161079790613028565b60405180910390fd5b6000600a60009054906101000a900473ffffffffffffffffffffffffffffffffffffffff1673ffffffffffffffffffffffffffffffffffffffff1663d71e80e360008054906101000a900473ffffffffffffffffffffffffffffffffffffffff166040518263ffffffff1660e01b815260040161081d9190612962565b600060405180830381865afa15801561083a573d6000803e3d6000fd5b505050506040513d6000823e3d601f19601f820116820180604052508101906108639190612f6d565b905060005b815181101561090757600082828151811061088657610885613048565b5b602002602001015190506003819080600181540180825580915050600190039060005260206000200160009091909190916101000a81548173ffffffffffffffffffffffffffffffffffffffff021916908373ffffffffffffffffffffffffffffffffffffffff1602179055505080806108ff906130a6565b915050610868565b5050565b606060008054906101000a900473ffffffffffffffffffffffffffffffffffffffff1673ffffffffffffffffffffffffffffffffffffffff163373ffffffffffffffffffffffffffffffffffffffff161461099b576040517f08c379a000000000000000000000000000000000000000000000000000000000815260040161099290612d67565b60405180910390fd5b6000600a60009054906101000a900473ffffffffffffffffffffffffffffffffffffffff1673ffffffffffffffffffffffffffffffffffffffff166399f8b09f60008054906101000a900473ffffffffffffffffffffffffffffffffffffffff166040518263ffffffff1660e01b8152600401610a189190612962565b600060405180830381865afa158015610a35573d6000803e3d6000fd5b505050506040513d6000823e3d601f19601f82011682018060405250810190610a5e9190612f6d565b90508091505090565b6060610a71610cb5565b610ab0576040517f08c379a0000000000000000000000000000000000000000000000000000000008152600401610aa790613028565b60405180910390fd5b60008054906101000a900473ffffffffffffffffffffffffffffffffffffffff1673ffffffffffffffffffffffffffffffffffffffff163373ffffffffffffffffffffffffffffffffffffffff1614610b3e576040517f08c379a0000000000000000000000000000000000000000000000000000000008152600401610b3590612d67565b60405180910390fd5b6008805480602002602001604051908101604052809291908181526020016000905b82821015610c0c578382906000526020600020018054610b7f9061311d565b80601f0160208091040260200160405190810160405280929190818152602001828054610bab9061311d565b8015610bf85780601f10610bcd57610100808354040283529160200191610bf8565b820191906000526020600020905b815481529060010190602001808311610bdb57829003601f168201915b505050505081526020019060010190610b60565b50505050905090565b60066020528060005260406000206000915090508054610c349061311d565b80601f0160208091040260200160405190810160405280929190818152602001828054610c609061311d565b8015610cad5780601f10610c8257610100808354040283529160200191610cad565b820191906000526020600020905b815481529060010190602001808311610c9057829003601f168201915b505050505081565b6000600a60009054906101000a900473ffffffffffffffffffffffffffffffffffffffff1673ffffffffffffffffffffffffffffffffffffffff16630d85d83960016040518263ffffffff1660e01b8152600401610d1391906131e7565b602060405180830381865afa158015610d30573d6000803e3d6000fd5b505050506040513d601f19601f82011682018060405250810190610d549190613235565b905090565b60078181548110610d6957600080fd5b906000526020600020016000915054906101000a900473ffffffffffffffffffffffffffffffffffffffff1681565b606060008054906101000a900473ffffffffffffffffffffffffffffffffffffffff1673ffffffffffffffffffffffffffffffffffffffff163373ffffffffffffffffffffffffffffffffffffffff1614610e28576040517f08c379a0000000000000000000000000000000000000000000000000000000008152600401610e1f90612d67565b60405180910390fd5b6004805480602002602001604051908101604052809291908181526020016000905b82821015610ef6578382906000526020600020018054610e699061311d565b80601f0160208091040260200160405190810160405280929190818152602001828054610e959061311d565b8015610ee25780601f10610eb757610100808354040283529160200191610ee2565b820191906000526020600020905b815481529060010190602001808311610ec557829003601f168201915b505050505081526020019060010190610e4a565b50505050905090565b6007829080600181540180825580915050600190039060005260206000200160009091909190916101000a81548173ffffffffffffffffffffffffffffffffffffffff021916908373ffffffffffffffffffffffffffffffffffffffff16021790555080600660008473ffffffffffffffffffffffffffffffffffffffff1673ffffffffffffffffffffffffffffffffffffffff1681526020019081526020016000209081610fae91906133f9565b505050565b60026001600280549050610fc791906134cb565b81548110610fd857610fd7613048565b5b9060005260206000200160009054906101000a900473ffffffffffffffffffffffffffffffffffffffff166002828154811061101757611016613048565b5b9060005260206000200160006101000a81548173ffffffffffffffffffffffffffffffffffffffff021916908373ffffffffffffffffffffffffffffffffffffffff1602179055506002805480611071576110706134ff565b5b6001900381819060005260206000200160006101000a81549073ffffffffffffffffffffffffffffffffffffffff0219169055905550565b60008054906101000a900473ffffffffffffffffffffffffffffffffffffffff1673ffffffffffffffffffffffffffffffffffffffff163373ffffffffffffffffffffffffffffffffffffffff1614611137576040517f08c379a000000000000000000000000000000000000000000000000000000000815260040161112e90612d67565b60405180910390fd5b61113f610cb5565b61117e576040517f08c379a000000000000000000000000000000000000000000000000000000000815260040161117590613028565b60405180910390fd5b60005b600280549050811015611213578173ffffffffffffffffffffffffffffffffffffffff16600282815481106111b9576111b8613048565b5b9060005260206000200160009054906101000a900473ffffffffffffffffffffffffffffffffffffffff1673ffffffffffffffffffffffffffffffffffffffff16031561121357808061120b906130a6565b915050611181565b61121c81610fb3565b5050565b6004818154811061123057600080fd5b90600052602060002001600091509050805461124b9061311d565b80601f01602080910402602001604051908101604052809291908181526020018280546112779061311d565b80156112c45780601f10611299576101008083540402835291602001916112c4565b820191906000526020600020905b8154815290600101906020018083116112a757829003601f168201915b505050505081565b600180546112d99061311d565b80601f01602080910402602001604051908101604052809291908181526020018280546113059061311d565b80156113525780601f1061132757610100808354040283529160200191611352565b820191906000526020600020905b81548152906001019060200180831161133557829003601f168201915b505050505081565b6003818154811061136a57600080fd5b906000526020600020016000915054906101000a900473ffffffffffffffffffffffffffffffffffffffff1681565b6113a1610cb5565b6113e0576040517f08c379a00000000000000000000000000000000000000000000000000000000081526004016113d790613028565b60405180910390fd5b600a60009054906101000a900473ffffffffffffffffffffffffffffffffffffffff1673ffffffffffffffffffffffffffffffffffffffff1663e7618a0a8260008054906101000a900473ffffffffffffffffffffffffffffffffffffffff166040518363ffffffff1660e01b815260040161145d92919061352e565b600060405180830381600087803b15801561147757600080fd5b505af115801561148b573d6000803e3d6000fd5b5050505050565b6060600380548060200260200160405190810160405280929190818152602001828054801561151657602002820191906000526020600020905b8160009054906101000a900473ffffffffffffffffffffffffffffffffffffffff1673ffffffffffffffffffffffffffffffffffffffff16815260200190600101908083116114cc575b5050505050905090565b6008818154811061153057600080fd5b90600052602060002001600091509050805461154b9061311d565b80601f01602080910402602001604051908101604052809291908181526020018280546115779061311d565b80156115c45780601f10611599576101008083540402835291602001916115c4565b820191906000526020600020905b8154815290600101906020018083116115a757829003601f168201915b505050505081565b60008054906101000a900473ffffffffffffffffffffffffffffffffffffffff1681565b60008054906101000a900473ffffffffffffffffffffffffffffffffffffffff1673ffffffffffffffffffffffffffffffffffffffff163373ffffffffffffffffffffffffffffffffffffffff161461167e576040517f08c379a000000000000000000000000000000000000000000000000000000000815260040161167590612d67565b60405180910390fd5b600a60009054906101000a900473ffffffffffffffffffffffffffffffffffffffff1673ffffffffffffffffffffffffffffffffffffffff1663bc9d627160008054906101000a900473ffffffffffffffffffffffffffffffffffffffff168360016040518463ffffffff1660e01b81526004016116fe9392919061355e565b600060405180830381600087803b15801561171857600080fd5b505af115801561172c573d6000803e3d6000fd5b5050505050565b6002818154811061174357600080fd5b906000526020600020016000915054906101000a900473ffffffffffffffffffffffffffffffffffffffff1681565b60008054906101000a900473ffffffffffffffffffffffffffffffffffffffff1673ffffffffffffffffffffffffffffffffffffffff163373ffffffffffffffffffffffffffffffffffffffff1614611800576040517f08c379a00000000000000000000000000000000000000000000000000000000081526004016117f790612d67565b60405180910390fd5b8060049080519060200190611816929190612481565b5050565b60008054906101000a900473ffffffffffffffffffffffffffffffffffffffff1673ffffffffffffffffffffffffffffffffffffffff163373ffffffffffffffffffffffffffffffffffffffff16146118a8576040517f08c379a000000000000000000000000000000000000000000000000000000000815260040161189f90612d67565b60405180910390fd5b600a60009054906101000a900473ffffffffffffffffffffffffffffffffffffffff1673ffffffffffffffffffffffffffffffffffffffff1663bc9d627160008054906101000a900473ffffffffffffffffffffffffffffffffffffffff168360016040518463ffffffff1660e01b81526004016119289392919061355e565b600060405180830381600087803b15801561194257600080fd5b505af1158015611956573d6000803e3d6000fd5b5050505050565b600960009054906101000a900473ffffffffffffffffffffffffffffffffffffffff1681565b60008054906101000a900473ffffffffffffffffffffffffffffffffffffffff1673ffffffffffffffffffffffffffffffffffffffff163373ffffffffffffffffffffffffffffffffffffffff1614611a11576040517f08c379a0000000000000000000000000000000000000000000000000000000008152600401611a0890612d67565b60405180910390fd5b611a19610cb5565b611a58576040517f08c379a0000000000000000000000000000000000000000000000000000000008152600401611a4f90613028565b60405180910390fd5b6002819080600181540180825580915050600190039060005260206000200160009091909190916101000a81548173ffffffffffffffffffffffffffffffffffffffff021916908373ffffffffffffffffffffffffffffffffffffffff16021790555050565b60008054906101000a900473ffffffffffffffffffffffffffffffffffffffff1673ffffffffffffffffffffffffffffffffffffffff163373ffffffffffffffffffffffffffffffffffffffff1614611b4c576040517f08c379a0000000000000000000000000000000000000000000000000000000008152600401611b4390612d67565b60405180910390fd5b611b54610cb5565b611b93576040517f08c379a0000000000000000000000000000000000000000000000000000000008152600401611b8a90613028565b60405180910390fd5b6000600660008373ffffffffffffffffffffffffffffffffffffffff1673ffffffffffffffffffffffffffffffffffffffff1681526020019081526020016000208054611bdf9061311d565b80601f0160208091040260200160405190810160405280929190818152602001828054611c0b9061311d565b8015611c585780601f10611c2d57610100808354040283529160200191611c58565b820191906000526020600020905b815481529060010190602001808311611c3b57829003601f168201915b50505050509050600a60009054906101000a900473ffffffffffffffffffffffffffffffffffffffff1673ffffffffffffffffffffffffffffffffffffffff16637cbfc58f83836040518363ffffffff1660e01b8152600401611cbc929190613595565b600060405180830381600087803b158015611cd657600080fd5b505af1158015611cea573d6000803e3d6000fd5b505050505050565b60008054906101000a900473ffffffffffffffffffffffffffffffffffffffff1673ffffffffffffffffffffffffffffffffffffffff163373ffffffffffffffffffffffffffffffffffffffff1614611d80576040517f08c379a0000000000000000000000000000000000000000000000000000000008152600401611d7790612d67565b60405180910390fd5b600a60009054906101000a900473ffffffffffffffffffffffffffffffffffffffff1673ffffffffffffffffffffffffffffffffffffffff16637915c0698260008054906101000a900473ffffffffffffffffffffffffffffffffffffffff16600960009054906101000a900473ffffffffffffffffffffffffffffffffffffffff166040518463ffffffff1660e01b8152600401611e21939291906135c5565b600060405180830381600087803b158015611e3b57600080fd5b505af1158015611e4f573d6000803e3d6000fd5b505050508060019081611e6291906133f9565b5050565b60056020528060005260406000206000915090508054611e859061311d565b80601f0160208091040260200160405190810160405280929190818152602001828054611eb19061311d565b8015611efe5780601f10611ed357610100808354040283529160200191611efe565b820191906000526020600020905b815481529060010190602001808311611ee157829003601f168201915b505050505081565b611f0e610cb5565b611f4d576040517f08c379a0000000000000000000000000000000000000000000000000000000008152600401611f4490613028565b60405180910390fd5b600881908060018154018082558091505060019003906000526020600020016000909190919091509081611f8191906133f9565b5050565b60008054906101000a900473ffffffffffffffffffffffffffffffffffffffff1673ffffffffffffffffffffffffffffffffffffffff163373ffffffffffffffffffffffffffffffffffffffff1614612013576040517f08c379a000000000000000000000000000000000000000000000000000000000815260040161200a90612d67565b60405180910390fd5b61201b610cb5565b61205a576040517f08c379a000000000000000000000000000000000000000000000000000000000815260040161205190613028565b60405180910390fd5b60005b600280549050811015612170576000600282815481106120805761207f613048565b5b9060005260206000200160009054906101000a900473ffffffffffffffffffffffffffffffffffffffff169050600a60009054906101000a900473ffffffffffffffffffffffffffffffffffffffff1673ffffffffffffffffffffffffffffffffffffffff16636e8548bb60008054906101000a900473ffffffffffffffffffffffffffffffffffffffff16836040518363ffffffff1660e01b815260040161212a929190613603565b600060405180830381600087803b15801561214457600080fd5b505af1158015612158573d6000803e3d6000fd5b50505050508080612168906130a6565b91505061205d565b50565b60008054906101000a900473ffffffffffffffffffffffffffffffffffffffff1673ffffffffffffffffffffffffffffffffffffffff163373ffffffffffffffffffffffffffffffffffffffff1614612201576040517f08c379a00000000000000000000000000000000000000000000000000000000081526004016121f890612d67565b60405180910390fd5b612209610cb5565b612248576040517f08c379a000000000000000000000000000000000000000000000000000000000815260040161223f90613028565b60405180910390fd5b6003805490506004805490501115612295576040517f08c379a000000000000000000000000000000000000000000000000000000000815260040161228c90613678565b60405180910390fd5b6003805490506004805490501161247f5760005b60048054905081101561247d57600481815481106122ca576122c9613048565b5b9060005260206000200160056000600384815481106122ec576122eb613048565b5b9060005260206000200160009054906101000a900473ffffffffffffffffffffffffffffffffffffffff1673ffffffffffffffffffffffffffffffffffffffff1673ffffffffffffffffffffffffffffffffffffffff168152602001908152602001600020908161235d91906136c3565b50600a60009054906101000a900473ffffffffffffffffffffffffffffffffffffffff1673ffffffffffffffffffffffffffffffffffffffff1663cc2f22f160008054906101000a900473ffffffffffffffffffffffffffffffffffffffff16600384815481106123d1576123d0613048565b5b9060005260206000200160009054906101000a900473ffffffffffffffffffffffffffffffffffffffff16600485815481106124105761240f613048565b5b906000526020600020016040518463ffffffff1660e01b8152600401612438939291906137ab565b600060405180830381600087803b15801561245257600080fd5b505af1158015612466573d6000803e3d6000fd5b505050508080612475906130a6565b9150506122a9565b505b565b8280548282559060005260206000209081019282156124c9579160200282015b828111156124c85782518290816124b891906133f9565b50916020019190600101906124a1565b5b5090506124d691906124da565b5090565b5b808211156124fa57600081816124f191906124fe565b506001016124db565b5090565b50805461250a9061311d565b6000825580601f1061251c575061253b565b601f01602090049060005260206000209081019061253a919061253e565b5b50565b5b8082111561255757600081600090555060010161253f565b5090565b600081519050919050565b600082825260208201905092915050565b6000819050602082019050919050565b600073ffffffffffffffffffffffffffffffffffffffff82169050919050565b60006125b282612587565b9050919050565b6125c2816125a7565b82525050565b60006125d483836125b9565b60208301905092915050565b6000602082019050919050565b60006125f88261255b565b6126028185612566565b935061260d83612577565b8060005b8381101561263e57815161262588826125c8565b9750612630836125e0565b925050600181019050612611565b5085935050505092915050565b6000602082019050818103600083015261266581846125ed565b905092915050565b600081519050919050565b600082825260208201905092915050565b6000819050602082019050919050565b600081519050919050565b600082825260208201905092915050565b60005b838110156126d35780820151818401526020810190506126b8565b60008484015250505050565b6000601f19601f8301169050919050565b60006126fb82612699565b61270581856126a4565b93506127158185602086016126b5565b61271e816126df565b840191505092915050565b600061273583836126f0565b905092915050565b6000602082019050919050565b60006127558261266d565b61275f8185612678565b93508360208202850161277185612689565b8060005b858110156127ad578484038952815161278e8582612729565b94506127998361273d565b925060208a01995050600181019050612775565b50829750879550505050505092915050565b600060208201905081810360008301526127d9818461274a565b905092915050565b6000604051905090565b600080fd5b600080fd5b6127fe816125a7565b811461280957600080fd5b50565b60008135905061281b816127f5565b92915050565b600060208284031215612837576128366127eb565b5b60006128458482850161280c565b91505092915050565b600082825260208201905092915050565b600061286a82612699565b612874818561284e565b93506128848185602086016126b5565b61288d816126df565b840191505092915050565b600060208201905081810360008301526128b2818461285f565b905092915050565b60008115159050919050565b6128cf816128ba565b82525050565b60006020820190506128ea60008301846128c6565b92915050565b6000819050919050565b612903816128f0565b811461290e57600080fd5b50565b600081359050612920816128fa565b92915050565b60006020828403121561293c5761293b6127eb565b5b600061294a84828501612911565b91505092915050565b61295c816125a7565b82525050565b60006020820190506129776000830184612953565b92915050565b600080fd5b600080fd5b7f4e487b7100000000000000000000000000000000000000000000000000000000600052604160045260246000fd5b6129bf826126df565b810181811067ffffffffffffffff821117156129de576129dd612987565b5b80604052505050565b60006129f16127e1565b90506129fd82826129b6565b919050565b600067ffffffffffffffff821115612a1d57612a1c612987565b5b612a26826126df565b9050602081019050919050565b82818337600083830152505050565b6000612a55612a5084612a02565b6129e7565b905082815260208101848484011115612a7157612a70612982565b5b612a7c848285612a33565b509392505050565b600082601f830112612a9957612a9861297d565b5b8135612aa9848260208601612a42565b91505092915050565b60008060408385031215612ac957612ac86127eb565b5b6000612ad78582860161280c565b925050602083013567ffffffffffffffff811115612af857612af76127f0565b5b612b0485828601612a84565b9150509250929050565b6000612b1982612587565b9050919050565b612b2981612b0e565b8114612b3457600080fd5b50565b600081359050612b4681612b20565b92915050565b600060208284031215612b6257612b616127eb565b5b6000612b7084828501612b37565b91505092915050565b600060208284031215612b8f57612b8e6127eb565b5b600082013567ffffffffffffffff811115612bad57612bac6127f0565b5b612bb984828501612a84565b91505092915050565b612bcb81612b0e565b82525050565b6000602082019050612be66000830184612bc2565b92915050565b600067ffffffffffffffff821115612c0757612c06612987565b5b602082029050602081019050919050565b600080fd5b6000612c30612c2b84612bec565b6129e7565b90508083825260208201905060208402830185811115612c5357612c52612c18565b5b835b81811015612c9a57803567ffffffffffffffff811115612c7857612c7761297d565b5b808601612c858982612a84565b85526020850194505050602081019050612c55565b5050509392505050565b600082601f830112612cb957612cb861297d565b5b8135612cc9848260208601612c1d565b91505092915050565b600060208284031215612ce857612ce76127eb565b5b600082013567ffffffffffffffff811115612d0657612d056127f0565b5b612d1284828501612ca4565b91505092915050565b7f4f6e6c79206f776e657220686173207468652070726976696c65676500000000600082015250565b6000612d51601c8361284e565b9150612d5c82612d1b565b602082019050919050565b60006020820190508181036000830152612d8081612d44565b9050919050565b600081549050919050565b60008190508160005260206000209050919050565b60008160001c9050919050565b600073ffffffffffffffffffffffffffffffffffffffff82169050919050565b6000612de7612de283612da7565b612db4565b9050919050565b6000612dfa8254612dd4565b9050919050565b6000600182019050919050565b6000612e1982612d87565b612e238185612566565b9350612e2e83612d92565b8060005b83811015612e6657612e4382612dee565b612e4d88826125c8565b9750612e5883612e01565b925050600181019050612e32565b5085935050505092915050565b60006020820190508181036000830152612e8d8184612e0e565b905092915050565b600067ffffffffffffffff821115612eb057612eaf612987565b5b602082029050602081019050919050565b600081519050612ed0816127f5565b92915050565b6000612ee9612ee484612e95565b6129e7565b90508083825260208201905060208402830185811115612f0c57612f0b612c18565b5b835b81811015612f355780612f218882612ec1565b845260208401935050602081019050612f0e565b5050509392505050565b600082601f830112612f5457612f5361297d565b5b8151612f64848260208601612ed6565b91505092915050565b600060208284031215612f8357612f826127eb565b5b600082015167ffffffffffffffff811115612fa157612fa06127f0565b5b612fad84828501612f3f565b91505092915050565b7f4f776e65722068617320746f20726567697374657220746f207075626c69632060008201527f636f6e7472616374000000000000000000000000000000000000000000000000602082015250565b600061301260288361284e565b915061301d82612fb6565b604082019050919050565b6000602082019050818103600083015261304181613005565b9050919050565b7f4e487b7100000000000000000000000000000000000000000000000000000000600052603260045260246000fd5b7f4e487b7100000000000000000000000000000000000000000000000000000000600052601160045260246000fd5b60006130b1826128f0565b91507fffffffffffffffffffffffffffffffffffffffffffffffffffffffffffffffff82036130e3576130e2613077565b5b600182019050919050565b7f4e487b7100000000000000000000000000000000000000000000000000000000600052602260045260246000fd5b6000600282049050600182168061313557607f821691505b602082108103613148576131476130ee565b5b50919050565b60008190508160005260206000209050919050565b600081546131708161311d565b61317a818661284e565b9450600182166000811461319557600181146131ab576131de565b60ff1983168652811515602002860193506131de565b6131b48561314e565b60005b838110156131d6578154818901526001820191506020810190506131b7565b808801955050505b50505092915050565b600060208201905081810360008301526132018184613163565b905092915050565b613212816128ba565b811461321d57600080fd5b50565b60008151905061322f81613209565b92915050565b60006020828403121561324b5761324a6127eb565b5b600061325984828501613220565b91505092915050565b60006020601f8301049050919050565b600082821b905092915050565b6000600883026132af7fffffffffffffffffffffffffffffffffffffffffffffffffffffffffffffffff82613272565b6132b98683613272565b95508019841693508086168417925050509392505050565b6000819050919050565b60006132f66132f16132ec846128f0565b6132d1565b6128f0565b9050919050565b6000819050919050565b613310836132db565b61332461331c826132fd565b84845461327f565b825550505050565b600090565b61333961332c565b613344818484613307565b505050565b5b818110156133685761335d600082613331565b60018101905061334a565b5050565b601f8211156133ad5761337e8161314e565b61338784613262565b81016020851015613396578190505b6133aa6133a285613262565b830182613349565b50505b505050565b600082821c905092915050565b60006133d0600019846008026133b2565b1980831691505092915050565b60006133e983836133bf565b9150826002028217905092915050565b61340282612699565b67ffffffffffffffff81111561341b5761341a612987565b5b613425825461311d565b61343082828561336c565b600060209050601f8311600181146134635760008415613451578287015190505b61345b85826133dd565b8655506134c3565b601f1984166134718661314e565b60005b8281101561349957848901518255600182019150602085019450602081019050613474565b868310156134b657848901516134b2601f8916826133bf565b8355505b6001600288020188555050505b505050505050565b60006134d6826128f0565b91506134e1836128f0565b92508282039050818111156134f9576134f8613077565b5b92915050565b7f4e487b7100000000000000000000000000000000000000000000000000000000600052603160045260246000fd5b60006040820190508181036000830152613548818561285f565b90506135576020830184612953565b9392505050565b60006060820190506135736000830186612953565b6135806020830185612953565b61358d60408301846128c6565b949350505050565b60006040820190506135aa6000830185612953565b81810360208301526135bc818461285f565b90509392505050565b600060608201905081810360008301526135df818661285f565b90506135ee6020830185612953565b6135fb6040830184612953565b949350505050565b60006040820190506136186000830185612953565b6136256020830184612953565b9392505050565b7f4e6f7420656e6f75676820736861726520686f6c646572732121000000000000600082015250565b6000613662601a8361284e565b915061366d8261362c565b602082019050919050565b6000602082019050818103600083015261369181613655565b9050919050565b6000815490506136a78161311d565b9050919050565b60008190508160005260206000209050919050565b8181036136d15750506137a9565b6136da82613698565b67ffffffffffffffff8111156136f3576136f2612987565b5b6136fd825461311d565b61370882828561336c565b6000601f8311600181146137375760008415613725578287015490505b61372f85826133dd565b8655506137a2565b601f198416613745876136ae565b96506137508661314e565b60005b8281101561377857848901548255600182019150600185019450602081019050613753565b868310156137955784890154613791601f8916826133bf565b8355505b6001600288020188555050505b5050505050505b565b60006060820190506137c06000830186612953565b6137cd6020830185612953565b81810360408301526137df8184613163565b905094935050505056fea264697066735822122066d59d9588b7168b9c40f73ecf368b7a28b33941cca520b3e9fcad2b633c973464736f6c63430008110033",
			"opcodes": "PUSH1 0x80 PUSH1 0x40 MSTORE CALLVALUE DUP1 ISZERO PUSH2 0x10 JUMPI PUSH1 0x0 DUP1 REVERT JUMPDEST POP CALLER PUSH1 0x0 DUP1 PUSH2 0x100 EXP DUP2 SLOAD DUP2 PUSH20 0xFFFFFFFFFFFFFFFFFFFFFFFFFFFFFFFFFFFFFFFF MUL NOT AND SWAP1 DUP4 PUSH20 0xFFFFFFFFFFFFFFFFFFFFFFFFFFFFFFFFFFFFFFFF AND MUL OR SWAP1 SSTORE POP PUSH20 0xDF6EB05014ED4FD3288300AFFF7A7D2961B34FD0 PUSH1 0xA PUSH1 0x0 PUSH2 0x100 EXP DUP2 SLOAD DUP2 PUSH20 0xFFFFFFFFFFFFFFFFFFFFFFFFFFFFFFFFFFFFFFFF MUL NOT AND SWAP1 DUP4 PUSH20 0xFFFFFFFFFFFFFFFFFFFFFFFFFFFFFFFFFFFFFFFF AND MUL OR SWAP1 SSTORE POP ADDRESS PUSH1 0x9 PUSH1 0x0 PUSH2 0x100 EXP DUP2 SLOAD DUP2 PUSH20 0xFFFFFFFFFFFFFFFFFFFFFFFFFFFFFFFFFFFFFFFF MUL NOT AND SWAP1 DUP4 PUSH20 0xFFFFFFFFFFFFFFFFFFFFFFFFFFFFFFFFFFFFFFFF AND MUL OR SWAP1 SSTORE POP PUSH2 0x381F DUP1 PUSH2 0xF6 PUSH1 0x0 CODECOPY PUSH1 0x0 RETURN INVALID PUSH1 0x80 PUSH1 0x40 MSTORE CALLVALUE DUP1 ISZERO PUSH2 0x10 JUMPI PUSH1 0x0 DUP1 REVERT JUMPDEST POP PUSH1 0x4 CALLDATASIZE LT PUSH2 0x1D9 JUMPI PUSH1 0x0 CALLDATALOAD PUSH1 0xE0 SHR DUP1 PUSH4 0x8477D9F3 GT PUSH2 0x104 JUMPI DUP1 PUSH4 0xB12F97BB GT PUSH2 0xA2 JUMPI DUP1 PUSH4 0xD534CC0E GT PUSH2 0x71 JUMPI DUP1 PUSH4 0xD534CC0E EQ PUSH2 0x52E JUMPI DUP1 PUSH4 0xD65EC855 EQ PUSH2 0x55E JUMPI DUP1 PUSH4 0xDAB0177E EQ PUSH2 0x57A JUMPI DUP1 PUSH4 0xE4FC6B6D EQ PUSH2 0x584 JUMPI PUSH2 0x1D9 JUMP JUMPDEST DUP1 PUSH4 0xB12F97BB EQ PUSH2 0x4BC JUMPI DUP1 PUSH4 0xB9657D13 EQ PUSH2 0x4DA JUMPI DUP1 PUSH4 0xC0BEFA53 EQ PUSH2 0x4F6 JUMPI DUP1 PUSH4 0xC692F738 EQ PUSH2 0x512 JUMPI PUSH2 0x1D9 JUMP JUMPDEST DUP1 PUSH4 0x9018C818 GT PUSH2 0xDE JUMPI DUP1 PUSH4 0x9018C818 EQ PUSH2 0x438 JUMPI DUP1 PUSH4 0x9FF1D787 EQ PUSH2 0x454 JUMPI DUP1 PUSH4 0xA0CD9CE8 EQ PUSH2 0x484 JUMPI DUP1 PUSH4 0xAA8F3075 EQ PUSH2 0x4A0 JUMPI PUSH2 0x1D9 JUMP JUMPDEST DUP1 PUSH4 0x8477D9F3 EQ PUSH2 0x3CC JUMPI DUP1 PUSH4 0x8D78CD25 EQ PUSH2 0x3EA JUMPI DUP1 PUSH4 0x8DA5CB5B EQ PUSH2 0x41A JUMPI PUSH2 0x1D9 JUMP JUMPDEST DUP1 PUSH4 0x3E83FE36 GT PUSH2 0x17C JUMPI DUP1 PUSH4 0x57A858FC GT PUSH2 0x14B JUMPI DUP1 PUSH4 0x57A858FC EQ PUSH2 0x332 JUMPI DUP1 PUSH4 0x70019B35 EQ PUSH2 0x362 JUMPI DUP1 PUSH4 0x7427A40C EQ PUSH2 0x380 JUMPI DUP1 PUSH4 0x77058418 EQ PUSH2 0x3B0 JUMPI PUSH2 0x1D9 JUMP JUMPDEST DUP1 PUSH4 0x3E83FE36 EQ PUSH2 0x2C0 JUMPI DUP1 PUSH4 0x4A9AE94A EQ PUSH2 0x2DE JUMPI DUP1 PUSH4 0x4CC82215 EQ PUSH2 0x2FA JUMPI DUP1 PUSH4 0x50E78191 EQ PUSH2 0x316 JUMPI PUSH2 0x1D9 JUMP JUMPDEST DUP1 PUSH4 0x17377F68 GT PUSH2 0x1B8 JUMPI DUP1 PUSH4 0x17377F68 EQ PUSH2 0x224 JUMPI DUP1 PUSH4 0x1E1CF160 EQ PUSH2 0x242 JUMPI DUP1 PUSH4 0x22366844 EQ PUSH2 0x272 JUMPI DUP1 PUSH4 0x3B91D785 EQ PUSH2 0x290 JUMPI PUSH2 0x1D9 JUMP JUMPDEST DUP1 PUSH3 0x52C632 EQ PUSH2 0x1DE JUMPI DUP1 PUSH4 0x7954CB6 EQ PUSH2 0x1FC JUMPI DUP1 PUSH4 0xD2BAAA1 EQ PUSH2 0x206 JUMPI JUMPDEST PUSH1 0x0 DUP1 REVERT JUMPDEST PUSH2 0x1E6 PUSH2 0x58E JUMP JUMPDEST PUSH1 0x40 MLOAD PUSH2 0x1F3 SWAP2 SWAP1 PUSH2 0x264B JUMP JUMPDEST PUSH1 0x40 MLOAD DUP1 SWAP2 SUB SWAP1 RETURN JUMPDEST PUSH2 0x204 PUSH2 0x6CB JUMP JUMPDEST STOP JUMPDEST PUSH2 0x20E PUSH2 0x90B JUMP JUMPDEST PUSH1 0x40 MLOAD PUSH2 0x21B SWAP2 SWAP1 PUSH2 0x264B JUMP JUMPDEST PUSH1 0x40 MLOAD DUP1 SWAP2 SUB SWAP1 RETURN JUMPDEST PUSH2 0x22C PUSH2 0xA67 JUMP JUMPDEST PUSH1 0x40 MLOAD PUSH2 0x239 SWAP2 SWAP1 PUSH2 0x27BF JUMP JUMPDEST PUSH1 0x40 MLOAD DUP1 SWAP2 SUB SWAP1 RETURN JUMPDEST PUSH2 0x25C PUSH1 0x4 DUP1 CALLDATASIZE SUB DUP2 ADD SWAP1 PUSH2 0x257 SWAP2 SWAP1 PUSH2 0x2821 JUMP JUMPDEST PUSH2 0xC15 JUMP JUMPDEST PUSH1 0x40 MLOAD PUSH2 0x269 SWAP2 SWAP1 PUSH2 0x2898 JUMP JUMPDEST PUSH1 0x40 MLOAD DUP1 SWAP2 SUB SWAP1 RETURN JUMPDEST PUSH2 0x27A PUSH2 0xCB5 JUMP JUMPDEST PUSH1 0x40 MLOAD PUSH2 0x287 SWAP2 SWAP1 PUSH2 0x28D5 JUMP JUMPDEST PUSH1 0x40 MLOAD DUP1 SWAP2 SUB SWAP1 RETURN JUMPDEST PUSH2 0x2AA PUSH1 0x4 DUP1 CALLDATASIZE SUB DUP2 ADD SWAP1 PUSH2 0x2A5 SWAP2 SWAP1 PUSH2 0x2926 JUMP JUMPDEST PUSH2 0xD59 JUMP JUMPDEST PUSH1 0x40 MLOAD PUSH2 0x2B7 SWAP2 SWAP1 PUSH2 0x2962 JUMP JUMPDEST PUSH1 0x40 MLOAD DUP1 SWAP2 SUB SWAP1 RETURN JUMPDEST PUSH2 0x2C8 PUSH2 0xD98 JUMP JUMPDEST PUSH1 0x40 MLOAD PUSH2 0x2D5 SWAP2 SWAP1 PUSH2 0x27BF JUMP JUMPDEST PUSH1 0x40 MLOAD DUP1 SWAP2 SUB SWAP1 RETURN JUMPDEST PUSH2 0x2F8 PUSH1 0x4 DUP1 CALLDATASIZE SUB DUP2 ADD SWAP1 PUSH2 0x2F3 SWAP2 SWAP1 PUSH2 0x2AB2 JUMP JUMPDEST PUSH2 0xEFF JUMP JUMPDEST STOP JUMPDEST PUSH2 0x314 PUSH1 0x4 DUP1 CALLDATASIZE SUB DUP2 ADD SWAP1 PUSH2 0x30F SWAP2 SWAP1 PUSH2 0x2926 JUMP JUMPDEST PUSH2 0xFB3 JUMP JUMPDEST STOP JUMPDEST PUSH2 0x330 PUSH1 0x4 DUP1 CALLDATASIZE SUB DUP2 ADD SWAP1 PUSH2 0x32B SWAP2 SWAP1 PUSH2 0x2B4C JUMP JUMPDEST PUSH2 0x10A9 JUMP JUMPDEST STOP JUMPDEST PUSH2 0x34C PUSH1 0x4 DUP1 CALLDATASIZE SUB DUP2 ADD SWAP1 PUSH2 0x347 SWAP2 SWAP1 PUSH2 0x2926 JUMP JUMPDEST PUSH2 0x1220 JUMP JUMPDEST PUSH1 0x40 MLOAD PUSH2 0x359 SWAP2 SWAP1 PUSH2 0x2898 JUMP JUMPDEST PUSH1 0x40 MLOAD DUP1 SWAP2 SUB SWAP1 RETURN JUMPDEST PUSH2 0x36A PUSH2 0x12CC JUMP JUMPDEST PUSH1 0x40 MLOAD PUSH2 0x377 SWAP2 SWAP1 PUSH2 0x2898 JUMP JUMPDEST PUSH1 0x40 MLOAD DUP1 SWAP2 SUB SWAP1 RETURN JUMPDEST PUSH2 0x39A PUSH1 0x4 DUP1 CALLDATASIZE SUB DUP2 ADD SWAP1 PUSH2 0x395 SWAP2 SWAP1 PUSH2 0x2926 JUMP JUMPDEST PUSH2 0x135A JUMP JUMPDEST PUSH1 0x40 MLOAD PUSH2 0x3A7 SWAP2 SWAP1 PUSH2 0x2962 JUMP JUMPDEST PUSH1 0x40 MLOAD DUP1 SWAP2 SUB SWAP1 RETURN JUMPDEST PUSH2 0x3CA PUSH1 0x4 DUP1 CALLDATASIZE SUB DUP2 ADD SWAP1 PUSH2 0x3C5 SWAP2 SWAP1 PUSH2 0x2B79 JUMP JUMPDEST PUSH2 0x1399 JUMP JUMPDEST STOP JUMPDEST PUSH2 0x3D4 PUSH2 0x1492 JUMP JUMPDEST PUSH1 0x40 MLOAD PUSH2 0x3E1 SWAP2 SWAP1 PUSH2 0x264B JUMP JUMPDEST PUSH1 0x40 MLOAD DUP1 SWAP2 SUB SWAP1 RETURN JUMPDEST PUSH2 0x404 PUSH1 0x4 DUP1 CALLDATASIZE SUB DUP2 ADD SWAP1 PUSH2 0x3FF SWAP2 SWAP1 PUSH2 0x2926 JUMP JUMPDEST PUSH2 0x1520 JUMP JUMPDEST PUSH1 0x40 MLOAD PUSH2 0x411 SWAP2 SWAP1 PUSH2 0x2898 JUMP JUMPDEST PUSH1 0x40 MLOAD DUP1 SWAP2 SUB SWAP1 RETURN JUMPDEST PUSH2 0x422 PUSH2 0x15CC JUMP JUMPDEST PUSH1 0x40 MLOAD PUSH2 0x42F SWAP2 SWAP1 PUSH2 0x2962 JUMP JUMPDEST PUSH1 0x40 MLOAD DUP1 SWAP2 SUB SWAP1 RETURN JUMPDEST PUSH2 0x452 PUSH1 0x4 DUP1 CALLDATASIZE SUB DUP2 ADD SWAP1 PUSH2 0x44D SWAP2 SWAP1 PUSH2 0x2821 JUMP JUMPDEST PUSH2 0x15F0 JUMP JUMPDEST STOP JUMPDEST PUSH2 0x46E PUSH1 0x4 DUP1 CALLDATASIZE SUB DUP2 ADD SWAP1 PUSH2 0x469 SWAP2 SWAP1 PUSH2 0x2926 JUMP JUMPDEST PUSH2 0x1733 JUMP JUMPDEST PUSH1 0x40 MLOAD PUSH2 0x47B SWAP2 SWAP1 PUSH2 0x2BD1 JUMP JUMPDEST PUSH1 0x40 MLOAD DUP1 SWAP2 SUB SWAP1 RETURN JUMPDEST PUSH2 0x49E PUSH1 0x4 DUP1 CALLDATASIZE SUB DUP2 ADD SWAP1 PUSH2 0x499 SWAP2 SWAP1 PUSH2 0x2CD2 JUMP JUMPDEST PUSH2 0x1772 JUMP JUMPDEST STOP JUMPDEST PUSH2 0x4BA PUSH1 0x4 DUP1 CALLDATASIZE SUB DUP2 ADD SWAP1 PUSH2 0x4B5 SWAP2 SWAP1 PUSH2 0x2821 JUMP JUMPDEST PUSH2 0x181A JUMP JUMPDEST STOP JUMPDEST PUSH2 0x4C4 PUSH2 0x195D JUMP JUMPDEST PUSH1 0x40 MLOAD PUSH2 0x4D1 SWAP2 SWAP1 PUSH2 0x2962 JUMP JUMPDEST PUSH1 0x40 MLOAD DUP1 SWAP2 SUB SWAP1 RETURN JUMPDEST PUSH2 0x4F4 PUSH1 0x4 DUP1 CALLDATASIZE SUB DUP2 ADD SWAP1 PUSH2 0x4EF SWAP2 SWAP1 PUSH2 0x2B4C JUMP JUMPDEST PUSH2 0x1983 JUMP JUMPDEST STOP JUMPDEST PUSH2 0x510 PUSH1 0x4 DUP1 CALLDATASIZE SUB DUP2 ADD SWAP1 PUSH2 0x50B SWAP2 SWAP1 PUSH2 0x2821 JUMP JUMPDEST PUSH2 0x1ABE JUMP JUMPDEST STOP JUMPDEST PUSH2 0x52C PUSH1 0x4 DUP1 CALLDATASIZE SUB DUP2 ADD SWAP1 PUSH2 0x527 SWAP2 SWAP1 PUSH2 0x2B79 JUMP JUMPDEST PUSH2 0x1CF2 JUMP JUMPDEST STOP JUMPDEST PUSH2 0x548 PUSH1 0x4 DUP1 CALLDATASIZE SUB DUP2 ADD SWAP1 PUSH2 0x543 SWAP2 SWAP1 PUSH2 0x2821 JUMP JUMPDEST PUSH2 0x1E66 JUMP JUMPDEST PUSH1 0x40 MLOAD PUSH2 0x555 SWAP2 SWAP1 PUSH2 0x2898 JUMP JUMPDEST PUSH1 0x40 MLOAD DUP1 SWAP2 SUB SWAP1 RETURN JUMPDEST PUSH2 0x578 PUSH1 0x4 DUP1 CALLDATASIZE SUB DUP2 ADD SWAP1 PUSH2 0x573 SWAP2 SWAP1 PUSH2 0x2B79 JUMP JUMPDEST PUSH2 0x1F06 JUMP JUMPDEST STOP JUMPDEST PUSH2 0x582 PUSH2 0x1F85 JUMP JUMPDEST STOP JUMPDEST PUSH2 0x58C PUSH2 0x2173 JUMP JUMPDEST STOP JUMPDEST PUSH1 0x60 PUSH1 0x0 DUP1 SLOAD SWAP1 PUSH2 0x100 EXP SWAP1 DIV PUSH20 0xFFFFFFFFFFFFFFFFFFFFFFFFFFFFFFFFFFFFFFFF AND PUSH20 0xFFFFFFFFFFFFFFFFFFFFFFFFFFFFFFFFFFFFFFFF AND CALLER PUSH20 0xFFFFFFFFFFFFFFFFFFFFFFFFFFFFFFFFFFFFFFFF AND EQ PUSH2 0x61E JUMPI PUSH1 0x40 MLOAD PUSH32 0x8C379A000000000000000000000000000000000000000000000000000000000 DUP2 MSTORE PUSH1 0x4 ADD PUSH2 0x615 SWAP1 PUSH2 0x2D67 JUMP JUMPDEST PUSH1 0x40 MLOAD DUP1 SWAP2 SUB SWAP1 REVERT JUMPDEST PUSH1 0x0 PUSH1 0xA PUSH1 0x0 SWAP1 SLOAD SWAP1 PUSH2 0x100 EXP SWAP1 DIV PUSH20 0xFFFFFFFFFFFFFFFFFFFFFFFFFFFFFFFFFFFFFFFF AND PUSH20 0xFFFFFFFFFFFFFFFFFFFFFFFFFFFFFFFFFFFFFFFF AND PUSH4 0xC5882344 PUSH1 0x7 PUSH1 0x40 MLOAD DUP3 PUSH4 0xFFFFFFFF AND PUSH1 0xE0 SHL DUP2 MSTORE PUSH1 0x4 ADD PUSH2 0x67C SWAP2 SWAP1 PUSH2 0x2E73 JUMP JUMPDEST PUSH1 0x0 PUSH1 0x40 MLOAD DUP1 DUP4 SUB DUP2 DUP7 GAS STATICCALL ISZERO DUP1 ISZERO PUSH2 0x699 JUMPI RETURNDATASIZE PUSH1 0x0 DUP1 RETURNDATACOPY RETURNDATASIZE PUSH1 0x0 REVERT JUMPDEST POP POP POP POP PUSH1 0x40 MLOAD RETURNDATASIZE PUSH1 0x0 DUP3 RETURNDATACOPY RETURNDATASIZE PUSH1 0x1F NOT PUSH1 0x1F DUP3 ADD AND DUP3 ADD DUP1 PUSH1 0x40 MSTORE POP DUP2 ADD SWAP1 PUSH2 0x6C2 SWAP2 SWAP1 PUSH2 0x2F6D JUMP JUMPDEST SWAP1 POP DUP1 SWAP2 POP POP SWAP1 JUMP JUMPDEST PUSH1 0x0 DUP1 SLOAD SWAP1 PUSH2 0x100 EXP SWAP1 DIV PUSH20 0xFFFFFFFFFFFFFFFFFFFFFFFFFFFFFFFFFFFFFFFF AND PUSH20 0xFFFFFFFFFFFFFFFFFFFFFFFFFFFFFFFFFFFFFFFF AND CALLER PUSH20 0xFFFFFFFFFFFFFFFFFFFFFFFFFFFFFFFFFFFFFFFF AND EQ PUSH2 0x759 JUMPI PUSH1 0x40 MLOAD PUSH32 0x8C379A000000000000000000000000000000000000000000000000000000000 DUP2 MSTORE PUSH1 0x4 ADD PUSH2 0x750 SWAP1 PUSH2 0x2D67 JUMP JUMPDEST PUSH1 0x40 MLOAD DUP1 SWAP2 SUB SWAP1 REVERT JUMPDEST PUSH2 0x761 PUSH2 0xCB5 JUMP JUMPDEST PUSH2 0x7A0 JUMPI PUSH1 0x40 MLOAD PUSH32 0x8C379A000000000000000000000000000000000000000000000000000000000 DUP2 MSTORE PUSH1 0x4 ADD PUSH2 0x797 SWAP1 PUSH2 0x3028 JUMP JUMPDEST PUSH1 0x40 MLOAD DUP1 SWAP2 SUB SWAP1 REVERT JUMPDEST PUSH1 0x0 PUSH1 0xA PUSH1 0x0 SWAP1 SLOAD SWAP1 PUSH2 0x100 EXP SWAP1 DIV PUSH20 0xFFFFFFFFFFFFFFFFFFFFFFFFFFFFFFFFFFFFFFFF AND PUSH20 0xFFFFFFFFFFFFFFFFFFFFFFFFFFFFFFFFFFFFFFFF AND PUSH4 0xD71E80E3 PUSH1 0x0 DUP1 SLOAD SWAP1 PUSH2 0x100 EXP SWAP1 DIV PUSH20 0xFFFFFFFFFFFFFFFFFFFFFFFFFFFFFFFFFFFFFFFF AND PUSH1 0x40 MLOAD DUP3 PUSH4 0xFFFFFFFF AND PUSH1 0xE0 SHL DUP2 MSTORE PUSH1 0x4 ADD PUSH2 0x81D SWAP2 SWAP1 PUSH2 0x2962 JUMP JUMPDEST PUSH1 0x0 PUSH1 0x40 MLOAD DUP1 DUP4 SUB DUP2 DUP7 GAS STATICCALL ISZERO DUP1 ISZERO PUSH2 0x83A JUMPI RETURNDATASIZE PUSH1 0x0 DUP1 RETURNDATACOPY RETURNDATASIZE PUSH1 0x0 REVERT JUMPDEST POP POP POP POP PUSH1 0x40 MLOAD RETURNDATASIZE PUSH1 0x0 DUP3 RETURNDATACOPY RETURNDATASIZE PUSH1 0x1F NOT PUSH1 0x1F DUP3 ADD AND DUP3 ADD DUP1 PUSH1 0x40 MSTORE POP DUP2 ADD SWAP1 PUSH2 0x863 SWAP2 SWAP1 PUSH2 0x2F6D JUMP JUMPDEST SWAP1 POP PUSH1 0x0 JUMPDEST DUP2 MLOAD DUP2 LT ISZERO PUSH2 0x907 JUMPI PUSH1 0x0 DUP3 DUP3 DUP2 MLOAD DUP2 LT PUSH2 0x886 JUMPI PUSH2 0x885 PUSH2 0x3048 JUMP JUMPDEST JUMPDEST PUSH1 0x20 MUL PUSH1 0x20 ADD ADD MLOAD SWAP1 POP PUSH1 0x3 DUP2 SWAP1 DUP1 PUSH1 0x1 DUP2 SLOAD ADD DUP1 DUP3 SSTORE DUP1 SWAP2 POP POP PUSH1 0x1 SWAP1 SUB SWAP1 PUSH1 0x0 MSTORE PUSH1 0x20 PUSH1 0x0 KECCAK256 ADD PUSH1 0x0 SWAP1 SWAP2 SWAP1 SWAP2 SWAP1 SWAP2 PUSH2 0x100 EXP DUP2 SLOAD DUP2 PUSH20 0xFFFFFFFFFFFFFFFFFFFFFFFFFFFFFFFFFFFFFFFF MUL NOT AND SWAP1 DUP4 PUSH20 0xFFFFFFFFFFFFFFFFFFFFFFFFFFFFFFFFFFFFFFFF AND MUL OR SWAP1 SSTORE POP POP DUP1 DUP1 PUSH2 0x8FF SWAP1 PUSH2 0x30A6 JUMP JUMPDEST SWAP2 POP POP PUSH2 0x868 JUMP JUMPDEST POP POP JUMP JUMPDEST PUSH1 0x60 PUSH1 0x0 DUP1 SLOAD SWAP1 PUSH2 0x100 EXP SWAP1 DIV PUSH20 0xFFFFFFFFFFFFFFFFFFFFFFFFFFFFFFFFFFFFFFFF AND PUSH20 0xFFFFFFFFFFFFFFFFFFFFFFFFFFFFFFFFFFFFFFFF AND CALLER PUSH20 0xFFFFFFFFFFFFFFFFFFFFFFFFFFFFFFFFFFFFFFFF AND EQ PUSH2 0x99B JUMPI PUSH1 0x40 MLOAD PUSH32 0x8C379A000000000000000000000000000000000000000000000000000000000 DUP2 MSTORE PUSH1 0x4 ADD PUSH2 0x992 SWAP1 PUSH2 0x2D67 JUMP JUMPDEST PUSH1 0x40 MLOAD DUP1 SWAP2 SUB SWAP1 REVERT JUMPDEST PUSH1 0x0 PUSH1 0xA PUSH1 0x0 SWAP1 SLOAD SWAP1 PUSH2 0x100 EXP SWAP1 DIV PUSH20 0xFFFFFFFFFFFFFFFFFFFFFFFFFFFFFFFFFFFFFFFF AND PUSH20 0xFFFFFFFFFFFFFFFFFFFFFFFFFFFFFFFFFFFFFFFF AND PUSH4 0x99F8B09F PUSH1 0x0 DUP1 SLOAD SWAP1 PUSH2 0x100 EXP SWAP1 DIV PUSH20 0xFFFFFFFFFFFFFFFFFFFFFFFFFFFFFFFFFFFFFFFF AND PUSH1 0x40 MLOAD DUP3 PUSH4 0xFFFFFFFF AND PUSH1 0xE0 SHL DUP2 MSTORE PUSH1 0x4 ADD PUSH2 0xA18 SWAP2 SWAP1 PUSH2 0x2962 JUMP JUMPDEST PUSH1 0x0 PUSH1 0x40 MLOAD DUP1 DUP4 SUB DUP2 DUP7 GAS STATICCALL ISZERO DUP1 ISZERO PUSH2 0xA35 JUMPI RETURNDATASIZE PUSH1 0x0 DUP1 RETURNDATACOPY RETURNDATASIZE PUSH1 0x0 REVERT JUMPDEST POP POP POP POP PUSH1 0x40 MLOAD RETURNDATASIZE PUSH1 0x0 DUP3 RETURNDATACOPY RETURNDATASIZE PUSH1 0x1F NOT PUSH1 0x1F DUP3 ADD AND DUP3 ADD DUP1 PUSH1 0x40 MSTORE POP DUP2 ADD SWAP1 PUSH2 0xA5E SWAP2 SWAP1 PUSH2 0x2F6D JUMP JUMPDEST SWAP1 POP DUP1 SWAP2 POP POP SWAP1 JUMP JUMPDEST PUSH1 0x60 PUSH2 0xA71 PUSH2 0xCB5 JUMP JUMPDEST PUSH2 0xAB0 JUMPI PUSH1 0x40 MLOAD PUSH32 0x8C379A000000000000000000000000000000000000000000000000000000000 DUP2 MSTORE PUSH1 0x4 ADD PUSH2 0xAA7 SWAP1 PUSH2 0x3028 JUMP JUMPDEST PUSH1 0x40 MLOAD DUP1 SWAP2 SUB SWAP1 REVERT JUMPDEST PUSH1 0x0 DUP1 SLOAD SWAP1 PUSH2 0x100 EXP SWAP1 DIV PUSH20 0xFFFFFFFFFFFFFFFFFFFFFFFFFFFFFFFFFFFFFFFF AND PUSH20 0xFFFFFFFFFFFFFFFFFFFFFFFFFFFFFFFFFFFFFFFF AND CALLER PUSH20 0xFFFFFFFFFFFFFFFFFFFFFFFFFFFFFFFFFFFFFFFF AND EQ PUSH2 0xB3E JUMPI PUSH1 0x40 MLOAD PUSH32 0x8C379A000000000000000000000000000000000000000000000000000000000 DUP2 MSTORE PUSH1 0x4 ADD PUSH2 0xB35 SWAP1 PUSH2 0x2D67 JUMP JUMPDEST PUSH1 0x40 MLOAD DUP1 SWAP2 SUB SWAP1 REVERT JUMPDEST PUSH1 0x8 DUP1 SLOAD DUP1 PUSH1 0x20 MUL PUSH1 0x20 ADD PUSH1 0x40 MLOAD SWAP1 DUP2 ADD PUSH1 0x40 MSTORE DUP1 SWAP3 SWAP2 SWAP1 DUP2 DUP2 MSTORE PUSH1 0x20 ADD PUSH1 0x0 SWAP1 JUMPDEST DUP3 DUP3 LT ISZERO PUSH2 0xC0C JUMPI DUP4 DUP3 SWAP1 PUSH1 0x0 MSTORE PUSH1 0x20 PUSH1 0x0 KECCAK256 ADD DUP1 SLOAD PUSH2 0xB7F SWAP1 PUSH2 0x311D JUMP JUMPDEST DUP1 PUSH1 0x1F ADD PUSH1 0x20 DUP1 SWAP2 DIV MUL PUSH1 0x20 ADD PUSH1 0x40 MLOAD SWAP1 DUP2 ADD PUSH1 0x40 MSTORE DUP1 SWAP3 SWAP2 SWAP1 DUP2 DUP2 MSTORE PUSH1 0x20 ADD DUP3 DUP1 SLOAD PUSH2 0xBAB SWAP1 PUSH2 0x311D JUMP JUMPDEST DUP1 ISZERO PUSH2 0xBF8 JUMPI DUP1 PUSH1 0x1F LT PUSH2 0xBCD JUMPI PUSH2 0x100 DUP1 DUP4 SLOAD DIV MUL DUP4 MSTORE SWAP2 PUSH1 0x20 ADD SWAP2 PUSH2 0xBF8 JUMP JUMPDEST DUP3 ADD SWAP2 SWAP1 PUSH1 0x0 MSTORE PUSH1 0x20 PUSH1 0x0 KECCAK256 SWAP1 JUMPDEST DUP2 SLOAD DUP2 MSTORE SWAP1 PUSH1 0x1 ADD SWAP1 PUSH1 0x20 ADD DUP1 DUP4 GT PUSH2 0xBDB JUMPI DUP3 SWAP1 SUB PUSH1 0x1F AND DUP3 ADD SWAP2 JUMPDEST POP POP POP POP POP DUP2 MSTORE PUSH1 0x20 ADD SWAP1 PUSH1 0x1 ADD SWAP1 PUSH2 0xB60 JUMP JUMPDEST POP POP POP POP SWAP1 POP SWAP1 JUMP JUMPDEST PUSH1 0x6 PUSH1 0x20 MSTORE DUP1 PUSH1 0x0 MSTORE PUSH1 0x40 PUSH1 0x0 KECCAK256 PUSH1 0x0 SWAP2 POP SWAP1 POP DUP1 SLOAD PUSH2 0xC34 SWAP1 PUSH2 0x311D JUMP JUMPDEST DUP1 PUSH1 0x1F ADD PUSH1 0x20 DUP1 SWAP2 DIV MUL PUSH1 0x20 ADD PUSH1 0x40 MLOAD SWAP1 DUP2 ADD PUSH1 0x40 MSTORE DUP1 SWAP3 SWAP2 SWAP1 DUP2 DUP2 MSTORE PUSH1 0x20 ADD DUP3 DUP1 SLOAD PUSH2 0xC60 SWAP1 PUSH2 0x311D JUMP JUMPDEST DUP1 ISZERO PUSH2 0xCAD JUMPI DUP1 PUSH1 0x1F LT PUSH2 0xC82 JUMPI PUSH2 0x100 DUP1 DUP4 SLOAD DIV MUL DUP4 MSTORE SWAP2 PUSH1 0x20 ADD SWAP2 PUSH2 0xCAD JUMP JUMPDEST DUP3 ADD SWAP2 SWAP1 PUSH1 0x0 MSTORE PUSH1 0x20 PUSH1 0x0 KECCAK256 SWAP1 JUMPDEST DUP2 SLOAD DUP2 MSTORE SWAP1 PUSH1 0x1 ADD SWAP1 PUSH1 0x20 ADD DUP1 DUP4 GT PUSH2 0xC90 JUMPI DUP3 SWAP1 SUB PUSH1 0x1F AND DUP3 ADD SWAP2 JUMPDEST POP POP POP POP POP DUP2 JUMP JUMPDEST PUSH1 0x0 PUSH1 0xA PUSH1 0x0 SWAP1 SLOAD SWAP1 PUSH2 0x100 EXP SWAP1 DIV PUSH20 0xFFFFFFFFFFFFFFFFFFFFFFFFFFFFFFFFFFFFFFFF AND PUSH20 0xFFFFFFFFFFFFFFFFFFFFFFFFFFFFFFFFFFFFFFFF AND PUSH4 0xD85D839 PUSH1 0x1 PUSH1 0x40 MLOAD DUP3 PUSH4 0xFFFFFFFF AND PUSH1 0xE0 SHL DUP2 MSTORE PUSH1 0x4 ADD PUSH2 0xD13 SWAP2 SWAP1 PUSH2 0x31E7 JUMP JUMPDEST PUSH1 0x20 PUSH1 0x40 MLOAD DUP1 DUP4 SUB DUP2 DUP7 GAS STATICCALL ISZERO DUP1 ISZERO PUSH2 0xD30 JUMPI RETURNDATASIZE PUSH1 0x0 DUP1 RETURNDATACOPY RETURNDATASIZE PUSH1 0x0 REVERT JUMPDEST POP POP POP POP PUSH1 0x40 MLOAD RETURNDATASIZE PUSH1 0x1F NOT PUSH1 0x1F DUP3 ADD AND DUP3 ADD DUP1 PUSH1 0x40 MSTORE POP DUP2 ADD SWAP1 PUSH2 0xD54 SWAP2 SWAP1 PUSH2 0x3235 JUMP JUMPDEST SWAP1 POP SWAP1 JUMP JUMPDEST PUSH1 0x7 DUP2 DUP2 SLOAD DUP2 LT PUSH2 0xD69 JUMPI PUSH1 0x0 DUP1 REVERT JUMPDEST SWAP1 PUSH1 0x0 MSTORE PUSH1 0x20 PUSH1 0x0 KECCAK256 ADD PUSH1 0x0 SWAP2 POP SLOAD SWAP1 PUSH2 0x100 EXP SWAP1 DIV PUSH20 0xFFFFFFFFFFFFFFFFFFFFFFFFFFFFFFFFFFFFFFFF AND DUP2 JUMP JUMPDEST PUSH1 0x60 PUSH1 0x0 DUP1 SLOAD SWAP1 PUSH2 0x100 EXP SWAP1 DIV PUSH20 0xFFFFFFFFFFFFFFFFFFFFFFFFFFFFFFFFFFFFFFFF AND PUSH20 0xFFFFFFFFFFFFFFFFFFFFFFFFFFFFFFFFFFFFFFFF AND CALLER PUSH20 0xFFFFFFFFFFFFFFFFFFFFFFFFFFFFFFFFFFFFFFFF AND EQ PUSH2 0xE28 JUMPI PUSH1 0x40 MLOAD PUSH32 0x8C379A000000000000000000000000000000000000000000000000000000000 DUP2 MSTORE PUSH1 0x4 ADD PUSH2 0xE1F SWAP1 PUSH2 0x2D67 JUMP JUMPDEST PUSH1 0x40 MLOAD DUP1 SWAP2 SUB SWAP1 REVERT JUMPDEST PUSH1 0x4 DUP1 SLOAD DUP1 PUSH1 0x20 MUL PUSH1 0x20 ADD PUSH1 0x40 MLOAD SWAP1 DUP2 ADD PUSH1 0x40 MSTORE DUP1 SWAP3 SWAP2 SWAP1 DUP2 DUP2 MSTORE PUSH1 0x20 ADD PUSH1 0x0 SWAP1 JUMPDEST DUP3 DUP3 LT ISZERO PUSH2 0xEF6 JUMPI DUP4 DUP3 SWAP1 PUSH1 0x0 MSTORE PUSH1 0x20 PUSH1 0x0 KECCAK256 ADD DUP1 SLOAD PUSH2 0xE69 SWAP1 PUSH2 0x311D JUMP JUMPDEST DUP1 PUSH1 0x1F ADD PUSH1 0x20 DUP1 SWAP2 DIV MUL PUSH1 0x20 ADD PUSH1 0x40 MLOAD SWAP1 DUP2 ADD PUSH1 0x40 MSTORE DUP1 SWAP3 SWAP2 SWAP1 DUP2 DUP2 MSTORE PUSH1 0x20 ADD DUP3 DUP1 SLOAD PUSH2 0xE95 SWAP1 PUSH2 0x311D JUMP JUMPDEST DUP1 ISZERO PUSH2 0xEE2 JUMPI DUP1 PUSH1 0x1F LT PUSH2 0xEB7 JUMPI PUSH2 0x100 DUP1 DUP4 SLOAD DIV MUL DUP4 MSTORE SWAP2 PUSH1 0x20 ADD SWAP2 PUSH2 0xEE2 JUMP JUMPDEST DUP3 ADD SWAP2 SWAP1 PUSH1 0x0 MSTORE PUSH1 0x20 PUSH1 0x0 KECCAK256 SWAP1 JUMPDEST DUP2 SLOAD DUP2 MSTORE SWAP1 PUSH1 0x1 ADD SWAP1 PUSH1 0x20 ADD DUP1 DUP4 GT PUSH2 0xEC5 JUMPI DUP3 SWAP1 SUB PUSH1 0x1F AND DUP3 ADD SWAP2 JUMPDEST POP POP POP POP POP DUP2 MSTORE PUSH1 0x20 ADD SWAP1 PUSH1 0x1 ADD SWAP1 PUSH2 0xE4A JUMP JUMPDEST POP POP POP POP SWAP1 POP SWAP1 JUMP JUMPDEST PUSH1 0x7 DUP3 SWAP1 DUP1 PUSH1 0x1 DUP2 SLOAD ADD DUP1 DUP3 SSTORE DUP1 SWAP2 POP POP PUSH1 0x1 SWAP1 SUB SWAP1 PUSH1 0x0 MSTORE PUSH1 0x20 PUSH1 0x0 KECCAK256 ADD PUSH1 0x0 SWAP1 SWAP2 SWAP1 SWAP2 SWAP1 SWAP2 PUSH2 0x100 EXP DUP2 SLOAD DUP2 PUSH20 0xFFFFFFFFFFFFFFFFFFFFFFFFFFFFFFFFFFFFFFFF MUL NOT AND SWAP1 DUP4 PUSH20 0xFFFFFFFFFFFFFFFFFFFFFFFFFFFFFFFFFFFFFFFF AND MUL OR SWAP1 SSTORE POP DUP1 PUSH1 0x6 PUSH1 0x0 DUP5 PUSH20 0xFFFFFFFFFFFFFFFFFFFFFFFFFFFFFFFFFFFFFFFF AND PUSH20 0xFFFFFFFFFFFFFFFFFFFFFFFFFFFFFFFFFFFFFFFF AND DUP2 MSTORE PUSH1 0x20 ADD SWAP1 DUP2 MSTORE PUSH1 0x20 ADD PUSH1 0x0 KECCAK256 SWAP1 DUP2 PUSH2 0xFAE SWAP2 SWAP1 PUSH2 0x33F9 JUMP JUMPDEST POP POP POP JUMP JUMPDEST PUSH1 0x2 PUSH1 0x1 PUSH1 0x2 DUP1 SLOAD SWAP1 POP PUSH2 0xFC7 SWAP2 SWAP1 PUSH2 0x34CB JUMP JUMPDEST DUP2 SLOAD DUP2 LT PUSH2 0xFD8 JUMPI PUSH2 0xFD7 PUSH2 0x3048 JUMP JUMPDEST JUMPDEST SWAP1 PUSH1 0x0 MSTORE PUSH1 0x20 PUSH1 0x0 KECCAK256 ADD PUSH1 0x0 SWAP1 SLOAD SWAP1 PUSH2 0x100 EXP SWAP1 DIV PUSH20 0xFFFFFFFFFFFFFFFFFFFFFFFFFFFFFFFFFFFFFFFF AND PUSH1 0x2 DUP3 DUP2 SLOAD DUP2 LT PUSH2 0x1017 JUMPI PUSH2 0x1016 PUSH2 0x3048 JUMP JUMPDEST JUMPDEST SWAP1 PUSH1 0x0 MSTORE PUSH1 0x20 PUSH1 0x0 KECCAK256 ADD PUSH1 0x0 PUSH2 0x100 EXP DUP2 SLOAD DUP2 PUSH20 0xFFFFFFFFFFFFFFFFFFFFFFFFFFFFFFFFFFFFFFFF MUL NOT AND SWAP1 DUP4 PUSH20 0xFFFFFFFFFFFFFFFFFFFFFFFFFFFFFFFFFFFFFFFF AND MUL OR SWAP1 SSTORE POP PUSH1 0x2 DUP1 SLOAD DUP1 PUSH2 0x1071 JUMPI PUSH2 0x1070 PUSH2 0x34FF JUMP JUMPDEST JUMPDEST PUSH1 0x1 SWAP1 SUB DUP2 DUP2 SWAP1 PUSH1 0x0 MSTORE PUSH1 0x20 PUSH1 0x0 KECCAK256 ADD PUSH1 0x0 PUSH2 0x100 EXP DUP2 SLOAD SWAP1 PUSH20 0xFFFFFFFFFFFFFFFFFFFFFFFFFFFFFFFFFFFFFFFF MUL NOT AND SWAP1 SSTORE SWAP1 SSTORE POP JUMP JUMPDEST PUSH1 0x0 DUP1 SLOAD SWAP1 PUSH2 0x100 EXP SWAP1 DIV PUSH20 0xFFFFFFFFFFFFFFFFFFFFFFFFFFFFFFFFFFFFFFFF AND PUSH20 0xFFFFFFFFFFFFFFFFFFFFFFFFFFFFFFFFFFFFFFFF AND CALLER PUSH20 0xFFFFFFFFFFFFFFFFFFFFFFFFFFFFFFFFFFFFFFFF AND EQ PUSH2 0x1137 JUMPI PUSH1 0x40 MLOAD PUSH32 0x8C379A000000000000000000000000000000000000000000000000000000000 DUP2 MSTORE PUSH1 0x4 ADD PUSH2 0x112E SWAP1 PUSH2 0x2D67 JUMP JUMPDEST PUSH1 0x40 MLOAD DUP1 SWAP2 SUB SWAP1 REVERT JUMPDEST PUSH2 0x113F PUSH2 0xCB5 JUMP JUMPDEST PUSH2 0x117E JUMPI PUSH1 0x40 MLOAD PUSH32 0x8C379A000000000000000000000000000000000000000000000000000000000 DUP2 MSTORE PUSH1 0x4 ADD PUSH2 0x1175 SWAP1 PUSH2 0x3028 JUMP JUMPDEST PUSH1 0x40 MLOAD DUP1 SWAP2 SUB SWAP1 REVERT JUMPDEST PUSH1 0x0 JUMPDEST PUSH1 0x2 DUP1 SLOAD SWAP1 POP DUP2 LT ISZERO PUSH2 0x1213 JUMPI DUP2 PUSH20 0xFFFFFFFFFFFFFFFFFFFFFFFFFFFFFFFFFFFFFFFF AND PUSH1 0x2 DUP3 DUP2 SLOAD DUP2 LT PUSH2 0x11B9 JUMPI PUSH2 0x11B8 PUSH2 0x3048 JUMP JUMPDEST JUMPDEST SWAP1 PUSH1 0x0 MSTORE PUSH1 0x20 PUSH1 0x0 KECCAK256 ADD PUSH1 0x0 SWAP1 SLOAD SWAP1 PUSH2 0x100 EXP SWAP1 DIV PUSH20 0xFFFFFFFFFFFFFFFFFFFFFFFFFFFFFFFFFFFFFFFF AND PUSH20 0xFFFFFFFFFFFFFFFFFFFFFFFFFFFFFFFFFFFFFFFF AND SUB ISZERO PUSH2 0x1213 JUMPI DUP1 DUP1 PUSH2 0x120B SWAP1 PUSH2 0x30A6 JUMP JUMPDEST SWAP2 POP POP PUSH2 0x1181 JUMP JUMPDEST PUSH2 0x121C DUP2 PUSH2 0xFB3 JUMP JUMPDEST POP POP JUMP JUMPDEST PUSH1 0x4 DUP2 DUP2 SLOAD DUP2 LT PUSH2 0x1230 JUMPI PUSH1 0x0 DUP1 REVERT JUMPDEST SWAP1 PUSH1 0x0 MSTORE PUSH1 0x20 PUSH1 0x0 KECCAK256 ADD PUSH1 0x0 SWAP2 POP SWAP1 POP DUP1 SLOAD PUSH2 0x124B SWAP1 PUSH2 0x311D JUMP JUMPDEST DUP1 PUSH1 0x1F ADD PUSH1 0x20 DUP1 SWAP2 DIV MUL PUSH1 0x20 ADD PUSH1 0x40 MLOAD SWAP1 DUP2 ADD PUSH1 0x40 MSTORE DUP1 SWAP3 SWAP2 SWAP1 DUP2 DUP2 MSTORE PUSH1 0x20 ADD DUP3 DUP1 SLOAD PUSH2 0x1277 SWAP1 PUSH2 0x311D JUMP JUMPDEST DUP1 ISZERO PUSH2 0x12C4 JUMPI DUP1 PUSH1 0x1F LT PUSH2 0x1299 JUMPI PUSH2 0x100 DUP1 DUP4 SLOAD DIV MUL DUP4 MSTORE SWAP2 PUSH1 0x20 ADD SWAP2 PUSH2 0x12C4 JUMP JUMPDEST DUP3 ADD SWAP2 SWAP1 PUSH1 0x0 MSTORE PUSH1 0x20 PUSH1 0x0 KECCAK256 SWAP1 JUMPDEST DUP2 SLOAD DUP2 MSTORE SWAP1 PUSH1 0x1 ADD SWAP1 PUSH1 0x20 ADD DUP1 DUP4 GT PUSH2 0x12A7 JUMPI DUP3 SWAP1 SUB PUSH1 0x1F AND DUP3 ADD SWAP2 JUMPDEST POP POP POP POP POP DUP2 JUMP JUMPDEST PUSH1 0x1 DUP1 SLOAD PUSH2 0x12D9 SWAP1 PUSH2 0x311D JUMP JUMPDEST DUP1 PUSH1 0x1F ADD PUSH1 0x20 DUP1 SWAP2 DIV MUL PUSH1 0x20 ADD PUSH1 0x40 MLOAD SWAP1 DUP2 ADD PUSH1 0x40 MSTORE DUP1 SWAP3 SWAP2 SWAP1 DUP2 DUP2 MSTORE PUSH1 0x20 ADD DUP3 DUP1 SLOAD PUSH2 0x1305 SWAP1 PUSH2 0x311D JUMP JUMPDEST DUP1 ISZERO PUSH2 0x1352 JUMPI DUP1 PUSH1 0x1F LT PUSH2 0x1327 JUMPI PUSH2 0x100 DUP1 DUP4 SLOAD DIV MUL DUP4 MSTORE SWAP2 PUSH1 0x20 ADD SWAP2 PUSH2 0x1352 JUMP JUMPDEST DUP3 ADD SWAP2 SWAP1 PUSH1 0x0 MSTORE PUSH1 0x20 PUSH1 0x0 KECCAK256 SWAP1 JUMPDEST DUP2 SLOAD DUP2 MSTORE SWAP1 PUSH1 0x1 ADD SWAP1 PUSH1 0x20 ADD DUP1 DUP4 GT PUSH2 0x1335 JUMPI DUP3 SWAP1 SUB PUSH1 0x1F AND DUP3 ADD SWAP2 JUMPDEST POP POP POP POP POP DUP2 JUMP JUMPDEST PUSH1 0x3 DUP2 DUP2 SLOAD DUP2 LT PUSH2 0x136A JUMPI PUSH1 0x0 DUP1 REVERT JUMPDEST SWAP1 PUSH1 0x0 MSTORE PUSH1 0x20 PUSH1 0x0 KECCAK256 ADD PUSH1 0x0 SWAP2 POP SLOAD SWAP1 PUSH2 0x100 EXP SWAP1 DIV PUSH20 0xFFFFFFFFFFFFFFFFFFFFFFFFFFFFFFFFFFFFFFFF AND DUP2 JUMP JUMPDEST PUSH2 0x13A1 PUSH2 0xCB5 JUMP JUMPDEST PUSH2 0x13E0 JUMPI PUSH1 0x40 MLOAD PUSH32 0x8C379A000000000000000000000000000000000000000000000000000000000 DUP2 MSTORE PUSH1 0x4 ADD PUSH2 0x13D7 SWAP1 PUSH2 0x3028 JUMP JUMPDEST PUSH1 0x40 MLOAD DUP1 SWAP2 SUB SWAP1 REVERT JUMPDEST PUSH1 0xA PUSH1 0x0 SWAP1 SLOAD SWAP1 PUSH2 0x100 EXP SWAP1 DIV PUSH20 0xFFFFFFFFFFFFFFFFFFFFFFFFFFFFFFFFFFFFFFFF AND PUSH20 0xFFFFFFFFFFFFFFFFFFFFFFFFFFFFFFFFFFFFFFFF AND PUSH4 0xE7618A0A DUP3 PUSH1 0x0 DUP1 SLOAD SWAP1 PUSH2 0x100 EXP SWAP1 DIV PUSH20 0xFFFFFFFFFFFFFFFFFFFFFFFFFFFFFFFFFFFFFFFF AND PUSH1 0x40 MLOAD DUP4 PUSH4 0xFFFFFFFF AND PUSH1 0xE0 SHL DUP2 MSTORE PUSH1 0x4 ADD PUSH2 0x145D SWAP3 SWAP2 SWAP1 PUSH2 0x352E JUMP JUMPDEST PUSH1 0x0 PUSH1 0x40 MLOAD DUP1 DUP4 SUB DUP2 PUSH1 0x0 DUP8 DUP1 EXTCODESIZE ISZERO DUP1 ISZERO PUSH2 0x1477 JUMPI PUSH1 0x0 DUP1 REVERT JUMPDEST POP GAS CALL ISZERO DUP1 ISZERO PUSH2 0x148B JUMPI RETURNDATASIZE PUSH1 0x0 DUP1 RETURNDATACOPY RETURNDATASIZE PUSH1 0x0 REVERT JUMPDEST POP POP POP POP POP JUMP JUMPDEST PUSH1 0x60 PUSH1 0x3 DUP1 SLOAD DUP1 PUSH1 0x20 MUL PUSH1 0x20 ADD PUSH1 0x40 MLOAD SWAP1 DUP2 ADD PUSH1 0x40 MSTORE DUP1 SWAP3 SWAP2 SWAP1 DUP2 DUP2 MSTORE PUSH1 0x20 ADD DUP3 DUP1 SLOAD DUP1 ISZERO PUSH2 0x1516 JUMPI PUSH1 0x20 MUL DUP3 ADD SWAP2 SWAP1 PUSH1 0x0 MSTORE PUSH1 0x20 PUSH1 0x0 KECCAK256 SWAP1 JUMPDEST DUP2 PUSH1 0x0 SWAP1 SLOAD SWAP1 PUSH2 0x100 EXP SWAP1 DIV PUSH20 0xFFFFFFFFFFFFFFFFFFFFFFFFFFFFFFFFFFFFFFFF AND PUSH20 0xFFFFFFFFFFFFFFFFFFFFFFFFFFFFFFFFFFFFFFFF AND DUP2 MSTORE PUSH1 0x20 ADD SWAP1 PUSH1 0x1 ADD SWAP1 DUP1 DUP4 GT PUSH2 0x14CC JUMPI JUMPDEST POP POP POP POP POP SWAP1 POP SWAP1 JUMP JUMPDEST PUSH1 0x8 DUP2 DUP2 SLOAD DUP2 LT PUSH2 0x1530 JUMPI PUSH1 0x0 DUP1 REVERT JUMPDEST SWAP1 PUSH1 0x0 MSTORE PUSH1 0x20 PUSH1 0x0 KECCAK256 ADD PUSH1 0x0 SWAP2 POP SWAP1 POP DUP1 SLOAD PUSH2 0x154B SWAP1 PUSH2 0x311D JUMP JUMPDEST DUP1 PUSH1 0x1F ADD PUSH1 0x20 DUP1 SWAP2 DIV MUL PUSH1 0x20 ADD PUSH1 0x40 MLOAD SWAP1 DUP2 ADD PUSH1 0x40 MSTORE DUP1 SWAP3 SWAP2 SWAP1 DUP2 DUP2 MSTORE PUSH1 0x20 ADD DUP3 DUP1 SLOAD PUSH2 0x1577 SWAP1 PUSH2 0x311D JUMP JUMPDEST DUP1 ISZERO PUSH2 0x15C4 JUMPI DUP1 PUSH1 0x1F LT PUSH2 0x1599 JUMPI PUSH2 0x100 DUP1 DUP4 SLOAD DIV MUL DUP4 MSTORE SWAP2 PUSH1 0x20 ADD SWAP2 PUSH2 0x15C4 JUMP JUMPDEST DUP3 ADD SWAP2 SWAP1 PUSH1 0x0 MSTORE PUSH1 0x20 PUSH1 0x0 KECCAK256 SWAP1 JUMPDEST DUP2 SLOAD DUP2 MSTORE SWAP1 PUSH1 0x1 ADD SWAP1 PUSH1 0x20 ADD DUP1 DUP4 GT PUSH2 0x15A7 JUMPI DUP3 SWAP1 SUB PUSH1 0x1F AND DUP3 ADD SWAP2 JUMPDEST POP POP POP POP POP DUP2 JUMP JUMPDEST PUSH1 0x0 DUP1 SLOAD SWAP1 PUSH2 0x100 EXP SWAP1 DIV PUSH20 0xFFFFFFFFFFFFFFFFFFFFFFFFFFFFFFFFFFFFFFFF AND DUP2 JUMP JUMPDEST PUSH1 0x0 DUP1 SLOAD SWAP1 PUSH2 0x100 EXP SWAP1 DIV PUSH20 0xFFFFFFFFFFFFFFFFFFFFFFFFFFFFFFFFFFFFFFFF AND PUSH20 0xFFFFFFFFFFFFFFFFFFFFFFFFFFFFFFFFFFFFFFFF AND CALLER PUSH20 0xFFFFFFFFFFFFFFFFFFFFFFFFFFFFFFFFFFFFFFFF AND EQ PUSH2 0x167E JUMPI PUSH1 0x40 MLOAD PUSH32 0x8C379A000000000000000000000000000000000000000000000000000000000 DUP2 MSTORE PUSH1 0x4 ADD PUSH2 0x1675 SWAP1 PUSH2 0x2D67 JUMP JUMPDEST PUSH1 0x40 MLOAD DUP1 SWAP2 SUB SWAP1 REVERT JUMPDEST PUSH1 0xA PUSH1 0x0 SWAP1 SLOAD SWAP1 PUSH2 0x100 EXP SWAP1 DIV PUSH20 0xFFFFFFFFFFFFFFFFFFFFFFFFFFFFFFFFFFFFFFFF AND PUSH20 0xFFFFFFFFFFFFFFFFFFFFFFFFFFFFFFFFFFFFFFFF AND PUSH4 0xBC9D6271 PUSH1 0x0 DUP1 SLOAD SWAP1 PUSH2 0x100 EXP SWAP1 DIV PUSH20 0xFFFFFFFFFFFFFFFFFFFFFFFFFFFFFFFFFFFFFFFF AND DUP4 PUSH1 0x1 PUSH1 0x40 MLOAD DUP5 PUSH4 0xFFFFFFFF AND PUSH1 0xE0 SHL DUP2 MSTORE PUSH1 0x4 ADD PUSH2 0x16FE SWAP4 SWAP3 SWAP2 SWAP1 PUSH2 0x355E JUMP JUMPDEST PUSH1 0x0 PUSH1 0x40 MLOAD DUP1 DUP4 SUB DUP2 PUSH1 0x0 DUP8 DUP1 EXTCODESIZE ISZERO DUP1 ISZERO PUSH2 0x1718 JUMPI PUSH1 0x0 DUP1 REVERT JUMPDEST POP GAS CALL ISZERO DUP1 ISZERO PUSH2 0x172C JUMPI RETURNDATASIZE PUSH1 0x0 DUP1 RETURNDATACOPY RETURNDATASIZE PUSH1 0x0 REVERT JUMPDEST POP POP POP POP POP JUMP JUMPDEST PUSH1 0x2 DUP2 DUP2 SLOAD DUP2 LT PUSH2 0x1743 JUMPI PUSH1 0x0 DUP1 REVERT JUMPDEST SWAP1 PUSH1 0x0 MSTORE PUSH1 0x20 PUSH1 0x0 KECCAK256 ADD PUSH1 0x0 SWAP2 POP SLOAD SWAP1 PUSH2 0x100 EXP SWAP1 DIV PUSH20 0xFFFFFFFFFFFFFFFFFFFFFFFFFFFFFFFFFFFFFFFF AND DUP2 JUMP JUMPDEST PUSH1 0x0 DUP1 SLOAD SWAP1 PUSH2 0x100 EXP SWAP1 DIV PUSH20 0xFFFFFFFFFFFFFFFFFFFFFFFFFFFFFFFFFFFFFFFF AND PUSH20 0xFFFFFFFFFFFFFFFFFFFFFFFFFFFFFFFFFFFFFFFF AND CALLER PUSH20 0xFFFFFFFFFFFFFFFFFFFFFFFFFFFFFFFFFFFFFFFF AND EQ PUSH2 0x1800 JUMPI PUSH1 0x40 MLOAD PUSH32 0x8C379A000000000000000000000000000000000000000000000000000000000 DUP2 MSTORE PUSH1 0x4 ADD PUSH2 0x17F7 SWAP1 PUSH2 0x2D67 JUMP JUMPDEST PUSH1 0x40 MLOAD DUP1 SWAP2 SUB SWAP1 REVERT JUMPDEST DUP1 PUSH1 0x4 SWAP1 DUP1 MLOAD SWAP1 PUSH1 0x20 ADD SWAP1 PUSH2 0x1816 SWAP3 SWAP2 SWAP1 PUSH2 0x2481 JUMP JUMPDEST POP POP JUMP JUMPDEST PUSH1 0x0 DUP1 SLOAD SWAP1 PUSH2 0x100 EXP SWAP1 DIV PUSH20 0xFFFFFFFFFFFFFFFFFFFFFFFFFFFFFFFFFFFFFFFF AND PUSH20 0xFFFFFFFFFFFFFFFFFFFFFFFFFFFFFFFFFFFFFFFF AND CALLER PUSH20 0xFFFFFFFFFFFFFFFFFFFFFFFFFFFFFFFFFFFFFFFF AND EQ PUSH2 0x18A8 JUMPI PUSH1 0x40 MLOAD PUSH32 0x8C379A000000000000000000000000000000000000000000000000000000000 DUP2 MSTORE PUSH1 0x4 ADD PUSH2 0x189F SWAP1 PUSH2 0x2D67 JUMP JUMPDEST PUSH1 0x40 MLOAD DUP1 SWAP2 SUB SWAP1 REVERT JUMPDEST PUSH1 0xA PUSH1 0x0 SWAP1 SLOAD SWAP1 PUSH2 0x100 EXP SWAP1 DIV PUSH20 0xFFFFFFFFFFFFFFFFFFFFFFFFFFFFFFFFFFFFFFFF AND PUSH20 0xFFFFFFFFFFFFFFFFFFFFFFFFFFFFFFFFFFFFFFFF AND PUSH4 0xBC9D6271 PUSH1 0x0 DUP1 SLOAD SWAP1 PUSH2 0x100 EXP SWAP1 DIV PUSH20 0xFFFFFFFFFFFFFFFFFFFFFFFFFFFFFFFFFFFFFFFF AND DUP4 PUSH1 0x1 PUSH1 0x40 MLOAD DUP5 PUSH4 0xFFFFFFFF AND PUSH1 0xE0 SHL DUP2 MSTORE PUSH1 0x4 ADD PUSH2 0x1928 SWAP4 SWAP3 SWAP2 SWAP1 PUSH2 0x355E JUMP JUMPDEST PUSH1 0x0 PUSH1 0x40 MLOAD DUP1 DUP4 SUB DUP2 PUSH1 0x0 DUP8 DUP1 EXTCODESIZE ISZERO DUP1 ISZERO PUSH2 0x1942 JUMPI PUSH1 0x0 DUP1 REVERT JUMPDEST POP GAS CALL ISZERO DUP1 ISZERO PUSH2 0x1956 JUMPI RETURNDATASIZE PUSH1 0x0 DUP1 RETURNDATACOPY RETURNDATASIZE PUSH1 0x0 REVERT JUMPDEST POP POP POP POP POP JUMP JUMPDEST PUSH1 0x9 PUSH1 0x0 SWAP1 SLOAD SWAP1 PUSH2 0x100 EXP SWAP1 DIV PUSH20 0xFFFFFFFFFFFFFFFFFFFFFFFFFFFFFFFFFFFFFFFF AND DUP2 JUMP JUMPDEST PUSH1 0x0 DUP1 SLOAD SWAP1 PUSH2 0x100 EXP SWAP1 DIV PUSH20 0xFFFFFFFFFFFFFFFFFFFFFFFFFFFFFFFFFFFFFFFF AND PUSH20 0xFFFFFFFFFFFFFFFFFFFFFFFFFFFFFFFFFFFFFFFF AND CALLER PUSH20 0xFFFFFFFFFFFFFFFFFFFFFFFFFFFFFFFFFFFFFFFF AND EQ PUSH2 0x1A11 JUMPI PUSH1 0x40 MLOAD PUSH32 0x8C379A000000000000000000000000000000000000000000000000000000000 DUP2 MSTORE PUSH1 0x4 ADD PUSH2 0x1A08 SWAP1 PUSH2 0x2D67 JUMP JUMPDEST PUSH1 0x40 MLOAD DUP1 SWAP2 SUB SWAP1 REVERT JUMPDEST PUSH2 0x1A19 PUSH2 0xCB5 JUMP JUMPDEST PUSH2 0x1A58 JUMPI PUSH1 0x40 MLOAD PUSH32 0x8C379A000000000000000000000000000000000000000000000000000000000 DUP2 MSTORE PUSH1 0x4 ADD PUSH2 0x1A4F SWAP1 PUSH2 0x3028 JUMP JUMPDEST PUSH1 0x40 MLOAD DUP1 SWAP2 SUB SWAP1 REVERT JUMPDEST PUSH1 0x2 DUP2 SWAP1 DUP1 PUSH1 0x1 DUP2 SLOAD ADD DUP1 DUP3 SSTORE DUP1 SWAP2 POP POP PUSH1 0x1 SWAP1 SUB SWAP1 PUSH1 0x0 MSTORE PUSH1 0x20 PUSH1 0x0 KECCAK256 ADD PUSH1 0x0 SWAP1 SWAP2 SWAP1 SWAP2 SWAP1 SWAP2 PUSH2 0x100 EXP DUP2 SLOAD DUP2 PUSH20 0xFFFFFFFFFFFFFFFFFFFFFFFFFFFFFFFFFFFFFFFF MUL NOT AND SWAP1 DUP4 PUSH20 0xFFFFFFFFFFFFFFFFFFFFFFFFFFFFFFFFFFFFFFFF AND MUL OR SWAP1 SSTORE POP POP JUMP JUMPDEST PUSH1 0x0 DUP1 SLOAD SWAP1 PUSH2 0x100 EXP SWAP1 DIV PUSH20 0xFFFFFFFFFFFFFFFFFFFFFFFFFFFFFFFFFFFFFFFF AND PUSH20 0xFFFFFFFFFFFFFFFFFFFFFFFFFFFFFFFFFFFFFFFF AND CALLER PUSH20 0xFFFFFFFFFFFFFFFFFFFFFFFFFFFFFFFFFFFFFFFF AND EQ PUSH2 0x1B4C JUMPI PUSH1 0x40 MLOAD PUSH32 0x8C379A000000000000000000000000000000000000000000000000000000000 DUP2 MSTORE PUSH1 0x4 ADD PUSH2 0x1B43 SWAP1 PUSH2 0x2D67 JUMP JUMPDEST PUSH1 0x40 MLOAD DUP1 SWAP2 SUB SWAP1 REVERT JUMPDEST PUSH2 0x1B54 PUSH2 0xCB5 JUMP JUMPDEST PUSH2 0x1B93 JUMPI PUSH1 0x40 MLOAD PUSH32 0x8C379A000000000000000000000000000000000000000000000000000000000 DUP2 MSTORE PUSH1 0x4 ADD PUSH2 0x1B8A SWAP1 PUSH2 0x3028 JUMP JUMPDEST PUSH1 0x40 MLOAD DUP1 SWAP2 SUB SWAP1 REVERT JUMPDEST PUSH1 0x0 PUSH1 0x6 PUSH1 0x0 DUP4 PUSH20 0xFFFFFFFFFFFFFFFFFFFFFFFFFFFFFFFFFFFFFFFF AND PUSH20 0xFFFFFFFFFFFFFFFFFFFFFFFFFFFFFFFFFFFFFFFF AND DUP2 MSTORE PUSH1 0x20 ADD SWAP1 DUP2 MSTORE PUSH1 0x20 ADD PUSH1 0x0 KECCAK256 DUP1 SLOAD PUSH2 0x1BDF SWAP1 PUSH2 0x311D JUMP JUMPDEST DUP1 PUSH1 0x1F ADD PUSH1 0x20 DUP1 SWAP2 DIV MUL PUSH1 0x20 ADD PUSH1 0x40 MLOAD SWAP1 DUP2 ADD PUSH1 0x40 MSTORE DUP1 SWAP3 SWAP2 SWAP1 DUP2 DUP2 MSTORE PUSH1 0x20 ADD DUP3 DUP1 SLOAD PUSH2 0x1C0B SWAP1 PUSH2 0x311D JUMP JUMPDEST DUP1 ISZERO PUSH2 0x1C58 JUMPI DUP1 PUSH1 0x1F LT PUSH2 0x1C2D JUMPI PUSH2 0x100 DUP1 DUP4 SLOAD DIV MUL DUP4 MSTORE SWAP2 PUSH1 0x20 ADD SWAP2 PUSH2 0x1C58 JUMP JUMPDEST DUP3 ADD SWAP2 SWAP1 PUSH1 0x0 MSTORE PUSH1 0x20 PUSH1 0x0 KECCAK256 SWAP1 JUMPDEST DUP2 SLOAD DUP2 MSTORE SWAP1 PUSH1 0x1 ADD SWAP1 PUSH1 0x20 ADD DUP1 DUP4 GT PUSH2 0x1C3B JUMPI DUP3 SWAP1 SUB PUSH1 0x1F AND DUP3 ADD SWAP2 JUMPDEST POP POP POP POP POP SWAP1 POP PUSH1 0xA PUSH1 0x0 SWAP1 SLOAD SWAP1 PUSH2 0x100 EXP SWAP1 DIV PUSH20 0xFFFFFFFFFFFFFFFFFFFFFFFFFFFFFFFFFFFFFFFF AND PUSH20 0xFFFFFFFFFFFFFFFFFFFFFFFFFFFFFFFFFFFFFFFF AND PUSH4 0x7CBFC58F DUP4 DUP4 PUSH1 0x40 MLOAD DUP4 PUSH4 0xFFFFFFFF AND PUSH1 0xE0 SHL DUP2 MSTORE PUSH1 0x4 ADD PUSH2 0x1CBC SWAP3 SWAP2 SWAP1 PUSH2 0x3595 JUMP JUMPDEST PUSH1 0x0 PUSH1 0x40 MLOAD DUP1 DUP4 SUB DUP2 PUSH1 0x0 DUP8 DUP1 EXTCODESIZE ISZERO DUP1 ISZERO PUSH2 0x1CD6 JUMPI PUSH1 0x0 DUP1 REVERT JUMPDEST POP GAS CALL ISZERO DUP1 ISZERO PUSH2 0x1CEA JUMPI RETURNDATASIZE PUSH1 0x0 DUP1 RETURNDATACOPY RETURNDATASIZE PUSH1 0x0 REVERT JUMPDEST POP POP POP POP POP POP JUMP JUMPDEST PUSH1 0x0 DUP1 SLOAD SWAP1 PUSH2 0x100 EXP SWAP1 DIV PUSH20 0xFFFFFFFFFFFFFFFFFFFFFFFFFFFFFFFFFFFFFFFF AND PUSH20 0xFFFFFFFFFFFFFFFFFFFFFFFFFFFFFFFFFFFFFFFF AND CALLER PUSH20 0xFFFFFFFFFFFFFFFFFFFFFFFFFFFFFFFFFFFFFFFF AND EQ PUSH2 0x1D80 JUMPI PUSH1 0x40 MLOAD PUSH32 0x8C379A000000000000000000000000000000000000000000000000000000000 DUP2 MSTORE PUSH1 0x4 ADD PUSH2 0x1D77 SWAP1 PUSH2 0x2D67 JUMP JUMPDEST PUSH1 0x40 MLOAD DUP1 SWAP2 SUB SWAP1 REVERT JUMPDEST PUSH1 0xA PUSH1 0x0 SWAP1 SLOAD SWAP1 PUSH2 0x100 EXP SWAP1 DIV PUSH20 0xFFFFFFFFFFFFFFFFFFFFFFFFFFFFFFFFFFFFFFFF AND PUSH20 0xFFFFFFFFFFFFFFFFFFFFFFFFFFFFFFFFFFFFFFFF AND PUSH4 0x7915C069 DUP3 PUSH1 0x0 DUP1 SLOAD SWAP1 PUSH2 0x100 EXP SWAP1 DIV PUSH20 0xFFFFFFFFFFFFFFFFFFFFFFFFFFFFFFFFFFFFFFFF AND PUSH1 0x9 PUSH1 0x0 SWAP1 SLOAD SWAP1 PUSH2 0x100 EXP SWAP1 DIV PUSH20 0xFFFFFFFFFFFFFFFFFFFFFFFFFFFFFFFFFFFFFFFF AND PUSH1 0x40 MLOAD DUP5 PUSH4 0xFFFFFFFF AND PUSH1 0xE0 SHL DUP2 MSTORE PUSH1 0x4 ADD PUSH2 0x1E21 SWAP4 SWAP3 SWAP2 SWAP1 PUSH2 0x35C5 JUMP JUMPDEST PUSH1 0x0 PUSH1 0x40 MLOAD DUP1 DUP4 SUB DUP2 PUSH1 0x0 DUP8 DUP1 EXTCODESIZE ISZERO DUP1 ISZERO PUSH2 0x1E3B JUMPI PUSH1 0x0 DUP1 REVERT JUMPDEST POP GAS CALL ISZERO DUP1 ISZERO PUSH2 0x1E4F JUMPI RETURNDATASIZE PUSH1 0x0 DUP1 RETURNDATACOPY RETURNDATASIZE PUSH1 0x0 REVERT JUMPDEST POP POP POP POP DUP1 PUSH1 0x1 SWAP1 DUP2 PUSH2 0x1E62 SWAP2 SWAP1 PUSH2 0x33F9 JUMP JUMPDEST POP POP JUMP JUMPDEST PUSH1 0x5 PUSH1 0x20 MSTORE DUP1 PUSH1 0x0 MSTORE PUSH1 0x40 PUSH1 0x0 KECCAK256 PUSH1 0x0 SWAP2 POP SWAP1 POP DUP1 SLOAD PUSH2 0x1E85 SWAP1 PUSH2 0x311D JUMP JUMPDEST DUP1 PUSH1 0x1F ADD PUSH1 0x20 DUP1 SWAP2 DIV MUL PUSH1 0x20 ADD PUSH1 0x40 MLOAD SWAP1 DUP2 ADD PUSH1 0x40 MSTORE DUP1 SWAP3 SWAP2 SWAP1 DUP2 DUP2 MSTORE PUSH1 0x20 ADD DUP3 DUP1 SLOAD PUSH2 0x1EB1 SWAP1 PUSH2 0x311D JUMP JUMPDEST DUP1 ISZERO PUSH2 0x1EFE JUMPI DUP1 PUSH1 0x1F LT PUSH2 0x1ED3 JUMPI PUSH2 0x100 DUP1 DUP4 SLOAD DIV MUL DUP4 MSTORE SWAP2 PUSH1 0x20 ADD SWAP2 PUSH2 0x1EFE JUMP JUMPDEST DUP3 ADD SWAP2 SWAP1 PUSH1 0x0 MSTORE PUSH1 0x20 PUSH1 0x0 KECCAK256 SWAP1 JUMPDEST DUP2 SLOAD DUP2 MSTORE SWAP1 PUSH1 0x1 ADD SWAP1 PUSH1 0x20 ADD DUP1 DUP4 GT PUSH2 0x1EE1 JUMPI DUP3 SWAP1 SUB PUSH1 0x1F AND DUP3 ADD SWAP2 JUMPDEST POP POP POP POP POP DUP2 JUMP JUMPDEST PUSH2 0x1F0E PUSH2 0xCB5 JUMP JUMPDEST PUSH2 0x1F4D JUMPI PUSH1 0x40 MLOAD PUSH32 0x8C379A000000000000000000000000000000000000000000000000000000000 DUP2 MSTORE PUSH1 0x4 ADD PUSH2 0x1F44 SWAP1 PUSH2 0x3028 JUMP JUMPDEST PUSH1 0x40 MLOAD DUP1 SWAP2 SUB SWAP1 REVERT JUMPDEST PUSH1 0x8 DUP2 SWAP1 DUP1 PUSH1 0x1 DUP2 SLOAD ADD DUP1 DUP3 SSTORE DUP1 SWAP2 POP POP PUSH1 0x1 SWAP1 SUB SWAP1 PUSH1 0x0 MSTORE PUSH1 0x20 PUSH1 0x0 KECCAK256 ADD PUSH1 0x0 SWAP1 SWAP2 SWAP1 SWAP2 SWAP1 SWAP2 POP SWAP1 DUP2 PUSH2 0x1F81 SWAP2 SWAP1 PUSH2 0x33F9 JUMP JUMPDEST POP POP JUMP JUMPDEST PUSH1 0x0 DUP1 SLOAD SWAP1 PUSH2 0x100 EXP SWAP1 DIV PUSH20 0xFFFFFFFFFFFFFFFFFFFFFFFFFFFFFFFFFFFFFFFF AND PUSH20 0xFFFFFFFFFFFFFFFFFFFFFFFFFFFFFFFFFFFFFFFF AND CALLER PUSH20 0xFFFFFFFFFFFFFFFFFFFFFFFFFFFFFFFFFFFFFFFF AND EQ PUSH2 0x2013 JUMPI PUSH1 0x40 MLOAD PUSH32 0x8C379A000000000000000000000000000000000000000000000000000000000 DUP2 MSTORE PUSH1 0x4 ADD PUSH2 0x200A SWAP1 PUSH2 0x2D67 JUMP JUMPDEST PUSH1 0x40 MLOAD DUP1 SWAP2 SUB SWAP1 REVERT JUMPDEST PUSH2 0x201B PUSH2 0xCB5 JUMP JUMPDEST PUSH2 0x205A JUMPI PUSH1 0x40 MLOAD PUSH32 0x8C379A000000000000000000000000000000000000000000000000000000000 DUP2 MSTORE PUSH1 0x4 ADD PUSH2 0x2051 SWAP1 PUSH2 0x3028 JUMP JUMPDEST PUSH1 0x40 MLOAD DUP1 SWAP2 SUB SWAP1 REVERT JUMPDEST PUSH1 0x0 JUMPDEST PUSH1 0x2 DUP1 SLOAD SWAP1 POP DUP2 LT ISZERO PUSH2 0x2170 JUMPI PUSH1 0x0 PUSH1 0x2 DUP3 DUP2 SLOAD DUP2 LT PUSH2 0x2080 JUMPI PUSH2 0x207F PUSH2 0x3048 JUMP JUMPDEST JUMPDEST SWAP1 PUSH1 0x0 MSTORE PUSH1 0x20 PUSH1 0x0 KECCAK256 ADD PUSH1 0x0 SWAP1 SLOAD SWAP1 PUSH2 0x100 EXP SWAP1 DIV PUSH20 0xFFFFFFFFFFFFFFFFFFFFFFFFFFFFFFFFFFFFFFFF AND SWAP1 POP PUSH1 0xA PUSH1 0x0 SWAP1 SLOAD SWAP1 PUSH2 0x100 EXP SWAP1 DIV PUSH20 0xFFFFFFFFFFFFFFFFFFFFFFFFFFFFFFFFFFFFFFFF AND PUSH20 0xFFFFFFFFFFFFFFFFFFFFFFFFFFFFFFFFFFFFFFFF AND PUSH4 0x6E8548BB PUSH1 0x0 DUP1 SLOAD SWAP1 PUSH2 0x100 EXP SWAP1 DIV PUSH20 0xFFFFFFFFFFFFFFFFFFFFFFFFFFFFFFFFFFFFFFFF AND DUP4 PUSH1 0x40 MLOAD DUP4 PUSH4 0xFFFFFFFF AND PUSH1 0xE0 SHL DUP2 MSTORE PUSH1 0x4 ADD PUSH2 0x212A SWAP3 SWAP2 SWAP1 PUSH2 0x3603 JUMP JUMPDEST PUSH1 0x0 PUSH1 0x40 MLOAD DUP1 DUP4 SUB DUP2 PUSH1 0x0 DUP8 DUP1 EXTCODESIZE ISZERO DUP1 ISZERO PUSH2 0x2144 JUMPI PUSH1 0x0 DUP1 REVERT JUMPDEST POP GAS CALL ISZERO DUP1 ISZERO PUSH2 0x2158 JUMPI RETURNDATASIZE PUSH1 0x0 DUP1 RETURNDATACOPY RETURNDATASIZE PUSH1 0x0 REVERT JUMPDEST POP POP POP POP POP DUP1 DUP1 PUSH2 0x2168 SWAP1 PUSH2 0x30A6 JUMP JUMPDEST SWAP2 POP POP PUSH2 0x205D JUMP JUMPDEST POP JUMP JUMPDEST PUSH1 0x0 DUP1 SLOAD SWAP1 PUSH2 0x100 EXP SWAP1 DIV PUSH20 0xFFFFFFFFFFFFFFFFFFFFFFFFFFFFFFFFFFFFFFFF AND PUSH20 0xFFFFFFFFFFFFFFFFFFFFFFFFFFFFFFFFFFFFFFFF AND CALLER PUSH20 0xFFFFFFFFFFFFFFFFFFFFFFFFFFFFFFFFFFFFFFFF AND EQ PUSH2 0x2201 JUMPI PUSH1 0x40 MLOAD PUSH32 0x8C379A000000000000000000000000000000000000000000000000000000000 DUP2 MSTORE PUSH1 0x4 ADD PUSH2 0x21F8 SWAP1 PUSH2 0x2D67 JUMP JUMPDEST PUSH1 0x40 MLOAD DUP1 SWAP2 SUB SWAP1 REVERT JUMPDEST PUSH2 0x2209 PUSH2 0xCB5 JUMP JUMPDEST PUSH2 0x2248 JUMPI PUSH1 0x40 MLOAD PUSH32 0x8C379A000000000000000000000000000000000000000000000000000000000 DUP2 MSTORE PUSH1 0x4 ADD PUSH2 0x223F SWAP1 PUSH2 0x3028 JUMP JUMPDEST PUSH1 0x40 MLOAD DUP1 SWAP2 SUB SWAP1 REVERT JUMPDEST PUSH1 0x3 DUP1 SLOAD SWAP1 POP PUSH1 0x4 DUP1 SLOAD SWAP1 POP GT ISZERO PUSH2 0x2295 JUMPI PUSH1 0x40 MLOAD PUSH32 0x8C379A000000000000000000000000000000000000000000000000000000000 DUP2 MSTORE PUSH1 0x4 ADD PUSH2 0x228C SWAP1 PUSH2 0x3678 JUMP JUMPDEST PUSH1 0x40 MLOAD DUP1 SWAP2 SUB SWAP1 REVERT JUMPDEST PUSH1 0x3 DUP1 SLOAD SWAP1 POP PUSH1 0x4 DUP1 SLOAD SWAP1 POP GT PUSH2 0x247F JUMPI PUSH1 0x0 JUMPDEST PUSH1 0x4 DUP1 SLOAD SWAP1 POP DUP2 LT ISZERO PUSH2 0x247D JUMPI PUSH1 0x4 DUP2 DUP2 SLOAD DUP2 LT PUSH2 0x22CA JUMPI PUSH2 0x22C9 PUSH2 0x3048 JUMP JUMPDEST JUMPDEST SWAP1 PUSH1 0x0 MSTORE PUSH1 0x20 PUSH1 0x0 KECCAK256 ADD PUSH1 0x5 PUSH1 0x0 PUSH1 0x3 DUP5 DUP2 SLOAD DUP2 LT PUSH2 0x22EC JUMPI PUSH2 0x22EB PUSH2 0x3048 JUMP JUMPDEST JUMPDEST SWAP1 PUSH1 0x0 MSTORE PUSH1 0x20 PUSH1 0x0 KECCAK256 ADD PUSH1 0x0 SWAP1 SLOAD SWAP1 PUSH2 0x100 EXP SWAP1 DIV PUSH20 0xFFFFFFFFFFFFFFFFFFFFFFFFFFFFFFFFFFFFFFFF AND PUSH20 0xFFFFFFFFFFFFFFFFFFFFFFFFFFFFFFFFFFFFFFFF AND PUSH20 0xFFFFFFFFFFFFFFFFFFFFFFFFFFFFFFFFFFFFFFFF AND DUP2 MSTORE PUSH1 0x20 ADD SWAP1 DUP2 MSTORE PUSH1 0x20 ADD PUSH1 0x0 KECCAK256 SWAP1 DUP2 PUSH2 0x235D SWAP2 SWAP1 PUSH2 0x36C3 JUMP JUMPDEST POP PUSH1 0xA PUSH1 0x0 SWAP1 SLOAD SWAP1 PUSH2 0x100 EXP SWAP1 DIV PUSH20 0xFFFFFFFFFFFFFFFFFFFFFFFFFFFFFFFFFFFFFFFF AND PUSH20 0xFFFFFFFFFFFFFFFFFFFFFFFFFFFFFFFFFFFFFFFF AND PUSH4 0xCC2F22F1 PUSH1 0x0 DUP1 SLOAD SWAP1 PUSH2 0x100 EXP SWAP1 DIV PUSH20 0xFFFFFFFFFFFFFFFFFFFFFFFFFFFFFFFFFFFFFFFF AND PUSH1 0x3 DUP5 DUP2 SLOAD DUP2 LT PUSH2 0x23D1 JUMPI PUSH2 0x23D0 PUSH2 0x3048 JUMP JUMPDEST JUMPDEST SWAP1 PUSH1 0x0 MSTORE PUSH1 0x20 PUSH1 0x0 KECCAK256 ADD PUSH1 0x0 SWAP1 SLOAD SWAP1 PUSH2 0x100 EXP SWAP1 DIV PUSH20 0xFFFFFFFFFFFFFFFFFFFFFFFFFFFFFFFFFFFFFFFF AND PUSH1 0x4 DUP6 DUP2 SLOAD DUP2 LT PUSH2 0x2410 JUMPI PUSH2 0x240F PUSH2 0x3048 JUMP JUMPDEST JUMPDEST SWAP1 PUSH1 0x0 MSTORE PUSH1 0x20 PUSH1 0x0 KECCAK256 ADD PUSH1 0x40 MLOAD DUP5 PUSH4 0xFFFFFFFF AND PUSH1 0xE0 SHL DUP2 MSTORE PUSH1 0x4 ADD PUSH2 0x2438 SWAP4 SWAP3 SWAP2 SWAP1 PUSH2 0x37AB JUMP JUMPDEST PUSH1 0x0 PUSH1 0x40 MLOAD DUP1 DUP4 SUB DUP2 PUSH1 0x0 DUP8 DUP1 EXTCODESIZE ISZERO DUP1 ISZERO PUSH2 0x2452 JUMPI PUSH1 0x0 DUP1 REVERT JUMPDEST POP GAS CALL ISZERO DUP1 ISZERO PUSH2 0x2466 JUMPI RETURNDATASIZE PUSH1 0x0 DUP1 RETURNDATACOPY RETURNDATASIZE PUSH1 0x0 REVERT JUMPDEST POP POP POP POP DUP1 DUP1 PUSH2 0x2475 SWAP1 PUSH2 0x30A6 JUMP JUMPDEST SWAP2 POP POP PUSH2 0x22A9 JUMP JUMPDEST POP JUMPDEST JUMP JUMPDEST DUP3 DUP1 SLOAD DUP3 DUP3 SSTORE SWAP1 PUSH1 0x0 MSTORE PUSH1 0x20 PUSH1 0x0 KECCAK256 SWAP1 DUP2 ADD SWAP3 DUP3 ISZERO PUSH2 0x24C9 JUMPI SWAP2 PUSH1 0x20 MUL DUP3 ADD JUMPDEST DUP3 DUP2 GT ISZERO PUSH2 0x24C8 JUMPI DUP3 MLOAD DUP3 SWAP1 DUP2 PUSH2 0x24B8 SWAP2 SWAP1 PUSH2 0x33F9 JUMP JUMPDEST POP SWAP2 PUSH1 0x20 ADD SWAP2 SWAP1 PUSH1 0x1 ADD SWAP1 PUSH2 0x24A1 JUMP JUMPDEST JUMPDEST POP SWAP1 POP PUSH2 0x24D6 SWAP2 SWAP1 PUSH2 0x24DA JUMP JUMPDEST POP SWAP1 JUMP JUMPDEST JUMPDEST DUP1 DUP3 GT ISZERO PUSH2 0x24FA JUMPI PUSH1 0x0 DUP2 DUP2 PUSH2 0x24F1 SWAP2 SWAP1 PUSH2 0x24FE JUMP JUMPDEST POP PUSH1 0x1 ADD PUSH2 0x24DB JUMP JUMPDEST POP SWAP1 JUMP JUMPDEST POP DUP1 SLOAD PUSH2 0x250A SWAP1 PUSH2 0x311D JUMP JUMPDEST PUSH1 0x0 DUP3 SSTORE DUP1 PUSH1 0x1F LT PUSH2 0x251C JUMPI POP PUSH2 0x253B JUMP JUMPDEST PUSH1 0x1F ADD PUSH1 0x20 SWAP1 DIV SWAP1 PUSH1 0x0 MSTORE PUSH1 0x20 PUSH1 0x0 KECCAK256 SWAP1 DUP2 ADD SWAP1 PUSH2 0x253A SWAP2 SWAP1 PUSH2 0x253E JUMP JUMPDEST JUMPDEST POP JUMP JUMPDEST JUMPDEST DUP1 DUP3 GT ISZERO PUSH2 0x2557 JUMPI PUSH1 0x0 DUP2 PUSH1 0x0 SWAP1 SSTORE POP PUSH1 0x1 ADD PUSH2 0x253F JUMP JUMPDEST POP SWAP1 JUMP JUMPDEST PUSH1 0x0 DUP2 MLOAD SWAP1 POP SWAP2 SWAP1 POP JUMP JUMPDEST PUSH1 0x0 DUP3 DUP3 MSTORE PUSH1 0x20 DUP3 ADD SWAP1 POP SWAP3 SWAP2 POP POP JUMP JUMPDEST PUSH1 0x0 DUP2 SWAP1 POP PUSH1 0x20 DUP3 ADD SWAP1 POP SWAP2 SWAP1 POP JUMP JUMPDEST PUSH1 0x0 PUSH20 0xFFFFFFFFFFFFFFFFFFFFFFFFFFFFFFFFFFFFFFFF DUP3 AND SWAP1 POP SWAP2 SWAP1 POP JUMP JUMPDEST PUSH1 0x0 PUSH2 0x25B2 DUP3 PUSH2 0x2587 JUMP JUMPDEST SWAP1 POP SWAP2 SWAP1 POP JUMP JUMPDEST PUSH2 0x25C2 DUP2 PUSH2 0x25A7 JUMP JUMPDEST DUP3 MSTORE POP POP JUMP JUMPDEST PUSH1 0x0 PUSH2 0x25D4 DUP4 DUP4 PUSH2 0x25B9 JUMP JUMPDEST PUSH1 0x20 DUP4 ADD SWAP1 POP SWAP3 SWAP2 POP POP JUMP JUMPDEST PUSH1 0x0 PUSH1 0x20 DUP3 ADD SWAP1 POP SWAP2 SWAP1 POP JUMP JUMPDEST PUSH1 0x0 PUSH2 0x25F8 DUP3 PUSH2 0x255B JUMP JUMPDEST PUSH2 0x2602 DUP2 DUP6 PUSH2 0x2566 JUMP JUMPDEST SWAP4 POP PUSH2 0x260D DUP4 PUSH2 0x2577 JUMP JUMPDEST DUP1 PUSH1 0x0 JUMPDEST DUP4 DUP2 LT ISZERO PUSH2 0x263E JUMPI DUP2 MLOAD PUSH2 0x2625 DUP9 DUP3 PUSH2 0x25C8 JUMP JUMPDEST SWAP8 POP PUSH2 0x2630 DUP4 PUSH2 0x25E0 JUMP JUMPDEST SWAP3 POP POP PUSH1 0x1 DUP2 ADD SWAP1 POP PUSH2 0x2611 JUMP JUMPDEST POP DUP6 SWAP4 POP POP POP POP SWAP3 SWAP2 POP POP JUMP JUMPDEST PUSH1 0x0 PUSH1 0x20 DUP3 ADD SWAP1 POP DUP2 DUP2 SUB PUSH1 0x0 DUP4 ADD MSTORE PUSH2 0x2665 DUP2 DUP5 PUSH2 0x25ED JUMP JUMPDEST SWAP1 POP SWAP3 SWAP2 POP POP JUMP JUMPDEST PUSH1 0x0 DUP2 MLOAD SWAP1 POP SWAP2 SWAP1 POP JUMP JUMPDEST PUSH1 0x0 DUP3 DUP3 MSTORE PUSH1 0x20 DUP3 ADD SWAP1 POP SWAP3 SWAP2 POP POP JUMP JUMPDEST PUSH1 0x0 DUP2 SWAP1 POP PUSH1 0x20 DUP3 ADD SWAP1 POP SWAP2 SWAP1 POP JUMP JUMPDEST PUSH1 0x0 DUP2 MLOAD SWAP1 POP SWAP2 SWAP1 POP JUMP JUMPDEST PUSH1 0x0 DUP3 DUP3 MSTORE PUSH1 0x20 DUP3 ADD SWAP1 POP SWAP3 SWAP2 POP POP JUMP JUMPDEST PUSH1 0x0 JUMPDEST DUP4 DUP2 LT ISZERO PUSH2 0x26D3 JUMPI DUP1 DUP3 ADD MLOAD DUP2 DUP5 ADD MSTORE PUSH1 0x20 DUP2 ADD SWAP1 POP PUSH2 0x26B8 JUMP JUMPDEST PUSH1 0x0 DUP5 DUP5 ADD MSTORE POP POP POP POP JUMP JUMPDEST PUSH1 0x0 PUSH1 0x1F NOT PUSH1 0x1F DUP4 ADD AND SWAP1 POP SWAP2 SWAP1 POP JUMP JUMPDEST PUSH1 0x0 PUSH2 0x26FB DUP3 PUSH2 0x2699 JUMP JUMPDEST PUSH2 0x2705 DUP2 DUP6 PUSH2 0x26A4 JUMP JUMPDEST SWAP4 POP PUSH2 0x2715 DUP2 DUP6 PUSH1 0x20 DUP7 ADD PUSH2 0x26B5 JUMP JUMPDEST PUSH2 0x271E DUP2 PUSH2 0x26DF JUMP JUMPDEST DUP5 ADD SWAP2 POP POP SWAP3 SWAP2 POP POP JUMP JUMPDEST PUSH1 0x0 PUSH2 0x2735 DUP4 DUP4 PUSH2 0x26F0 JUMP JUMPDEST SWAP1 POP SWAP3 SWAP2 POP POP JUMP JUMPDEST PUSH1 0x0 PUSH1 0x20 DUP3 ADD SWAP1 POP SWAP2 SWAP1 POP JUMP JUMPDEST PUSH1 0x0 PUSH2 0x2755 DUP3 PUSH2 0x266D JUMP JUMPDEST PUSH2 0x275F DUP2 DUP6 PUSH2 0x2678 JUMP JUMPDEST SWAP4 POP DUP4 PUSH1 0x20 DUP3 MUL DUP6 ADD PUSH2 0x2771 DUP6 PUSH2 0x2689 JUMP JUMPDEST DUP1 PUSH1 0x0 JUMPDEST DUP6 DUP2 LT ISZERO PUSH2 0x27AD JUMPI DUP5 DUP5 SUB DUP10 MSTORE DUP2 MLOAD PUSH2 0x278E DUP6 DUP3 PUSH2 0x2729 JUMP JUMPDEST SWAP5 POP PUSH2 0x2799 DUP4 PUSH2 0x273D JUMP JUMPDEST SWAP3 POP PUSH1 0x20 DUP11 ADD SWAP10 POP POP PUSH1 0x1 DUP2 ADD SWAP1 POP PUSH2 0x2775 JUMP JUMPDEST POP DUP3 SWAP8 POP DUP8 SWAP6 POP POP POP POP POP POP SWAP3 SWAP2 POP POP JUMP JUMPDEST PUSH1 0x0 PUSH1 0x20 DUP3 ADD SWAP1 POP DUP2 DUP2 SUB PUSH1 0x0 DUP4 ADD MSTORE PUSH2 0x27D9 DUP2 DUP5 PUSH2 0x274A JUMP JUMPDEST SWAP1 POP SWAP3 SWAP2 POP POP JUMP JUMPDEST PUSH1 0x0 PUSH1 0x40 MLOAD SWAP1 POP SWAP1 JUMP JUMPDEST PUSH1 0x0 DUP1 REVERT JUMPDEST PUSH1 0x0 DUP1 REVERT JUMPDEST PUSH2 0x27FE DUP2 PUSH2 0x25A7 JUMP JUMPDEST DUP2 EQ PUSH2 0x2809 JUMPI PUSH1 0x0 DUP1 REVERT JUMPDEST POP JUMP JUMPDEST PUSH1 0x0 DUP2 CALLDATALOAD SWAP1 POP PUSH2 0x281B DUP2 PUSH2 0x27F5 JUMP JUMPDEST SWAP3 SWAP2 POP POP JUMP JUMPDEST PUSH1 0x0 PUSH1 0x20 DUP3 DUP5 SUB SLT ISZERO PUSH2 0x2837 JUMPI PUSH2 0x2836 PUSH2 0x27EB JUMP JUMPDEST JUMPDEST PUSH1 0x0 PUSH2 0x2845 DUP5 DUP3 DUP6 ADD PUSH2 0x280C JUMP JUMPDEST SWAP2 POP POP SWAP3 SWAP2 POP POP JUMP JUMPDEST PUSH1 0x0 DUP3 DUP3 MSTORE PUSH1 0x20 DUP3 ADD SWAP1 POP SWAP3 SWAP2 POP POP JUMP JUMPDEST PUSH1 0x0 PUSH2 0x286A DUP3 PUSH2 0x2699 JUMP JUMPDEST PUSH2 0x2874 DUP2 DUP6 PUSH2 0x284E JUMP JUMPDEST SWAP4 POP PUSH2 0x2884 DUP2 DUP6 PUSH1 0x20 DUP7 ADD PUSH2 0x26B5 JUMP JUMPDEST PUSH2 0x288D DUP2 PUSH2 0x26DF JUMP JUMPDEST DUP5 ADD SWAP2 POP POP SWAP3 SWAP2 POP POP JUMP JUMPDEST PUSH1 0x0 PUSH1 0x20 DUP3 ADD SWAP1 POP DUP2 DUP2 SUB PUSH1 0x0 DUP4 ADD MSTORE PUSH2 0x28B2 DUP2 DUP5 PUSH2 0x285F JUMP JUMPDEST SWAP1 POP SWAP3 SWAP2 POP POP JUMP JUMPDEST PUSH1 0x0 DUP2 ISZERO ISZERO SWAP1 POP SWAP2 SWAP1 POP JUMP JUMPDEST PUSH2 0x28CF DUP2 PUSH2 0x28BA JUMP JUMPDEST DUP3 MSTORE POP POP JUMP JUMPDEST PUSH1 0x0 PUSH1 0x20 DUP3 ADD SWAP1 POP PUSH2 0x28EA PUSH1 0x0 DUP4 ADD DUP5 PUSH2 0x28C6 JUMP JUMPDEST SWAP3 SWAP2 POP POP JUMP JUMPDEST PUSH1 0x0 DUP2 SWAP1 POP SWAP2 SWAP1 POP JUMP JUMPDEST PUSH2 0x2903 DUP2 PUSH2 0x28F0 JUMP JUMPDEST DUP2 EQ PUSH2 0x290E JUMPI PUSH1 0x0 DUP1 REVERT JUMPDEST POP JUMP JUMPDEST PUSH1 0x0 DUP2 CALLDATALOAD SWAP1 POP PUSH2 0x2920 DUP2 PUSH2 0x28FA JUMP JUMPDEST SWAP3 SWAP2 POP POP JUMP JUMPDEST PUSH1 0x0 PUSH1 0x20 DUP3 DUP5 SUB SLT ISZERO PUSH2 0x293C JUMPI PUSH2 0x293B PUSH2 0x27EB JUMP JUMPDEST JUMPDEST PUSH1 0x0 PUSH2 0x294A DUP5 DUP3 DUP6 ADD PUSH2 0x2911 JUMP JUMPDEST SWAP2 POP POP SWAP3 SWAP2 POP POP JUMP JUMPDEST PUSH2 0x295C DUP2 PUSH2 0x25A7 JUMP JUMPDEST DUP3 MSTORE POP POP JUMP JUMPDEST PUSH1 0x0 PUSH1 0x20 DUP3 ADD SWAP1 POP PUSH2 0x2977 PUSH1 0x0 DUP4 ADD DUP5 PUSH2 0x2953 JUMP JUMPDEST SWAP3 SWAP2 POP POP JUMP JUMPDEST PUSH1 0x0 DUP1 REVERT JUMPDEST PUSH1 0x0 DUP1 REVERT JUMPDEST PUSH32 0x4E487B7100000000000000000000000000000000000000000000000000000000 PUSH1 0x0 MSTORE PUSH1 0x41 PUSH1 0x4 MSTORE PUSH1 0x24 PUSH1 0x0 REVERT JUMPDEST PUSH2 0x29BF DUP3 PUSH2 0x26DF JUMP JUMPDEST DUP2 ADD DUP2 DUP2 LT PUSH8 0xFFFFFFFFFFFFFFFF DUP3 GT OR ISZERO PUSH2 0x29DE JUMPI PUSH2 0x29DD PUSH2 0x2987 JUMP JUMPDEST JUMPDEST DUP1 PUSH1 0x40 MSTORE POP POP POP JUMP JUMPDEST PUSH1 0x0 PUSH2 0x29F1 PUSH2 0x27E1 JUMP JUMPDEST SWAP1 POP PUSH2 0x29FD DUP3 DUP3 PUSH2 0x29B6 JUMP JUMPDEST SWAP2 SWAP1 POP JUMP JUMPDEST PUSH1 0x0 PUSH8 0xFFFFFFFFFFFFFFFF DUP3 GT ISZERO PUSH2 0x2A1D JUMPI PUSH2 0x2A1C PUSH2 0x2987 JUMP JUMPDEST JUMPDEST PUSH2 0x2A26 DUP3 PUSH2 0x26DF JUMP JUMPDEST SWAP1 POP PUSH1 0x20 DUP2 ADD SWAP1 POP SWAP2 SWAP1 POP JUMP JUMPDEST DUP3 DUP2 DUP4 CALLDATACOPY PUSH1 0x0 DUP4 DUP4 ADD MSTORE POP POP POP JUMP JUMPDEST PUSH1 0x0 PUSH2 0x2A55 PUSH2 0x2A50 DUP5 PUSH2 0x2A02 JUMP JUMPDEST PUSH2 0x29E7 JUMP JUMPDEST SWAP1 POP DUP3 DUP2 MSTORE PUSH1 0x20 DUP2 ADD DUP5 DUP5 DUP5 ADD GT ISZERO PUSH2 0x2A71 JUMPI PUSH2 0x2A70 PUSH2 0x2982 JUMP JUMPDEST JUMPDEST PUSH2 0x2A7C DUP5 DUP3 DUP6 PUSH2 0x2A33 JUMP JUMPDEST POP SWAP4 SWAP3 POP POP POP JUMP JUMPDEST PUSH1 0x0 DUP3 PUSH1 0x1F DUP4 ADD SLT PUSH2 0x2A99 JUMPI PUSH2 0x2A98 PUSH2 0x297D JUMP JUMPDEST JUMPDEST DUP2 CALLDATALOAD PUSH2 0x2AA9 DUP5 DUP3 PUSH1 0x20 DUP7 ADD PUSH2 0x2A42 JUMP JUMPDEST SWAP2 POP POP SWAP3 SWAP2 POP POP JUMP JUMPDEST PUSH1 0x0 DUP1 PUSH1 0x40 DUP4 DUP6 SUB SLT ISZERO PUSH2 0x2AC9 JUMPI PUSH2 0x2AC8 PUSH2 0x27EB JUMP JUMPDEST JUMPDEST PUSH1 0x0 PUSH2 0x2AD7 DUP6 DUP3 DUP7 ADD PUSH2 0x280C JUMP JUMPDEST SWAP3 POP POP PUSH1 0x20 DUP4 ADD CALLDATALOAD PUSH8 0xFFFFFFFFFFFFFFFF DUP2 GT ISZERO PUSH2 0x2AF8 JUMPI PUSH2 0x2AF7 PUSH2 0x27F0 JUMP JUMPDEST JUMPDEST PUSH2 0x2B04 DUP6 DUP3 DUP7 ADD PUSH2 0x2A84 JUMP JUMPDEST SWAP2 POP POP SWAP3 POP SWAP3 SWAP1 POP JUMP JUMPDEST PUSH1 0x0 PUSH2 0x2B19 DUP3 PUSH2 0x2587 JUMP JUMPDEST SWAP1 POP SWAP2 SWAP1 POP JUMP JUMPDEST PUSH2 0x2B29 DUP2 PUSH2 0x2B0E JUMP JUMPDEST DUP2 EQ PUSH2 0x2B34 JUMPI PUSH1 0x0 DUP1 REVERT JUMPDEST POP JUMP JUMPDEST PUSH1 0x0 DUP2 CALLDATALOAD SWAP1 POP PUSH2 0x2B46 DUP2 PUSH2 0x2B20 JUMP JUMPDEST SWAP3 SWAP2 POP POP JUMP JUMPDEST PUSH1 0x0 PUSH1 0x20 DUP3 DUP5 SUB SLT ISZERO PUSH2 0x2B62 JUMPI PUSH2 0x2B61 PUSH2 0x27EB JUMP JUMPDEST JUMPDEST PUSH1 0x0 PUSH2 0x2B70 DUP5 DUP3 DUP6 ADD PUSH2 0x2B37 JUMP JUMPDEST SWAP2 POP POP SWAP3 SWAP2 POP POP JUMP JUMPDEST PUSH1 0x0 PUSH1 0x20 DUP3 DUP5 SUB SLT ISZERO PUSH2 0x2B8F JUMPI PUSH2 0x2B8E PUSH2 0x27EB JUMP JUMPDEST JUMPDEST PUSH1 0x0 DUP3 ADD CALLDATALOAD PUSH8 0xFFFFFFFFFFFFFFFF DUP2 GT ISZERO PUSH2 0x2BAD JUMPI PUSH2 0x2BAC PUSH2 0x27F0 JUMP JUMPDEST JUMPDEST PUSH2 0x2BB9 DUP5 DUP3 DUP6 ADD PUSH2 0x2A84 JUMP JUMPDEST SWAP2 POP POP SWAP3 SWAP2 POP POP JUMP JUMPDEST PUSH2 0x2BCB DUP2 PUSH2 0x2B0E JUMP JUMPDEST DUP3 MSTORE POP POP JUMP JUMPDEST PUSH1 0x0 PUSH1 0x20 DUP3 ADD SWAP1 POP PUSH2 0x2BE6 PUSH1 0x0 DUP4 ADD DUP5 PUSH2 0x2BC2 JUMP JUMPDEST SWAP3 SWAP2 POP POP JUMP JUMPDEST PUSH1 0x0 PUSH8 0xFFFFFFFFFFFFFFFF DUP3 GT ISZERO PUSH2 0x2C07 JUMPI PUSH2 0x2C06 PUSH2 0x2987 JUMP JUMPDEST JUMPDEST PUSH1 0x20 DUP3 MUL SWAP1 POP PUSH1 0x20 DUP2 ADD SWAP1 POP SWAP2 SWAP1 POP JUMP JUMPDEST PUSH1 0x0 DUP1 REVERT JUMPDEST PUSH1 0x0 PUSH2 0x2C30 PUSH2 0x2C2B DUP5 PUSH2 0x2BEC JUMP JUMPDEST PUSH2 0x29E7 JUMP JUMPDEST SWAP1 POP DUP1 DUP4 DUP3 MSTORE PUSH1 0x20 DUP3 ADD SWAP1 POP PUSH1 0x20 DUP5 MUL DUP4 ADD DUP6 DUP2 GT ISZERO PUSH2 0x2C53 JUMPI PUSH2 0x2C52 PUSH2 0x2C18 JUMP JUMPDEST JUMPDEST DUP4 JUMPDEST DUP2 DUP2 LT ISZERO PUSH2 0x2C9A JUMPI DUP1 CALLDATALOAD PUSH8 0xFFFFFFFFFFFFFFFF DUP2 GT ISZERO PUSH2 0x2C78 JUMPI PUSH2 0x2C77 PUSH2 0x297D JUMP JUMPDEST JUMPDEST DUP1 DUP7 ADD PUSH2 0x2C85 DUP10 DUP3 PUSH2 0x2A84 JUMP JUMPDEST DUP6 MSTORE PUSH1 0x20 DUP6 ADD SWAP5 POP POP POP PUSH1 0x20 DUP2 ADD SWAP1 POP PUSH2 0x2C55 JUMP JUMPDEST POP POP POP SWAP4 SWAP3 POP POP POP JUMP JUMPDEST PUSH1 0x0 DUP3 PUSH1 0x1F DUP4 ADD SLT PUSH2 0x2CB9 JUMPI PUSH2 0x2CB8 PUSH2 0x297D JUMP JUMPDEST JUMPDEST DUP2 CALLDATALOAD PUSH2 0x2CC9 DUP5 DUP3 PUSH1 0x20 DUP7 ADD PUSH2 0x2C1D JUMP JUMPDEST SWAP2 POP POP SWAP3 SWAP2 POP POP JUMP JUMPDEST PUSH1 0x0 PUSH1 0x20 DUP3 DUP5 SUB SLT ISZERO PUSH2 0x2CE8 JUMPI PUSH2 0x2CE7 PUSH2 0x27EB JUMP JUMPDEST JUMPDEST PUSH1 0x0 DUP3 ADD CALLDATALOAD PUSH8 0xFFFFFFFFFFFFFFFF DUP2 GT ISZERO PUSH2 0x2D06 JUMPI PUSH2 0x2D05 PUSH2 0x27F0 JUMP JUMPDEST JUMPDEST PUSH2 0x2D12 DUP5 DUP3 DUP6 ADD PUSH2 0x2CA4 JUMP JUMPDEST SWAP2 POP POP SWAP3 SWAP2 POP POP JUMP JUMPDEST PUSH32 0x4F6E6C79206F776E657220686173207468652070726976696C65676500000000 PUSH1 0x0 DUP3 ADD MSTORE POP JUMP JUMPDEST PUSH1 0x0 PUSH2 0x2D51 PUSH1 0x1C DUP4 PUSH2 0x284E JUMP JUMPDEST SWAP2 POP PUSH2 0x2D5C DUP3 PUSH2 0x2D1B JUMP JUMPDEST PUSH1 0x20 DUP3 ADD SWAP1 POP SWAP2 SWAP1 POP JUMP JUMPDEST PUSH1 0x0 PUSH1 0x20 DUP3 ADD SWAP1 POP DUP2 DUP2 SUB PUSH1 0x0 DUP4 ADD MSTORE PUSH2 0x2D80 DUP2 PUSH2 0x2D44 JUMP JUMPDEST SWAP1 POP SWAP2 SWAP1 POP JUMP JUMPDEST PUSH1 0x0 DUP2 SLOAD SWAP1 POP SWAP2 SWAP1 POP JUMP JUMPDEST PUSH1 0x0 DUP2 SWAP1 POP DUP2 PUSH1 0x0 MSTORE PUSH1 0x20 PUSH1 0x0 KECCAK256 SWAP1 POP SWAP2 SWAP1 POP JUMP JUMPDEST PUSH1 0x0 DUP2 PUSH1 0x0 SHR SWAP1 POP SWAP2 SWAP1 POP JUMP JUMPDEST PUSH1 0x0 PUSH20 0xFFFFFFFFFFFFFFFFFFFFFFFFFFFFFFFFFFFFFFFF DUP3 AND SWAP1 POP SWAP2 SWAP1 POP JUMP JUMPDEST PUSH1 0x0 PUSH2 0x2DE7 PUSH2 0x2DE2 DUP4 PUSH2 0x2DA7 JUMP JUMPDEST PUSH2 0x2DB4 JUMP JUMPDEST SWAP1 POP SWAP2 SWAP1 POP JUMP JUMPDEST PUSH1 0x0 PUSH2 0x2DFA DUP3 SLOAD PUSH2 0x2DD4 JUMP JUMPDEST SWAP1 POP SWAP2 SWAP1 POP JUMP JUMPDEST PUSH1 0x0 PUSH1 0x1 DUP3 ADD SWAP1 POP SWAP2 SWAP1 POP JUMP JUMPDEST PUSH1 0x0 PUSH2 0x2E19 DUP3 PUSH2 0x2D87 JUMP JUMPDEST PUSH2 0x2E23 DUP2 DUP6 PUSH2 0x2566 JUMP JUMPDEST SWAP4 POP PUSH2 0x2E2E DUP4 PUSH2 0x2D92 JUMP JUMPDEST DUP1 PUSH1 0x0 JUMPDEST DUP4 DUP2 LT ISZERO PUSH2 0x2E66 JUMPI PUSH2 0x2E43 DUP3 PUSH2 0x2DEE JUMP JUMPDEST PUSH2 0x2E4D DUP9 DUP3 PUSH2 0x25C8 JUMP JUMPDEST SWAP8 POP PUSH2 0x2E58 DUP4 PUSH2 0x2E01 JUMP JUMPDEST SWAP3 POP POP PUSH1 0x1 DUP2 ADD SWAP1 POP PUSH2 0x2E32 JUMP JUMPDEST POP DUP6 SWAP4 POP POP POP POP SWAP3 SWAP2 POP POP JUMP JUMPDEST PUSH1 0x0 PUSH1 0x20 DUP3 ADD SWAP1 POP DUP2 DUP2 SUB PUSH1 0x0 DUP4 ADD MSTORE PUSH2 0x2E8D DUP2 DUP5 PUSH2 0x2E0E JUMP JUMPDEST SWAP1 POP SWAP3 SWAP2 POP POP JUMP JUMPDEST PUSH1 0x0 PUSH8 0xFFFFFFFFFFFFFFFF DUP3 GT ISZERO PUSH2 0x2EB0 JUMPI PUSH2 0x2EAF PUSH2 0x2987 JUMP JUMPDEST JUMPDEST PUSH1 0x20 DUP3 MUL SWAP1 POP PUSH1 0x20 DUP2 ADD SWAP1 POP SWAP2 SWAP1 POP JUMP JUMPDEST PUSH1 0x0 DUP2 MLOAD SWAP1 POP PUSH2 0x2ED0 DUP2 PUSH2 0x27F5 JUMP JUMPDEST SWAP3 SWAP2 POP POP JUMP JUMPDEST PUSH1 0x0 PUSH2 0x2EE9 PUSH2 0x2EE4 DUP5 PUSH2 0x2E95 JUMP JUMPDEST PUSH2 0x29E7 JUMP JUMPDEST SWAP1 POP DUP1 DUP4 DUP3 MSTORE PUSH1 0x20 DUP3 ADD SWAP1 POP PUSH1 0x20 DUP5 MUL DUP4 ADD DUP6 DUP2 GT ISZERO PUSH2 0x2F0C JUMPI PUSH2 0x2F0B PUSH2 0x2C18 JUMP JUMPDEST JUMPDEST DUP4 JUMPDEST DUP2 DUP2 LT ISZERO PUSH2 0x2F35 JUMPI DUP1 PUSH2 0x2F21 DUP9 DUP3 PUSH2 0x2EC1 JUMP JUMPDEST DUP5 MSTORE PUSH1 0x20 DUP5 ADD SWAP4 POP POP PUSH1 0x20 DUP2 ADD SWAP1 POP PUSH2 0x2F0E JUMP JUMPDEST POP POP POP SWAP4 SWAP3 POP POP POP JUMP JUMPDEST PUSH1 0x0 DUP3 PUSH1 0x1F DUP4 ADD SLT PUSH2 0x2F54 JUMPI PUSH2 0x2F53 PUSH2 0x297D JUMP JUMPDEST JUMPDEST DUP2 MLOAD PUSH2 0x2F64 DUP5 DUP3 PUSH1 0x20 DUP7 ADD PUSH2 0x2ED6 JUMP JUMPDEST SWAP2 POP POP SWAP3 SWAP2 POP POP JUMP JUMPDEST PUSH1 0x0 PUSH1 0x20 DUP3 DUP5 SUB SLT ISZERO PUSH2 0x2F83 JUMPI PUSH2 0x2F82 PUSH2 0x27EB JUMP JUMPDEST JUMPDEST PUSH1 0x0 DUP3 ADD MLOAD PUSH8 0xFFFFFFFFFFFFFFFF DUP2 GT ISZERO PUSH2 0x2FA1 JUMPI PUSH2 0x2FA0 PUSH2 0x27F0 JUMP JUMPDEST JUMPDEST PUSH2 0x2FAD DUP5 DUP3 DUP6 ADD PUSH2 0x2F3F JUMP JUMPDEST SWAP2 POP POP SWAP3 SWAP2 POP POP JUMP JUMPDEST PUSH32 0x4F776E65722068617320746F20726567697374657220746F207075626C696320 PUSH1 0x0 DUP3 ADD MSTORE PUSH32 0x636F6E7472616374000000000000000000000000000000000000000000000000 PUSH1 0x20 DUP3 ADD MSTORE POP JUMP JUMPDEST PUSH1 0x0 PUSH2 0x3012 PUSH1 0x28 DUP4 PUSH2 0x284E JUMP JUMPDEST SWAP2 POP PUSH2 0x301D DUP3 PUSH2 0x2FB6 JUMP JUMPDEST PUSH1 0x40 DUP3 ADD SWAP1 POP SWAP2 SWAP1 POP JUMP JUMPDEST PUSH1 0x0 PUSH1 0x20 DUP3 ADD SWAP1 POP DUP2 DUP2 SUB PUSH1 0x0 DUP4 ADD MSTORE PUSH2 0x3041 DUP2 PUSH2 0x3005 JUMP JUMPDEST SWAP1 POP SWAP2 SWAP1 POP JUMP JUMPDEST PUSH32 0x4E487B7100000000000000000000000000000000000000000000000000000000 PUSH1 0x0 MSTORE PUSH1 0x32 PUSH1 0x4 MSTORE PUSH1 0x24 PUSH1 0x0 REVERT JUMPDEST PUSH32 0x4E487B7100000000000000000000000000000000000000000000000000000000 PUSH1 0x0 MSTORE PUSH1 0x11 PUSH1 0x4 MSTORE PUSH1 0x24 PUSH1 0x0 REVERT JUMPDEST PUSH1 0x0 PUSH2 0x30B1 DUP3 PUSH2 0x28F0 JUMP JUMPDEST SWAP2 POP PUSH32 0xFFFFFFFFFFFFFFFFFFFFFFFFFFFFFFFFFFFFFFFFFFFFFFFFFFFFFFFFFFFFFFFF DUP3 SUB PUSH2 0x30E3 JUMPI PUSH2 0x30E2 PUSH2 0x3077 JUMP JUMPDEST JUMPDEST PUSH1 0x1 DUP3 ADD SWAP1 POP SWAP2 SWAP1 POP JUMP JUMPDEST PUSH32 0x4E487B7100000000000000000000000000000000000000000000000000000000 PUSH1 0x0 MSTORE PUSH1 0x22 PUSH1 0x4 MSTORE PUSH1 0x24 PUSH1 0x0 REVERT JUMPDEST PUSH1 0x0 PUSH1 0x2 DUP3 DIV SWAP1 POP PUSH1 0x1 DUP3 AND DUP1 PUSH2 0x3135 JUMPI PUSH1 0x7F DUP3 AND SWAP2 POP JUMPDEST PUSH1 0x20 DUP3 LT DUP2 SUB PUSH2 0x3148 JUMPI PUSH2 0x3147 PUSH2 0x30EE JUMP JUMPDEST JUMPDEST POP SWAP2 SWAP1 POP JUMP JUMPDEST PUSH1 0x0 DUP2 SWAP1 POP DUP2 PUSH1 0x0 MSTORE PUSH1 0x20 PUSH1 0x0 KECCAK256 SWAP1 POP SWAP2 SWAP1 POP JUMP JUMPDEST PUSH1 0x0 DUP2 SLOAD PUSH2 0x3170 DUP2 PUSH2 0x311D JUMP JUMPDEST PUSH2 0x317A DUP2 DUP7 PUSH2 0x284E JUMP JUMPDEST SWAP5 POP PUSH1 0x1 DUP3 AND PUSH1 0x0 DUP2 EQ PUSH2 0x3195 JUMPI PUSH1 0x1 DUP2 EQ PUSH2 0x31AB JUMPI PUSH2 0x31DE JUMP JUMPDEST PUSH1 0xFF NOT DUP4 AND DUP7 MSTORE DUP2 ISZERO ISZERO PUSH1 0x20 MUL DUP7 ADD SWAP4 POP PUSH2 0x31DE JUMP JUMPDEST PUSH2 0x31B4 DUP6 PUSH2 0x314E JUMP JUMPDEST PUSH1 0x0 JUMPDEST DUP4 DUP2 LT ISZERO PUSH2 0x31D6 JUMPI DUP2 SLOAD DUP2 DUP10 ADD MSTORE PUSH1 0x1 DUP3 ADD SWAP2 POP PUSH1 0x20 DUP2 ADD SWAP1 POP PUSH2 0x31B7 JUMP JUMPDEST DUP1 DUP9 ADD SWAP6 POP POP POP JUMPDEST POP POP POP SWAP3 SWAP2 POP POP JUMP JUMPDEST PUSH1 0x0 PUSH1 0x20 DUP3 ADD SWAP1 POP DUP2 DUP2 SUB PUSH1 0x0 DUP4 ADD MSTORE PUSH2 0x3201 DUP2 DUP5 PUSH2 0x3163 JUMP JUMPDEST SWAP1 POP SWAP3 SWAP2 POP POP JUMP JUMPDEST PUSH2 0x3212 DUP2 PUSH2 0x28BA JUMP JUMPDEST DUP2 EQ PUSH2 0x321D JUMPI PUSH1 0x0 DUP1 REVERT JUMPDEST POP JUMP JUMPDEST PUSH1 0x0 DUP2 MLOAD SWAP1 POP PUSH2 0x322F DUP2 PUSH2 0x3209 JUMP JUMPDEST SWAP3 SWAP2 POP POP JUMP JUMPDEST PUSH1 0x0 PUSH1 0x20 DUP3 DUP5 SUB SLT ISZERO PUSH2 0x324B JUMPI PUSH2 0x324A PUSH2 0x27EB JUMP JUMPDEST JUMPDEST PUSH1 0x0 PUSH2 0x3259 DUP5 DUP3 DUP6 ADD PUSH2 0x3220 JUMP JUMPDEST SWAP2 POP POP SWAP3 SWAP2 POP POP JUMP JUMPDEST PUSH1 0x0 PUSH1 0x20 PUSH1 0x1F DUP4 ADD DIV SWAP1 POP SWAP2 SWAP1 POP JUMP JUMPDEST PUSH1 0x0 DUP3 DUP3 SHL SWAP1 POP SWAP3 SWAP2 POP POP JUMP JUMPDEST PUSH1 0x0 PUSH1 0x8 DUP4 MUL PUSH2 0x32AF PUSH32 0xFFFFFFFFFFFFFFFFFFFFFFFFFFFFFFFFFFFFFFFFFFFFFFFFFFFFFFFFFFFFFFFF DUP3 PUSH2 0x3272 JUMP JUMPDEST PUSH2 0x32B9 DUP7 DUP4 PUSH2 0x3272 JUMP JUMPDEST SWAP6 POP DUP1 NOT DUP5 AND SWAP4 POP DUP1 DUP7 AND DUP5 OR SWAP3 POP POP POP SWAP4 SWAP3 POP POP POP JUMP JUMPDEST PUSH1 0x0 DUP2 SWAP1 POP SWAP2 SWAP1 POP JUMP JUMPDEST PUSH1 0x0 PUSH2 0x32F6 PUSH2 0x32F1 PUSH2 0x32EC DUP5 PUSH2 0x28F0 JUMP JUMPDEST PUSH2 0x32D1 JUMP JUMPDEST PUSH2 0x28F0 JUMP JUMPDEST SWAP1 POP SWAP2 SWAP1 POP JUMP JUMPDEST PUSH1 0x0 DUP2 SWAP1 POP SWAP2 SWAP1 POP JUMP JUMPDEST PUSH2 0x3310 DUP4 PUSH2 0x32DB JUMP JUMPDEST PUSH2 0x3324 PUSH2 0x331C DUP3 PUSH2 0x32FD JUMP JUMPDEST DUP5 DUP5 SLOAD PUSH2 0x327F JUMP JUMPDEST DUP3 SSTORE POP POP POP POP JUMP JUMPDEST PUSH1 0x0 SWAP1 JUMP JUMPDEST PUSH2 0x3339 PUSH2 0x332C JUMP JUMPDEST PUSH2 0x3344 DUP2 DUP5 DUP5 PUSH2 0x3307 JUMP JUMPDEST POP POP POP JUMP JUMPDEST JUMPDEST DUP2 DUP2 LT ISZERO PUSH2 0x3368 JUMPI PUSH2 0x335D PUSH1 0x0 DUP3 PUSH2 0x3331 JUMP JUMPDEST PUSH1 0x1 DUP2 ADD SWAP1 POP PUSH2 0x334A JUMP JUMPDEST POP POP JUMP JUMPDEST PUSH1 0x1F DUP3 GT ISZERO PUSH2 0x33AD JUMPI PUSH2 0x337E DUP2 PUSH2 0x314E JUMP JUMPDEST PUSH2 0x3387 DUP5 PUSH2 0x3262 JUMP JUMPDEST DUP2 ADD PUSH1 0x20 DUP6 LT ISZERO PUSH2 0x3396 JUMPI DUP2 SWAP1 POP JUMPDEST PUSH2 0x33AA PUSH2 0x33A2 DUP6 PUSH2 0x3262 JUMP JUMPDEST DUP4 ADD DUP3 PUSH2 0x3349 JUMP JUMPDEST POP POP JUMPDEST POP POP POP JUMP JUMPDEST PUSH1 0x0 DUP3 DUP3 SHR SWAP1 POP SWAP3 SWAP2 POP POP JUMP JUMPDEST PUSH1 0x0 PUSH2 0x33D0 PUSH1 0x0 NOT DUP5 PUSH1 0x8 MUL PUSH2 0x33B2 JUMP JUMPDEST NOT DUP1 DUP4 AND SWAP2 POP POP SWAP3 SWAP2 POP POP JUMP JUMPDEST PUSH1 0x0 PUSH2 0x33E9 DUP4 DUP4 PUSH2 0x33BF JUMP JUMPDEST SWAP2 POP DUP3 PUSH1 0x2 MUL DUP3 OR SWAP1 POP SWAP3 SWAP2 POP POP JUMP JUMPDEST PUSH2 0x3402 DUP3 PUSH2 0x2699 JUMP JUMPDEST PUSH8 0xFFFFFFFFFFFFFFFF DUP2 GT ISZERO PUSH2 0x341B JUMPI PUSH2 0x341A PUSH2 0x2987 JUMP JUMPDEST JUMPDEST PUSH2 0x3425 DUP3 SLOAD PUSH2 0x311D JUMP JUMPDEST PUSH2 0x3430 DUP3 DUP3 DUP6 PUSH2 0x336C JUMP JUMPDEST PUSH1 0x0 PUSH1 0x20 SWAP1 POP PUSH1 0x1F DUP4 GT PUSH1 0x1 DUP2 EQ PUSH2 0x3463 JUMPI PUSH1 0x0 DUP5 ISZERO PUSH2 0x3451 JUMPI DUP3 DUP8 ADD MLOAD SWAP1 POP JUMPDEST PUSH2 0x345B DUP6 DUP3 PUSH2 0x33DD JUMP JUMPDEST DUP7 SSTORE POP PUSH2 0x34C3 JUMP JUMPDEST PUSH1 0x1F NOT DUP5 AND PUSH2 0x3471 DUP7 PUSH2 0x314E JUMP JUMPDEST PUSH1 0x0 JUMPDEST DUP3 DUP2 LT ISZERO PUSH2 0x3499 JUMPI DUP5 DUP10 ADD MLOAD DUP3 SSTORE PUSH1 0x1 DUP3 ADD SWAP2 POP PUSH1 0x20 DUP6 ADD SWAP5 POP PUSH1 0x20 DUP2 ADD SWAP1 POP PUSH2 0x3474 JUMP JUMPDEST DUP7 DUP4 LT ISZERO PUSH2 0x34B6 JUMPI DUP5 DUP10 ADD MLOAD PUSH2 0x34B2 PUSH1 0x1F DUP10 AND DUP3 PUSH2 0x33BF JUMP JUMPDEST DUP4 SSTORE POP JUMPDEST PUSH1 0x1 PUSH1 0x2 DUP9 MUL ADD DUP9 SSTORE POP POP POP JUMPDEST POP POP POP POP POP POP JUMP JUMPDEST PUSH1 0x0 PUSH2 0x34D6 DUP3 PUSH2 0x28F0 JUMP JUMPDEST SWAP2 POP PUSH2 0x34E1 DUP4 PUSH2 0x28F0 JUMP JUMPDEST SWAP3 POP DUP3 DUP3 SUB SWAP1 POP DUP2 DUP2 GT ISZERO PUSH2 0x34F9 JUMPI PUSH2 0x34F8 PUSH2 0x3077 JUMP JUMPDEST JUMPDEST SWAP3 SWAP2 POP POP JUMP JUMPDEST PUSH32 0x4E487B7100000000000000000000000000000000000000000000000000000000 PUSH1 0x0 MSTORE PUSH1 0x31 PUSH1 0x4 MSTORE PUSH1 0x24 PUSH1 0x0 REVERT JUMPDEST PUSH1 0x0 PUSH1 0x40 DUP3 ADD SWAP1 POP DUP2 DUP2 SUB PUSH1 0x0 DUP4 ADD MSTORE PUSH2 0x3548 DUP2 DUP6 PUSH2 0x285F JUMP JUMPDEST SWAP1 POP PUSH2 0x3557 PUSH1 0x20 DUP4 ADD DUP5 PUSH2 0x2953 JUMP JUMPDEST SWAP4 SWAP3 POP POP POP JUMP JUMPDEST PUSH1 0x0 PUSH1 0x60 DUP3 ADD SWAP1 POP PUSH2 0x3573 PUSH1 0x0 DUP4 ADD DUP7 PUSH2 0x2953 JUMP JUMPDEST PUSH2 0x3580 PUSH1 0x20 DUP4 ADD DUP6 PUSH2 0x2953 JUMP JUMPDEST PUSH2 0x358D PUSH1 0x40 DUP4 ADD DUP5 PUSH2 0x28C6 JUMP JUMPDEST SWAP5 SWAP4 POP POP POP POP JUMP JUMPDEST PUSH1 0x0 PUSH1 0x40 DUP3 ADD SWAP1 POP PUSH2 0x35AA PUSH1 0x0 DUP4 ADD DUP6 PUSH2 0x2953 JUMP JUMPDEST DUP2 DUP2 SUB PUSH1 0x20 DUP4 ADD MSTORE PUSH2 0x35BC DUP2 DUP5 PUSH2 0x285F JUMP JUMPDEST SWAP1 POP SWAP4 SWAP3 POP POP POP JUMP JUMPDEST PUSH1 0x0 PUSH1 0x60 DUP3 ADD SWAP1 POP DUP2 DUP2 SUB PUSH1 0x0 DUP4 ADD MSTORE PUSH2 0x35DF DUP2 DUP7 PUSH2 0x285F JUMP JUMPDEST SWAP1 POP PUSH2 0x35EE PUSH1 0x20 DUP4 ADD DUP6 PUSH2 0x2953 JUMP JUMPDEST PUSH2 0x35FB PUSH1 0x40 DUP4 ADD DUP5 PUSH2 0x2953 JUMP JUMPDEST SWAP5 SWAP4 POP POP POP POP JUMP JUMPDEST PUSH1 0x0 PUSH1 0x40 DUP3 ADD SWAP1 POP PUSH2 0x3618 PUSH1 0x0 DUP4 ADD DUP6 PUSH2 0x2953 JUMP JUMPDEST PUSH2 0x3625 PUSH1 0x20 DUP4 ADD DUP5 PUSH2 0x2953 JUMP JUMPDEST SWAP4 SWAP3 POP POP POP JUMP JUMPDEST PUSH32 0x4E6F7420656E6F75676820736861726520686F6C646572732121000000000000 PUSH1 0x0 DUP3 ADD MSTORE POP JUMP JUMPDEST PUSH1 0x0 PUSH2 0x3662 PUSH1 0x1A DUP4 PUSH2 0x284E JUMP JUMPDEST SWAP2 POP PUSH2 0x366D DUP3 PUSH2 0x362C JUMP JUMPDEST PUSH1 0x20 DUP3 ADD SWAP1 POP SWAP2 SWAP1 POP JUMP JUMPDEST PUSH1 0x0 PUSH1 0x20 DUP3 ADD SWAP1 POP DUP2 DUP2 SUB PUSH1 0x0 DUP4 ADD MSTORE PUSH2 0x3691 DUP2 PUSH2 0x3655 JUMP JUMPDEST SWAP1 POP SWAP2 SWAP1 POP JUMP JUMPDEST PUSH1 0x0 DUP2 SLOAD SWAP1 POP PUSH2 0x36A7 DUP2 PUSH2 0x311D JUMP JUMPDEST SWAP1 POP SWAP2 SWAP1 POP JUMP JUMPDEST PUSH1 0x0 DUP2 SWAP1 POP DUP2 PUSH1 0x0 MSTORE PUSH1 0x20 PUSH1 0x0 KECCAK256 SWAP1 POP SWAP2 SWAP1 POP JUMP JUMPDEST DUP2 DUP2 SUB PUSH2 0x36D1 JUMPI POP POP PUSH2 0x37A9 JUMP JUMPDEST PUSH2 0x36DA DUP3 PUSH2 0x3698 JUMP JUMPDEST PUSH8 0xFFFFFFFFFFFFFFFF DUP2 GT ISZERO PUSH2 0x36F3 JUMPI PUSH2 0x36F2 PUSH2 0x2987 JUMP JUMPDEST JUMPDEST PUSH2 0x36FD DUP3 SLOAD PUSH2 0x311D JUMP JUMPDEST PUSH2 0x3708 DUP3 DUP3 DUP6 PUSH2 0x336C JUMP JUMPDEST PUSH1 0x0 PUSH1 0x1F DUP4 GT PUSH1 0x1 DUP2 EQ PUSH2 0x3737 JUMPI PUSH1 0x0 DUP5 ISZERO PUSH2 0x3725 JUMPI DUP3 DUP8 ADD SLOAD SWAP1 POP JUMPDEST PUSH2 0x372F DUP6 DUP3 PUSH2 0x33DD JUMP JUMPDEST DUP7 SSTORE POP PUSH2 0x37A2 JUMP JUMPDEST PUSH1 0x1F NOT DUP5 AND PUSH2 0x3745 DUP8 PUSH2 0x36AE JUMP JUMPDEST SWAP7 POP PUSH2 0x3750 DUP7 PUSH2 0x314E JUMP JUMPDEST PUSH1 0x0 JUMPDEST DUP3 DUP2 LT ISZERO PUSH2 0x3778 JUMPI DUP5 DUP10 ADD SLOAD DUP3 SSTORE PUSH1 0x1 DUP3 ADD SWAP2 POP PUSH1 0x1 DUP6 ADD SWAP5 POP PUSH1 0x20 DUP2 ADD SWAP1 POP PUSH2 0x3753 JUMP JUMPDEST DUP7 DUP4 LT ISZERO PUSH2 0x3795 JUMPI DUP5 DUP10 ADD SLOAD PUSH2 0x3791 PUSH1 0x1F DUP10 AND DUP3 PUSH2 0x33BF JUMP JUMPDEST DUP4 SSTORE POP JUMPDEST PUSH1 0x1 PUSH1 0x2 DUP9 MUL ADD DUP9 SSTORE POP POP POP JUMPDEST POP POP POP POP POP POP JUMPDEST JUMP JUMPDEST PUSH1 0x0 PUSH1 0x60 DUP3 ADD SWAP1 POP PUSH2 0x37C0 PUSH1 0x0 DUP4 ADD DUP7 PUSH2 0x2953 JUMP JUMPDEST PUSH2 0x37CD PUSH1 0x20 DUP4 ADD DUP6 PUSH2 0x2953 JUMP JUMPDEST DUP2 DUP2 SUB PUSH1 0x40 DUP4 ADD MSTORE PUSH2 0x37DF DUP2 DUP5 PUSH2 0x3163 JUMP JUMPDEST SWAP1 POP SWAP5 SWAP4 POP POP POP POP JUMP INVALID LOG2 PUSH5 0x6970667358 0x22 SLT KECCAK256 PUSH7 0xD59D9588B7168B SWAP13 BLOCKHASH 0xF7 RETURNDATACOPY 0xCF CALLDATASIZE DUP12 PUSH27 0x28B33941CCA520B3E9FCAD2B633C973464736F6C63430008110033 "
		},
		"gasEstimates": {
			"creation": {
				"codeDepositCost": "2873400",
				"executionCost": "75937",
				"totalCost": "2949337"
			},
			"external": {
				"acceptInvitation(address)": "infinite",
				"addMyShares(string[])": "infinite",
				"addTemporaryShareHolders(address)": "infinite",
				"checkRequestsForBeAHolder()": "infinite",
				"checkRequestsForShare()": "infinite",
				"distribute()": "infinite",
				"getMyShares()": "infinite",
				"getShareHolders()": "infinite",
				"isRegistered()": "infinite",
				"makeShareHoldersListToDistribute()": "infinite",
				"makingHolderRequests()": "infinite",
				"myContractAddress()": "2559",
				"owner()": "2601",
				"regenerate()": "infinite",
				"regeneratedShares(uint256)": "infinite",
				"registerToPublicContract(string)": "infinite",
				"rejectInvitation(address)": "infinite",
				"releaseSecret(address)": "infinite",
				"remove(uint256)": "infinite",
				"removeShareHolders(address)": "infinite",
				"requestSharesFromHolders(string)": "infinite",
				"requestedShareHolders(uint256)": "5023",
				"saveToRegeneratedShares(string)": "infinite",
				"secretOwners(uint256)": "5068",
				"shareHolders(uint256)": "5045",
				"shareHoldersMap(address)": "infinite",
				"shares(uint256)": "infinite",
				"sharesMap(address)": "infinite",
				"takeTheSecretFromTheOwner(address,string)": "infinite",
				"userName()": "infinite"
			}
		},
		"methodIdentifiers": {
			"acceptInvitation(address)": "9018c818",
			"addMyShares(string[])": "a0cd9ce8",
			"addTemporaryShareHolders(address)": "b9657d13",
			"checkRequestsForBeAHolder()": "0d2baaa1",
			"checkRequestsForShare()": "0052c632",
			"distribute()": "e4fc6b6d",
			"getMyShares()": "3e83fe36",
			"getShareHolders()": "8477d9f3",
			"isRegistered()": "22366844",
			"makeShareHoldersListToDistribute()": "07954cb6",
			"makingHolderRequests()": "dab0177e",
			"myContractAddress()": "b12f97bb",
			"owner()": "8da5cb5b",
			"regenerate()": "17377f68",
			"regeneratedShares(uint256)": "8d78cd25",
			"registerToPublicContract(string)": "c692f738",
			"rejectInvitation(address)": "aa8f3075",
			"releaseSecret(address)": "c0befa53",
			"remove(uint256)": "4cc82215",
			"removeShareHolders(address)": "50e78191",
			"requestSharesFromHolders(string)": "77058418",
			"requestedShareHolders(uint256)": "9ff1d787",
			"saveToRegeneratedShares(string)": "d65ec855",
			"secretOwners(uint256)": "3b91d785",
			"shareHolders(uint256)": "7427a40c",
			"shareHoldersMap(address)": "d534cc0e",
			"shares(uint256)": "57a858fc",
			"sharesMap(address)": "1e1cf160",
			"takeTheSecretFromTheOwner(address,string)": "4a9ae94a",
			"userName()": "70019b35"
		}
	},
	"abi": [
		{
			"inputs": [],
			"stateMutability": "nonpayable",
			"type": "constructor"
		},
		{
			"inputs": [
				{
					"internalType": "address",
					"name": "secretOwner",
					"type": "address"
				}
			],
			"name": "acceptInvitation",
			"outputs": [],
			"stateMutability": "nonpayable",
			"type": "function"
		},
		{
			"inputs": [
				{
					"internalType": "string[]",
					"name": "myShares",
					"type": "string[]"
				}
			],
			"name": "addMyShares",
			"outputs": [],
			"stateMutability": "nonpayable",
			"type": "function"
		},
		{
			"inputs": [
				{
					"internalType": "address payable",
					"name": "shareHolder",
					"type": "address"
				}
			],
			"name": "addTemporaryShareHolders",
			"outputs": [],
			"stateMutability": "nonpayable",
			"type": "function"
		},
		{
			"inputs": [],
			"name": "checkRequestsForBeAHolder",
			"outputs": [
				{
					"internalType": "address[]",
					"name": "",
					"type": "address[]"
				}
			],
			"stateMutability": "view",
			"type": "function"
		},
		{
			"inputs": [],
			"name": "checkRequestsForShare",
			"outputs": [
				{
					"internalType": "address[]",
					"name": "",
					"type": "address[]"
				}
			],
			"stateMutability": "view",
			"type": "function"
		},
		{
			"inputs": [],
			"name": "distribute",
			"outputs": [],
			"stateMutability": "nonpayable",
			"type": "function"
		},
		{
			"inputs": [],
			"name": "getMyShares",
			"outputs": [
				{
					"internalType": "string[]",
					"name": "",
					"type": "string[]"
				}
			],
			"stateMutability": "view",
			"type": "function"
		},
		{
			"inputs": [],
			"name": "getShareHolders",
			"outputs": [
				{
					"internalType": "address[]",
					"name": "",
					"type": "address[]"
				}
			],
			"stateMutability": "view",
			"type": "function"
		},
		{
			"inputs": [],
			"name": "isRegistered",
			"outputs": [
				{
					"internalType": "bool",
					"name": "",
					"type": "bool"
				}
			],
			"stateMutability": "view",
			"type": "function"
		},
		{
			"inputs": [],
			"name": "makeShareHoldersListToDistribute",
			"outputs": [],
			"stateMutability": "nonpayable",
			"type": "function"
		},
		{
			"inputs": [],
			"name": "makingHolderRequests",
			"outputs": [],
			"stateMutability": "nonpayable",
			"type": "function"
		},
		{
			"inputs": [],
			"name": "myContractAddress",
			"outputs": [
				{
					"internalType": "address",
					"name": "",
					"type": "address"
				}
			],
			"stateMutability": "view",
			"type": "function"
		},
		{
			"inputs": [],
			"name": "owner",
			"outputs": [
				{
					"internalType": "address",
					"name": "",
					"type": "address"
				}
			],
			"stateMutability": "view",
			"type": "function"
		},
		{
			"inputs": [],
			"name": "regenerate",
			"outputs": [
				{
					"internalType": "string[]",
					"name": "",
					"type": "string[]"
				}
			],
			"stateMutability": "view",
			"type": "function"
		},
		{
			"inputs": [
				{
					"internalType": "uint256",
					"name": "",
					"type": "uint256"
				}
			],
			"name": "regeneratedShares",
			"outputs": [
				{
					"internalType": "string",
					"name": "",
					"type": "string"
				}
			],
			"stateMutability": "view",
			"type": "function"
		},
		{
			"inputs": [
				{
					"internalType": "string",
					"name": "name",
					"type": "string"
				}
			],
			"name": "registerToPublicContract",
			"outputs": [],
			"stateMutability": "nonpayable",
			"type": "function"
		},
		{
			"inputs": [
				{
					"internalType": "address",
					"name": "secretOwner",
					"type": "address"
				}
			],
			"name": "rejectInvitation",
			"outputs": [],
			"stateMutability": "nonpayable",
			"type": "function"
		},
		{
			"inputs": [
				{
					"internalType": "address",
					"name": "secretOwnerAddress",
					"type": "address"
				}
			],
			"name": "releaseSecret",
			"outputs": [],
			"stateMutability": "nonpayable",
			"type": "function"
		},
		{
			"inputs": [
				{
					"internalType": "uint256",
					"name": "index",
					"type": "uint256"
				}
			],
			"name": "remove",
			"outputs": [],
			"stateMutability": "nonpayable",
			"type": "function"
		},
		{
			"inputs": [
				{
					"internalType": "address payable",
					"name": "shareHolder",
					"type": "address"
				}
			],
			"name": "removeShareHolders",
			"outputs": [],
			"stateMutability": "nonpayable",
			"type": "function"
		},
		{
			"inputs": [
				{
					"internalType": "string",
					"name": "name",
					"type": "string"
				}
			],
			"name": "requestSharesFromHolders",
			"outputs": [],
			"stateMutability": "nonpayable",
			"type": "function"
		},
		{
			"inputs": [
				{
					"internalType": "uint256",
					"name": "",
					"type": "uint256"
				}
			],
			"name": "requestedShareHolders",
			"outputs": [
				{
					"internalType": "address payable",
					"name": "",
					"type": "address"
				}
			],
			"stateMutability": "view",
			"type": "function"
		},
		{
			"inputs": [
				{
					"internalType": "string",
					"name": "share",
					"type": "string"
				}
			],
			"name": "saveToRegeneratedShares",
			"outputs": [],
			"stateMutability": "nonpayable",
			"type": "function"
		},
		{
			"inputs": [
				{
					"internalType": "uint256",
					"name": "",
					"type": "uint256"
				}
			],
			"name": "secretOwners",
			"outputs": [
				{
					"internalType": "address",
					"name": "",
					"type": "address"
				}
			],
			"stateMutability": "view",
			"type": "function"
		},
		{
			"inputs": [
				{
					"internalType": "uint256",
					"name": "",
					"type": "uint256"
				}
			],
			"name": "shareHolders",
			"outputs": [
				{
					"internalType": "address",
					"name": "",
					"type": "address"
				}
			],
			"stateMutability": "view",
			"type": "function"
		},
		{
			"inputs": [
				{
					"internalType": "address",
					"name": "",
					"type": "address"
				}
			],
			"name": "shareHoldersMap",
			"outputs": [
				{
					"internalType": "string",
					"name": "",
					"type": "string"
				}
			],
			"stateMutability": "view",
			"type": "function"
		},
		{
			"inputs": [
				{
					"internalType": "uint256",
					"name": "",
					"type": "uint256"
				}
			],
			"name": "shares",
			"outputs": [
				{
					"internalType": "string",
					"name": "",
					"type": "string"
				}
			],
			"stateMutability": "view",
			"type": "function"
		},
		{
			"inputs": [
				{
					"internalType": "address",
					"name": "",
					"type": "address"
				}
			],
			"name": "sharesMap",
			"outputs": [
				{
					"internalType": "string",
					"name": "",
					"type": "string"
				}
			],
			"stateMutability": "view",
			"type": "function"
		},
		{
			"inputs": [
				{
					"internalType": "address",
					"name": "ownerAddress",
					"type": "address"
				},
				{
					"internalType": "string",
					"name": "sharedString",
					"type": "string"
				}
			],
			"name": "takeTheSecretFromTheOwner",
			"outputs": [],
			"stateMutability": "nonpayable",
			"type": "function"
		},
		{
			"inputs": [],
			"name": "userName",
			"outputs": [
				{
					"internalType": "string",
					"name": "",
					"type": "string"
				}
			],
			"stateMutability": "view",
			"type": "function"
		}
	]
}