{
	"data": {
		"bytecode": {
			"linkReferences": {},
			"object": "608060405234801561001057600080fd5b506130b0806100206000396000f3fe608060405234801561001057600080fd5b50600436106101425760003560e01c80638f090b91116100b8578063cc2f22f11161007c578063cc2f22f1146103fb578063d71e80e314610417578063d9857d5f14610447578063e7618a0a14610478578063ec6ea3aa14610494578063f9e203c3146104b057610142565b80638f090b911461031f57806399f8b09f1461034f578063a5311bcf1461037f578063bc9d6271146103af578063c5882344146103cb57610142565b806358d30dbc1161010a57806358d30dbc1461023a5780636e8548bb1461026b57806374cf3e51146102875780637915c069146102b75780637cbfc58f146102d357806382760fca146102ef57610142565b806302edcfa31461014757806309da40ae146101795780630d85d839146101a95780633bc358e8146101d957806354f5fcba1461020a575b600080fd5b610161600480360381019061015c9190612307565b6104e1565b60405161017093929190612405565b60405180910390f35b610193600480360381019061018e91906125b7565b6105e3565b6040516101a0919061260f565b60405180910390f35b6101c360048036038101906101be91906126df565b61080e565b6040516101d09190612743565b60405180910390f35b6101f360048036038101906101ee9190612307565b610897565b60405161020192919061275e565b60405180910390f35b610224600480360381019061021f9190612787565b61090b565b604051610231919061260f565b60405180910390f35b610254600480360381019061024f9190612307565b610a64565b60405161026292919061275e565b60405180910390f35b610285600480360381019061028091906127b4565b610ad8565b005b6102a1600480360381019061029c9190612787565b610bde565b6040516102ae919061260f565b60405180910390f35b6102d160048036038101906102cc91906127f4565b610d37565b005b6102ed60048036038101906102e89190612863565b610ef8565b005b610309600480360381019061030491906126df565b6111a7565b60405161031691906128fd565b60405180910390f35b61033960048036038101906103349190612787565b611291565b6040516103469190612918565b60405180910390f35b61036960048036038101906103649190612787565b6112c4565b60405161037691906129e2565b60405180910390f35b61039960048036038101906103949190612787565b6114c7565b6040516103a69190612918565b60405180910390f35b6103c960048036038101906103c49190612a30565b61152f565b005b6103e560048036038101906103e091906125b7565b611837565b6040516103f291906129e2565b60405180910390f35b61041560048036038101906104109190612a83565b611b08565b005b610431600480360381019061042c9190612787565b611be4565b60405161043e91906129e2565b60405180910390f35b610461600480360381019061045c91906126df565b611de7565b60405161046f92919061275e565b60405180910390f35b610492600480360381019061048d9190612af2565b611e61565b005b6104ae60048036038101906104a99190612307565b612061565b005b6104ca60048036038101906104c59190612307565b612203565b6040516104d892919061275e565b60405180910390f35b600381815481106104f157600080fd5b90600052602060002090600302016000915090508060000160009054906101000a900473ffffffffffffffffffffffffffffffffffffffff169080600101805461053a90612b7d565b80601f016020809104026020016040519081016040528092919081815260200182805461056690612b7d565b80156105b35780601f10610588576101008083540402835291602001916105b3565b820191906000526020600020905b81548152906001019060200180831161059657829003601f168201915b5050505050908060020160009054906101000a900473ffffffffffffffffffffffffffffffffffffffff16905083565b6000806000905060005b835181101561080457600084828151811061060b5761060a612bae565b5b6020026020010151905060005b6003805490508110156107ef5760006003828154811061063b5761063a612bae565b5b90600052602060002090600302016040518060600160405290816000820160009054906101000a900473ffffffffffffffffffffffffffffffffffffffff1673ffffffffffffffffffffffffffffffffffffffff1673ffffffffffffffffffffffffffffffffffffffff1681526020016001820180546106ba90612b7d565b80601f01602080910402602001604051908101604052809291908181526020018280546106e690612b7d565b80156107335780601f1061070857610100808354040283529160200191610733565b820191906000526020600020905b81548152906001019060200180831161071657829003601f168201915b505050505081526020016002820160009054906101000a900473ffffffffffffffffffffffffffffffffffffffff1673ffffffffffffffffffffffffffffffffffffffff1673ffffffffffffffffffffffffffffffffffffffff168152505090508273ffffffffffffffffffffffffffffffffffffffff16816040015173ffffffffffffffffffffffffffffffffffffffff16036107db576001856107d89190612c0c565b94505b5080806107e790612c40565b915050610618565b505080806107fc90612c40565b9150506105ed565b5080915050919050565b60008073ffffffffffffffffffffffffffffffffffffffff166001836040516108379190612cc4565b908152602001604051809103902060000160009054906101000a900473ffffffffffffffffffffffffffffffffffffffff1673ffffffffffffffffffffffffffffffffffffffff160361088d5760009050610892565b600190505b919050565b600781815481106108a757600080fd5b90600052602060002090600202016000915090508060000160009054906101000a900473ffffffffffffffffffffffffffffffffffffffff16908060010160009054906101000a900473ffffffffffffffffffffffffffffffffffffffff16905082565b6000806000905060005b600680549050811015610a5a5760006006828154811061093857610937612bae565b5b90600052602060002090600202016040518060400160405290816000820160009054906101000a900473ffffffffffffffffffffffffffffffffffffffff1673ffffffffffffffffffffffffffffffffffffffff1673ffffffffffffffffffffffffffffffffffffffff1681526020016001820160009054906101000a900473ffffffffffffffffffffffffffffffffffffffff1673ffffffffffffffffffffffffffffffffffffffff1673ffffffffffffffffffffffffffffffffffffffff168152505090508473ffffffffffffffffffffffffffffffffffffffff16816000015173ffffffffffffffffffffffffffffffffffffffff1603610a4657600183610a439190612c0c565b92505b508080610a5290612c40565b915050610915565b8192505050919050565b60028181548110610a7457600080fd5b90600052602060002090600202016000915090508060000160009054906101000a900473ffffffffffffffffffffffffffffffffffffffff16908060010160009054906101000a900473ffffffffffffffffffffffffffffffffffffffff16905082565b600060405180604001604052808473ffffffffffffffffffffffffffffffffffffffff1681526020018373ffffffffffffffffffffffffffffffffffffffff168152509050600281908060018154018082558091505060019003906000526020600020906002020160009091909190915060008201518160000160006101000a81548173ffffffffffffffffffffffffffffffffffffffff021916908373ffffffffffffffffffffffffffffffffffffffff16021790555060208201518160010160006101000a81548173ffffffffffffffffffffffffffffffffffffffff021916908373ffffffffffffffffffffffffffffffffffffffff1602179055505050505050565b6000806000905060005b600280549050811015610d2d57600060028281548110610c0b57610c0a612bae565b5b90600052602060002090600202016040518060400160405290816000820160009054906101000a900473ffffffffffffffffffffffffffffffffffffffff1673ffffffffffffffffffffffffffffffffffffffff1673ffffffffffffffffffffffffffffffffffffffff1681526020016001820160009054906101000a900473ffffffffffffffffffffffffffffffffffffffff1673ffffffffffffffffffffffffffffffffffffffff1673ffffffffffffffffffffffffffffffffffffffff168152505090508473ffffffffffffffffffffffffffffffffffffffff16816020015173ffffffffffffffffffffffffffffffffffffffff1603610d1957600183610d169190612c0c565b92505b508080610d2590612c40565b915050610be8565b8192505050919050565b610d408361080e565b15610d80576040517f08c379a0000000000000000000000000000000000000000000000000000000008152600401610d7790612d27565b60405180910390fd5b806000808473ffffffffffffffffffffffffffffffffffffffff1673ffffffffffffffffffffffffffffffffffffffff16815260200190815260200160002060006101000a81548173ffffffffffffffffffffffffffffffffffffffff021916908373ffffffffffffffffffffffffffffffffffffffff160217905550600060405180604001604052808473ffffffffffffffffffffffffffffffffffffffff1681526020018373ffffffffffffffffffffffffffffffffffffffff16815250905080600185604051610e539190612cc4565b908152602001604051809103902060008201518160000160006101000a81548173ffffffffffffffffffffffffffffffffffffffff021916908373ffffffffffffffffffffffffffffffffffffffff16021790555060208201518160010160006101000a81548173ffffffffffffffffffffffffffffffffffffffff021916908373ffffffffffffffffffffffffffffffffffffffff16021790555090505050505050565b60005b6003805490508110156111a257600060038281548110610f1e57610f1d612bae565b5b90600052602060002090600302016040518060600160405290816000820160009054906101000a900473ffffffffffffffffffffffffffffffffffffffff1673ffffffffffffffffffffffffffffffffffffffff1673ffffffffffffffffffffffffffffffffffffffff168152602001600182018054610f9d90612b7d565b80601f0160208091040260200160405190810160405280929190818152602001828054610fc990612b7d565b80156110165780601f10610feb57610100808354040283529160200191611016565b820191906000526020600020905b815481529060010190602001808311610ff957829003601f168201915b505050505081526020016002820160009054906101000a900473ffffffffffffffffffffffffffffffffffffffff1673ffffffffffffffffffffffffffffffffffffffff1673ffffffffffffffffffffffffffffffffffffffff168152505090508373ffffffffffffffffffffffffffffffffffffffff16816040015173ffffffffffffffffffffffffffffffffffffffff160361118e5760008160000151905060008060008373ffffffffffffffffffffffffffffffffffffffff1673ffffffffffffffffffffffffffffffffffffffff16815260200190815260200160002060009054906101000a900473ffffffffffffffffffffffffffffffffffffffff16905060008190508073ffffffffffffffffffffffffffffffffffffffff1663d65ec855876040518263ffffffff1660e01b81526004016111589190612d47565b600060405180830381600087803b15801561117257600080fd5b505af1158015611186573d6000803e3d6000fd5b505050505050505b50808061119a90612c40565b915050610efb565b505050565b6111af612277565b60006001836040516111c19190612cc4565b90815260200160405180910390206040518060400160405290816000820160009054906101000a900473ffffffffffffffffffffffffffffffffffffffff1673ffffffffffffffffffffffffffffffffffffffff1673ffffffffffffffffffffffffffffffffffffffff1681526020016001820160009054906101000a900473ffffffffffffffffffffffffffffffffffffffff1673ffffffffffffffffffffffffffffffffffffffff1673ffffffffffffffffffffffffffffffffffffffff1681525050905080915050919050565b60006020528060005260406000206000915054906101000a900473ffffffffffffffffffffffffffffffffffffffff1681565b606060006112d183610bde565b90506000808267ffffffffffffffff8111156112f0576112ef612448565b5b60405190808252806020026020018201604052801561131e5781602001602082028036833780820191505090505b50905060005b6002805490508110156114bb5760006002828154811061134757611346612bae565b5b90600052602060002090600202016040518060400160405290816000820160009054906101000a900473ffffffffffffffffffffffffffffffffffffffff1673ffffffffffffffffffffffffffffffffffffffff1673ffffffffffffffffffffffffffffffffffffffff1681526020016001820160009054906101000a900473ffffffffffffffffffffffffffffffffffffffff1673ffffffffffffffffffffffffffffffffffffffff1673ffffffffffffffffffffffffffffffffffffffff168152505090508673ffffffffffffffffffffffffffffffffffffffff16816020015173ffffffffffffffffffffffffffffffffffffffff16036114a757806000015183858151811061145d5761145c612bae565b5b602002602001019073ffffffffffffffffffffffffffffffffffffffff16908173ffffffffffffffffffffffffffffffffffffffff16815250506001846114a49190612c0c565b93505b5080806114b390612c40565b915050611324565b50809350505050919050565b60008060008373ffffffffffffffffffffffffffffffffffffffff1673ffffffffffffffffffffffffffffffffffffffff16815260200190815260200160002060009054906101000a900473ffffffffffffffffffffffffffffffffffffffff169050919050565b60005b6002805490508110156118315760006002828154811061155557611554612bae565b5b90600052602060002090600202016040518060400160405290816000820160009054906101000a900473ffffffffffffffffffffffffffffffffffffffff1673ffffffffffffffffffffffffffffffffffffffff1673ffffffffffffffffffffffffffffffffffffffff1681526020016001820160009054906101000a900473ffffffffffffffffffffffffffffffffffffffff1673ffffffffffffffffffffffffffffffffffffffff1673ffffffffffffffffffffffffffffffffffffffff168152505090508473ffffffffffffffffffffffffffffffffffffffff16816020015173ffffffffffffffffffffffffffffffffffffffff1614801561168a57508373ffffffffffffffffffffffffffffffffffffffff16816000015173ffffffffffffffffffffffffffffffffffffffff16145b1561181d5761169882612061565b821561175f57600681908060018154018082558091505060019003906000526020600020906002020160009091909190915060008201518160000160006101000a81548173ffffffffffffffffffffffffffffffffffffffff021916908373ffffffffffffffffffffffffffffffffffffffff16021790555060208201518160010160006101000a81548173ffffffffffffffffffffffffffffffffffffffff021916908373ffffffffffffffffffffffffffffffffffffffff160217905550505061181c565b600781908060018154018082558091505060019003906000526020600020906002020160009091909190915060008201518160000160006101000a81548173ffffffffffffffffffffffffffffffffffffffff021916908373ffffffffffffffffffffffffffffffffffffffff16021790555060208201518160010160006101000a81548173ffffffffffffffffffffffffffffffffffffffff021916908373ffffffffffffffffffffffffffffffffffffffff16021790555050505b5b50808061182990612c40565b915050611532565b50505050565b60606000611844836105e3565b90506000808267ffffffffffffffff81111561186357611862612448565b5b6040519080825280602002602001820160405280156118915781602001602082028036833780820191505090505b50905060005b8551811015611afc5760008682815181106118b5576118b4612bae565b5b6020026020010151905060005b600380549050811015611ae7576000600382815481106118e5576118e4612bae565b5b90600052602060002090600302016040518060600160405290816000820160009054906101000a900473ffffffffffffffffffffffffffffffffffffffff1673ffffffffffffffffffffffffffffffffffffffff1673ffffffffffffffffffffffffffffffffffffffff16815260200160018201805461196490612b7d565b80601f016020809104026020016040519081016040528092919081815260200182805461199090612b7d565b80156119dd5780601f106119b2576101008083540402835291602001916119dd565b820191906000526020600020905b8154815290600101906020018083116119c057829003601f168201915b505050505081526020016002820160009054906101000a900473ffffffffffffffffffffffffffffffffffffffff1673ffffffffffffffffffffffffffffffffffffffff1673ffffffffffffffffffffffffffffffffffffffff168152505090508273ffffffffffffffffffffffffffffffffffffffff16816040015173ffffffffffffffffffffffffffffffffffffffff1603611ad35782858781518110611a8957611a88612bae565b5b602002602001019073ffffffffffffffffffffffffffffffffffffffff16908173ffffffffffffffffffffffffffffffffffffffff1681525050600186611ad09190612c0c565b95505b508080611adf90612c40565b9150506118c2565b50508080611af490612c40565b915050611897565b50809350505050919050565b60008060008473ffffffffffffffffffffffffffffffffffffffff1673ffffffffffffffffffffffffffffffffffffffff16815260200190815260200160002060009054906101000a900473ffffffffffffffffffffffffffffffffffffffff16905060008190508073ffffffffffffffffffffffffffffffffffffffff16634a9ae94a86856040518363ffffffff1660e01b8152600401611bab929190612d69565b600060405180830381600087803b158015611bc557600080fd5b505af1158015611bd9573d6000803e3d6000fd5b505050505050505050565b60606000611bf18361090b565b90506000808267ffffffffffffffff811115611c1057611c0f612448565b5b604051908082528060200260200182016040528015611c3e5781602001602082028036833780820191505090505b50905060005b600680549050811015611ddb57600060068281548110611c6757611c66612bae565b5b90600052602060002090600202016040518060400160405290816000820160009054906101000a900473ffffffffffffffffffffffffffffffffffffffff1673ffffffffffffffffffffffffffffffffffffffff1673ffffffffffffffffffffffffffffffffffffffff1681526020016001820160009054906101000a900473ffffffffffffffffffffffffffffffffffffffff1673ffffffffffffffffffffffffffffffffffffffff1673ffffffffffffffffffffffffffffffffffffffff168152505090508673ffffffffffffffffffffffffffffffffffffffff16816000015173ffffffffffffffffffffffffffffffffffffffff1603611dc7578060200151838581518110611d7d57611d7c612bae565b5b602002602001019073ffffffffffffffffffffffffffffffffffffffff16908173ffffffffffffffffffffffffffffffffffffffff1681525050600184611dc49190612c0c565b93505b508080611dd390612c40565b915050611c44565b50809350505050919050565b6001818051602081018201805184825260208301602085012081835280955050505050506000915090508060000160009054906101000a900473ffffffffffffffffffffffffffffffffffffffff16908060010160009054906101000a900473ffffffffffffffffffffffffffffffffffffffff16905082565b6000600183604051611e739190612cc4565b90815260200160405180910390206040518060400160405290816000820160009054906101000a900473ffffffffffffffffffffffffffffffffffffffff1673ffffffffffffffffffffffffffffffffffffffff1673ffffffffffffffffffffffffffffffffffffffff1681526020016001820160009054906101000a900473ffffffffffffffffffffffffffffffffffffffff1673ffffffffffffffffffffffffffffffffffffffff1673ffffffffffffffffffffffffffffffffffffffff16815250509050600060405180606001604052808473ffffffffffffffffffffffffffffffffffffffff168152602001858152602001836000015173ffffffffffffffffffffffffffffffffffffffff168152509050600381908060018154018082558091505060019003906000526020600020906003020160009091909190915060008201518160000160006101000a81548173ffffffffffffffffffffffffffffffffffffffff021916908373ffffffffffffffffffffffffffffffffffffffff16021790555060208201518160010190816120119190612f45565b5060408201518160020160006101000a81548173ffffffffffffffffffffffffffffffffffffffff021916908373ffffffffffffffffffffffffffffffffffffffff160217905550505050505050565b600260016002805490506120759190613017565b8154811061208657612085612bae565b5b9060005260206000209060020201600282815481106120a8576120a7612bae565b5b90600052602060002090600202016000820160009054906101000a900473ffffffffffffffffffffffffffffffffffffffff168160000160006101000a81548173ffffffffffffffffffffffffffffffffffffffff021916908373ffffffffffffffffffffffffffffffffffffffff1602179055506001820160009054906101000a900473ffffffffffffffffffffffffffffffffffffffff168160010160006101000a81548173ffffffffffffffffffffffffffffffffffffffff021916908373ffffffffffffffffffffffffffffffffffffffff16021790555090505060028054806121995761219861304b565b5b6001900381819060005260206000209060020201600080820160006101000a81549073ffffffffffffffffffffffffffffffffffffffff02191690556001820160006101000a81549073ffffffffffffffffffffffffffffffffffffffff02191690555050905550565b6006818154811061221357600080fd5b90600052602060002090600202016000915090508060000160009054906101000a900473ffffffffffffffffffffffffffffffffffffffff16908060010160009054906101000a900473ffffffffffffffffffffffffffffffffffffffff16905082565b6040518060400160405280600073ffffffffffffffffffffffffffffffffffffffff168152602001600073ffffffffffffffffffffffffffffffffffffffff1681525090565b6000604051905090565b600080fd5b600080fd5b6000819050919050565b6122e4816122d1565b81146122ef57600080fd5b50565b600081359050612301816122db565b92915050565b60006020828403121561231d5761231c6122c7565b5b600061232b848285016122f2565b91505092915050565b600073ffffffffffffffffffffffffffffffffffffffff82169050919050565b600061235f82612334565b9050919050565b61236f81612354565b82525050565b600081519050919050565b600082825260208201905092915050565b60005b838110156123af578082015181840152602081019050612394565b60008484015250505050565b6000601f19601f8301169050919050565b60006123d782612375565b6123e18185612380565b93506123f1818560208601612391565b6123fa816123bb565b840191505092915050565b600060608201905061241a6000830186612366565b818103602083015261242c81856123cc565b905061243b6040830184612366565b949350505050565b600080fd5b7f4e487b7100000000000000000000000000000000000000000000000000000000600052604160045260246000fd5b612480826123bb565b810181811067ffffffffffffffff8211171561249f5761249e612448565b5b80604052505050565b60006124b26122bd565b90506124be8282612477565b919050565b600067ffffffffffffffff8211156124de576124dd612448565b5b602082029050602081019050919050565b600080fd5b6124fd81612354565b811461250857600080fd5b50565b60008135905061251a816124f4565b92915050565b600061253361252e846124c3565b6124a8565b90508083825260208201905060208402830185811115612556576125556124ef565b5b835b8181101561257f578061256b888261250b565b845260208401935050602081019050612558565b5050509392505050565b600082601f83011261259e5761259d612443565b5b81356125ae848260208601612520565b91505092915050565b6000602082840312156125cd576125cc6122c7565b5b600082013567ffffffffffffffff8111156125eb576125ea6122cc565b5b6125f784828501612589565b91505092915050565b612609816122d1565b82525050565b60006020820190506126246000830184612600565b92915050565b600080fd5b600067ffffffffffffffff82111561264a57612649612448565b5b612653826123bb565b9050602081019050919050565b82818337600083830152505050565b600061268261267d8461262f565b6124a8565b90508281526020810184848401111561269e5761269d61262a565b5b6126a9848285612660565b509392505050565b600082601f8301126126c6576126c5612443565b5b81356126d684826020860161266f565b91505092915050565b6000602082840312156126f5576126f46122c7565b5b600082013567ffffffffffffffff811115612713576127126122cc565b5b61271f848285016126b1565b91505092915050565b60008115159050919050565b61273d81612728565b82525050565b60006020820190506127586000830184612734565b92915050565b60006040820190506127736000830185612366565b6127806020830184612366565b9392505050565b60006020828403121561279d5761279c6122c7565b5b60006127ab8482850161250b565b91505092915050565b600080604083850312156127cb576127ca6122c7565b5b60006127d98582860161250b565b92505060206127ea8582860161250b565b9150509250929050565b60008060006060848603121561280d5761280c6122c7565b5b600084013567ffffffffffffffff81111561282b5761282a6122cc565b5b612837868287016126b1565b93505060206128488682870161250b565b92505060406128598682870161250b565b9150509250925092565b6000806040838503121561287a576128796122c7565b5b60006128888582860161250b565b925050602083013567ffffffffffffffff8111156128a9576128a86122cc565b5b6128b5858286016126b1565b9150509250929050565b6128c881612354565b82525050565b6040820160008201516128e460008501826128bf565b5060208201516128f760208501826128bf565b50505050565b600060408201905061291260008301846128ce565b92915050565b600060208201905061292d6000830184612366565b92915050565b600081519050919050565b600082825260208201905092915050565b6000819050602082019050919050565b600061296b83836128bf565b60208301905092915050565b6000602082019050919050565b600061298f82612933565b612999818561293e565b93506129a48361294f565b8060005b838110156129d55781516129bc888261295f565b97506129c783612977565b9250506001810190506129a8565b5085935050505092915050565b600060208201905081810360008301526129fc8184612984565b905092915050565b612a0d81612728565b8114612a1857600080fd5b50565b600081359050612a2a81612a04565b92915050565b600080600060608486031215612a4957612a486122c7565b5b6000612a578682870161250b565b9350506020612a688682870161250b565b9250506040612a7986828701612a1b565b9150509250925092565b600080600060608486031215612a9c57612a9b6122c7565b5b6000612aaa8682870161250b565b9350506020612abb8682870161250b565b925050604084013567ffffffffffffffff811115612adc57612adb6122cc565b5b612ae8868287016126b1565b9150509250925092565b60008060408385031215612b0957612b086122c7565b5b600083013567ffffffffffffffff811115612b2757612b266122cc565b5b612b33858286016126b1565b9250506020612b448582860161250b565b9150509250929050565b7f4e487b7100000000000000000000000000000000000000000000000000000000600052602260045260246000fd5b60006002820490506001821680612b9557607f821691505b602082108103612ba857612ba7612b4e565b5b50919050565b7f4e487b7100000000000000000000000000000000000000000000000000000000600052603260045260246000fd5b7f4e487b7100000000000000000000000000000000000000000000000000000000600052601160045260246000fd5b6000612c17826122d1565b9150612c22836122d1565b9250828201905080821115612c3a57612c39612bdd565b5b92915050565b6000612c4b826122d1565b91507fffffffffffffffffffffffffffffffffffffffffffffffffffffffffffffffff8203612c7d57612c7c612bdd565b5b600182019050919050565b600081905092915050565b6000612c9e82612375565b612ca88185612c88565b9350612cb8818560208601612391565b80840191505092915050565b6000612cd08284612c93565b915081905092915050565b7f4e616d6520616c72656164792065786973747300000000000000000000000000600082015250565b6000612d11601383612380565b9150612d1c82612cdb565b602082019050919050565b60006020820190508181036000830152612d4081612d04565b9050919050565b60006020820190508181036000830152612d6181846123cc565b905092915050565b6000604082019050612d7e6000830185612366565b8181036020830152612d9081846123cc565b90509392505050565b60008190508160005260206000209050919050565b60006020601f8301049050919050565b600082821b905092915050565b600060088302612dfb7fffffffffffffffffffffffffffffffffffffffffffffffffffffffffffffffff82612dbe565b612e058683612dbe565b95508019841693508086168417925050509392505050565b6000819050919050565b6000612e42612e3d612e38846122d1565b612e1d565b6122d1565b9050919050565b6000819050919050565b612e5c83612e27565b612e70612e6882612e49565b848454612dcb565b825550505050565b600090565b612e85612e78565b612e90818484612e53565b505050565b5b81811015612eb457612ea9600082612e7d565b600181019050612e96565b5050565b601f821115612ef957612eca81612d99565b612ed384612dae565b81016020851015612ee2578190505b612ef6612eee85612dae565b830182612e95565b50505b505050565b600082821c905092915050565b6000612f1c60001984600802612efe565b1980831691505092915050565b6000612f358383612f0b565b9150826002028217905092915050565b612f4e82612375565b67ffffffffffffffff811115612f6757612f66612448565b5b612f718254612b7d565b612f7c828285612eb8565b600060209050601f831160018114612faf5760008415612f9d578287015190505b612fa78582612f29565b86555061300f565b601f198416612fbd86612d99565b60005b82811015612fe557848901518255600182019150602085019450602081019050612fc0565b868310156130025784890151612ffe601f891682612f0b565b8355505b6001600288020188555050505b505050505050565b6000613022826122d1565b915061302d836122d1565b925082820390508181111561304557613044612bdd565b5b92915050565b7f4e487b7100000000000000000000000000000000000000000000000000000000600052603160045260246000fdfea26469706673582212201ef96a6f727c5753dfefdee2006acb54f99260310f53afb743078b7382738a1e64736f6c63430008110033",
			"opcodes": "PUSH1 0x80 PUSH1 0x40 MSTORE CALLVALUE DUP1 ISZERO PUSH2 0x10 JUMPI PUSH1 0x0 DUP1 REVERT JUMPDEST POP PUSH2 0x30B0 DUP1 PUSH2 0x20 PUSH1 0x0 CODECOPY PUSH1 0x0 RETURN INVALID PUSH1 0x80 PUSH1 0x40 MSTORE CALLVALUE DUP1 ISZERO PUSH2 0x10 JUMPI PUSH1 0x0 DUP1 REVERT JUMPDEST POP PUSH1 0x4 CALLDATASIZE LT PUSH2 0x142 JUMPI PUSH1 0x0 CALLDATALOAD PUSH1 0xE0 SHR DUP1 PUSH4 0x8F090B91 GT PUSH2 0xB8 JUMPI DUP1 PUSH4 0xCC2F22F1 GT PUSH2 0x7C JUMPI DUP1 PUSH4 0xCC2F22F1 EQ PUSH2 0x3FB JUMPI DUP1 PUSH4 0xD71E80E3 EQ PUSH2 0x417 JUMPI DUP1 PUSH4 0xD9857D5F EQ PUSH2 0x447 JUMPI DUP1 PUSH4 0xE7618A0A EQ PUSH2 0x478 JUMPI DUP1 PUSH4 0xEC6EA3AA EQ PUSH2 0x494 JUMPI DUP1 PUSH4 0xF9E203C3 EQ PUSH2 0x4B0 JUMPI PUSH2 0x142 JUMP JUMPDEST DUP1 PUSH4 0x8F090B91 EQ PUSH2 0x31F JUMPI DUP1 PUSH4 0x99F8B09F EQ PUSH2 0x34F JUMPI DUP1 PUSH4 0xA5311BCF EQ PUSH2 0x37F JUMPI DUP1 PUSH4 0xBC9D6271 EQ PUSH2 0x3AF JUMPI DUP1 PUSH4 0xC5882344 EQ PUSH2 0x3CB JUMPI PUSH2 0x142 JUMP JUMPDEST DUP1 PUSH4 0x58D30DBC GT PUSH2 0x10A JUMPI DUP1 PUSH4 0x58D30DBC EQ PUSH2 0x23A JUMPI DUP1 PUSH4 0x6E8548BB EQ PUSH2 0x26B JUMPI DUP1 PUSH4 0x74CF3E51 EQ PUSH2 0x287 JUMPI DUP1 PUSH4 0x7915C069 EQ PUSH2 0x2B7 JUMPI DUP1 PUSH4 0x7CBFC58F EQ PUSH2 0x2D3 JUMPI DUP1 PUSH4 0x82760FCA EQ PUSH2 0x2EF JUMPI PUSH2 0x142 JUMP JUMPDEST DUP1 PUSH4 0x2EDCFA3 EQ PUSH2 0x147 JUMPI DUP1 PUSH4 0x9DA40AE EQ PUSH2 0x179 JUMPI DUP1 PUSH4 0xD85D839 EQ PUSH2 0x1A9 JUMPI DUP1 PUSH4 0x3BC358E8 EQ PUSH2 0x1D9 JUMPI DUP1 PUSH4 0x54F5FCBA EQ PUSH2 0x20A JUMPI JUMPDEST PUSH1 0x0 DUP1 REVERT JUMPDEST PUSH2 0x161 PUSH1 0x4 DUP1 CALLDATASIZE SUB DUP2 ADD SWAP1 PUSH2 0x15C SWAP2 SWAP1 PUSH2 0x2307 JUMP JUMPDEST PUSH2 0x4E1 JUMP JUMPDEST PUSH1 0x40 MLOAD PUSH2 0x170 SWAP4 SWAP3 SWAP2 SWAP1 PUSH2 0x2405 JUMP JUMPDEST PUSH1 0x40 MLOAD DUP1 SWAP2 SUB SWAP1 RETURN JUMPDEST PUSH2 0x193 PUSH1 0x4 DUP1 CALLDATASIZE SUB DUP2 ADD SWAP1 PUSH2 0x18E SWAP2 SWAP1 PUSH2 0x25B7 JUMP JUMPDEST PUSH2 0x5E3 JUMP JUMPDEST PUSH1 0x40 MLOAD PUSH2 0x1A0 SWAP2 SWAP1 PUSH2 0x260F JUMP JUMPDEST PUSH1 0x40 MLOAD DUP1 SWAP2 SUB SWAP1 RETURN JUMPDEST PUSH2 0x1C3 PUSH1 0x4 DUP1 CALLDATASIZE SUB DUP2 ADD SWAP1 PUSH2 0x1BE SWAP2 SWAP1 PUSH2 0x26DF JUMP JUMPDEST PUSH2 0x80E JUMP JUMPDEST PUSH1 0x40 MLOAD PUSH2 0x1D0 SWAP2 SWAP1 PUSH2 0x2743 JUMP JUMPDEST PUSH1 0x40 MLOAD DUP1 SWAP2 SUB SWAP1 RETURN JUMPDEST PUSH2 0x1F3 PUSH1 0x4 DUP1 CALLDATASIZE SUB DUP2 ADD SWAP1 PUSH2 0x1EE SWAP2 SWAP1 PUSH2 0x2307 JUMP JUMPDEST PUSH2 0x897 JUMP JUMPDEST PUSH1 0x40 MLOAD PUSH2 0x201 SWAP3 SWAP2 SWAP1 PUSH2 0x275E JUMP JUMPDEST PUSH1 0x40 MLOAD DUP1 SWAP2 SUB SWAP1 RETURN JUMPDEST PUSH2 0x224 PUSH1 0x4 DUP1 CALLDATASIZE SUB DUP2 ADD SWAP1 PUSH2 0x21F SWAP2 SWAP1 PUSH2 0x2787 JUMP JUMPDEST PUSH2 0x90B JUMP JUMPDEST PUSH1 0x40 MLOAD PUSH2 0x231 SWAP2 SWAP1 PUSH2 0x260F JUMP JUMPDEST PUSH1 0x40 MLOAD DUP1 SWAP2 SUB SWAP1 RETURN JUMPDEST PUSH2 0x254 PUSH1 0x4 DUP1 CALLDATASIZE SUB DUP2 ADD SWAP1 PUSH2 0x24F SWAP2 SWAP1 PUSH2 0x2307 JUMP JUMPDEST PUSH2 0xA64 JUMP JUMPDEST PUSH1 0x40 MLOAD PUSH2 0x262 SWAP3 SWAP2 SWAP1 PUSH2 0x275E JUMP JUMPDEST PUSH1 0x40 MLOAD DUP1 SWAP2 SUB SWAP1 RETURN JUMPDEST PUSH2 0x285 PUSH1 0x4 DUP1 CALLDATASIZE SUB DUP2 ADD SWAP1 PUSH2 0x280 SWAP2 SWAP1 PUSH2 0x27B4 JUMP JUMPDEST PUSH2 0xAD8 JUMP JUMPDEST STOP JUMPDEST PUSH2 0x2A1 PUSH1 0x4 DUP1 CALLDATASIZE SUB DUP2 ADD SWAP1 PUSH2 0x29C SWAP2 SWAP1 PUSH2 0x2787 JUMP JUMPDEST PUSH2 0xBDE JUMP JUMPDEST PUSH1 0x40 MLOAD PUSH2 0x2AE SWAP2 SWAP1 PUSH2 0x260F JUMP JUMPDEST PUSH1 0x40 MLOAD DUP1 SWAP2 SUB SWAP1 RETURN JUMPDEST PUSH2 0x2D1 PUSH1 0x4 DUP1 CALLDATASIZE SUB DUP2 ADD SWAP1 PUSH2 0x2CC SWAP2 SWAP1 PUSH2 0x27F4 JUMP JUMPDEST PUSH2 0xD37 JUMP JUMPDEST STOP JUMPDEST PUSH2 0x2ED PUSH1 0x4 DUP1 CALLDATASIZE SUB DUP2 ADD SWAP1 PUSH2 0x2E8 SWAP2 SWAP1 PUSH2 0x2863 JUMP JUMPDEST PUSH2 0xEF8 JUMP JUMPDEST STOP JUMPDEST PUSH2 0x309 PUSH1 0x4 DUP1 CALLDATASIZE SUB DUP2 ADD SWAP1 PUSH2 0x304 SWAP2 SWAP1 PUSH2 0x26DF JUMP JUMPDEST PUSH2 0x11A7 JUMP JUMPDEST PUSH1 0x40 MLOAD PUSH2 0x316 SWAP2 SWAP1 PUSH2 0x28FD JUMP JUMPDEST PUSH1 0x40 MLOAD DUP1 SWAP2 SUB SWAP1 RETURN JUMPDEST PUSH2 0x339 PUSH1 0x4 DUP1 CALLDATASIZE SUB DUP2 ADD SWAP1 PUSH2 0x334 SWAP2 SWAP1 PUSH2 0x2787 JUMP JUMPDEST PUSH2 0x1291 JUMP JUMPDEST PUSH1 0x40 MLOAD PUSH2 0x346 SWAP2 SWAP1 PUSH2 0x2918 JUMP JUMPDEST PUSH1 0x40 MLOAD DUP1 SWAP2 SUB SWAP1 RETURN JUMPDEST PUSH2 0x369 PUSH1 0x4 DUP1 CALLDATASIZE SUB DUP2 ADD SWAP1 PUSH2 0x364 SWAP2 SWAP1 PUSH2 0x2787 JUMP JUMPDEST PUSH2 0x12C4 JUMP JUMPDEST PUSH1 0x40 MLOAD PUSH2 0x376 SWAP2 SWAP1 PUSH2 0x29E2 JUMP JUMPDEST PUSH1 0x40 MLOAD DUP1 SWAP2 SUB SWAP1 RETURN JUMPDEST PUSH2 0x399 PUSH1 0x4 DUP1 CALLDATASIZE SUB DUP2 ADD SWAP1 PUSH2 0x394 SWAP2 SWAP1 PUSH2 0x2787 JUMP JUMPDEST PUSH2 0x14C7 JUMP JUMPDEST PUSH1 0x40 MLOAD PUSH2 0x3A6 SWAP2 SWAP1 PUSH2 0x2918 JUMP JUMPDEST PUSH1 0x40 MLOAD DUP1 SWAP2 SUB SWAP1 RETURN JUMPDEST PUSH2 0x3C9 PUSH1 0x4 DUP1 CALLDATASIZE SUB DUP2 ADD SWAP1 PUSH2 0x3C4 SWAP2 SWAP1 PUSH2 0x2A30 JUMP JUMPDEST PUSH2 0x152F JUMP JUMPDEST STOP JUMPDEST PUSH2 0x3E5 PUSH1 0x4 DUP1 CALLDATASIZE SUB DUP2 ADD SWAP1 PUSH2 0x3E0 SWAP2 SWAP1 PUSH2 0x25B7 JUMP JUMPDEST PUSH2 0x1837 JUMP JUMPDEST PUSH1 0x40 MLOAD PUSH2 0x3F2 SWAP2 SWAP1 PUSH2 0x29E2 JUMP JUMPDEST PUSH1 0x40 MLOAD DUP1 SWAP2 SUB SWAP1 RETURN JUMPDEST PUSH2 0x415 PUSH1 0x4 DUP1 CALLDATASIZE SUB DUP2 ADD SWAP1 PUSH2 0x410 SWAP2 SWAP1 PUSH2 0x2A83 JUMP JUMPDEST PUSH2 0x1B08 JUMP JUMPDEST STOP JUMPDEST PUSH2 0x431 PUSH1 0x4 DUP1 CALLDATASIZE SUB DUP2 ADD SWAP1 PUSH2 0x42C SWAP2 SWAP1 PUSH2 0x2787 JUMP JUMPDEST PUSH2 0x1BE4 JUMP JUMPDEST PUSH1 0x40 MLOAD PUSH2 0x43E SWAP2 SWAP1 PUSH2 0x29E2 JUMP JUMPDEST PUSH1 0x40 MLOAD DUP1 SWAP2 SUB SWAP1 RETURN JUMPDEST PUSH2 0x461 PUSH1 0x4 DUP1 CALLDATASIZE SUB DUP2 ADD SWAP1 PUSH2 0x45C SWAP2 SWAP1 PUSH2 0x26DF JUMP JUMPDEST PUSH2 0x1DE7 JUMP JUMPDEST PUSH1 0x40 MLOAD PUSH2 0x46F SWAP3 SWAP2 SWAP1 PUSH2 0x275E JUMP JUMPDEST PUSH1 0x40 MLOAD DUP1 SWAP2 SUB SWAP1 RETURN JUMPDEST PUSH2 0x492 PUSH1 0x4 DUP1 CALLDATASIZE SUB DUP2 ADD SWAP1 PUSH2 0x48D SWAP2 SWAP1 PUSH2 0x2AF2 JUMP JUMPDEST PUSH2 0x1E61 JUMP JUMPDEST STOP JUMPDEST PUSH2 0x4AE PUSH1 0x4 DUP1 CALLDATASIZE SUB DUP2 ADD SWAP1 PUSH2 0x4A9 SWAP2 SWAP1 PUSH2 0x2307 JUMP JUMPDEST PUSH2 0x2061 JUMP JUMPDEST STOP JUMPDEST PUSH2 0x4CA PUSH1 0x4 DUP1 CALLDATASIZE SUB DUP2 ADD SWAP1 PUSH2 0x4C5 SWAP2 SWAP1 PUSH2 0x2307 JUMP JUMPDEST PUSH2 0x2203 JUMP JUMPDEST PUSH1 0x40 MLOAD PUSH2 0x4D8 SWAP3 SWAP2 SWAP1 PUSH2 0x275E JUMP JUMPDEST PUSH1 0x40 MLOAD DUP1 SWAP2 SUB SWAP1 RETURN JUMPDEST PUSH1 0x3 DUP2 DUP2 SLOAD DUP2 LT PUSH2 0x4F1 JUMPI PUSH1 0x0 DUP1 REVERT JUMPDEST SWAP1 PUSH1 0x0 MSTORE PUSH1 0x20 PUSH1 0x0 KECCAK256 SWAP1 PUSH1 0x3 MUL ADD PUSH1 0x0 SWAP2 POP SWAP1 POP DUP1 PUSH1 0x0 ADD PUSH1 0x0 SWAP1 SLOAD SWAP1 PUSH2 0x100 EXP SWAP1 DIV PUSH20 0xFFFFFFFFFFFFFFFFFFFFFFFFFFFFFFFFFFFFFFFF AND SWAP1 DUP1 PUSH1 0x1 ADD DUP1 SLOAD PUSH2 0x53A SWAP1 PUSH2 0x2B7D JUMP JUMPDEST DUP1 PUSH1 0x1F ADD PUSH1 0x20 DUP1 SWAP2 DIV MUL PUSH1 0x20 ADD PUSH1 0x40 MLOAD SWAP1 DUP2 ADD PUSH1 0x40 MSTORE DUP1 SWAP3 SWAP2 SWAP1 DUP2 DUP2 MSTORE PUSH1 0x20 ADD DUP3 DUP1 SLOAD PUSH2 0x566 SWAP1 PUSH2 0x2B7D JUMP JUMPDEST DUP1 ISZERO PUSH2 0x5B3 JUMPI DUP1 PUSH1 0x1F LT PUSH2 0x588 JUMPI PUSH2 0x100 DUP1 DUP4 SLOAD DIV MUL DUP4 MSTORE SWAP2 PUSH1 0x20 ADD SWAP2 PUSH2 0x5B3 JUMP JUMPDEST DUP3 ADD SWAP2 SWAP1 PUSH1 0x0 MSTORE PUSH1 0x20 PUSH1 0x0 KECCAK256 SWAP1 JUMPDEST DUP2 SLOAD DUP2 MSTORE SWAP1 PUSH1 0x1 ADD SWAP1 PUSH1 0x20 ADD DUP1 DUP4 GT PUSH2 0x596 JUMPI DUP3 SWAP1 SUB PUSH1 0x1F AND DUP3 ADD SWAP2 JUMPDEST POP POP POP POP POP SWAP1 DUP1 PUSH1 0x2 ADD PUSH1 0x0 SWAP1 SLOAD SWAP1 PUSH2 0x100 EXP SWAP1 DIV PUSH20 0xFFFFFFFFFFFFFFFFFFFFFFFFFFFFFFFFFFFFFFFF AND SWAP1 POP DUP4 JUMP JUMPDEST PUSH1 0x0 DUP1 PUSH1 0x0 SWAP1 POP PUSH1 0x0 JUMPDEST DUP4 MLOAD DUP2 LT ISZERO PUSH2 0x804 JUMPI PUSH1 0x0 DUP5 DUP3 DUP2 MLOAD DUP2 LT PUSH2 0x60B JUMPI PUSH2 0x60A PUSH2 0x2BAE JUMP JUMPDEST JUMPDEST PUSH1 0x20 MUL PUSH1 0x20 ADD ADD MLOAD SWAP1 POP PUSH1 0x0 JUMPDEST PUSH1 0x3 DUP1 SLOAD SWAP1 POP DUP2 LT ISZERO PUSH2 0x7EF JUMPI PUSH1 0x0 PUSH1 0x3 DUP3 DUP2 SLOAD DUP2 LT PUSH2 0x63B JUMPI PUSH2 0x63A PUSH2 0x2BAE JUMP JUMPDEST JUMPDEST SWAP1 PUSH1 0x0 MSTORE PUSH1 0x20 PUSH1 0x0 KECCAK256 SWAP1 PUSH1 0x3 MUL ADD PUSH1 0x40 MLOAD DUP1 PUSH1 0x60 ADD PUSH1 0x40 MSTORE SWAP1 DUP2 PUSH1 0x0 DUP3 ADD PUSH1 0x0 SWAP1 SLOAD SWAP1 PUSH2 0x100 EXP SWAP1 DIV PUSH20 0xFFFFFFFFFFFFFFFFFFFFFFFFFFFFFFFFFFFFFFFF AND PUSH20 0xFFFFFFFFFFFFFFFFFFFFFFFFFFFFFFFFFFFFFFFF AND PUSH20 0xFFFFFFFFFFFFFFFFFFFFFFFFFFFFFFFFFFFFFFFF AND DUP2 MSTORE PUSH1 0x20 ADD PUSH1 0x1 DUP3 ADD DUP1 SLOAD PUSH2 0x6BA SWAP1 PUSH2 0x2B7D JUMP JUMPDEST DUP1 PUSH1 0x1F ADD PUSH1 0x20 DUP1 SWAP2 DIV MUL PUSH1 0x20 ADD PUSH1 0x40 MLOAD SWAP1 DUP2 ADD PUSH1 0x40 MSTORE DUP1 SWAP3 SWAP2 SWAP1 DUP2 DUP2 MSTORE PUSH1 0x20 ADD DUP3 DUP1 SLOAD PUSH2 0x6E6 SWAP1 PUSH2 0x2B7D JUMP JUMPDEST DUP1 ISZERO PUSH2 0x733 JUMPI DUP1 PUSH1 0x1F LT PUSH2 0x708 JUMPI PUSH2 0x100 DUP1 DUP4 SLOAD DIV MUL DUP4 MSTORE SWAP2 PUSH1 0x20 ADD SWAP2 PUSH2 0x733 JUMP JUMPDEST DUP3 ADD SWAP2 SWAP1 PUSH1 0x0 MSTORE PUSH1 0x20 PUSH1 0x0 KECCAK256 SWAP1 JUMPDEST DUP2 SLOAD DUP2 MSTORE SWAP1 PUSH1 0x1 ADD SWAP1 PUSH1 0x20 ADD DUP1 DUP4 GT PUSH2 0x716 JUMPI DUP3 SWAP1 SUB PUSH1 0x1F AND DUP3 ADD SWAP2 JUMPDEST POP POP POP POP POP DUP2 MSTORE PUSH1 0x20 ADD PUSH1 0x2 DUP3 ADD PUSH1 0x0 SWAP1 SLOAD SWAP1 PUSH2 0x100 EXP SWAP1 DIV PUSH20 0xFFFFFFFFFFFFFFFFFFFFFFFFFFFFFFFFFFFFFFFF AND PUSH20 0xFFFFFFFFFFFFFFFFFFFFFFFFFFFFFFFFFFFFFFFF AND PUSH20 0xFFFFFFFFFFFFFFFFFFFFFFFFFFFFFFFFFFFFFFFF AND DUP2 MSTORE POP POP SWAP1 POP DUP3 PUSH20 0xFFFFFFFFFFFFFFFFFFFFFFFFFFFFFFFFFFFFFFFF AND DUP2 PUSH1 0x40 ADD MLOAD PUSH20 0xFFFFFFFFFFFFFFFFFFFFFFFFFFFFFFFFFFFFFFFF AND SUB PUSH2 0x7DB JUMPI PUSH1 0x1 DUP6 PUSH2 0x7D8 SWAP2 SWAP1 PUSH2 0x2C0C JUMP JUMPDEST SWAP5 POP JUMPDEST POP DUP1 DUP1 PUSH2 0x7E7 SWAP1 PUSH2 0x2C40 JUMP JUMPDEST SWAP2 POP POP PUSH2 0x618 JUMP JUMPDEST POP POP DUP1 DUP1 PUSH2 0x7FC SWAP1 PUSH2 0x2C40 JUMP JUMPDEST SWAP2 POP POP PUSH2 0x5ED JUMP JUMPDEST POP DUP1 SWAP2 POP POP SWAP2 SWAP1 POP JUMP JUMPDEST PUSH1 0x0 DUP1 PUSH20 0xFFFFFFFFFFFFFFFFFFFFFFFFFFFFFFFFFFFFFFFF AND PUSH1 0x1 DUP4 PUSH1 0x40 MLOAD PUSH2 0x837 SWAP2 SWAP1 PUSH2 0x2CC4 JUMP JUMPDEST SWAP1 DUP2 MSTORE PUSH1 0x20 ADD PUSH1 0x40 MLOAD DUP1 SWAP2 SUB SWAP1 KECCAK256 PUSH1 0x0 ADD PUSH1 0x0 SWAP1 SLOAD SWAP1 PUSH2 0x100 EXP SWAP1 DIV PUSH20 0xFFFFFFFFFFFFFFFFFFFFFFFFFFFFFFFFFFFFFFFF AND PUSH20 0xFFFFFFFFFFFFFFFFFFFFFFFFFFFFFFFFFFFFFFFF AND SUB PUSH2 0x88D JUMPI PUSH1 0x0 SWAP1 POP PUSH2 0x892 JUMP JUMPDEST PUSH1 0x1 SWAP1 POP JUMPDEST SWAP2 SWAP1 POP JUMP JUMPDEST PUSH1 0x7 DUP2 DUP2 SLOAD DUP2 LT PUSH2 0x8A7 JUMPI PUSH1 0x0 DUP1 REVERT JUMPDEST SWAP1 PUSH1 0x0 MSTORE PUSH1 0x20 PUSH1 0x0 KECCAK256 SWAP1 PUSH1 0x2 MUL ADD PUSH1 0x0 SWAP2 POP SWAP1 POP DUP1 PUSH1 0x0 ADD PUSH1 0x0 SWAP1 SLOAD SWAP1 PUSH2 0x100 EXP SWAP1 DIV PUSH20 0xFFFFFFFFFFFFFFFFFFFFFFFFFFFFFFFFFFFFFFFF AND SWAP1 DUP1 PUSH1 0x1 ADD PUSH1 0x0 SWAP1 SLOAD SWAP1 PUSH2 0x100 EXP SWAP1 DIV PUSH20 0xFFFFFFFFFFFFFFFFFFFFFFFFFFFFFFFFFFFFFFFF AND SWAP1 POP DUP3 JUMP JUMPDEST PUSH1 0x0 DUP1 PUSH1 0x0 SWAP1 POP PUSH1 0x0 JUMPDEST PUSH1 0x6 DUP1 SLOAD SWAP1 POP DUP2 LT ISZERO PUSH2 0xA5A JUMPI PUSH1 0x0 PUSH1 0x6 DUP3 DUP2 SLOAD DUP2 LT PUSH2 0x938 JUMPI PUSH2 0x937 PUSH2 0x2BAE JUMP JUMPDEST JUMPDEST SWAP1 PUSH1 0x0 MSTORE PUSH1 0x20 PUSH1 0x0 KECCAK256 SWAP1 PUSH1 0x2 MUL ADD PUSH1 0x40 MLOAD DUP1 PUSH1 0x40 ADD PUSH1 0x40 MSTORE SWAP1 DUP2 PUSH1 0x0 DUP3 ADD PUSH1 0x0 SWAP1 SLOAD SWAP1 PUSH2 0x100 EXP SWAP1 DIV PUSH20 0xFFFFFFFFFFFFFFFFFFFFFFFFFFFFFFFFFFFFFFFF AND PUSH20 0xFFFFFFFFFFFFFFFFFFFFFFFFFFFFFFFFFFFFFFFF AND PUSH20 0xFFFFFFFFFFFFFFFFFFFFFFFFFFFFFFFFFFFFFFFF AND DUP2 MSTORE PUSH1 0x20 ADD PUSH1 0x1 DUP3 ADD PUSH1 0x0 SWAP1 SLOAD SWAP1 PUSH2 0x100 EXP SWAP1 DIV PUSH20 0xFFFFFFFFFFFFFFFFFFFFFFFFFFFFFFFFFFFFFFFF AND PUSH20 0xFFFFFFFFFFFFFFFFFFFFFFFFFFFFFFFFFFFFFFFF AND PUSH20 0xFFFFFFFFFFFFFFFFFFFFFFFFFFFFFFFFFFFFFFFF AND DUP2 MSTORE POP POP SWAP1 POP DUP5 PUSH20 0xFFFFFFFFFFFFFFFFFFFFFFFFFFFFFFFFFFFFFFFF AND DUP2 PUSH1 0x0 ADD MLOAD PUSH20 0xFFFFFFFFFFFFFFFFFFFFFFFFFFFFFFFFFFFFFFFF AND SUB PUSH2 0xA46 JUMPI PUSH1 0x1 DUP4 PUSH2 0xA43 SWAP2 SWAP1 PUSH2 0x2C0C JUMP JUMPDEST SWAP3 POP JUMPDEST POP DUP1 DUP1 PUSH2 0xA52 SWAP1 PUSH2 0x2C40 JUMP JUMPDEST SWAP2 POP POP PUSH2 0x915 JUMP JUMPDEST DUP2 SWAP3 POP POP POP SWAP2 SWAP1 POP JUMP JUMPDEST PUSH1 0x2 DUP2 DUP2 SLOAD DUP2 LT PUSH2 0xA74 JUMPI PUSH1 0x0 DUP1 REVERT JUMPDEST SWAP1 PUSH1 0x0 MSTORE PUSH1 0x20 PUSH1 0x0 KECCAK256 SWAP1 PUSH1 0x2 MUL ADD PUSH1 0x0 SWAP2 POP SWAP1 POP DUP1 PUSH1 0x0 ADD PUSH1 0x0 SWAP1 SLOAD SWAP1 PUSH2 0x100 EXP SWAP1 DIV PUSH20 0xFFFFFFFFFFFFFFFFFFFFFFFFFFFFFFFFFFFFFFFF AND SWAP1 DUP1 PUSH1 0x1 ADD PUSH1 0x0 SWAP1 SLOAD SWAP1 PUSH2 0x100 EXP SWAP1 DIV PUSH20 0xFFFFFFFFFFFFFFFFFFFFFFFFFFFFFFFFFFFFFFFF AND SWAP1 POP DUP3 JUMP JUMPDEST PUSH1 0x0 PUSH1 0x40 MLOAD DUP1 PUSH1 0x40 ADD PUSH1 0x40 MSTORE DUP1 DUP5 PUSH20 0xFFFFFFFFFFFFFFFFFFFFFFFFFFFFFFFFFFFFFFFF AND DUP2 MSTORE PUSH1 0x20 ADD DUP4 PUSH20 0xFFFFFFFFFFFFFFFFFFFFFFFFFFFFFFFFFFFFFFFF AND DUP2 MSTORE POP SWAP1 POP PUSH1 0x2 DUP2 SWAP1 DUP1 PUSH1 0x1 DUP2 SLOAD ADD DUP1 DUP3 SSTORE DUP1 SWAP2 POP POP PUSH1 0x1 SWAP1 SUB SWAP1 PUSH1 0x0 MSTORE PUSH1 0x20 PUSH1 0x0 KECCAK256 SWAP1 PUSH1 0x2 MUL ADD PUSH1 0x0 SWAP1 SWAP2 SWAP1 SWAP2 SWAP1 SWAP2 POP PUSH1 0x0 DUP3 ADD MLOAD DUP2 PUSH1 0x0 ADD PUSH1 0x0 PUSH2 0x100 EXP DUP2 SLOAD DUP2 PUSH20 0xFFFFFFFFFFFFFFFFFFFFFFFFFFFFFFFFFFFFFFFF MUL NOT AND SWAP1 DUP4 PUSH20 0xFFFFFFFFFFFFFFFFFFFFFFFFFFFFFFFFFFFFFFFF AND MUL OR SWAP1 SSTORE POP PUSH1 0x20 DUP3 ADD MLOAD DUP2 PUSH1 0x1 ADD PUSH1 0x0 PUSH2 0x100 EXP DUP2 SLOAD DUP2 PUSH20 0xFFFFFFFFFFFFFFFFFFFFFFFFFFFFFFFFFFFFFFFF MUL NOT AND SWAP1 DUP4 PUSH20 0xFFFFFFFFFFFFFFFFFFFFFFFFFFFFFFFFFFFFFFFF AND MUL OR SWAP1 SSTORE POP POP POP POP POP POP JUMP JUMPDEST PUSH1 0x0 DUP1 PUSH1 0x0 SWAP1 POP PUSH1 0x0 JUMPDEST PUSH1 0x2 DUP1 SLOAD SWAP1 POP DUP2 LT ISZERO PUSH2 0xD2D JUMPI PUSH1 0x0 PUSH1 0x2 DUP3 DUP2 SLOAD DUP2 LT PUSH2 0xC0B JUMPI PUSH2 0xC0A PUSH2 0x2BAE JUMP JUMPDEST JUMPDEST SWAP1 PUSH1 0x0 MSTORE PUSH1 0x20 PUSH1 0x0 KECCAK256 SWAP1 PUSH1 0x2 MUL ADD PUSH1 0x40 MLOAD DUP1 PUSH1 0x40 ADD PUSH1 0x40 MSTORE SWAP1 DUP2 PUSH1 0x0 DUP3 ADD PUSH1 0x0 SWAP1 SLOAD SWAP1 PUSH2 0x100 EXP SWAP1 DIV PUSH20 0xFFFFFFFFFFFFFFFFFFFFFFFFFFFFFFFFFFFFFFFF AND PUSH20 0xFFFFFFFFFFFFFFFFFFFFFFFFFFFFFFFFFFFFFFFF AND PUSH20 0xFFFFFFFFFFFFFFFFFFFFFFFFFFFFFFFFFFFFFFFF AND DUP2 MSTORE PUSH1 0x20 ADD PUSH1 0x1 DUP3 ADD PUSH1 0x0 SWAP1 SLOAD SWAP1 PUSH2 0x100 EXP SWAP1 DIV PUSH20 0xFFFFFFFFFFFFFFFFFFFFFFFFFFFFFFFFFFFFFFFF AND PUSH20 0xFFFFFFFFFFFFFFFFFFFFFFFFFFFFFFFFFFFFFFFF AND PUSH20 0xFFFFFFFFFFFFFFFFFFFFFFFFFFFFFFFFFFFFFFFF AND DUP2 MSTORE POP POP SWAP1 POP DUP5 PUSH20 0xFFFFFFFFFFFFFFFFFFFFFFFFFFFFFFFFFFFFFFFF AND DUP2 PUSH1 0x20 ADD MLOAD PUSH20 0xFFFFFFFFFFFFFFFFFFFFFFFFFFFFFFFFFFFFFFFF AND SUB PUSH2 0xD19 JUMPI PUSH1 0x1 DUP4 PUSH2 0xD16 SWAP2 SWAP1 PUSH2 0x2C0C JUMP JUMPDEST SWAP3 POP JUMPDEST POP DUP1 DUP1 PUSH2 0xD25 SWAP1 PUSH2 0x2C40 JUMP JUMPDEST SWAP2 POP POP PUSH2 0xBE8 JUMP JUMPDEST DUP2 SWAP3 POP POP POP SWAP2 SWAP1 POP JUMP JUMPDEST PUSH2 0xD40 DUP4 PUSH2 0x80E JUMP JUMPDEST ISZERO PUSH2 0xD80 JUMPI PUSH1 0x40 MLOAD PUSH32 0x8C379A000000000000000000000000000000000000000000000000000000000 DUP2 MSTORE PUSH1 0x4 ADD PUSH2 0xD77 SWAP1 PUSH2 0x2D27 JUMP JUMPDEST PUSH1 0x40 MLOAD DUP1 SWAP2 SUB SWAP1 REVERT JUMPDEST DUP1 PUSH1 0x0 DUP1 DUP5 PUSH20 0xFFFFFFFFFFFFFFFFFFFFFFFFFFFFFFFFFFFFFFFF AND PUSH20 0xFFFFFFFFFFFFFFFFFFFFFFFFFFFFFFFFFFFFFFFF AND DUP2 MSTORE PUSH1 0x20 ADD SWAP1 DUP2 MSTORE PUSH1 0x20 ADD PUSH1 0x0 KECCAK256 PUSH1 0x0 PUSH2 0x100 EXP DUP2 SLOAD DUP2 PUSH20 0xFFFFFFFFFFFFFFFFFFFFFFFFFFFFFFFFFFFFFFFF MUL NOT AND SWAP1 DUP4 PUSH20 0xFFFFFFFFFFFFFFFFFFFFFFFFFFFFFFFFFFFFFFFF AND MUL OR SWAP1 SSTORE POP PUSH1 0x0 PUSH1 0x40 MLOAD DUP1 PUSH1 0x40 ADD PUSH1 0x40 MSTORE DUP1 DUP5 PUSH20 0xFFFFFFFFFFFFFFFFFFFFFFFFFFFFFFFFFFFFFFFF AND DUP2 MSTORE PUSH1 0x20 ADD DUP4 PUSH20 0xFFFFFFFFFFFFFFFFFFFFFFFFFFFFFFFFFFFFFFFF AND DUP2 MSTORE POP SWAP1 POP DUP1 PUSH1 0x1 DUP6 PUSH1 0x40 MLOAD PUSH2 0xE53 SWAP2 SWAP1 PUSH2 0x2CC4 JUMP JUMPDEST SWAP1 DUP2 MSTORE PUSH1 0x20 ADD PUSH1 0x40 MLOAD DUP1 SWAP2 SUB SWAP1 KECCAK256 PUSH1 0x0 DUP3 ADD MLOAD DUP2 PUSH1 0x0 ADD PUSH1 0x0 PUSH2 0x100 EXP DUP2 SLOAD DUP2 PUSH20 0xFFFFFFFFFFFFFFFFFFFFFFFFFFFFFFFFFFFFFFFF MUL NOT AND SWAP1 DUP4 PUSH20 0xFFFFFFFFFFFFFFFFFFFFFFFFFFFFFFFFFFFFFFFF AND MUL OR SWAP1 SSTORE POP PUSH1 0x20 DUP3 ADD MLOAD DUP2 PUSH1 0x1 ADD PUSH1 0x0 PUSH2 0x100 EXP DUP2 SLOAD DUP2 PUSH20 0xFFFFFFFFFFFFFFFFFFFFFFFFFFFFFFFFFFFFFFFF MUL NOT AND SWAP1 DUP4 PUSH20 0xFFFFFFFFFFFFFFFFFFFFFFFFFFFFFFFFFFFFFFFF AND MUL OR SWAP1 SSTORE POP SWAP1 POP POP POP POP POP POP JUMP JUMPDEST PUSH1 0x0 JUMPDEST PUSH1 0x3 DUP1 SLOAD SWAP1 POP DUP2 LT ISZERO PUSH2 0x11A2 JUMPI PUSH1 0x0 PUSH1 0x3 DUP3 DUP2 SLOAD DUP2 LT PUSH2 0xF1E JUMPI PUSH2 0xF1D PUSH2 0x2BAE JUMP JUMPDEST JUMPDEST SWAP1 PUSH1 0x0 MSTORE PUSH1 0x20 PUSH1 0x0 KECCAK256 SWAP1 PUSH1 0x3 MUL ADD PUSH1 0x40 MLOAD DUP1 PUSH1 0x60 ADD PUSH1 0x40 MSTORE SWAP1 DUP2 PUSH1 0x0 DUP3 ADD PUSH1 0x0 SWAP1 SLOAD SWAP1 PUSH2 0x100 EXP SWAP1 DIV PUSH20 0xFFFFFFFFFFFFFFFFFFFFFFFFFFFFFFFFFFFFFFFF AND PUSH20 0xFFFFFFFFFFFFFFFFFFFFFFFFFFFFFFFFFFFFFFFF AND PUSH20 0xFFFFFFFFFFFFFFFFFFFFFFFFFFFFFFFFFFFFFFFF AND DUP2 MSTORE PUSH1 0x20 ADD PUSH1 0x1 DUP3 ADD DUP1 SLOAD PUSH2 0xF9D SWAP1 PUSH2 0x2B7D JUMP JUMPDEST DUP1 PUSH1 0x1F ADD PUSH1 0x20 DUP1 SWAP2 DIV MUL PUSH1 0x20 ADD PUSH1 0x40 MLOAD SWAP1 DUP2 ADD PUSH1 0x40 MSTORE DUP1 SWAP3 SWAP2 SWAP1 DUP2 DUP2 MSTORE PUSH1 0x20 ADD DUP3 DUP1 SLOAD PUSH2 0xFC9 SWAP1 PUSH2 0x2B7D JUMP JUMPDEST DUP1 ISZERO PUSH2 0x1016 JUMPI DUP1 PUSH1 0x1F LT PUSH2 0xFEB JUMPI PUSH2 0x100 DUP1 DUP4 SLOAD DIV MUL DUP4 MSTORE SWAP2 PUSH1 0x20 ADD SWAP2 PUSH2 0x1016 JUMP JUMPDEST DUP3 ADD SWAP2 SWAP1 PUSH1 0x0 MSTORE PUSH1 0x20 PUSH1 0x0 KECCAK256 SWAP1 JUMPDEST DUP2 SLOAD DUP2 MSTORE SWAP1 PUSH1 0x1 ADD SWAP1 PUSH1 0x20 ADD DUP1 DUP4 GT PUSH2 0xFF9 JUMPI DUP3 SWAP1 SUB PUSH1 0x1F AND DUP3 ADD SWAP2 JUMPDEST POP POP POP POP POP DUP2 MSTORE PUSH1 0x20 ADD PUSH1 0x2 DUP3 ADD PUSH1 0x0 SWAP1 SLOAD SWAP1 PUSH2 0x100 EXP SWAP1 DIV PUSH20 0xFFFFFFFFFFFFFFFFFFFFFFFFFFFFFFFFFFFFFFFF AND PUSH20 0xFFFFFFFFFFFFFFFFFFFFFFFFFFFFFFFFFFFFFFFF AND PUSH20 0xFFFFFFFFFFFFFFFFFFFFFFFFFFFFFFFFFFFFFFFF AND DUP2 MSTORE POP POP SWAP1 POP DUP4 PUSH20 0xFFFFFFFFFFFFFFFFFFFFFFFFFFFFFFFFFFFFFFFF AND DUP2 PUSH1 0x40 ADD MLOAD PUSH20 0xFFFFFFFFFFFFFFFFFFFFFFFFFFFFFFFFFFFFFFFF AND SUB PUSH2 0x118E JUMPI PUSH1 0x0 DUP2 PUSH1 0x0 ADD MLOAD SWAP1 POP PUSH1 0x0 DUP1 PUSH1 0x0 DUP4 PUSH20 0xFFFFFFFFFFFFFFFFFFFFFFFFFFFFFFFFFFFFFFFF AND PUSH20 0xFFFFFFFFFFFFFFFFFFFFFFFFFFFFFFFFFFFFFFFF AND DUP2 MSTORE PUSH1 0x20 ADD SWAP1 DUP2 MSTORE PUSH1 0x20 ADD PUSH1 0x0 KECCAK256 PUSH1 0x0 SWAP1 SLOAD SWAP1 PUSH2 0x100 EXP SWAP1 DIV PUSH20 0xFFFFFFFFFFFFFFFFFFFFFFFFFFFFFFFFFFFFFFFF AND SWAP1 POP PUSH1 0x0 DUP2 SWAP1 POP DUP1 PUSH20 0xFFFFFFFFFFFFFFFFFFFFFFFFFFFFFFFFFFFFFFFF AND PUSH4 0xD65EC855 DUP8 PUSH1 0x40 MLOAD DUP3 PUSH4 0xFFFFFFFF AND PUSH1 0xE0 SHL DUP2 MSTORE PUSH1 0x4 ADD PUSH2 0x1158 SWAP2 SWAP1 PUSH2 0x2D47 JUMP JUMPDEST PUSH1 0x0 PUSH1 0x40 MLOAD DUP1 DUP4 SUB DUP2 PUSH1 0x0 DUP8 DUP1 EXTCODESIZE ISZERO DUP1 ISZERO PUSH2 0x1172 JUMPI PUSH1 0x0 DUP1 REVERT JUMPDEST POP GAS CALL ISZERO DUP1 ISZERO PUSH2 0x1186 JUMPI RETURNDATASIZE PUSH1 0x0 DUP1 RETURNDATACOPY RETURNDATASIZE PUSH1 0x0 REVERT JUMPDEST POP POP POP POP POP POP POP JUMPDEST POP DUP1 DUP1 PUSH2 0x119A SWAP1 PUSH2 0x2C40 JUMP JUMPDEST SWAP2 POP POP PUSH2 0xEFB JUMP JUMPDEST POP POP POP JUMP JUMPDEST PUSH2 0x11AF PUSH2 0x2277 JUMP JUMPDEST PUSH1 0x0 PUSH1 0x1 DUP4 PUSH1 0x40 MLOAD PUSH2 0x11C1 SWAP2 SWAP1 PUSH2 0x2CC4 JUMP JUMPDEST SWAP1 DUP2 MSTORE PUSH1 0x20 ADD PUSH1 0x40 MLOAD DUP1 SWAP2 SUB SWAP1 KECCAK256 PUSH1 0x40 MLOAD DUP1 PUSH1 0x40 ADD PUSH1 0x40 MSTORE SWAP1 DUP2 PUSH1 0x0 DUP3 ADD PUSH1 0x0 SWAP1 SLOAD SWAP1 PUSH2 0x100 EXP SWAP1 DIV PUSH20 0xFFFFFFFFFFFFFFFFFFFFFFFFFFFFFFFFFFFFFFFF AND PUSH20 0xFFFFFFFFFFFFFFFFFFFFFFFFFFFFFFFFFFFFFFFF AND PUSH20 0xFFFFFFFFFFFFFFFFFFFFFFFFFFFFFFFFFFFFFFFF AND DUP2 MSTORE PUSH1 0x20 ADD PUSH1 0x1 DUP3 ADD PUSH1 0x0 SWAP1 SLOAD SWAP1 PUSH2 0x100 EXP SWAP1 DIV PUSH20 0xFFFFFFFFFFFFFFFFFFFFFFFFFFFFFFFFFFFFFFFF AND PUSH20 0xFFFFFFFFFFFFFFFFFFFFFFFFFFFFFFFFFFFFFFFF AND PUSH20 0xFFFFFFFFFFFFFFFFFFFFFFFFFFFFFFFFFFFFFFFF AND DUP2 MSTORE POP POP SWAP1 POP DUP1 SWAP2 POP POP SWAP2 SWAP1 POP JUMP JUMPDEST PUSH1 0x0 PUSH1 0x20 MSTORE DUP1 PUSH1 0x0 MSTORE PUSH1 0x40 PUSH1 0x0 KECCAK256 PUSH1 0x0 SWAP2 POP SLOAD SWAP1 PUSH2 0x100 EXP SWAP1 DIV PUSH20 0xFFFFFFFFFFFFFFFFFFFFFFFFFFFFFFFFFFFFFFFF AND DUP2 JUMP JUMPDEST PUSH1 0x60 PUSH1 0x0 PUSH2 0x12D1 DUP4 PUSH2 0xBDE JUMP JUMPDEST SWAP1 POP PUSH1 0x0 DUP1 DUP3 PUSH8 0xFFFFFFFFFFFFFFFF DUP2 GT ISZERO PUSH2 0x12F0 JUMPI PUSH2 0x12EF PUSH2 0x2448 JUMP JUMPDEST JUMPDEST PUSH1 0x40 MLOAD SWAP1 DUP1 DUP3 MSTORE DUP1 PUSH1 0x20 MUL PUSH1 0x20 ADD DUP3 ADD PUSH1 0x40 MSTORE DUP1 ISZERO PUSH2 0x131E JUMPI DUP2 PUSH1 0x20 ADD PUSH1 0x20 DUP3 MUL DUP1 CALLDATASIZE DUP4 CALLDATACOPY DUP1 DUP3 ADD SWAP2 POP POP SWAP1 POP JUMPDEST POP SWAP1 POP PUSH1 0x0 JUMPDEST PUSH1 0x2 DUP1 SLOAD SWAP1 POP DUP2 LT ISZERO PUSH2 0x14BB JUMPI PUSH1 0x0 PUSH1 0x2 DUP3 DUP2 SLOAD DUP2 LT PUSH2 0x1347 JUMPI PUSH2 0x1346 PUSH2 0x2BAE JUMP JUMPDEST JUMPDEST SWAP1 PUSH1 0x0 MSTORE PUSH1 0x20 PUSH1 0x0 KECCAK256 SWAP1 PUSH1 0x2 MUL ADD PUSH1 0x40 MLOAD DUP1 PUSH1 0x40 ADD PUSH1 0x40 MSTORE SWAP1 DUP2 PUSH1 0x0 DUP3 ADD PUSH1 0x0 SWAP1 SLOAD SWAP1 PUSH2 0x100 EXP SWAP1 DIV PUSH20 0xFFFFFFFFFFFFFFFFFFFFFFFFFFFFFFFFFFFFFFFF AND PUSH20 0xFFFFFFFFFFFFFFFFFFFFFFFFFFFFFFFFFFFFFFFF AND PUSH20 0xFFFFFFFFFFFFFFFFFFFFFFFFFFFFFFFFFFFFFFFF AND DUP2 MSTORE PUSH1 0x20 ADD PUSH1 0x1 DUP3 ADD PUSH1 0x0 SWAP1 SLOAD SWAP1 PUSH2 0x100 EXP SWAP1 DIV PUSH20 0xFFFFFFFFFFFFFFFFFFFFFFFFFFFFFFFFFFFFFFFF AND PUSH20 0xFFFFFFFFFFFFFFFFFFFFFFFFFFFFFFFFFFFFFFFF AND PUSH20 0xFFFFFFFFFFFFFFFFFFFFFFFFFFFFFFFFFFFFFFFF AND DUP2 MSTORE POP POP SWAP1 POP DUP7 PUSH20 0xFFFFFFFFFFFFFFFFFFFFFFFFFFFFFFFFFFFFFFFF AND DUP2 PUSH1 0x20 ADD MLOAD PUSH20 0xFFFFFFFFFFFFFFFFFFFFFFFFFFFFFFFFFFFFFFFF AND SUB PUSH2 0x14A7 JUMPI DUP1 PUSH1 0x0 ADD MLOAD DUP4 DUP6 DUP2 MLOAD DUP2 LT PUSH2 0x145D JUMPI PUSH2 0x145C PUSH2 0x2BAE JUMP JUMPDEST JUMPDEST PUSH1 0x20 MUL PUSH1 0x20 ADD ADD SWAP1 PUSH20 0xFFFFFFFFFFFFFFFFFFFFFFFFFFFFFFFFFFFFFFFF AND SWAP1 DUP2 PUSH20 0xFFFFFFFFFFFFFFFFFFFFFFFFFFFFFFFFFFFFFFFF AND DUP2 MSTORE POP POP PUSH1 0x1 DUP5 PUSH2 0x14A4 SWAP2 SWAP1 PUSH2 0x2C0C JUMP JUMPDEST SWAP4 POP JUMPDEST POP DUP1 DUP1 PUSH2 0x14B3 SWAP1 PUSH2 0x2C40 JUMP JUMPDEST SWAP2 POP POP PUSH2 0x1324 JUMP JUMPDEST POP DUP1 SWAP4 POP POP POP POP SWAP2 SWAP1 POP JUMP JUMPDEST PUSH1 0x0 DUP1 PUSH1 0x0 DUP4 PUSH20 0xFFFFFFFFFFFFFFFFFFFFFFFFFFFFFFFFFFFFFFFF AND PUSH20 0xFFFFFFFFFFFFFFFFFFFFFFFFFFFFFFFFFFFFFFFF AND DUP2 MSTORE PUSH1 0x20 ADD SWAP1 DUP2 MSTORE PUSH1 0x20 ADD PUSH1 0x0 KECCAK256 PUSH1 0x0 SWAP1 SLOAD SWAP1 PUSH2 0x100 EXP SWAP1 DIV PUSH20 0xFFFFFFFFFFFFFFFFFFFFFFFFFFFFFFFFFFFFFFFF AND SWAP1 POP SWAP2 SWAP1 POP JUMP JUMPDEST PUSH1 0x0 JUMPDEST PUSH1 0x2 DUP1 SLOAD SWAP1 POP DUP2 LT ISZERO PUSH2 0x1831 JUMPI PUSH1 0x0 PUSH1 0x2 DUP3 DUP2 SLOAD DUP2 LT PUSH2 0x1555 JUMPI PUSH2 0x1554 PUSH2 0x2BAE JUMP JUMPDEST JUMPDEST SWAP1 PUSH1 0x0 MSTORE PUSH1 0x20 PUSH1 0x0 KECCAK256 SWAP1 PUSH1 0x2 MUL ADD PUSH1 0x40 MLOAD DUP1 PUSH1 0x40 ADD PUSH1 0x40 MSTORE SWAP1 DUP2 PUSH1 0x0 DUP3 ADD PUSH1 0x0 SWAP1 SLOAD SWAP1 PUSH2 0x100 EXP SWAP1 DIV PUSH20 0xFFFFFFFFFFFFFFFFFFFFFFFFFFFFFFFFFFFFFFFF AND PUSH20 0xFFFFFFFFFFFFFFFFFFFFFFFFFFFFFFFFFFFFFFFF AND PUSH20 0xFFFFFFFFFFFFFFFFFFFFFFFFFFFFFFFFFFFFFFFF AND DUP2 MSTORE PUSH1 0x20 ADD PUSH1 0x1 DUP3 ADD PUSH1 0x0 SWAP1 SLOAD SWAP1 PUSH2 0x100 EXP SWAP1 DIV PUSH20 0xFFFFFFFFFFFFFFFFFFFFFFFFFFFFFFFFFFFFFFFF AND PUSH20 0xFFFFFFFFFFFFFFFFFFFFFFFFFFFFFFFFFFFFFFFF AND PUSH20 0xFFFFFFFFFFFFFFFFFFFFFFFFFFFFFFFFFFFFFFFF AND DUP2 MSTORE POP POP SWAP1 POP DUP5 PUSH20 0xFFFFFFFFFFFFFFFFFFFFFFFFFFFFFFFFFFFFFFFF AND DUP2 PUSH1 0x20 ADD MLOAD PUSH20 0xFFFFFFFFFFFFFFFFFFFFFFFFFFFFFFFFFFFFFFFF AND EQ DUP1 ISZERO PUSH2 0x168A JUMPI POP DUP4 PUSH20 0xFFFFFFFFFFFFFFFFFFFFFFFFFFFFFFFFFFFFFFFF AND DUP2 PUSH1 0x0 ADD MLOAD PUSH20 0xFFFFFFFFFFFFFFFFFFFFFFFFFFFFFFFFFFFFFFFF AND EQ JUMPDEST ISZERO PUSH2 0x181D JUMPI PUSH2 0x1698 DUP3 PUSH2 0x2061 JUMP JUMPDEST DUP3 ISZERO PUSH2 0x175F JUMPI PUSH1 0x6 DUP2 SWAP1 DUP1 PUSH1 0x1 DUP2 SLOAD ADD DUP1 DUP3 SSTORE DUP1 SWAP2 POP POP PUSH1 0x1 SWAP1 SUB SWAP1 PUSH1 0x0 MSTORE PUSH1 0x20 PUSH1 0x0 KECCAK256 SWAP1 PUSH1 0x2 MUL ADD PUSH1 0x0 SWAP1 SWAP2 SWAP1 SWAP2 SWAP1 SWAP2 POP PUSH1 0x0 DUP3 ADD MLOAD DUP2 PUSH1 0x0 ADD PUSH1 0x0 PUSH2 0x100 EXP DUP2 SLOAD DUP2 PUSH20 0xFFFFFFFFFFFFFFFFFFFFFFFFFFFFFFFFFFFFFFFF MUL NOT AND SWAP1 DUP4 PUSH20 0xFFFFFFFFFFFFFFFFFFFFFFFFFFFFFFFFFFFFFFFF AND MUL OR SWAP1 SSTORE POP PUSH1 0x20 DUP3 ADD MLOAD DUP2 PUSH1 0x1 ADD PUSH1 0x0 PUSH2 0x100 EXP DUP2 SLOAD DUP2 PUSH20 0xFFFFFFFFFFFFFFFFFFFFFFFFFFFFFFFFFFFFFFFF MUL NOT AND SWAP1 DUP4 PUSH20 0xFFFFFFFFFFFFFFFFFFFFFFFFFFFFFFFFFFFFFFFF AND MUL OR SWAP1 SSTORE POP POP POP PUSH2 0x181C JUMP JUMPDEST PUSH1 0x7 DUP2 SWAP1 DUP1 PUSH1 0x1 DUP2 SLOAD ADD DUP1 DUP3 SSTORE DUP1 SWAP2 POP POP PUSH1 0x1 SWAP1 SUB SWAP1 PUSH1 0x0 MSTORE PUSH1 0x20 PUSH1 0x0 KECCAK256 SWAP1 PUSH1 0x2 MUL ADD PUSH1 0x0 SWAP1 SWAP2 SWAP1 SWAP2 SWAP1 SWAP2 POP PUSH1 0x0 DUP3 ADD MLOAD DUP2 PUSH1 0x0 ADD PUSH1 0x0 PUSH2 0x100 EXP DUP2 SLOAD DUP2 PUSH20 0xFFFFFFFFFFFFFFFFFFFFFFFFFFFFFFFFFFFFFFFF MUL NOT AND SWAP1 DUP4 PUSH20 0xFFFFFFFFFFFFFFFFFFFFFFFFFFFFFFFFFFFFFFFF AND MUL OR SWAP1 SSTORE POP PUSH1 0x20 DUP3 ADD MLOAD DUP2 PUSH1 0x1 ADD PUSH1 0x0 PUSH2 0x100 EXP DUP2 SLOAD DUP2 PUSH20 0xFFFFFFFFFFFFFFFFFFFFFFFFFFFFFFFFFFFFFFFF MUL NOT AND SWAP1 DUP4 PUSH20 0xFFFFFFFFFFFFFFFFFFFFFFFFFFFFFFFFFFFFFFFF AND MUL OR SWAP1 SSTORE POP POP POP JUMPDEST JUMPDEST POP DUP1 DUP1 PUSH2 0x1829 SWAP1 PUSH2 0x2C40 JUMP JUMPDEST SWAP2 POP POP PUSH2 0x1532 JUMP JUMPDEST POP POP POP POP JUMP JUMPDEST PUSH1 0x60 PUSH1 0x0 PUSH2 0x1844 DUP4 PUSH2 0x5E3 JUMP JUMPDEST SWAP1 POP PUSH1 0x0 DUP1 DUP3 PUSH8 0xFFFFFFFFFFFFFFFF DUP2 GT ISZERO PUSH2 0x1863 JUMPI PUSH2 0x1862 PUSH2 0x2448 JUMP JUMPDEST JUMPDEST PUSH1 0x40 MLOAD SWAP1 DUP1 DUP3 MSTORE DUP1 PUSH1 0x20 MUL PUSH1 0x20 ADD DUP3 ADD PUSH1 0x40 MSTORE DUP1 ISZERO PUSH2 0x1891 JUMPI DUP2 PUSH1 0x20 ADD PUSH1 0x20 DUP3 MUL DUP1 CALLDATASIZE DUP4 CALLDATACOPY DUP1 DUP3 ADD SWAP2 POP POP SWAP1 POP JUMPDEST POP SWAP1 POP PUSH1 0x0 JUMPDEST DUP6 MLOAD DUP2 LT ISZERO PUSH2 0x1AFC JUMPI PUSH1 0x0 DUP7 DUP3 DUP2 MLOAD DUP2 LT PUSH2 0x18B5 JUMPI PUSH2 0x18B4 PUSH2 0x2BAE JUMP JUMPDEST JUMPDEST PUSH1 0x20 MUL PUSH1 0x20 ADD ADD MLOAD SWAP1 POP PUSH1 0x0 JUMPDEST PUSH1 0x3 DUP1 SLOAD SWAP1 POP DUP2 LT ISZERO PUSH2 0x1AE7 JUMPI PUSH1 0x0 PUSH1 0x3 DUP3 DUP2 SLOAD DUP2 LT PUSH2 0x18E5 JUMPI PUSH2 0x18E4 PUSH2 0x2BAE JUMP JUMPDEST JUMPDEST SWAP1 PUSH1 0x0 MSTORE PUSH1 0x20 PUSH1 0x0 KECCAK256 SWAP1 PUSH1 0x3 MUL ADD PUSH1 0x40 MLOAD DUP1 PUSH1 0x60 ADD PUSH1 0x40 MSTORE SWAP1 DUP2 PUSH1 0x0 DUP3 ADD PUSH1 0x0 SWAP1 SLOAD SWAP1 PUSH2 0x100 EXP SWAP1 DIV PUSH20 0xFFFFFFFFFFFFFFFFFFFFFFFFFFFFFFFFFFFFFFFF AND PUSH20 0xFFFFFFFFFFFFFFFFFFFFFFFFFFFFFFFFFFFFFFFF AND PUSH20 0xFFFFFFFFFFFFFFFFFFFFFFFFFFFFFFFFFFFFFFFF AND DUP2 MSTORE PUSH1 0x20 ADD PUSH1 0x1 DUP3 ADD DUP1 SLOAD PUSH2 0x1964 SWAP1 PUSH2 0x2B7D JUMP JUMPDEST DUP1 PUSH1 0x1F ADD PUSH1 0x20 DUP1 SWAP2 DIV MUL PUSH1 0x20 ADD PUSH1 0x40 MLOAD SWAP1 DUP2 ADD PUSH1 0x40 MSTORE DUP1 SWAP3 SWAP2 SWAP1 DUP2 DUP2 MSTORE PUSH1 0x20 ADD DUP3 DUP1 SLOAD PUSH2 0x1990 SWAP1 PUSH2 0x2B7D JUMP JUMPDEST DUP1 ISZERO PUSH2 0x19DD JUMPI DUP1 PUSH1 0x1F LT PUSH2 0x19B2 JUMPI PUSH2 0x100 DUP1 DUP4 SLOAD DIV MUL DUP4 MSTORE SWAP2 PUSH1 0x20 ADD SWAP2 PUSH2 0x19DD JUMP JUMPDEST DUP3 ADD SWAP2 SWAP1 PUSH1 0x0 MSTORE PUSH1 0x20 PUSH1 0x0 KECCAK256 SWAP1 JUMPDEST DUP2 SLOAD DUP2 MSTORE SWAP1 PUSH1 0x1 ADD SWAP1 PUSH1 0x20 ADD DUP1 DUP4 GT PUSH2 0x19C0 JUMPI DUP3 SWAP1 SUB PUSH1 0x1F AND DUP3 ADD SWAP2 JUMPDEST POP POP POP POP POP DUP2 MSTORE PUSH1 0x20 ADD PUSH1 0x2 DUP3 ADD PUSH1 0x0 SWAP1 SLOAD SWAP1 PUSH2 0x100 EXP SWAP1 DIV PUSH20 0xFFFFFFFFFFFFFFFFFFFFFFFFFFFFFFFFFFFFFFFF AND PUSH20 0xFFFFFFFFFFFFFFFFFFFFFFFFFFFFFFFFFFFFFFFF AND PUSH20 0xFFFFFFFFFFFFFFFFFFFFFFFFFFFFFFFFFFFFFFFF AND DUP2 MSTORE POP POP SWAP1 POP DUP3 PUSH20 0xFFFFFFFFFFFFFFFFFFFFFFFFFFFFFFFFFFFFFFFF AND DUP2 PUSH1 0x40 ADD MLOAD PUSH20 0xFFFFFFFFFFFFFFFFFFFFFFFFFFFFFFFFFFFFFFFF AND SUB PUSH2 0x1AD3 JUMPI DUP3 DUP6 DUP8 DUP2 MLOAD DUP2 LT PUSH2 0x1A89 JUMPI PUSH2 0x1A88 PUSH2 0x2BAE JUMP JUMPDEST JUMPDEST PUSH1 0x20 MUL PUSH1 0x20 ADD ADD SWAP1 PUSH20 0xFFFFFFFFFFFFFFFFFFFFFFFFFFFFFFFFFFFFFFFF AND SWAP1 DUP2 PUSH20 0xFFFFFFFFFFFFFFFFFFFFFFFFFFFFFFFFFFFFFFFF AND DUP2 MSTORE POP POP PUSH1 0x1 DUP7 PUSH2 0x1AD0 SWAP2 SWAP1 PUSH2 0x2C0C JUMP JUMPDEST SWAP6 POP JUMPDEST POP DUP1 DUP1 PUSH2 0x1ADF SWAP1 PUSH2 0x2C40 JUMP JUMPDEST SWAP2 POP POP PUSH2 0x18C2 JUMP JUMPDEST POP POP DUP1 DUP1 PUSH2 0x1AF4 SWAP1 PUSH2 0x2C40 JUMP JUMPDEST SWAP2 POP POP PUSH2 0x1897 JUMP JUMPDEST POP DUP1 SWAP4 POP POP POP POP SWAP2 SWAP1 POP JUMP JUMPDEST PUSH1 0x0 DUP1 PUSH1 0x0 DUP5 PUSH20 0xFFFFFFFFFFFFFFFFFFFFFFFFFFFFFFFFFFFFFFFF AND PUSH20 0xFFFFFFFFFFFFFFFFFFFFFFFFFFFFFFFFFFFFFFFF AND DUP2 MSTORE PUSH1 0x20 ADD SWAP1 DUP2 MSTORE PUSH1 0x20 ADD PUSH1 0x0 KECCAK256 PUSH1 0x0 SWAP1 SLOAD SWAP1 PUSH2 0x100 EXP SWAP1 DIV PUSH20 0xFFFFFFFFFFFFFFFFFFFFFFFFFFFFFFFFFFFFFFFF AND SWAP1 POP PUSH1 0x0 DUP2 SWAP1 POP DUP1 PUSH20 0xFFFFFFFFFFFFFFFFFFFFFFFFFFFFFFFFFFFFFFFF AND PUSH4 0x4A9AE94A DUP7 DUP6 PUSH1 0x40 MLOAD DUP4 PUSH4 0xFFFFFFFF AND PUSH1 0xE0 SHL DUP2 MSTORE PUSH1 0x4 ADD PUSH2 0x1BAB SWAP3 SWAP2 SWAP1 PUSH2 0x2D69 JUMP JUMPDEST PUSH1 0x0 PUSH1 0x40 MLOAD DUP1 DUP4 SUB DUP2 PUSH1 0x0 DUP8 DUP1 EXTCODESIZE ISZERO DUP1 ISZERO PUSH2 0x1BC5 JUMPI PUSH1 0x0 DUP1 REVERT JUMPDEST POP GAS CALL ISZERO DUP1 ISZERO PUSH2 0x1BD9 JUMPI RETURNDATASIZE PUSH1 0x0 DUP1 RETURNDATACOPY RETURNDATASIZE PUSH1 0x0 REVERT JUMPDEST POP POP POP POP POP POP POP POP POP JUMP JUMPDEST PUSH1 0x60 PUSH1 0x0 PUSH2 0x1BF1 DUP4 PUSH2 0x90B JUMP JUMPDEST SWAP1 POP PUSH1 0x0 DUP1 DUP3 PUSH8 0xFFFFFFFFFFFFFFFF DUP2 GT ISZERO PUSH2 0x1C10 JUMPI PUSH2 0x1C0F PUSH2 0x2448 JUMP JUMPDEST JUMPDEST PUSH1 0x40 MLOAD SWAP1 DUP1 DUP3 MSTORE DUP1 PUSH1 0x20 MUL PUSH1 0x20 ADD DUP3 ADD PUSH1 0x40 MSTORE DUP1 ISZERO PUSH2 0x1C3E JUMPI DUP2 PUSH1 0x20 ADD PUSH1 0x20 DUP3 MUL DUP1 CALLDATASIZE DUP4 CALLDATACOPY DUP1 DUP3 ADD SWAP2 POP POP SWAP1 POP JUMPDEST POP SWAP1 POP PUSH1 0x0 JUMPDEST PUSH1 0x6 DUP1 SLOAD SWAP1 POP DUP2 LT ISZERO PUSH2 0x1DDB JUMPI PUSH1 0x0 PUSH1 0x6 DUP3 DUP2 SLOAD DUP2 LT PUSH2 0x1C67 JUMPI PUSH2 0x1C66 PUSH2 0x2BAE JUMP JUMPDEST JUMPDEST SWAP1 PUSH1 0x0 MSTORE PUSH1 0x20 PUSH1 0x0 KECCAK256 SWAP1 PUSH1 0x2 MUL ADD PUSH1 0x40 MLOAD DUP1 PUSH1 0x40 ADD PUSH1 0x40 MSTORE SWAP1 DUP2 PUSH1 0x0 DUP3 ADD PUSH1 0x0 SWAP1 SLOAD SWAP1 PUSH2 0x100 EXP SWAP1 DIV PUSH20 0xFFFFFFFFFFFFFFFFFFFFFFFFFFFFFFFFFFFFFFFF AND PUSH20 0xFFFFFFFFFFFFFFFFFFFFFFFFFFFFFFFFFFFFFFFF AND PUSH20 0xFFFFFFFFFFFFFFFFFFFFFFFFFFFFFFFFFFFFFFFF AND DUP2 MSTORE PUSH1 0x20 ADD PUSH1 0x1 DUP3 ADD PUSH1 0x0 SWAP1 SLOAD SWAP1 PUSH2 0x100 EXP SWAP1 DIV PUSH20 0xFFFFFFFFFFFFFFFFFFFFFFFFFFFFFFFFFFFFFFFF AND PUSH20 0xFFFFFFFFFFFFFFFFFFFFFFFFFFFFFFFFFFFFFFFF AND PUSH20 0xFFFFFFFFFFFFFFFFFFFFFFFFFFFFFFFFFFFFFFFF AND DUP2 MSTORE POP POP SWAP1 POP DUP7 PUSH20 0xFFFFFFFFFFFFFFFFFFFFFFFFFFFFFFFFFFFFFFFF AND DUP2 PUSH1 0x0 ADD MLOAD PUSH20 0xFFFFFFFFFFFFFFFFFFFFFFFFFFFFFFFFFFFFFFFF AND SUB PUSH2 0x1DC7 JUMPI DUP1 PUSH1 0x20 ADD MLOAD DUP4 DUP6 DUP2 MLOAD DUP2 LT PUSH2 0x1D7D JUMPI PUSH2 0x1D7C PUSH2 0x2BAE JUMP JUMPDEST JUMPDEST PUSH1 0x20 MUL PUSH1 0x20 ADD ADD SWAP1 PUSH20 0xFFFFFFFFFFFFFFFFFFFFFFFFFFFFFFFFFFFFFFFF AND SWAP1 DUP2 PUSH20 0xFFFFFFFFFFFFFFFFFFFFFFFFFFFFFFFFFFFFFFFF AND DUP2 MSTORE POP POP PUSH1 0x1 DUP5 PUSH2 0x1DC4 SWAP2 SWAP1 PUSH2 0x2C0C JUMP JUMPDEST SWAP4 POP JUMPDEST POP DUP1 DUP1 PUSH2 0x1DD3 SWAP1 PUSH2 0x2C40 JUMP JUMPDEST SWAP2 POP POP PUSH2 0x1C44 JUMP JUMPDEST POP DUP1 SWAP4 POP POP POP POP SWAP2 SWAP1 POP JUMP JUMPDEST PUSH1 0x1 DUP2 DUP1 MLOAD PUSH1 0x20 DUP2 ADD DUP3 ADD DUP1 MLOAD DUP5 DUP3 MSTORE PUSH1 0x20 DUP4 ADD PUSH1 0x20 DUP6 ADD KECCAK256 DUP2 DUP4 MSTORE DUP1 SWAP6 POP POP POP POP POP POP PUSH1 0x0 SWAP2 POP SWAP1 POP DUP1 PUSH1 0x0 ADD PUSH1 0x0 SWAP1 SLOAD SWAP1 PUSH2 0x100 EXP SWAP1 DIV PUSH20 0xFFFFFFFFFFFFFFFFFFFFFFFFFFFFFFFFFFFFFFFF AND SWAP1 DUP1 PUSH1 0x1 ADD PUSH1 0x0 SWAP1 SLOAD SWAP1 PUSH2 0x100 EXP SWAP1 DIV PUSH20 0xFFFFFFFFFFFFFFFFFFFFFFFFFFFFFFFFFFFFFFFF AND SWAP1 POP DUP3 JUMP JUMPDEST PUSH1 0x0 PUSH1 0x1 DUP4 PUSH1 0x40 MLOAD PUSH2 0x1E73 SWAP2 SWAP1 PUSH2 0x2CC4 JUMP JUMPDEST SWAP1 DUP2 MSTORE PUSH1 0x20 ADD PUSH1 0x40 MLOAD DUP1 SWAP2 SUB SWAP1 KECCAK256 PUSH1 0x40 MLOAD DUP1 PUSH1 0x40 ADD PUSH1 0x40 MSTORE SWAP1 DUP2 PUSH1 0x0 DUP3 ADD PUSH1 0x0 SWAP1 SLOAD SWAP1 PUSH2 0x100 EXP SWAP1 DIV PUSH20 0xFFFFFFFFFFFFFFFFFFFFFFFFFFFFFFFFFFFFFFFF AND PUSH20 0xFFFFFFFFFFFFFFFFFFFFFFFFFFFFFFFFFFFFFFFF AND PUSH20 0xFFFFFFFFFFFFFFFFFFFFFFFFFFFFFFFFFFFFFFFF AND DUP2 MSTORE PUSH1 0x20 ADD PUSH1 0x1 DUP3 ADD PUSH1 0x0 SWAP1 SLOAD SWAP1 PUSH2 0x100 EXP SWAP1 DIV PUSH20 0xFFFFFFFFFFFFFFFFFFFFFFFFFFFFFFFFFFFFFFFF AND PUSH20 0xFFFFFFFFFFFFFFFFFFFFFFFFFFFFFFFFFFFFFFFF AND PUSH20 0xFFFFFFFFFFFFFFFFFFFFFFFFFFFFFFFFFFFFFFFF AND DUP2 MSTORE POP POP SWAP1 POP PUSH1 0x0 PUSH1 0x40 MLOAD DUP1 PUSH1 0x60 ADD PUSH1 0x40 MSTORE DUP1 DUP5 PUSH20 0xFFFFFFFFFFFFFFFFFFFFFFFFFFFFFFFFFFFFFFFF AND DUP2 MSTORE PUSH1 0x20 ADD DUP6 DUP2 MSTORE PUSH1 0x20 ADD DUP4 PUSH1 0x0 ADD MLOAD PUSH20 0xFFFFFFFFFFFFFFFFFFFFFFFFFFFFFFFFFFFFFFFF AND DUP2 MSTORE POP SWAP1 POP PUSH1 0x3 DUP2 SWAP1 DUP1 PUSH1 0x1 DUP2 SLOAD ADD DUP1 DUP3 SSTORE DUP1 SWAP2 POP POP PUSH1 0x1 SWAP1 SUB SWAP1 PUSH1 0x0 MSTORE PUSH1 0x20 PUSH1 0x0 KECCAK256 SWAP1 PUSH1 0x3 MUL ADD PUSH1 0x0 SWAP1 SWAP2 SWAP1 SWAP2 SWAP1 SWAP2 POP PUSH1 0x0 DUP3 ADD MLOAD DUP2 PUSH1 0x0 ADD PUSH1 0x0 PUSH2 0x100 EXP DUP2 SLOAD DUP2 PUSH20 0xFFFFFFFFFFFFFFFFFFFFFFFFFFFFFFFFFFFFFFFF MUL NOT AND SWAP1 DUP4 PUSH20 0xFFFFFFFFFFFFFFFFFFFFFFFFFFFFFFFFFFFFFFFF AND MUL OR SWAP1 SSTORE POP PUSH1 0x20 DUP3 ADD MLOAD DUP2 PUSH1 0x1 ADD SWAP1 DUP2 PUSH2 0x2011 SWAP2 SWAP1 PUSH2 0x2F45 JUMP JUMPDEST POP PUSH1 0x40 DUP3 ADD MLOAD DUP2 PUSH1 0x2 ADD PUSH1 0x0 PUSH2 0x100 EXP DUP2 SLOAD DUP2 PUSH20 0xFFFFFFFFFFFFFFFFFFFFFFFFFFFFFFFFFFFFFFFF MUL NOT AND SWAP1 DUP4 PUSH20 0xFFFFFFFFFFFFFFFFFFFFFFFFFFFFFFFFFFFFFFFF AND MUL OR SWAP1 SSTORE POP POP POP POP POP POP POP JUMP JUMPDEST PUSH1 0x2 PUSH1 0x1 PUSH1 0x2 DUP1 SLOAD SWAP1 POP PUSH2 0x2075 SWAP2 SWAP1 PUSH2 0x3017 JUMP JUMPDEST DUP2 SLOAD DUP2 LT PUSH2 0x2086 JUMPI PUSH2 0x2085 PUSH2 0x2BAE JUMP JUMPDEST JUMPDEST SWAP1 PUSH1 0x0 MSTORE PUSH1 0x20 PUSH1 0x0 KECCAK256 SWAP1 PUSH1 0x2 MUL ADD PUSH1 0x2 DUP3 DUP2 SLOAD DUP2 LT PUSH2 0x20A8 JUMPI PUSH2 0x20A7 PUSH2 0x2BAE JUMP JUMPDEST JUMPDEST SWAP1 PUSH1 0x0 MSTORE PUSH1 0x20 PUSH1 0x0 KECCAK256 SWAP1 PUSH1 0x2 MUL ADD PUSH1 0x0 DUP3 ADD PUSH1 0x0 SWAP1 SLOAD SWAP1 PUSH2 0x100 EXP SWAP1 DIV PUSH20 0xFFFFFFFFFFFFFFFFFFFFFFFFFFFFFFFFFFFFFFFF AND DUP2 PUSH1 0x0 ADD PUSH1 0x0 PUSH2 0x100 EXP DUP2 SLOAD DUP2 PUSH20 0xFFFFFFFFFFFFFFFFFFFFFFFFFFFFFFFFFFFFFFFF MUL NOT AND SWAP1 DUP4 PUSH20 0xFFFFFFFFFFFFFFFFFFFFFFFFFFFFFFFFFFFFFFFF AND MUL OR SWAP1 SSTORE POP PUSH1 0x1 DUP3 ADD PUSH1 0x0 SWAP1 SLOAD SWAP1 PUSH2 0x100 EXP SWAP1 DIV PUSH20 0xFFFFFFFFFFFFFFFFFFFFFFFFFFFFFFFFFFFFFFFF AND DUP2 PUSH1 0x1 ADD PUSH1 0x0 PUSH2 0x100 EXP DUP2 SLOAD DUP2 PUSH20 0xFFFFFFFFFFFFFFFFFFFFFFFFFFFFFFFFFFFFFFFF MUL NOT AND SWAP1 DUP4 PUSH20 0xFFFFFFFFFFFFFFFFFFFFFFFFFFFFFFFFFFFFFFFF AND MUL OR SWAP1 SSTORE POP SWAP1 POP POP PUSH1 0x2 DUP1 SLOAD DUP1 PUSH2 0x2199 JUMPI PUSH2 0x2198 PUSH2 0x304B JUMP JUMPDEST JUMPDEST PUSH1 0x1 SWAP1 SUB DUP2 DUP2 SWAP1 PUSH1 0x0 MSTORE PUSH1 0x20 PUSH1 0x0 KECCAK256 SWAP1 PUSH1 0x2 MUL ADD PUSH1 0x0 DUP1 DUP3 ADD PUSH1 0x0 PUSH2 0x100 EXP DUP2 SLOAD SWAP1 PUSH20 0xFFFFFFFFFFFFFFFFFFFFFFFFFFFFFFFFFFFFFFFF MUL NOT AND SWAP1 SSTORE PUSH1 0x1 DUP3 ADD PUSH1 0x0 PUSH2 0x100 EXP DUP2 SLOAD SWAP1 PUSH20 0xFFFFFFFFFFFFFFFFFFFFFFFFFFFFFFFFFFFFFFFF MUL NOT AND SWAP1 SSTORE POP POP SWAP1 SSTORE POP JUMP JUMPDEST PUSH1 0x6 DUP2 DUP2 SLOAD DUP2 LT PUSH2 0x2213 JUMPI PUSH1 0x0 DUP1 REVERT JUMPDEST SWAP1 PUSH1 0x0 MSTORE PUSH1 0x20 PUSH1 0x0 KECCAK256 SWAP1 PUSH1 0x2 MUL ADD PUSH1 0x0 SWAP2 POP SWAP1 POP DUP1 PUSH1 0x0 ADD PUSH1 0x0 SWAP1 SLOAD SWAP1 PUSH2 0x100 EXP SWAP1 DIV PUSH20 0xFFFFFFFFFFFFFFFFFFFFFFFFFFFFFFFFFFFFFFFF AND SWAP1 DUP1 PUSH1 0x1 ADD PUSH1 0x0 SWAP1 SLOAD SWAP1 PUSH2 0x100 EXP SWAP1 DIV PUSH20 0xFFFFFFFFFFFFFFFFFFFFFFFFFFFFFFFFFFFFFFFF AND SWAP1 POP DUP3 JUMP JUMPDEST PUSH1 0x40 MLOAD DUP1 PUSH1 0x40 ADD PUSH1 0x40 MSTORE DUP1 PUSH1 0x0 PUSH20 0xFFFFFFFFFFFFFFFFFFFFFFFFFFFFFFFFFFFFFFFF AND DUP2 MSTORE PUSH1 0x20 ADD PUSH1 0x0 PUSH20 0xFFFFFFFFFFFFFFFFFFFFFFFFFFFFFFFFFFFFFFFF AND DUP2 MSTORE POP SWAP1 JUMP JUMPDEST PUSH1 0x0 PUSH1 0x40 MLOAD SWAP1 POP SWAP1 JUMP JUMPDEST PUSH1 0x0 DUP1 REVERT JUMPDEST PUSH1 0x0 DUP1 REVERT JUMPDEST PUSH1 0x0 DUP2 SWAP1 POP SWAP2 SWAP1 POP JUMP JUMPDEST PUSH2 0x22E4 DUP2 PUSH2 0x22D1 JUMP JUMPDEST DUP2 EQ PUSH2 0x22EF JUMPI PUSH1 0x0 DUP1 REVERT JUMPDEST POP JUMP JUMPDEST PUSH1 0x0 DUP2 CALLDATALOAD SWAP1 POP PUSH2 0x2301 DUP2 PUSH2 0x22DB JUMP JUMPDEST SWAP3 SWAP2 POP POP JUMP JUMPDEST PUSH1 0x0 PUSH1 0x20 DUP3 DUP5 SUB SLT ISZERO PUSH2 0x231D JUMPI PUSH2 0x231C PUSH2 0x22C7 JUMP JUMPDEST JUMPDEST PUSH1 0x0 PUSH2 0x232B DUP5 DUP3 DUP6 ADD PUSH2 0x22F2 JUMP JUMPDEST SWAP2 POP POP SWAP3 SWAP2 POP POP JUMP JUMPDEST PUSH1 0x0 PUSH20 0xFFFFFFFFFFFFFFFFFFFFFFFFFFFFFFFFFFFFFFFF DUP3 AND SWAP1 POP SWAP2 SWAP1 POP JUMP JUMPDEST PUSH1 0x0 PUSH2 0x235F DUP3 PUSH2 0x2334 JUMP JUMPDEST SWAP1 POP SWAP2 SWAP1 POP JUMP JUMPDEST PUSH2 0x236F DUP2 PUSH2 0x2354 JUMP JUMPDEST DUP3 MSTORE POP POP JUMP JUMPDEST PUSH1 0x0 DUP2 MLOAD SWAP1 POP SWAP2 SWAP1 POP JUMP JUMPDEST PUSH1 0x0 DUP3 DUP3 MSTORE PUSH1 0x20 DUP3 ADD SWAP1 POP SWAP3 SWAP2 POP POP JUMP JUMPDEST PUSH1 0x0 JUMPDEST DUP4 DUP2 LT ISZERO PUSH2 0x23AF JUMPI DUP1 DUP3 ADD MLOAD DUP2 DUP5 ADD MSTORE PUSH1 0x20 DUP2 ADD SWAP1 POP PUSH2 0x2394 JUMP JUMPDEST PUSH1 0x0 DUP5 DUP5 ADD MSTORE POP POP POP POP JUMP JUMPDEST PUSH1 0x0 PUSH1 0x1F NOT PUSH1 0x1F DUP4 ADD AND SWAP1 POP SWAP2 SWAP1 POP JUMP JUMPDEST PUSH1 0x0 PUSH2 0x23D7 DUP3 PUSH2 0x2375 JUMP JUMPDEST PUSH2 0x23E1 DUP2 DUP6 PUSH2 0x2380 JUMP JUMPDEST SWAP4 POP PUSH2 0x23F1 DUP2 DUP6 PUSH1 0x20 DUP7 ADD PUSH2 0x2391 JUMP JUMPDEST PUSH2 0x23FA DUP2 PUSH2 0x23BB JUMP JUMPDEST DUP5 ADD SWAP2 POP POP SWAP3 SWAP2 POP POP JUMP JUMPDEST PUSH1 0x0 PUSH1 0x60 DUP3 ADD SWAP1 POP PUSH2 0x241A PUSH1 0x0 DUP4 ADD DUP7 PUSH2 0x2366 JUMP JUMPDEST DUP2 DUP2 SUB PUSH1 0x20 DUP4 ADD MSTORE PUSH2 0x242C DUP2 DUP6 PUSH2 0x23CC JUMP JUMPDEST SWAP1 POP PUSH2 0x243B PUSH1 0x40 DUP4 ADD DUP5 PUSH2 0x2366 JUMP JUMPDEST SWAP5 SWAP4 POP POP POP POP JUMP JUMPDEST PUSH1 0x0 DUP1 REVERT JUMPDEST PUSH32 0x4E487B7100000000000000000000000000000000000000000000000000000000 PUSH1 0x0 MSTORE PUSH1 0x41 PUSH1 0x4 MSTORE PUSH1 0x24 PUSH1 0x0 REVERT JUMPDEST PUSH2 0x2480 DUP3 PUSH2 0x23BB JUMP JUMPDEST DUP2 ADD DUP2 DUP2 LT PUSH8 0xFFFFFFFFFFFFFFFF DUP3 GT OR ISZERO PUSH2 0x249F JUMPI PUSH2 0x249E PUSH2 0x2448 JUMP JUMPDEST JUMPDEST DUP1 PUSH1 0x40 MSTORE POP POP POP JUMP JUMPDEST PUSH1 0x0 PUSH2 0x24B2 PUSH2 0x22BD JUMP JUMPDEST SWAP1 POP PUSH2 0x24BE DUP3 DUP3 PUSH2 0x2477 JUMP JUMPDEST SWAP2 SWAP1 POP JUMP JUMPDEST PUSH1 0x0 PUSH8 0xFFFFFFFFFFFFFFFF DUP3 GT ISZERO PUSH2 0x24DE JUMPI PUSH2 0x24DD PUSH2 0x2448 JUMP JUMPDEST JUMPDEST PUSH1 0x20 DUP3 MUL SWAP1 POP PUSH1 0x20 DUP2 ADD SWAP1 POP SWAP2 SWAP1 POP JUMP JUMPDEST PUSH1 0x0 DUP1 REVERT JUMPDEST PUSH2 0x24FD DUP2 PUSH2 0x2354 JUMP JUMPDEST DUP2 EQ PUSH2 0x2508 JUMPI PUSH1 0x0 DUP1 REVERT JUMPDEST POP JUMP JUMPDEST PUSH1 0x0 DUP2 CALLDATALOAD SWAP1 POP PUSH2 0x251A DUP2 PUSH2 0x24F4 JUMP JUMPDEST SWAP3 SWAP2 POP POP JUMP JUMPDEST PUSH1 0x0 PUSH2 0x2533 PUSH2 0x252E DUP5 PUSH2 0x24C3 JUMP JUMPDEST PUSH2 0x24A8 JUMP JUMPDEST SWAP1 POP DUP1 DUP4 DUP3 MSTORE PUSH1 0x20 DUP3 ADD SWAP1 POP PUSH1 0x20 DUP5 MUL DUP4 ADD DUP6 DUP2 GT ISZERO PUSH2 0x2556 JUMPI PUSH2 0x2555 PUSH2 0x24EF JUMP JUMPDEST JUMPDEST DUP4 JUMPDEST DUP2 DUP2 LT ISZERO PUSH2 0x257F JUMPI DUP1 PUSH2 0x256B DUP9 DUP3 PUSH2 0x250B JUMP JUMPDEST DUP5 MSTORE PUSH1 0x20 DUP5 ADD SWAP4 POP POP PUSH1 0x20 DUP2 ADD SWAP1 POP PUSH2 0x2558 JUMP JUMPDEST POP POP POP SWAP4 SWAP3 POP POP POP JUMP JUMPDEST PUSH1 0x0 DUP3 PUSH1 0x1F DUP4 ADD SLT PUSH2 0x259E JUMPI PUSH2 0x259D PUSH2 0x2443 JUMP JUMPDEST JUMPDEST DUP2 CALLDATALOAD PUSH2 0x25AE DUP5 DUP3 PUSH1 0x20 DUP7 ADD PUSH2 0x2520 JUMP JUMPDEST SWAP2 POP POP SWAP3 SWAP2 POP POP JUMP JUMPDEST PUSH1 0x0 PUSH1 0x20 DUP3 DUP5 SUB SLT ISZERO PUSH2 0x25CD JUMPI PUSH2 0x25CC PUSH2 0x22C7 JUMP JUMPDEST JUMPDEST PUSH1 0x0 DUP3 ADD CALLDATALOAD PUSH8 0xFFFFFFFFFFFFFFFF DUP2 GT ISZERO PUSH2 0x25EB JUMPI PUSH2 0x25EA PUSH2 0x22CC JUMP JUMPDEST JUMPDEST PUSH2 0x25F7 DUP5 DUP3 DUP6 ADD PUSH2 0x2589 JUMP JUMPDEST SWAP2 POP POP SWAP3 SWAP2 POP POP JUMP JUMPDEST PUSH2 0x2609 DUP2 PUSH2 0x22D1 JUMP JUMPDEST DUP3 MSTORE POP POP JUMP JUMPDEST PUSH1 0x0 PUSH1 0x20 DUP3 ADD SWAP1 POP PUSH2 0x2624 PUSH1 0x0 DUP4 ADD DUP5 PUSH2 0x2600 JUMP JUMPDEST SWAP3 SWAP2 POP POP JUMP JUMPDEST PUSH1 0x0 DUP1 REVERT JUMPDEST PUSH1 0x0 PUSH8 0xFFFFFFFFFFFFFFFF DUP3 GT ISZERO PUSH2 0x264A JUMPI PUSH2 0x2649 PUSH2 0x2448 JUMP JUMPDEST JUMPDEST PUSH2 0x2653 DUP3 PUSH2 0x23BB JUMP JUMPDEST SWAP1 POP PUSH1 0x20 DUP2 ADD SWAP1 POP SWAP2 SWAP1 POP JUMP JUMPDEST DUP3 DUP2 DUP4 CALLDATACOPY PUSH1 0x0 DUP4 DUP4 ADD MSTORE POP POP POP JUMP JUMPDEST PUSH1 0x0 PUSH2 0x2682 PUSH2 0x267D DUP5 PUSH2 0x262F JUMP JUMPDEST PUSH2 0x24A8 JUMP JUMPDEST SWAP1 POP DUP3 DUP2 MSTORE PUSH1 0x20 DUP2 ADD DUP5 DUP5 DUP5 ADD GT ISZERO PUSH2 0x269E JUMPI PUSH2 0x269D PUSH2 0x262A JUMP JUMPDEST JUMPDEST PUSH2 0x26A9 DUP5 DUP3 DUP6 PUSH2 0x2660 JUMP JUMPDEST POP SWAP4 SWAP3 POP POP POP JUMP JUMPDEST PUSH1 0x0 DUP3 PUSH1 0x1F DUP4 ADD SLT PUSH2 0x26C6 JUMPI PUSH2 0x26C5 PUSH2 0x2443 JUMP JUMPDEST JUMPDEST DUP2 CALLDATALOAD PUSH2 0x26D6 DUP5 DUP3 PUSH1 0x20 DUP7 ADD PUSH2 0x266F JUMP JUMPDEST SWAP2 POP POP SWAP3 SWAP2 POP POP JUMP JUMPDEST PUSH1 0x0 PUSH1 0x20 DUP3 DUP5 SUB SLT ISZERO PUSH2 0x26F5 JUMPI PUSH2 0x26F4 PUSH2 0x22C7 JUMP JUMPDEST JUMPDEST PUSH1 0x0 DUP3 ADD CALLDATALOAD PUSH8 0xFFFFFFFFFFFFFFFF DUP2 GT ISZERO PUSH2 0x2713 JUMPI PUSH2 0x2712 PUSH2 0x22CC JUMP JUMPDEST JUMPDEST PUSH2 0x271F DUP5 DUP3 DUP6 ADD PUSH2 0x26B1 JUMP JUMPDEST SWAP2 POP POP SWAP3 SWAP2 POP POP JUMP JUMPDEST PUSH1 0x0 DUP2 ISZERO ISZERO SWAP1 POP SWAP2 SWAP1 POP JUMP JUMPDEST PUSH2 0x273D DUP2 PUSH2 0x2728 JUMP JUMPDEST DUP3 MSTORE POP POP JUMP JUMPDEST PUSH1 0x0 PUSH1 0x20 DUP3 ADD SWAP1 POP PUSH2 0x2758 PUSH1 0x0 DUP4 ADD DUP5 PUSH2 0x2734 JUMP JUMPDEST SWAP3 SWAP2 POP POP JUMP JUMPDEST PUSH1 0x0 PUSH1 0x40 DUP3 ADD SWAP1 POP PUSH2 0x2773 PUSH1 0x0 DUP4 ADD DUP6 PUSH2 0x2366 JUMP JUMPDEST PUSH2 0x2780 PUSH1 0x20 DUP4 ADD DUP5 PUSH2 0x2366 JUMP JUMPDEST SWAP4 SWAP3 POP POP POP JUMP JUMPDEST PUSH1 0x0 PUSH1 0x20 DUP3 DUP5 SUB SLT ISZERO PUSH2 0x279D JUMPI PUSH2 0x279C PUSH2 0x22C7 JUMP JUMPDEST JUMPDEST PUSH1 0x0 PUSH2 0x27AB DUP5 DUP3 DUP6 ADD PUSH2 0x250B JUMP JUMPDEST SWAP2 POP POP SWAP3 SWAP2 POP POP JUMP JUMPDEST PUSH1 0x0 DUP1 PUSH1 0x40 DUP4 DUP6 SUB SLT ISZERO PUSH2 0x27CB JUMPI PUSH2 0x27CA PUSH2 0x22C7 JUMP JUMPDEST JUMPDEST PUSH1 0x0 PUSH2 0x27D9 DUP6 DUP3 DUP7 ADD PUSH2 0x250B JUMP JUMPDEST SWAP3 POP POP PUSH1 0x20 PUSH2 0x27EA DUP6 DUP3 DUP7 ADD PUSH2 0x250B JUMP JUMPDEST SWAP2 POP POP SWAP3 POP SWAP3 SWAP1 POP JUMP JUMPDEST PUSH1 0x0 DUP1 PUSH1 0x0 PUSH1 0x60 DUP5 DUP7 SUB SLT ISZERO PUSH2 0x280D JUMPI PUSH2 0x280C PUSH2 0x22C7 JUMP JUMPDEST JUMPDEST PUSH1 0x0 DUP5 ADD CALLDATALOAD PUSH8 0xFFFFFFFFFFFFFFFF DUP2 GT ISZERO PUSH2 0x282B JUMPI PUSH2 0x282A PUSH2 0x22CC JUMP JUMPDEST JUMPDEST PUSH2 0x2837 DUP7 DUP3 DUP8 ADD PUSH2 0x26B1 JUMP JUMPDEST SWAP4 POP POP PUSH1 0x20 PUSH2 0x2848 DUP7 DUP3 DUP8 ADD PUSH2 0x250B JUMP JUMPDEST SWAP3 POP POP PUSH1 0x40 PUSH2 0x2859 DUP7 DUP3 DUP8 ADD PUSH2 0x250B JUMP JUMPDEST SWAP2 POP POP SWAP3 POP SWAP3 POP SWAP3 JUMP JUMPDEST PUSH1 0x0 DUP1 PUSH1 0x40 DUP4 DUP6 SUB SLT ISZERO PUSH2 0x287A JUMPI PUSH2 0x2879 PUSH2 0x22C7 JUMP JUMPDEST JUMPDEST PUSH1 0x0 PUSH2 0x2888 DUP6 DUP3 DUP7 ADD PUSH2 0x250B JUMP JUMPDEST SWAP3 POP POP PUSH1 0x20 DUP4 ADD CALLDATALOAD PUSH8 0xFFFFFFFFFFFFFFFF DUP2 GT ISZERO PUSH2 0x28A9 JUMPI PUSH2 0x28A8 PUSH2 0x22CC JUMP JUMPDEST JUMPDEST PUSH2 0x28B5 DUP6 DUP3 DUP7 ADD PUSH2 0x26B1 JUMP JUMPDEST SWAP2 POP POP SWAP3 POP SWAP3 SWAP1 POP JUMP JUMPDEST PUSH2 0x28C8 DUP2 PUSH2 0x2354 JUMP JUMPDEST DUP3 MSTORE POP POP JUMP JUMPDEST PUSH1 0x40 DUP3 ADD PUSH1 0x0 DUP3 ADD MLOAD PUSH2 0x28E4 PUSH1 0x0 DUP6 ADD DUP3 PUSH2 0x28BF JUMP JUMPDEST POP PUSH1 0x20 DUP3 ADD MLOAD PUSH2 0x28F7 PUSH1 0x20 DUP6 ADD DUP3 PUSH2 0x28BF JUMP JUMPDEST POP POP POP POP JUMP JUMPDEST PUSH1 0x0 PUSH1 0x40 DUP3 ADD SWAP1 POP PUSH2 0x2912 PUSH1 0x0 DUP4 ADD DUP5 PUSH2 0x28CE JUMP JUMPDEST SWAP3 SWAP2 POP POP JUMP JUMPDEST PUSH1 0x0 PUSH1 0x20 DUP3 ADD SWAP1 POP PUSH2 0x292D PUSH1 0x0 DUP4 ADD DUP5 PUSH2 0x2366 JUMP JUMPDEST SWAP3 SWAP2 POP POP JUMP JUMPDEST PUSH1 0x0 DUP2 MLOAD SWAP1 POP SWAP2 SWAP1 POP JUMP JUMPDEST PUSH1 0x0 DUP3 DUP3 MSTORE PUSH1 0x20 DUP3 ADD SWAP1 POP SWAP3 SWAP2 POP POP JUMP JUMPDEST PUSH1 0x0 DUP2 SWAP1 POP PUSH1 0x20 DUP3 ADD SWAP1 POP SWAP2 SWAP1 POP JUMP JUMPDEST PUSH1 0x0 PUSH2 0x296B DUP4 DUP4 PUSH2 0x28BF JUMP JUMPDEST PUSH1 0x20 DUP4 ADD SWAP1 POP SWAP3 SWAP2 POP POP JUMP JUMPDEST PUSH1 0x0 PUSH1 0x20 DUP3 ADD SWAP1 POP SWAP2 SWAP1 POP JUMP JUMPDEST PUSH1 0x0 PUSH2 0x298F DUP3 PUSH2 0x2933 JUMP JUMPDEST PUSH2 0x2999 DUP2 DUP6 PUSH2 0x293E JUMP JUMPDEST SWAP4 POP PUSH2 0x29A4 DUP4 PUSH2 0x294F JUMP JUMPDEST DUP1 PUSH1 0x0 JUMPDEST DUP4 DUP2 LT ISZERO PUSH2 0x29D5 JUMPI DUP2 MLOAD PUSH2 0x29BC DUP9 DUP3 PUSH2 0x295F JUMP JUMPDEST SWAP8 POP PUSH2 0x29C7 DUP4 PUSH2 0x2977 JUMP JUMPDEST SWAP3 POP POP PUSH1 0x1 DUP2 ADD SWAP1 POP PUSH2 0x29A8 JUMP JUMPDEST POP DUP6 SWAP4 POP POP POP POP SWAP3 SWAP2 POP POP JUMP JUMPDEST PUSH1 0x0 PUSH1 0x20 DUP3 ADD SWAP1 POP DUP2 DUP2 SUB PUSH1 0x0 DUP4 ADD MSTORE PUSH2 0x29FC DUP2 DUP5 PUSH2 0x2984 JUMP JUMPDEST SWAP1 POP SWAP3 SWAP2 POP POP JUMP JUMPDEST PUSH2 0x2A0D DUP2 PUSH2 0x2728 JUMP JUMPDEST DUP2 EQ PUSH2 0x2A18 JUMPI PUSH1 0x0 DUP1 REVERT JUMPDEST POP JUMP JUMPDEST PUSH1 0x0 DUP2 CALLDATALOAD SWAP1 POP PUSH2 0x2A2A DUP2 PUSH2 0x2A04 JUMP JUMPDEST SWAP3 SWAP2 POP POP JUMP JUMPDEST PUSH1 0x0 DUP1 PUSH1 0x0 PUSH1 0x60 DUP5 DUP7 SUB SLT ISZERO PUSH2 0x2A49 JUMPI PUSH2 0x2A48 PUSH2 0x22C7 JUMP JUMPDEST JUMPDEST PUSH1 0x0 PUSH2 0x2A57 DUP7 DUP3 DUP8 ADD PUSH2 0x250B JUMP JUMPDEST SWAP4 POP POP PUSH1 0x20 PUSH2 0x2A68 DUP7 DUP3 DUP8 ADD PUSH2 0x250B JUMP JUMPDEST SWAP3 POP POP PUSH1 0x40 PUSH2 0x2A79 DUP7 DUP3 DUP8 ADD PUSH2 0x2A1B JUMP JUMPDEST SWAP2 POP POP SWAP3 POP SWAP3 POP SWAP3 JUMP JUMPDEST PUSH1 0x0 DUP1 PUSH1 0x0 PUSH1 0x60 DUP5 DUP7 SUB SLT ISZERO PUSH2 0x2A9C JUMPI PUSH2 0x2A9B PUSH2 0x22C7 JUMP JUMPDEST JUMPDEST PUSH1 0x0 PUSH2 0x2AAA DUP7 DUP3 DUP8 ADD PUSH2 0x250B JUMP JUMPDEST SWAP4 POP POP PUSH1 0x20 PUSH2 0x2ABB DUP7 DUP3 DUP8 ADD PUSH2 0x250B JUMP JUMPDEST SWAP3 POP POP PUSH1 0x40 DUP5 ADD CALLDATALOAD PUSH8 0xFFFFFFFFFFFFFFFF DUP2 GT ISZERO PUSH2 0x2ADC JUMPI PUSH2 0x2ADB PUSH2 0x22CC JUMP JUMPDEST JUMPDEST PUSH2 0x2AE8 DUP7 DUP3 DUP8 ADD PUSH2 0x26B1 JUMP JUMPDEST SWAP2 POP POP SWAP3 POP SWAP3 POP SWAP3 JUMP JUMPDEST PUSH1 0x0 DUP1 PUSH1 0x40 DUP4 DUP6 SUB SLT ISZERO PUSH2 0x2B09 JUMPI PUSH2 0x2B08 PUSH2 0x22C7 JUMP JUMPDEST JUMPDEST PUSH1 0x0 DUP4 ADD CALLDATALOAD PUSH8 0xFFFFFFFFFFFFFFFF DUP2 GT ISZERO PUSH2 0x2B27 JUMPI PUSH2 0x2B26 PUSH2 0x22CC JUMP JUMPDEST JUMPDEST PUSH2 0x2B33 DUP6 DUP3 DUP7 ADD PUSH2 0x26B1 JUMP JUMPDEST SWAP3 POP POP PUSH1 0x20 PUSH2 0x2B44 DUP6 DUP3 DUP7 ADD PUSH2 0x250B JUMP JUMPDEST SWAP2 POP POP SWAP3 POP SWAP3 SWAP1 POP JUMP JUMPDEST PUSH32 0x4E487B7100000000000000000000000000000000000000000000000000000000 PUSH1 0x0 MSTORE PUSH1 0x22 PUSH1 0x4 MSTORE PUSH1 0x24 PUSH1 0x0 REVERT JUMPDEST PUSH1 0x0 PUSH1 0x2 DUP3 DIV SWAP1 POP PUSH1 0x1 DUP3 AND DUP1 PUSH2 0x2B95 JUMPI PUSH1 0x7F DUP3 AND SWAP2 POP JUMPDEST PUSH1 0x20 DUP3 LT DUP2 SUB PUSH2 0x2BA8 JUMPI PUSH2 0x2BA7 PUSH2 0x2B4E JUMP JUMPDEST JUMPDEST POP SWAP2 SWAP1 POP JUMP JUMPDEST PUSH32 0x4E487B7100000000000000000000000000000000000000000000000000000000 PUSH1 0x0 MSTORE PUSH1 0x32 PUSH1 0x4 MSTORE PUSH1 0x24 PUSH1 0x0 REVERT JUMPDEST PUSH32 0x4E487B7100000000000000000000000000000000000000000000000000000000 PUSH1 0x0 MSTORE PUSH1 0x11 PUSH1 0x4 MSTORE PUSH1 0x24 PUSH1 0x0 REVERT JUMPDEST PUSH1 0x0 PUSH2 0x2C17 DUP3 PUSH2 0x22D1 JUMP JUMPDEST SWAP2 POP PUSH2 0x2C22 DUP4 PUSH2 0x22D1 JUMP JUMPDEST SWAP3 POP DUP3 DUP3 ADD SWAP1 POP DUP1 DUP3 GT ISZERO PUSH2 0x2C3A JUMPI PUSH2 0x2C39 PUSH2 0x2BDD JUMP JUMPDEST JUMPDEST SWAP3 SWAP2 POP POP JUMP JUMPDEST PUSH1 0x0 PUSH2 0x2C4B DUP3 PUSH2 0x22D1 JUMP JUMPDEST SWAP2 POP PUSH32 0xFFFFFFFFFFFFFFFFFFFFFFFFFFFFFFFFFFFFFFFFFFFFFFFFFFFFFFFFFFFFFFFF DUP3 SUB PUSH2 0x2C7D JUMPI PUSH2 0x2C7C PUSH2 0x2BDD JUMP JUMPDEST JUMPDEST PUSH1 0x1 DUP3 ADD SWAP1 POP SWAP2 SWAP1 POP JUMP JUMPDEST PUSH1 0x0 DUP2 SWAP1 POP SWAP3 SWAP2 POP POP JUMP JUMPDEST PUSH1 0x0 PUSH2 0x2C9E DUP3 PUSH2 0x2375 JUMP JUMPDEST PUSH2 0x2CA8 DUP2 DUP6 PUSH2 0x2C88 JUMP JUMPDEST SWAP4 POP PUSH2 0x2CB8 DUP2 DUP6 PUSH1 0x20 DUP7 ADD PUSH2 0x2391 JUMP JUMPDEST DUP1 DUP5 ADD SWAP2 POP POP SWAP3 SWAP2 POP POP JUMP JUMPDEST PUSH1 0x0 PUSH2 0x2CD0 DUP3 DUP5 PUSH2 0x2C93 JUMP JUMPDEST SWAP2 POP DUP2 SWAP1 POP SWAP3 SWAP2 POP POP JUMP JUMPDEST PUSH32 0x4E616D6520616C72656164792065786973747300000000000000000000000000 PUSH1 0x0 DUP3 ADD MSTORE POP JUMP JUMPDEST PUSH1 0x0 PUSH2 0x2D11 PUSH1 0x13 DUP4 PUSH2 0x2380 JUMP JUMPDEST SWAP2 POP PUSH2 0x2D1C DUP3 PUSH2 0x2CDB JUMP JUMPDEST PUSH1 0x20 DUP3 ADD SWAP1 POP SWAP2 SWAP1 POP JUMP JUMPDEST PUSH1 0x0 PUSH1 0x20 DUP3 ADD SWAP1 POP DUP2 DUP2 SUB PUSH1 0x0 DUP4 ADD MSTORE PUSH2 0x2D40 DUP2 PUSH2 0x2D04 JUMP JUMPDEST SWAP1 POP SWAP2 SWAP1 POP JUMP JUMPDEST PUSH1 0x0 PUSH1 0x20 DUP3 ADD SWAP1 POP DUP2 DUP2 SUB PUSH1 0x0 DUP4 ADD MSTORE PUSH2 0x2D61 DUP2 DUP5 PUSH2 0x23CC JUMP JUMPDEST SWAP1 POP SWAP3 SWAP2 POP POP JUMP JUMPDEST PUSH1 0x0 PUSH1 0x40 DUP3 ADD SWAP1 POP PUSH2 0x2D7E PUSH1 0x0 DUP4 ADD DUP6 PUSH2 0x2366 JUMP JUMPDEST DUP2 DUP2 SUB PUSH1 0x20 DUP4 ADD MSTORE PUSH2 0x2D90 DUP2 DUP5 PUSH2 0x23CC JUMP JUMPDEST SWAP1 POP SWAP4 SWAP3 POP POP POP JUMP JUMPDEST PUSH1 0x0 DUP2 SWAP1 POP DUP2 PUSH1 0x0 MSTORE PUSH1 0x20 PUSH1 0x0 KECCAK256 SWAP1 POP SWAP2 SWAP1 POP JUMP JUMPDEST PUSH1 0x0 PUSH1 0x20 PUSH1 0x1F DUP4 ADD DIV SWAP1 POP SWAP2 SWAP1 POP JUMP JUMPDEST PUSH1 0x0 DUP3 DUP3 SHL SWAP1 POP SWAP3 SWAP2 POP POP JUMP JUMPDEST PUSH1 0x0 PUSH1 0x8 DUP4 MUL PUSH2 0x2DFB PUSH32 0xFFFFFFFFFFFFFFFFFFFFFFFFFFFFFFFFFFFFFFFFFFFFFFFFFFFFFFFFFFFFFFFF DUP3 PUSH2 0x2DBE JUMP JUMPDEST PUSH2 0x2E05 DUP7 DUP4 PUSH2 0x2DBE JUMP JUMPDEST SWAP6 POP DUP1 NOT DUP5 AND SWAP4 POP DUP1 DUP7 AND DUP5 OR SWAP3 POP POP POP SWAP4 SWAP3 POP POP POP JUMP JUMPDEST PUSH1 0x0 DUP2 SWAP1 POP SWAP2 SWAP1 POP JUMP JUMPDEST PUSH1 0x0 PUSH2 0x2E42 PUSH2 0x2E3D PUSH2 0x2E38 DUP5 PUSH2 0x22D1 JUMP JUMPDEST PUSH2 0x2E1D JUMP JUMPDEST PUSH2 0x22D1 JUMP JUMPDEST SWAP1 POP SWAP2 SWAP1 POP JUMP JUMPDEST PUSH1 0x0 DUP2 SWAP1 POP SWAP2 SWAP1 POP JUMP JUMPDEST PUSH2 0x2E5C DUP4 PUSH2 0x2E27 JUMP JUMPDEST PUSH2 0x2E70 PUSH2 0x2E68 DUP3 PUSH2 0x2E49 JUMP JUMPDEST DUP5 DUP5 SLOAD PUSH2 0x2DCB JUMP JUMPDEST DUP3 SSTORE POP POP POP POP JUMP JUMPDEST PUSH1 0x0 SWAP1 JUMP JUMPDEST PUSH2 0x2E85 PUSH2 0x2E78 JUMP JUMPDEST PUSH2 0x2E90 DUP2 DUP5 DUP5 PUSH2 0x2E53 JUMP JUMPDEST POP POP POP JUMP JUMPDEST JUMPDEST DUP2 DUP2 LT ISZERO PUSH2 0x2EB4 JUMPI PUSH2 0x2EA9 PUSH1 0x0 DUP3 PUSH2 0x2E7D JUMP JUMPDEST PUSH1 0x1 DUP2 ADD SWAP1 POP PUSH2 0x2E96 JUMP JUMPDEST POP POP JUMP JUMPDEST PUSH1 0x1F DUP3 GT ISZERO PUSH2 0x2EF9 JUMPI PUSH2 0x2ECA DUP2 PUSH2 0x2D99 JUMP JUMPDEST PUSH2 0x2ED3 DUP5 PUSH2 0x2DAE JUMP JUMPDEST DUP2 ADD PUSH1 0x20 DUP6 LT ISZERO PUSH2 0x2EE2 JUMPI DUP2 SWAP1 POP JUMPDEST PUSH2 0x2EF6 PUSH2 0x2EEE DUP6 PUSH2 0x2DAE JUMP JUMPDEST DUP4 ADD DUP3 PUSH2 0x2E95 JUMP JUMPDEST POP POP JUMPDEST POP POP POP JUMP JUMPDEST PUSH1 0x0 DUP3 DUP3 SHR SWAP1 POP SWAP3 SWAP2 POP POP JUMP JUMPDEST PUSH1 0x0 PUSH2 0x2F1C PUSH1 0x0 NOT DUP5 PUSH1 0x8 MUL PUSH2 0x2EFE JUMP JUMPDEST NOT DUP1 DUP4 AND SWAP2 POP POP SWAP3 SWAP2 POP POP JUMP JUMPDEST PUSH1 0x0 PUSH2 0x2F35 DUP4 DUP4 PUSH2 0x2F0B JUMP JUMPDEST SWAP2 POP DUP3 PUSH1 0x2 MUL DUP3 OR SWAP1 POP SWAP3 SWAP2 POP POP JUMP JUMPDEST PUSH2 0x2F4E DUP3 PUSH2 0x2375 JUMP JUMPDEST PUSH8 0xFFFFFFFFFFFFFFFF DUP2 GT ISZERO PUSH2 0x2F67 JUMPI PUSH2 0x2F66 PUSH2 0x2448 JUMP JUMPDEST JUMPDEST PUSH2 0x2F71 DUP3 SLOAD PUSH2 0x2B7D JUMP JUMPDEST PUSH2 0x2F7C DUP3 DUP3 DUP6 PUSH2 0x2EB8 JUMP JUMPDEST PUSH1 0x0 PUSH1 0x20 SWAP1 POP PUSH1 0x1F DUP4 GT PUSH1 0x1 DUP2 EQ PUSH2 0x2FAF JUMPI PUSH1 0x0 DUP5 ISZERO PUSH2 0x2F9D JUMPI DUP3 DUP8 ADD MLOAD SWAP1 POP JUMPDEST PUSH2 0x2FA7 DUP6 DUP3 PUSH2 0x2F29 JUMP JUMPDEST DUP7 SSTORE POP PUSH2 0x300F JUMP JUMPDEST PUSH1 0x1F NOT DUP5 AND PUSH2 0x2FBD DUP7 PUSH2 0x2D99 JUMP JUMPDEST PUSH1 0x0 JUMPDEST DUP3 DUP2 LT ISZERO PUSH2 0x2FE5 JUMPI DUP5 DUP10 ADD MLOAD DUP3 SSTORE PUSH1 0x1 DUP3 ADD SWAP2 POP PUSH1 0x20 DUP6 ADD SWAP5 POP PUSH1 0x20 DUP2 ADD SWAP1 POP PUSH2 0x2FC0 JUMP JUMPDEST DUP7 DUP4 LT ISZERO PUSH2 0x3002 JUMPI DUP5 DUP10 ADD MLOAD PUSH2 0x2FFE PUSH1 0x1F DUP10 AND DUP3 PUSH2 0x2F0B JUMP JUMPDEST DUP4 SSTORE POP JUMPDEST PUSH1 0x1 PUSH1 0x2 DUP9 MUL ADD DUP9 SSTORE POP POP POP JUMPDEST POP POP POP POP POP POP JUMP JUMPDEST PUSH1 0x0 PUSH2 0x3022 DUP3 PUSH2 0x22D1 JUMP JUMPDEST SWAP2 POP PUSH2 0x302D DUP4 PUSH2 0x22D1 JUMP JUMPDEST SWAP3 POP DUP3 DUP3 SUB SWAP1 POP DUP2 DUP2 GT ISZERO PUSH2 0x3045 JUMPI PUSH2 0x3044 PUSH2 0x2BDD JUMP JUMPDEST JUMPDEST SWAP3 SWAP2 POP POP JUMP JUMPDEST PUSH32 0x4E487B7100000000000000000000000000000000000000000000000000000000 PUSH1 0x0 MSTORE PUSH1 0x31 PUSH1 0x4 MSTORE PUSH1 0x24 PUSH1 0x0 REVERT INVALID LOG2 PUSH5 0x6970667358 0x22 SLT KECCAK256 0x1E 0xF9 PUSH11 0x6F727C5753DFEFDEE2006A 0xCB SLOAD 0xF9 SWAP3 PUSH1 0x31 0xF MSTORE8 0xAF 0xB7 NUMBER SMOD DUP12 PUSH20 0x82738A1E64736F6C634300081100330000000000 "
		},
		"gasEstimates": {
			"creation": {
				"codeDepositCost": "2492800",
				"executionCost": "2688",
				"totalCost": "2495488"
			},
			"external": {
				"acceptedShareHolderRequests(uint256)": "infinite",
				"checkRequestsByShareholder(address)": "infinite",
				"checkRequestsForTheSeceret(address[])": "infinite",
				"getContractAddressByName(string)": "infinite",
				"getContractAddressByPublicAddress(address)": "infinite",
				"getRequestAcceptedHoldersList(address)": "infinite",
				"getSecretHolderAddressesCountInAcceptedHoldersList(address)": "infinite",
				"getSecretOwnerAddressesCountInHolderRequests(address)": "infinite",
				"getSecretOwnerAddressesCountInSecretRequests(address[])": "infinite",
				"holderRequests(uint256)": "infinite",
				"isExists(string)": "infinite",
				"makeARequestToBeAShareHolder(address,address)": "infinite",
				"makeARequestToGetShares(string,address)": "infinite",
				"makeSharesAccessibleToTheHolders(address,address,string)": "infinite",
				"myAddressToContractAddressMap(address)": "infinite",
				"register(string,address,address)": "infinite",
				"rejectedShareHolderRequests(uint256)": "infinite",
				"releaseTheSecret(address,string)": "infinite",
				"removeFromHolderRequestList(uint256)": "infinite",
				"respondToBeShareHolder(address,address,bool)": "infinite",
				"sampleNodesMap(string)": "infinite",
				"secretRequests(uint256)": "infinite"
			}
		},
		"methodIdentifiers": {
			"acceptedShareHolderRequests(uint256)": "f9e203c3",
			"checkRequestsByShareholder(address)": "99f8b09f",
			"checkRequestsForTheSeceret(address[])": "c5882344",
			"getContractAddressByName(string)": "82760fca",
			"getContractAddressByPublicAddress(address)": "a5311bcf",
			"getRequestAcceptedHoldersList(address)": "d71e80e3",
			"getSecretHolderAddressesCountInAcceptedHoldersList(address)": "54f5fcba",
			"getSecretOwnerAddressesCountInHolderRequests(address)": "74cf3e51",
			"getSecretOwnerAddressesCountInSecretRequests(address[])": "09da40ae",
			"holderRequests(uint256)": "58d30dbc",
			"isExists(string)": "0d85d839",
			"makeARequestToBeAShareHolder(address,address)": "6e8548bb",
			"makeARequestToGetShares(string,address)": "e7618a0a",
			"makeSharesAccessibleToTheHolders(address,address,string)": "cc2f22f1",
			"myAddressToContractAddressMap(address)": "8f090b91",
			"register(string,address,address)": "7915c069",
			"rejectedShareHolderRequests(uint256)": "3bc358e8",
			"releaseTheSecret(address,string)": "7cbfc58f",
			"removeFromHolderRequestList(uint256)": "ec6ea3aa",
			"respondToBeShareHolder(address,address,bool)": "bc9d6271",
			"sampleNodesMap(string)": "d9857d5f",
			"secretRequests(uint256)": "02edcfa3"
		}
	},
	"abi": [
		{
			"inputs": [
				{
					"internalType": "uint256",
					"name": "",
					"type": "uint256"
				}
			],
			"name": "acceptedShareHolderRequests",
			"outputs": [
				{
					"internalType": "address",
					"name": "secretOwner",
					"type": "address"
				},
				{
					"internalType": "address",
					"name": "shareHolder",
					"type": "address"
				}
			],
			"stateMutability": "view",
			"type": "function"
		},
		{
			"inputs": [
				{
					"internalType": "address",
					"name": "holderAddress",
					"type": "address"
				}
			],
			"name": "checkRequestsByShareholder",
			"outputs": [
				{
					"internalType": "address[]",
					"name": "",
					"type": "address[]"
				}
			],
			"stateMutability": "view",
			"type": "function"
		},
		{
			"inputs": [
				{
					"internalType": "address[]",
					"name": "secretOwners",
					"type": "address[]"
				}
			],
			"name": "checkRequestsForTheSeceret",
			"outputs": [
				{
					"internalType": "address[]",
					"name": "",
					"type": "address[]"
				}
			],
			"stateMutability": "view",
			"type": "function"
		},
		{
			"inputs": [
				{
					"internalType": "string",
					"name": "name",
					"type": "string"
				}
			],
			"name": "getContractAddressByName",
			"outputs": [
				{
					"components": [
						{
							"internalType": "address",
							"name": "publicAddress",
							"type": "address"
						},
						{
							"internalType": "address",
							"name": "contractAddress",
							"type": "address"
						}
					],
					"internalType": "struct PublicContract.SampleNode",
					"name": "",
					"type": "tuple"
				}
			],
			"stateMutability": "view",
			"type": "function"
		},
		{
			"inputs": [
				{
					"internalType": "address",
					"name": "publicAddress",
					"type": "address"
				}
			],
			"name": "getContractAddressByPublicAddress",
			"outputs": [
				{
					"internalType": "address",
					"name": "",
					"type": "address"
				}
			],
			"stateMutability": "view",
			"type": "function"
		},
		{
			"inputs": [
				{
					"internalType": "address",
					"name": "secretOwner",
					"type": "address"
				}
			],
			"name": "getRequestAcceptedHoldersList",
			"outputs": [
				{
					"internalType": "address[]",
					"name": "",
					"type": "address[]"
				}
			],
			"stateMutability": "view",
			"type": "function"
		},
		{
			"inputs": [
				{
					"internalType": "address",
					"name": "ownerAddress",
					"type": "address"
				}
			],
			"name": "getSecretHolderAddressesCountInAcceptedHoldersList",
			"outputs": [
				{
					"internalType": "uint256",
					"name": "",
					"type": "uint256"
				}
			],
			"stateMutability": "view",
			"type": "function"
		},
		{
			"inputs": [
				{
					"internalType": "address",
					"name": "holderAddress",
					"type": "address"
				}
			],
			"name": "getSecretOwnerAddressesCountInHolderRequests",
			"outputs": [
				{
					"internalType": "uint256",
					"name": "",
					"type": "uint256"
				}
			],
			"stateMutability": "view",
			"type": "function"
		},
		{
			"inputs": [
				{
					"internalType": "address[]",
					"name": "secretOwners",
					"type": "address[]"
				}
			],
			"name": "getSecretOwnerAddressesCountInSecretRequests",
			"outputs": [
				{
					"internalType": "uint256",
					"name": "",
					"type": "uint256"
				}
			],
			"stateMutability": "view",
			"type": "function"
		},
		{
			"inputs": [
				{
					"internalType": "uint256",
					"name": "",
					"type": "uint256"
				}
			],
			"name": "holderRequests",
			"outputs": [
				{
					"internalType": "address",
					"name": "secretOwner",
					"type": "address"
				},
				{
					"internalType": "address",
					"name": "shareHolder",
					"type": "address"
				}
			],
			"stateMutability": "view",
			"type": "function"
		},
		{
			"inputs": [
				{
					"internalType": "string",
					"name": "name",
					"type": "string"
				}
			],
			"name": "isExists",
			"outputs": [
				{
					"internalType": "bool",
					"name": "",
					"type": "bool"
				}
			],
			"stateMutability": "view",
			"type": "function"
		},
		{
			"inputs": [
				{
					"internalType": "address",
					"name": "secretOwner",
					"type": "address"
				},
				{
					"internalType": "address",
					"name": "holder",
					"type": "address"
				}
			],
			"name": "makeARequestToBeAShareHolder",
			"outputs": [],
			"stateMutability": "nonpayable",
			"type": "function"
		},
		{
			"inputs": [
				{
					"internalType": "string",
					"name": "name",
					"type": "string"
				},
				{
					"internalType": "address",
					"name": "requesterAddress",
					"type": "address"
				}
			],
			"name": "makeARequestToGetShares",
			"outputs": [],
			"stateMutability": "nonpayable",
			"type": "function"
		},
		{
			"inputs": [
				{
					"internalType": "address",
					"name": "secretOwner",
					"type": "address"
				},
				{
					"internalType": "address",
					"name": "holder",
					"type": "address"
				},
				{
					"internalType": "string",
					"name": "sharedString",
					"type": "string"
				}
			],
			"name": "makeSharesAccessibleToTheHolders",
			"outputs": [],
			"stateMutability": "nonpayable",
			"type": "function"
		},
		{
			"inputs": [
				{
					"internalType": "address",
					"name": "",
					"type": "address"
				}
			],
			"name": "myAddressToContractAddressMap",
			"outputs": [
				{
					"internalType": "address",
					"name": "",
					"type": "address"
				}
			],
			"stateMutability": "view",
			"type": "function"
		},
		{
			"inputs": [
				{
					"internalType": "string",
					"name": "name",
					"type": "string"
				},
				{
					"internalType": "address",
					"name": "publicAddress",
					"type": "address"
				},
				{
					"internalType": "address",
					"name": "myContractAddress",
					"type": "address"
				}
			],
			"name": "register",
			"outputs": [],
			"stateMutability": "nonpayable",
			"type": "function"
		},
		{
			"inputs": [
				{
					"internalType": "uint256",
					"name": "",
					"type": "uint256"
				}
			],
			"name": "rejectedShareHolderRequests",
			"outputs": [
				{
					"internalType": "address",
					"name": "secretOwner",
					"type": "address"
				},
				{
					"internalType": "address",
					"name": "shareHolder",
					"type": "address"
				}
			],
			"stateMutability": "view",
			"type": "function"
		},
		{
			"inputs": [
				{
					"internalType": "address",
					"name": "secretOwner",
					"type": "address"
				},
				{
					"internalType": "string",
					"name": "sharedString",
					"type": "string"
				}
			],
			"name": "releaseTheSecret",
			"outputs": [],
			"stateMutability": "nonpayable",
			"type": "function"
		},
		{
			"inputs": [
				{
					"internalType": "uint256",
					"name": "index",
					"type": "uint256"
				}
			],
			"name": "removeFromHolderRequestList",
			"outputs": [],
			"stateMutability": "nonpayable",
			"type": "function"
		},
		{
			"inputs": [
				{
					"internalType": "address",
					"name": "shareHolder",
					"type": "address"
				},
				{
					"internalType": "address",
					"name": "secretOwner",
					"type": "address"
				},
				{
					"internalType": "bool",
					"name": "acceptance",
					"type": "bool"
				}
			],
			"name": "respondToBeShareHolder",
			"outputs": [],
			"stateMutability": "nonpayable",
			"type": "function"
		},
		{
			"inputs": [
				{
					"internalType": "string",
					"name": "",
					"type": "string"
				}
			],
			"name": "sampleNodesMap",
			"outputs": [
				{
					"internalType": "address",
					"name": "publicAddress",
					"type": "address"
				},
				{
					"internalType": "address",
					"name": "contractAddress",
					"type": "address"
				}
			],
			"stateMutability": "view",
			"type": "function"
		},
		{
			"inputs": [
				{
					"internalType": "uint256",
					"name": "",
					"type": "uint256"
				}
			],
			"name": "secretRequests",
			"outputs": [
				{
					"internalType": "address",
					"name": "requesterAddress",
					"type": "address"
				},
				{
					"internalType": "string",
					"name": "name",
					"type": "string"
				},
				{
					"internalType": "address",
					"name": "ownerAddress",
					"type": "address"
				}
			],
			"stateMutability": "view",
			"type": "function"
		}
	]
}